{
  "_format": "hh-sol-artifact-1",
  "contractName": "Owners",
  "sourceName": "contracts/Owners.sol",
  "abi": [
    {
      "inputs": [],
      "stateMutability": "nonpayable",
      "type": "constructor"
    },
    {
      "inputs": [
        {
          "internalType": "address",
          "name": "_new",
          "type": "address"
        },
        {
          "internalType": "bool",
          "name": "_change",
          "type": "bool"
        }
      ],
      "name": "addOwner",
      "outputs": [],
      "stateMutability": "nonpayable",
      "type": "function"
    },
    {
      "inputs": [],
      "name": "getOwnersSize",
      "outputs": [
        {
          "internalType": "uint256",
          "name": "",
          "type": "uint256"
        }
      ],
      "stateMutability": "view",
      "type": "function"
    },
    {
      "inputs": [
        {
          "internalType": "address",
          "name": "",
          "type": "address"
        }
      ],
      "name": "isOwner",
      "outputs": [
        {
          "internalType": "bool",
          "name": "",
          "type": "bool"
        }
      ],
      "stateMutability": "view",
      "type": "function"
    },
    {
      "inputs": [
        {
          "internalType": "uint256",
          "name": "",
          "type": "uint256"
        }
      ],
      "name": "owners",
      "outputs": [
        {
          "internalType": "address",
          "name": "",
          "type": "address"
        }
      ],
      "stateMutability": "view",
      "type": "function"
    },
    {
      "inputs": [
        {
          "internalType": "address",
          "name": "_new",
          "type": "address"
        }
      ],
      "name": "removeOwner",
      "outputs": [],
      "stateMutability": "nonpayable",
      "type": "function"
    }
  ],
  "bytecode": "0x608060405234801561001057600080fd5b5060008054600181810183557f290decd9548b62a8d60345a988386fc84ba6bc95484008f6362f93160ef3e56390910180546001600160a01b03191633908117909155825260208190526040909120805460ff1916909117905561071a806100796000396000f3fe608060405234801561001057600080fd5b50600436106100575760003560e01c8063025e7c271461005c5780630c7b1d7b1461008c578063173825d91461009d5780632f54bf6e146100b2578063518e32d3146100e5575b600080fd5b61006f61006a366004610684565b6100f8565b6040516001600160a01b0390911681526020015b60405180910390f35b600054604051908152602001610083565b6100b06100ab366004610629565b610122565b005b6100d56100c0366004610629565b60016020526000908152604090205460ff1681565b6040519015158152602001610083565b6100b06100f336600461064a565b6103f7565b6000818154811061010857600080fd5b6000918252602090912001546001600160a01b0316905081565b336001600160a01b03166000808154811061014d57634e487b7160e01b600052603260045260246000fd5b6000918252602090912001546001600160a01b0316146101af5760405162461bcd60e51b815260206004820152601860248201527727bbb732b9399d1027b7363c9029bab832b91027bbb732b960411b60448201526064015b60405180910390fd5b6001600160a01b03811660009081526001602052604090205460ff1661020b5760405162461bcd60e51b815260206004820152601160248201527027bbb732b9399d102737ba1037bbb732b960791b60448201526064016101a6565b6000808154811061022c57634e487b7160e01b600052603260045260246000fd5b6000918252602090912001546001600160a01b038281169116141561029d5760405162461bcd60e51b815260206004820152602160248201527f4f776e6572733a2043616e6e6f742072656d6f7665207375706572206f776e656044820152603960f91b60648201526084016101a6565b60015b6000548110156103d557816001600160a01b0316600082815481106102d557634e487b7160e01b600052603260045260246000fd5b6000918252602090912001546001600160a01b031614156103c357600080546103009060019061069c565b8154811061031e57634e487b7160e01b600052603260045260246000fd5b600091825260208220015481546001600160a01b0390911691908390811061035657634e487b7160e01b600052603260045260246000fd5b6000918252602082200180546001600160a01b0319166001600160a01b03939093169290921790915580548061039c57634e487b7160e01b600052603160045260246000fd5b600082815260209020810160001990810180546001600160a01b03191690550190556103d5565b806103cd816106b3565b9150506102a0565b506001600160a01b03166000908152600160205260409020805460ff19169055565b336001600160a01b03166000808154811061042257634e487b7160e01b600052603260045260246000fd5b6000918252602090912001546001600160a01b03161461047f5760405162461bcd60e51b815260206004820152601860248201527727bbb732b9399d1027b7363c9029bab832b91027bbb732b960411b60448201526064016101a6565b6001600160a01b03821660009081526001602052604090205460ff16156104e05760405162461bcd60e51b815260206004820152601560248201527427bbb732b9399d1020b63932b0b23c9037bbb732b960591b60448201526064016101a6565b6001600160a01b0382166000908152600160208190526040909120805460ff1916909117905580156105c05760008060008154811061052f57634e487b7160e01b600052603260045260246000fd5b6000918252602080832090910154835460018101855593835290822090920180546001600160a01b0319166001600160a01b03909316929092179091558054839190819061058d57634e487b7160e01b600052603260045260246000fd5b9060005260206000200160006101000a8154816001600160a01b0302191690836001600160a01b03160217905550610609565b600080546001810182559080527f290decd9548b62a8d60345a988386fc84ba6bc95484008f6362f93160ef3e5630180546001600160a01b0319166001600160a01b0384161790555b5050565b80356001600160a01b038116811461062457600080fd5b919050565b60006020828403121561063a578081fd5b6106438261060d565b9392505050565b6000806040838503121561065c578081fd5b6106658361060d565b915060208301358015158114610679578182fd5b809150509250929050565b600060208284031215610695578081fd5b5035919050565b6000828210156106ae576106ae6106ce565b500390565b60006000198214156106c7576106c76106ce565b5060010190565b634e487b7160e01b600052601160045260246000fdfea2646970667358221220ca613ac50f911094e5e71dea558bbf716ddfff882a1ddbca5bc01f96ef8b94dd64736f6c63430008020033",
  "linkReferences": {},
  "deployedLinkReferences": {}
}