{
  "_format": "hh-sol-artifact-1",
  "contractName": "NodeType",
  "sourceName": "contracts/NodeType.sol",
  "abi": [
    {
      "inputs": [
        {
          "internalType": "string",
          "name": "_name",
          "type": "string"
        },
        {
          "internalType": "uint256[]",
          "name": "values",
          "type": "uint256[]"
        },
        {
          "internalType": "address",
          "name": "_handler",
          "type": "address"
        },
        {
          "internalType": "address",
          "name": "_old",
          "type": "address"
        }
      ],
      "stateMutability": "nonpayable",
      "type": "constructor"
    },
    {
      "inputs": [
        {
          "internalType": "string",
          "name": "_name",
          "type": "string"
        },
        {
          "internalType": "uint256",
          "name": "_rate",
          "type": "uint256"
        }
      ],
      "name": "addFeature",
      "outputs": [],
      "stateMutability": "nonpayable",
      "type": "function"
    },
    {
      "inputs": [
        {
          "internalType": "address",
          "name": "_new",
          "type": "address"
        },
        {
          "internalType": "bool",
          "name": "_change",
          "type": "bool"
        }
      ],
      "name": "addOwner",
      "outputs": [],
      "stateMutability": "nonpayable",
      "type": "function"
    },
    {
      "inputs": [
        {
          "internalType": "address",
          "name": "from",
          "type": "address"
        },
        {
          "internalType": "uint256[]",
          "name": "tokenIds",
          "type": "uint256[]"
        }
      ],
      "name": "burnFrom",
      "outputs": [
        {
          "internalType": "uint256",
          "name": "",
          "type": "uint256"
        }
      ],
      "stateMutability": "nonpayable",
      "type": "function"
    },
    {
      "inputs": [
        {
          "internalType": "address",
          "name": "user",
          "type": "address"
        }
      ],
      "name": "calculateUserRewards",
      "outputs": [
        {
          "internalType": "uint256",
          "name": "",
          "type": "uint256"
        },
        {
          "internalType": "uint256",
          "name": "",
          "type": "uint256"
        }
      ],
      "stateMutability": "view",
      "type": "function"
    },
    {
      "inputs": [
        {
          "internalType": "address",
          "name": "user",
          "type": "address"
        },
        {
          "internalType": "uint256[]",
          "name": "tokenIds",
          "type": "uint256[]"
        }
      ],
      "name": "calculateUserRewardsBatch",
      "outputs": [
        {
          "internalType": "uint256[]",
          "name": "",
          "type": "uint256[]"
        },
        {
          "internalType": "uint256[]",
          "name": "",
          "type": "uint256[]"
        }
      ],
      "stateMutability": "view",
      "type": "function"
    },
    {
      "inputs": [],
      "name": "canBeBoostedNftLevelUp",
      "outputs": [
        {
          "internalType": "bool",
          "name": "",
          "type": "bool"
        }
      ],
      "stateMutability": "view",
      "type": "function"
    },
    {
      "inputs": [],
      "name": "canBeBoostedNftLucky",
      "outputs": [
        {
          "internalType": "bool",
          "name": "",
          "type": "bool"
        }
      ],
      "stateMutability": "view",
      "type": "function"
    },
    {
      "inputs": [],
      "name": "canBeBoostedNftMigration",
      "outputs": [
        {
          "internalType": "bool",
          "name": "",
          "type": "bool"
        }
      ],
      "stateMutability": "view",
      "type": "function"
    },
    {
      "inputs": [],
      "name": "canBeBoostedNftPending",
      "outputs": [
        {
          "internalType": "bool",
          "name": "",
          "type": "bool"
        }
      ],
      "stateMutability": "view",
      "type": "function"
    },
    {
      "inputs": [],
      "name": "canBeBoostedNftToken",
      "outputs": [
        {
          "internalType": "bool",
          "name": "",
          "type": "bool"
        }
      ],
      "stateMutability": "view",
      "type": "function"
    },
    {
      "inputs": [
        {
          "internalType": "address",
          "name": "user",
          "type": "address"
        }
      ],
      "name": "claimRewardsAll",
      "outputs": [
        {
          "internalType": "uint256",
          "name": "",
          "type": "uint256"
        },
        {
          "internalType": "uint256",
          "name": "",
          "type": "uint256"
        }
      ],
      "stateMutability": "nonpayable",
      "type": "function"
    },
    {
      "inputs": [
        {
          "internalType": "address",
          "name": "user",
          "type": "address"
        },
        {
          "internalType": "uint256[]",
          "name": "tokenIds",
          "type": "uint256[]"
        }
      ],
      "name": "claimRewardsBatch",
      "outputs": [
        {
          "internalType": "uint256",
          "name": "",
          "type": "uint256"
        },
        {
          "internalType": "uint256",
          "name": "",
          "type": "uint256"
        }
      ],
      "stateMutability": "nonpayable",
      "type": "function"
    },
    {
      "inputs": [],
      "name": "claimTaxRoi",
      "outputs": [
        {
          "internalType": "uint256",
          "name": "",
          "type": "uint256"
        }
      ],
      "stateMutability": "view",
      "type": "function"
    },
    {
      "inputs": [],
      "name": "claimTime",
      "outputs": [
        {
          "internalType": "uint256",
          "name": "",
          "type": "uint256"
        }
      ],
      "stateMutability": "view",
      "type": "function"
    },
    {
      "inputs": [],
      "name": "claimTimeRate",
      "outputs": [
        {
          "internalType": "uint256",
          "name": "",
          "type": "uint256"
        }
      ],
      "stateMutability": "view",
      "type": "function"
    },
    {
      "inputs": [],
      "name": "claimTimeReference",
      "outputs": [
        {
          "internalType": "uint256",
          "name": "",
          "type": "uint256"
        }
      ],
      "stateMutability": "view",
      "type": "function"
    },
    {
      "inputs": [
        {
          "internalType": "address",
          "name": "user",
          "type": "address"
        },
        {
          "internalType": "uint256",
          "name": "isBoostedAirDropRate",
          "type": "uint256"
        },
        {
          "internalType": "uint256[]",
          "name": "tokenIds",
          "type": "uint256[]"
        },
        {
          "internalType": "bool[]",
          "name": "areBoostedNft",
          "type": "bool[]"
        },
        {
          "internalType": "bool",
          "name": "isBoostedToken",
          "type": "bool"
        },
        {
          "internalType": "string",
          "name": "feature",
          "type": "string"
        }
      ],
      "name": "createNodeCustom",
      "outputs": [],
      "stateMutability": "nonpayable",
      "type": "function"
    },
    {
      "inputs": [
        {
          "internalType": "address",
          "name": "user",
          "type": "address"
        },
        {
          "internalType": "uint256[]",
          "name": "tokenIds",
          "type": "uint256[]"
        },
        {
          "internalType": "string",
          "name": "feature",
          "type": "string"
        }
      ],
      "name": "createNodeWithLuckyBox",
      "outputs": [],
      "stateMutability": "nonpayable",
      "type": "function"
    },
    {
      "inputs": [
        {
          "internalType": "address",
          "name": "user",
          "type": "address"
        },
        {
          "internalType": "uint256[]",
          "name": "tokenIds",
          "type": "uint256[]"
        }
      ],
      "name": "createNodesLevelUp",
      "outputs": [
        {
          "internalType": "uint256",
          "name": "",
          "type": "uint256"
        }
      ],
      "stateMutability": "nonpayable",
      "type": "function"
    },
    {
      "inputs": [
        {
          "internalType": "address",
          "name": "user",
          "type": "address"
        },
        {
          "internalType": "uint256[]",
          "name": "tokenIds",
          "type": "uint256[]"
        }
      ],
      "name": "createNodesMigration",
      "outputs": [],
      "stateMutability": "nonpayable",
      "type": "function"
    },
    {
      "inputs": [
        {
          "internalType": "address",
          "name": "user",
          "type": "address"
        },
        {
          "internalType": "uint256[]",
          "name": "tokenIds",
          "type": "uint256[]"
        }
      ],
      "name": "createNodesWithPendings",
      "outputs": [
        {
          "internalType": "uint256",
          "name": "",
          "type": "uint256"
        }
      ],
      "stateMutability": "nonpayable",
      "type": "function"
    },
    {
      "inputs": [
        {
          "internalType": "address",
          "name": "user",
          "type": "address"
        },
        {
          "internalType": "uint256[]",
          "name": "tokenIds",
          "type": "uint256[]"
        }
      ],
      "name": "createNodesWithTokens",
      "outputs": [
        {
          "internalType": "uint256",
          "name": "",
          "type": "uint256"
        }
      ],
      "stateMutability": "nonpayable",
      "type": "function"
    },
    {
      "inputs": [
        {
          "internalType": "string",
          "name": "",
          "type": "string"
        }
      ],
      "name": "featureCount",
      "outputs": [
        {
          "internalType": "uint256",
          "name": "",
          "type": "uint256"
        }
      ],
      "stateMutability": "view",
      "type": "function"
    },
    {
      "inputs": [
        {
          "internalType": "string",
          "name": "",
          "type": "string"
        }
      ],
      "name": "featureToBoostRate",
      "outputs": [
        {
          "internalType": "uint256",
          "name": "",
          "type": "uint256"
        }
      ],
      "stateMutability": "view",
      "type": "function"
    },
    {
      "inputs": [
        {
          "internalType": "uint256",
          "name": "tokenId",
          "type": "uint256"
        }
      ],
      "name": "getAttribute",
      "outputs": [
        {
          "internalType": "string",
          "name": "",
          "type": "string"
        }
      ],
      "stateMutability": "view",
      "type": "function"
    },
    {
      "inputs": [
        {
          "internalType": "uint256",
          "name": "iStart",
          "type": "uint256"
        },
        {
          "internalType": "uint256",
          "name": "iEnd",
          "type": "uint256"
        }
      ],
      "name": "getFeaturesBetweenIndexes",
      "outputs": [
        {
          "internalType": "string[]",
          "name": "",
          "type": "string[]"
        }
      ],
      "stateMutability": "view",
      "type": "function"
    },
    {
      "inputs": [],
      "name": "getFeaturesSize",
      "outputs": [
        {
          "internalType": "uint256",
          "name": "",
          "type": "uint256"
        }
      ],
      "stateMutability": "view",
      "type": "function"
    },
    {
      "inputs": [
        {
          "internalType": "uint256",
          "name": "tokenId",
          "type": "uint256"
        }
      ],
      "name": "getNodeFromTokenId",
      "outputs": [
        {
          "components": [
            {
              "internalType": "address",
              "name": "owner",
              "type": "address"
            },
            {
              "internalType": "uint256",
              "name": "creationTime",
              "type": "uint256"
            },
            {
              "internalType": "uint256",
              "name": "lastClaimTime",
              "type": "uint256"
            },
            {
              "internalType": "uint256",
              "name": "obtainingTime",
              "type": "uint256"
            },
            {
              "internalType": "uint256",
              "name": "isBoostedAirDropRate",
              "type": "uint256"
            },
            {
              "internalType": "bool",
              "name": "isBoostedNft",
              "type": "bool"
            },
            {
              "internalType": "bool",
              "name": "isBoostedToken",
              "type": "bool"
            },
            {
              "internalType": "string",
              "name": "feature",
              "type": "string"
            }
          ],
          "internalType": "struct NodeType.Node",
          "name": "",
          "type": "tuple"
        }
      ],
      "stateMutability": "view",
      "type": "function"
    },
    {
      "inputs": [
        {
          "internalType": "uint256",
          "name": "iStart",
          "type": "uint256"
        },
        {
          "internalType": "uint256",
          "name": "iEnd",
          "type": "uint256"
        }
      ],
      "name": "getNodeOwnersBetweenIndexes",
      "outputs": [
        {
          "internalType": "address[]",
          "name": "",
          "type": "address[]"
        }
      ],
      "stateMutability": "view",
      "type": "function"
    },
    {
      "inputs": [],
      "name": "getNodeOwnersSize",
      "outputs": [
        {
          "internalType": "uint256",
          "name": "",
          "type": "uint256"
        }
      ],
      "stateMutability": "view",
      "type": "function"
    },
    {
      "inputs": [
        {
          "internalType": "address",
          "name": "user",
          "type": "address"
        }
      ],
      "name": "getNodesCountLevelUpOf",
      "outputs": [
        {
          "internalType": "uint256",
          "name": "",
          "type": "uint256"
        }
      ],
      "stateMutability": "view",
      "type": "function"
    },
    {
      "inputs": [
        {
          "internalType": "address",
          "name": "user",
          "type": "address"
        }
      ],
      "name": "getNodesCountPendingOf",
      "outputs": [
        {
          "internalType": "uint256",
          "name": "",
          "type": "uint256"
        }
      ],
      "stateMutability": "view",
      "type": "function"
    },
    {
      "inputs": [
        {
          "internalType": "address",
          "name": "user",
          "type": "address"
        },
        {
          "internalType": "uint256",
          "name": "iStart",
          "type": "uint256"
        },
        {
          "internalType": "uint256",
          "name": "iEnd",
          "type": "uint256"
        }
      ],
      "name": "getNodesOfBetweenIndexes",
      "outputs": [
        {
          "components": [
            {
              "internalType": "address",
              "name": "owner",
              "type": "address"
            },
            {
              "internalType": "uint256",
              "name": "creationTime",
              "type": "uint256"
            },
            {
              "internalType": "uint256",
              "name": "lastClaimTime",
              "type": "uint256"
            },
            {
              "internalType": "uint256",
              "name": "obtainingTime",
              "type": "uint256"
            },
            {
              "internalType": "uint256",
              "name": "isBoostedAirDropRate",
              "type": "uint256"
            },
            {
              "internalType": "bool",
              "name": "isBoostedNft",
              "type": "bool"
            },
            {
              "internalType": "bool",
              "name": "isBoostedToken",
              "type": "bool"
            },
            {
              "internalType": "string",
              "name": "feature",
              "type": "string"
            }
          ],
          "internalType": "struct NodeType.Node[]",
          "name": "",
          "type": "tuple[]"
        }
      ],
      "stateMutability": "view",
      "type": "function"
    },
    {
      "inputs": [],
      "name": "getOwnersSize",
      "outputs": [
        {
          "internalType": "uint256",
          "name": "",
          "type": "uint256"
        }
      ],
      "stateMutability": "view",
      "type": "function"
    },
    {
      "inputs": [
        {
          "internalType": "address",
          "name": "user",
          "type": "address"
        },
        {
          "internalType": "uint256",
          "name": "iStart",
          "type": "uint256"
        },
        {
          "internalType": "uint256",
          "name": "iEnd",
          "type": "uint256"
        }
      ],
      "name": "getTimeRoiOfBetweenIndexes",
      "outputs": [
        {
          "internalType": "uint256[]",
          "name": "",
          "type": "uint256[]"
        }
      ],
      "stateMutability": "view",
      "type": "function"
    },
    {
      "inputs": [
        {
          "internalType": "address",
          "name": "user",
          "type": "address"
        },
        {
          "internalType": "uint256",
          "name": "iStart",
          "type": "uint256"
        },
        {
          "internalType": "uint256",
          "name": "iEnd",
          "type": "uint256"
        }
      ],
      "name": "getTokenIdsOfBetweenIndexes",
      "outputs": [
        {
          "internalType": "uint256[]",
          "name": "",
          "type": "uint256[]"
        }
      ],
      "stateMutability": "view",
      "type": "function"
    },
    {
      "inputs": [
        {
          "internalType": "address",
          "name": "user",
          "type": "address"
        }
      ],
      "name": "getTotalNodesNumberOf",
      "outputs": [
        {
          "internalType": "uint256",
          "name": "",
          "type": "uint256"
        }
      ],
      "stateMutability": "view",
      "type": "function"
    },
    {
      "inputs": [],
      "name": "globalTax",
      "outputs": [
        {
          "internalType": "uint256",
          "name": "",
          "type": "uint256"
        }
      ],
      "stateMutability": "view",
      "type": "function"
    },
    {
      "inputs": [],
      "name": "handler",
      "outputs": [
        {
          "internalType": "address",
          "name": "",
          "type": "address"
        }
      ],
      "stateMutability": "view",
      "type": "function"
    },
    {
      "inputs": [],
      "name": "isBoostedNftProbability",
      "outputs": [
        {
          "internalType": "uint256",
          "name": "",
          "type": "uint256"
        }
      ],
      "stateMutability": "view",
      "type": "function"
    },
    {
      "inputs": [],
      "name": "isBoostedNftRate",
      "outputs": [
        {
          "internalType": "uint256",
          "name": "",
          "type": "uint256"
        }
      ],
      "stateMutability": "view",
      "type": "function"
    },
    {
      "inputs": [],
      "name": "isBoostedTokenLevelUp",
      "outputs": [
        {
          "internalType": "bool",
          "name": "",
          "type": "bool"
        }
      ],
      "stateMutability": "view",
      "type": "function"
    },
    {
      "inputs": [],
      "name": "isBoostedTokenLucky",
      "outputs": [
        {
          "internalType": "bool",
          "name": "",
          "type": "bool"
        }
      ],
      "stateMutability": "view",
      "type": "function"
    },
    {
      "inputs": [],
      "name": "isBoostedTokenMigration",
      "outputs": [
        {
          "internalType": "bool",
          "name": "",
          "type": "bool"
        }
      ],
      "stateMutability": "view",
      "type": "function"
    },
    {
      "inputs": [],
      "name": "isBoostedTokenPending",
      "outputs": [
        {
          "internalType": "bool",
          "name": "",
          "type": "bool"
        }
      ],
      "stateMutability": "view",
      "type": "function"
    },
    {
      "inputs": [],
      "name": "isBoostedTokenRate",
      "outputs": [
        {
          "internalType": "uint256",
          "name": "",
          "type": "uint256"
        }
      ],
      "stateMutability": "view",
      "type": "function"
    },
    {
      "inputs": [],
      "name": "isBoostedTokenToken",
      "outputs": [
        {
          "internalType": "bool",
          "name": "",
          "type": "bool"
        }
      ],
      "stateMutability": "view",
      "type": "function"
    },
    {
      "inputs": [
        {
          "internalType": "address",
          "name": "",
          "type": "address"
        }
      ],
      "name": "isOwner",
      "outputs": [
        {
          "internalType": "bool",
          "name": "",
          "type": "bool"
        }
      ],
      "stateMutability": "view",
      "type": "function"
    },
    {
      "inputs": [],
      "name": "maxCount",
      "outputs": [
        {
          "internalType": "uint256",
          "name": "",
          "type": "uint256"
        }
      ],
      "stateMutability": "view",
      "type": "function"
    },
    {
      "inputs": [],
      "name": "maxCreationPendingTotal",
      "outputs": [
        {
          "internalType": "uint256",
          "name": "",
          "type": "uint256"
        }
      ],
      "stateMutability": "view",
      "type": "function"
    },
    {
      "inputs": [],
      "name": "maxCreationPendingUser",
      "outputs": [
        {
          "internalType": "uint256",
          "name": "",
          "type": "uint256"
        }
      ],
      "stateMutability": "view",
      "type": "function"
    },
    {
      "inputs": [],
      "name": "maxLevelUpTotal",
      "outputs": [
        {
          "internalType": "uint256",
          "name": "",
          "type": "uint256"
        }
      ],
      "stateMutability": "view",
      "type": "function"
    },
    {
      "inputs": [],
      "name": "maxLevelUpUser",
      "outputs": [
        {
          "internalType": "uint256",
          "name": "",
          "type": "uint256"
        }
      ],
      "stateMutability": "view",
      "type": "function"
    },
    {
      "inputs": [],
      "name": "maxMultiClaim",
      "outputs": [
        {
          "internalType": "uint256",
          "name": "",
          "type": "uint256"
        }
      ],
      "stateMutability": "view",
      "type": "function"
    },
    {
      "inputs": [],
      "name": "maxMultiObtaining",
      "outputs": [
        {
          "internalType": "uint256",
          "name": "",
          "type": "uint256"
        }
      ],
      "stateMutability": "view",
      "type": "function"
    },
    {
      "inputs": [],
      "name": "maxUser",
      "outputs": [
        {
          "internalType": "uint256",
          "name": "",
          "type": "uint256"
        }
      ],
      "stateMutability": "view",
      "type": "function"
    },
    {
      "inputs": [],
      "name": "name",
      "outputs": [
        {
          "internalType": "string",
          "name": "",
          "type": "string"
        }
      ],
      "stateMutability": "view",
      "type": "function"
    },
    {
      "inputs": [],
      "name": "noClaimRewardAmount",
      "outputs": [
        {
          "internalType": "uint256",
          "name": "",
          "type": "uint256"
        }
      ],
      "stateMutability": "view",
      "type": "function"
    },
    {
      "inputs": [],
      "name": "noClaimTimeReference",
      "outputs": [
        {
          "internalType": "uint256",
          "name": "",
          "type": "uint256"
        }
      ],
      "stateMutability": "view",
      "type": "function"
    },
    {
      "inputs": [
        {
          "internalType": "uint256",
          "name": "",
          "type": "uint256"
        }
      ],
      "name": "nodeOwners",
      "outputs": [
        {
          "internalType": "address",
          "name": "",
          "type": "address"
        }
      ],
      "stateMutability": "view",
      "type": "function"
    },
    {
      "inputs": [
        {
          "internalType": "address",
          "name": "",
          "type": "address"
        }
      ],
      "name": "nodeOwnersInserted",
      "outputs": [
        {
          "internalType": "bool",
          "name": "",
          "type": "bool"
        }
      ],
      "stateMutability": "view",
      "type": "function"
    },
    {
      "inputs": [],
      "name": "obtainingTimeRate",
      "outputs": [
        {
          "internalType": "uint256",
          "name": "",
          "type": "uint256"
        }
      ],
      "stateMutability": "view",
      "type": "function"
    },
    {
      "inputs": [],
      "name": "obtainingTimeReference",
      "outputs": [
        {
          "internalType": "uint256",
          "name": "",
          "type": "uint256"
        }
      ],
      "stateMutability": "view",
      "type": "function"
    },
    {
      "inputs": [],
      "name": "old",
      "outputs": [
        {
          "internalType": "address",
          "name": "",
          "type": "address"
        }
      ],
      "stateMutability": "view",
      "type": "function"
    },
    {
      "inputs": [],
      "name": "openCreateNodesLevelUp",
      "outputs": [
        {
          "internalType": "bool",
          "name": "",
          "type": "bool"
        }
      ],
      "stateMutability": "view",
      "type": "function"
    },
    {
      "inputs": [],
      "name": "openCreateNodesMigration",
      "outputs": [
        {
          "internalType": "bool",
          "name": "",
          "type": "bool"
        }
      ],
      "stateMutability": "view",
      "type": "function"
    },
    {
      "inputs": [],
      "name": "openCreateNodesWithLuckyBoxes",
      "outputs": [
        {
          "internalType": "bool",
          "name": "",
          "type": "bool"
        }
      ],
      "stateMutability": "view",
      "type": "function"
    },
    {
      "inputs": [],
      "name": "openCreateNodesWithPending",
      "outputs": [
        {
          "internalType": "bool",
          "name": "",
          "type": "bool"
        }
      ],
      "stateMutability": "view",
      "type": "function"
    },
    {
      "inputs": [],
      "name": "openCreateNodesWithTokens",
      "outputs": [
        {
          "internalType": "bool",
          "name": "",
          "type": "bool"
        }
      ],
      "stateMutability": "view",
      "type": "function"
    },
    {
      "inputs": [
        {
          "internalType": "uint256",
          "name": "",
          "type": "uint256"
        }
      ],
      "name": "owners",
      "outputs": [
        {
          "internalType": "address",
          "name": "",
          "type": "address"
        }
      ],
      "stateMutability": "view",
      "type": "function"
    },
    {
      "inputs": [
        {
          "internalType": "address",
          "name": "",
          "type": "address"
        }
      ],
      "name": "ownersMigrated",
      "outputs": [
        {
          "internalType": "uint256",
          "name": "",
          "type": "uint256"
        }
      ],
      "stateMutability": "view",
      "type": "function"
    },
    {
      "inputs": [],
      "name": "price",
      "outputs": [
        {
          "internalType": "uint256",
          "name": "",
          "type": "uint256"
        }
      ],
      "stateMutability": "view",
      "type": "function"
    },
    {
      "inputs": [
        {
          "internalType": "address",
          "name": "_new",
          "type": "address"
        }
      ],
      "name": "removeOwner",
      "outputs": [],
      "stateMutability": "nonpayable",
      "type": "function"
    },
    {
      "inputs": [],
      "name": "rewardAmount",
      "outputs": [
        {
          "internalType": "uint256",
          "name": "",
          "type": "uint256"
        }
      ],
      "stateMutability": "view",
      "type": "function"
    },
    {
      "inputs": [
        {
          "internalType": "uint256",
          "name": "_price",
          "type": "uint256"
        },
        {
          "internalType": "uint256",
          "name": "_claimTime",
          "type": "uint256"
        },
        {
          "internalType": "uint256",
          "name": "_rewardAmount",
          "type": "uint256"
        }
      ],
      "name": "setBasics",
      "outputs": [],
      "stateMutability": "nonpayable",
      "type": "function"
    },
    {
      "inputs": [
        {
          "internalType": "bool",
          "name": "_canBeBoostedNftToken",
          "type": "bool"
        },
        {
          "internalType": "bool",
          "name": "_canBeBoostedNftLevelUp",
          "type": "bool"
        },
        {
          "internalType": "bool",
          "name": "_canBeBoostedNftPending",
          "type": "bool"
        },
        {
          "internalType": "bool",
          "name": "_canBeBoostedNftLucky",
          "type": "bool"
        },
        {
          "internalType": "bool",
          "name": "_canBeBoostedNftMigration",
          "type": "bool"
        }
      ],
      "name": "setCanBeBoosted",
      "outputs": [],
      "stateMutability": "nonpayable",
      "type": "function"
    },
    {
      "inputs": [
        {
          "internalType": "uint256",
          "name": "_claimTimeReference",
          "type": "uint256"
        },
        {
          "internalType": "uint256",
          "name": "_claimTimeRate",
          "type": "uint256"
        }
      ],
      "name": "setClaimTimeBoost",
      "outputs": [],
      "stateMutability": "nonpayable",
      "type": "function"
    },
    {
      "inputs": [
        {
          "internalType": "address",
          "name": "_new",
          "type": "address"
        }
      ],
      "name": "setHandler",
      "outputs": [],
      "stateMutability": "nonpayable",
      "type": "function"
    },
    {
      "inputs": [
        {
          "internalType": "bool",
          "name": "_isBoostedTokenToken",
          "type": "bool"
        },
        {
          "internalType": "bool",
          "name": "_isBoostedTokenLevelUp",
          "type": "bool"
        },
        {
          "internalType": "bool",
          "name": "_isBoostedTokenPending",
          "type": "bool"
        },
        {
          "internalType": "bool",
          "name": "_isBoostedTokenLucky",
          "type": "bool"
        },
        {
          "internalType": "bool",
          "name": "_isBoostedTokenMigration",
          "type": "bool"
        }
      ],
      "name": "setIsBoosted",
      "outputs": [],
      "stateMutability": "nonpayable",
      "type": "function"
    },
    {
      "inputs": [
        {
          "internalType": "uint256",
          "name": "_isBoostedNftRate",
          "type": "uint256"
        },
        {
          "internalType": "uint256",
          "name": "_isBoostedNftProbability",
          "type": "uint256"
        }
      ],
      "name": "setIsBoostedNft",
      "outputs": [],
      "stateMutability": "nonpayable",
      "type": "function"
    },
    {
      "inputs": [
        {
          "internalType": "uint256",
          "name": "_new",
          "type": "uint256"
        }
      ],
      "name": "setIsBoostedToken",
      "outputs": [],
      "stateMutability": "nonpayable",
      "type": "function"
    },
    {
      "inputs": [
        {
          "internalType": "uint256",
          "name": "_maxUser",
          "type": "uint256"
        },
        {
          "internalType": "uint256",
          "name": "_maxCount",
          "type": "uint256"
        }
      ],
      "name": "setMax",
      "outputs": [],
      "stateMutability": "nonpayable",
      "type": "function"
    },
    {
      "inputs": [
        {
          "internalType": "uint256",
          "name": "_maxCreationPendingUser",
          "type": "uint256"
        },
        {
          "internalType": "uint256",
          "name": "_maxCreationPendingTotal",
          "type": "uint256"
        }
      ],
      "name": "setMaxCreationPending",
      "outputs": [],
      "stateMutability": "nonpayable",
      "type": "function"
    },
    {
      "inputs": [
        {
          "internalType": "uint256",
          "name": "_maxLevelUpUser",
          "type": "uint256"
        },
        {
          "internalType": "uint256",
          "name": "_maxLevelUpTotal",
          "type": "uint256"
        }
      ],
      "name": "setMaxLevelUp",
      "outputs": [],
      "stateMutability": "nonpayable",
      "type": "function"
    },
    {
      "inputs": [
        {
          "internalType": "uint256",
          "name": "_maxMultiObtaining",
          "type": "uint256"
        },
        {
          "internalType": "uint256",
          "name": "_maxMultiClaim",
          "type": "uint256"
        }
      ],
      "name": "setMaxMulti",
      "outputs": [],
      "stateMutability": "nonpayable",
      "type": "function"
    },
    {
      "inputs": [
        {
          "internalType": "uint256",
          "name": "_noClaimRewardAmount",
          "type": "uint256"
        },
        {
          "internalType": "uint256",
          "name": "_noClaimTimeReference",
          "type": "uint256"
        }
      ],
      "name": "setNoClaimBoost",
      "outputs": [],
      "stateMutability": "nonpayable",
      "type": "function"
    },
    {
      "inputs": [
        {
          "internalType": "uint256",
          "name": "_obtainingTimeReference",
          "type": "uint256"
        },
        {
          "internalType": "uint256",
          "name": "_obtainingTimeRate",
          "type": "uint256"
        }
      ],
      "name": "setObtainingTimeReference",
      "outputs": [],
      "stateMutability": "nonpayable",
      "type": "function"
    },
    {
      "inputs": [
        {
          "internalType": "address",
          "name": "_new",
          "type": "address"
        }
      ],
      "name": "setOld",
      "outputs": [],
      "stateMutability": "nonpayable",
      "type": "function"
    },
    {
      "inputs": [
        {
          "internalType": "bool",
          "name": "_openCreateNodesWithTokens",
          "type": "bool"
        },
        {
          "internalType": "bool",
          "name": "_openCreateNodesLevelUp",
          "type": "bool"
        },
        {
          "internalType": "bool",
          "name": "_openCreateNodesWithPending",
          "type": "bool"
        },
        {
          "internalType": "bool",
          "name": "_openCreateNodesWithLuckyBoxes",
          "type": "bool"
        },
        {
          "internalType": "bool",
          "name": "_openCreateNodesMigration",
          "type": "bool"
        }
      ],
      "name": "setOpenCreate",
      "outputs": [],
      "stateMutability": "nonpayable",
      "type": "function"
    },
    {
      "inputs": [
        {
          "internalType": "uint256",
          "name": "_claimTaxRoi",
          "type": "uint256"
        },
        {
          "internalType": "uint256",
          "name": "_globalTax",
          "type": "uint256"
        }
      ],
      "name": "setTax",
      "outputs": [],
      "stateMutability": "nonpayable",
      "type": "function"
    },
    {
      "inputs": [
        {
          "internalType": "uint256",
          "name": "tokenId",
          "type": "uint256"
        },
        {
          "internalType": "uint256",
          "name": "_isBoostedAirDropRate",
          "type": "uint256"
        },
        {
          "internalType": "bool",
          "name": "_isBoostedNft",
          "type": "bool"
        },
        {
          "internalType": "bool",
          "name": "_isBoostedToken",
          "type": "bool"
        },
        {
          "internalType": "string",
          "name": "_feature",
          "type": "string"
        }
      ],
      "name": "setTokenIdSpecs",
      "outputs": [],
      "stateMutability": "nonpayable",
      "type": "function"
    },
    {
      "inputs": [
        {
          "internalType": "uint256",
          "name": "",
          "type": "uint256"
        }
      ],
      "name": "tokenIdToOwner",
      "outputs": [
        {
          "internalType": "address",
          "name": "",
          "type": "address"
        }
      ],
      "stateMutability": "view",
      "type": "function"
    },
    {
      "inputs": [],
      "name": "totalCreatedNodes",
      "outputs": [
        {
          "internalType": "uint256",
          "name": "",
          "type": "uint256"
        }
      ],
      "stateMutability": "view",
      "type": "function"
    },
    {
      "inputs": [
        {
          "internalType": "address",
          "name": "from",
          "type": "address"
        },
        {
          "internalType": "address",
          "name": "to",
          "type": "address"
        },
        {
          "internalType": "uint256",
          "name": "tokenId",
          "type": "uint256"
        }
      ],
      "name": "transferFrom",
      "outputs": [],
      "stateMutability": "nonpayable",
      "type": "function"
    },
    {
      "inputs": [
        {
          "internalType": "string",
          "name": "_name",
          "type": "string"
        },
        {
          "internalType": "uint256",
          "name": "_rate",
          "type": "uint256"
        }
      ],
      "name": "updateFeature",
      "outputs": [],
      "stateMutability": "nonpayable",
      "type": "function"
    }
  ],
  "bytecode": "0x6080604052601c8054600160301b600160781b031965ffffffffff001960ff199092166001179190911665010000000000171690553480156200004157600080fd5b5060405162005fac38038062005fac8339810160408190526200006491620008f3565b60008054600181810183557f290decd9548b62a8d60345a988386fc84ba6bc95484008f6362f93160ef3e56390910180546001600160a01b03191633908117909155825260208190526040909120805460ff191690911790558351620001115760405162461bcd60e51b815260206004820152601e60248201527f4e6f6465547970653a204e616d652063616e6e6f7420626520656d707479000060448201526064015b60405180910390fd5b835162000126906004906020870190620007a6565b5082516016146200017a5760405162461bcd60e51b815260206004820181905260248201527f4e6f6465547970653a2056616c7565732e6c656e677468206d69736d61746368604482015260640162000108565b826000815181106200019c57634e487b7160e01b600052603260045260246000fd5b602002602001015160068190555082600181518110620001cc57634e487b7160e01b600052603260045260246000fd5b602002602001015160078190555082600281518110620001fc57634e487b7160e01b600052603260045260246000fd5b6020026020010151600881905550826003815181106200022c57634e487b7160e01b600052603260045260246000fd5b6020026020010151600981905550612710836004815181106200025f57634e487b7160e01b600052603260045260246000fd5b602002602001015110620002cd5760405162461bcd60e51b815260206004820152602e60248201527f4e6f6465547970653a20436c61696d546178526f69206d757374206265206c6f60448201526d0776572207468616e2031303030360941b606482015260840162000108565b82600481518110620002ef57634e487b7160e01b600052603260045260246000fd5b6020026020010151600a81905550826005815181106200031f57634e487b7160e01b600052603260045260246000fd5b6020026020010151600b81905550826006815181106200034f57634e487b7160e01b600052603260045260246000fd5b6020026020010151600c81905550826007815181106200037f57634e487b7160e01b600052603260045260246000fd5b6020026020010151600d8190555082600881518110620003af57634e487b7160e01b600052603260045260246000fd5b6020026020010151600e8190555082600981518110620003df57634e487b7160e01b600052603260045260246000fd5b6020026020010151600f8190555082600a815181106200040f57634e487b7160e01b600052603260045260246000fd5b602002602001015160108190555061271083600b815181106200044257634e487b7160e01b600052603260045260246000fd5b602002602001015110620004bf5760405162461bcd60e51b815260206004820152603a60248201527f4e6f6465547970653a204973426f6f737465644e667450726f626162696c697460448201527f79206d757374206265206c6f776572207468616e203130303030000000000000606482015260840162000108565b82600b81518110620004e157634e487b7160e01b600052603260045260246000fd5b602002602001015160118190555082600c815181106200051157634e487b7160e01b600052603260045260246000fd5b602002602001015160128190555082600d815181106200054157634e487b7160e01b600052603260045260246000fd5b602002602001015160138190555061271083600e815181106200057457634e487b7160e01b600052603260045260246000fd5b602002602001015110620005f15760405162461bcd60e51b815260206004820152603560248201527f4e6f6465547970653a204973426f6f73746564546f6b656e52617465206d757360448201527f74206265206c6f776572207468616e2031303030300000000000000000000000606482015260840162000108565b82600e815181106200061357634e487b7160e01b600052603260045260246000fd5b602002602001015160148190555082600f815181106200064357634e487b7160e01b600052603260045260246000fd5b6020026020010151601681905550826010815181106200067357634e487b7160e01b600052603260045260246000fd5b602002602001015160158190555082601181518110620006a357634e487b7160e01b600052603260045260246000fd5b602002602001015160178190555082601281518110620006d357634e487b7160e01b600052603260045260246000fd5b6020026020010151601881905550826013815181106200070357634e487b7160e01b600052603260045260246000fd5b6020026020010151601981905550826014815181106200073357634e487b7160e01b600052603260045260246000fd5b6020026020010151601a81905550826014815181106200076357634e487b7160e01b600052603260045260246000fd5b6020908102919091010151601b55602380546001600160a01b039384166001600160a01b031991821617909155602480549290931691161790555062000a7c9050565b828054620007b49062000a29565b90600052602060002090601f016020900481019282620007d8576000855562000823565b82601f10620007f357805160ff191683800117855562000823565b8280016001018555821562000823579182015b828111156200082357825182559160200191906001019062000806565b506200083192915062000835565b5090565b5b8082111562000831576000815560010162000836565b80516001600160a01b03811681146200086457600080fd5b919050565b600082601f8301126200087a578081fd5b815160206001600160401b0382111562000898576200089862000a66565b808202620008a8828201620009f6565b838152828101908684018388018501891015620008c3578687fd5b8693505b85841015620008e7578051835260019390930192918401918401620008c7565b50979650505050505050565b6000806000806080858703121562000909578384fd5b84516001600160401b038082111562000920578586fd5b818701915087601f83011262000934578586fd5b81518181111562000949576200094962000a66565b60206200095f601f8301601f19168201620009f6565b8281528a8284870101111562000973578889fd5b885b838110156200099257858101830151828201840152820162000975565b83811115620009a357898385840101525b509089015190975092505080821115620009bb578485fd5b50620009ca8782880162000869565b935050620009db604086016200084c565b9150620009eb606086016200084c565b905092959194509250565b604051601f8201601f191681016001600160401b038111828210171562000a215762000a2162000a66565b604052919050565b60028104600182168062000a3e57607f821691505b6020821081141562000a6057634e487b7160e01b600052602260045260246000fd5b50919050565b634e487b7160e01b600052604160045260246000fd5b6155208062000a8c6000396000f3fe608060405234801561001057600080fd5b50600436106105255760003560e01c8063748b9022116102af578063bca2f4a011610172578063d9532e07116100d9578063ee08c0b611610092578063ee08c0b614610c43578063eebd68b914610c57578063f1aaf1e814610c60578063f5239c9914610c74578063f7b2a7be14610c7d578063fd38450414610c8657610525565b8063d9532e0714610bcf578063d95de9a014610be2578063daf73bbd14610bf5578063df22510e14610c08578063df29a17c14610c1c578063e361199614610c2f57610525565b8063d04b30b21161012b578063d04b30b214610b70578063d252365914610b84578063d271fac014610b97578063d4cb00b614610ba0578063d597522114610bb3578063d759948614610bbc57610525565b8063bca2f4a014610ae2578063be8557d914610af6578063c090316614610b09578063c23e6f9314610b34578063c80916d414610b54578063ce82805814610b6757610525565b80639d695c6011610216578063b018fc6f116101cf578063b018fc6f14610a85578063b406008e14610a98578063b83f866314610aab578063b88d345314610abe578063bac426d014610ac7578063bc2c21b714610ada57610525565b80639d695c6014610a255780639ef2d87a14610a38578063a00ce4bb14610a41578063a035b1fe14610a57578063a08d9ad814610a60578063a7b8c64d14610a7357610525565b806387e2fded1161026857806387e2fded1461099657806389af6107146109c25780638bdf99ac146109d55780639463c803146109e857806396cfa23e146109f157806398e556da14610a0457610525565b8063748b90221461090f578063783d4e45146109225780637914207f14610935578063804a306b14610955578063842e76691461096a57806385db32ca1461098d57610525565b8063381152fb116103f7578063551a6d931161035e5780635fd10216116103175780635fd102161461089b57806361c2f15b146108a4578063632203bc146108ad57806364c27ad4146108c0578063667f6526146108d35780636e9e48ef146108e657610525565b8063551a6d9314610804578063583109b91461080c57806359a68c7a146108205780635c7b05b11461082d5780635ca3797b146108445780635f7dabbb1461087057610525565b80634be3e9d0116103b05780634be3e9d0146107995780634d4c74e7146107a25780635139839c146107b5578063518e32d3146107c8578063526cfed8146107db57806355128f7d146107fb57610525565b8063381152fb146107105780633b91ceef1461072357806340f143701461073657806343a9ac3914610749578063493fe80f146107725780634946e4851461078557610525565b806323b872dd1161049b5780632aea89b9116104545780632aea89b9146106925780632d22a3e71461069b5780632f54bf6e146106bb5780633108614c146106de57806332187768146106fe57806332a49e301461070757610525565b806323b872dd14610627578063242d81f01461063a5780632496b5c01461064d5780632614c0f81461065657806327b3bf111461067657806329e38e5b1461067f57610525565b8063079129ba116104ed578063079129ba146105c35780630c7b1d7b146105e75780630fa81815146105ef578063129d7f8c146105f8578063173825d91461060b578063179ec2da1461061e57610525565b8063025e7c271461052a5780630297a4c11461055a57806303c986061461057157806303eba5071461058657806306fdde03146105ae575b600080fd5b61053d610538366004614dc0565b610c99565b6040516001600160a01b0390911681526020015b60405180910390f35b61056360125481565b604051908152602001610551565b61058461057f366004614dc0565b610cc3565b005b610599610594366004614a67565b610d00565b60408051928352602083019190915201610551565b6105b6610eb4565b6040516105519190615145565b601c546105d790600160701b900460ff1681565b6040519015158152602001610551565b600054610563565b61056360165481565b610584610606366004614ba9565b610f42565b610584610619366004614a67565b610fc8565b61056360155481565b610584610635366004614a81565b611298565b610584610648366004614a67565b611563565b61056360145481565b610563610664366004614a67565b60226020526000908152604090205481565b61056360085481565b61058461068d366004614d7e565b611616565b610563600e5481565b6106ae6106a9366004614df0565b61176e565b604051610551919061505a565b6105d76106c9366004614a67565b60016020526000908152604090205460ff1681565b6106f16106ec366004614dc0565b6118e6565b6040516105519190615333565b610563600a5481565b61056360195481565b61058461071e366004614ce8565b611a19565b610584610731366004614df0565b611abc565b610584610744366004614df0565b611af6565b610563610757366004614a67565b6001600160a01b031660009081526002602052604090205490565b6105b6610780366004614dc0565b611ba3565b601c546105d7906301000000900460ff1681565b61056360135481565b6105846107b0366004614d7e565b611c69565b61053d6107c3366004614dc0565b611ce9565b6105846107d6366004614b77565b611cf9565b6107ee6107e9366004614cb6565b611f0f565b604051610551919061510d565b61056360175481565b602054610563565b601c546105d790600160381b900460ff1681565b601c546105d79060ff1681565b601c546105d7906601000000000000900460ff1681565b610563610852366004614a67565b6001600160a01b031660009081526002602052604090206004015490565b61056361087e366004614d4c565b8051602081830181018051601e8252928201919093012091525481565b61056360105481565b610563600c5481565b6105996108bb366004614a67565b612012565b6105636108ce366004614abc565b61216f565b6105846108e1366004614df0565b612420565b61053d6108f4366004614dc0565b6003602052600090815260409020546001600160a01b031681565b61058461091d366004614df0565b61245a565b610584610930366004614ce8565b612494565b610948610943366004614cb6565b612528565b60405161055191906150ba565b601c546105d790640100000000900460ff1681565b6105d7610978366004614a67565b60216020526000908152604090205460ff1681565b610563601a5481565b6105636109a4366004614a67565b6001600160a01b031660009081526002602052604090206005015490565b6105636109d0366004614abc565b612745565b6105846109e3366004614df0565b612ae2565b610563600b5481565b601c546105d79062010000900460ff1681565b610a17610a12366004614abc565b612b1c565b604051610551929190615120565b610563610a33366004614abc565b612e1b565b61056360065481565b601c546105d79065010000000000900460ff1681565b61056360075481565b610584610a6e366004614df0565b612ff7565b601c546105d790610100900460ff1681565b610563610a93366004614abc565b61309b565b610584610aa6366004614e80565b613137565b60245461053d906001600160a01b031681565b61056360055481565b610584610ad5366004614a67565b61327c565b601d54610563565b601c546105d790600160601b900460ff1681565b610584610b04366004614df0565b613334565b610563610b17366004614d4c565b8051602081830181018051601f8252928201919093012091525481565b610b47610b42366004614df0565b61336e565b604051610551919061500d565b60235461053d906001600160a01b031681565b610563600f5481565b601c546105d790600160681b900460ff1681565b610584610b92366004614e11565b613460565b61056360115481565b610584610bae366004614df0565b613541565b610563600d5481565b6107ee610bca366004614cb6565b6135f2565b610584610bdd366004614ce8565b613727565b610584610bf0366004614abc565b6137e3565b610599610c03366004614abc565b613b57565b601c546105d790600160481b900460ff1681565b610584610c2a366004614df0565b613d12565b601c546105d790600160401b900460ff1681565b601c546105d790600160501b900460ff1681565b61056360185481565b601c546105d790600160581b900460ff1681565b610563601b5481565b61056360095481565b610584610c94366004614b07565b613db2565b60008181548110610ca957600080fd5b6000918252602090912001546001600160a01b0316905081565b3360009081526001602052604090205460ff16610cfb5760405162461bcd60e51b8152600401610cf290615226565b60405180910390fd5b601455565b6001600160a01b0381166000908152600260205260408120819081908190815b8154811015610ea857600080610e76846001016000866000018681548110610d5857634e487b7160e01b600052603260045260246000fd5b6000918252602080832090910154835282810193909352604091820190208151610100808201845282546001600160a01b031682526001830154948201949094526002820154928101929092526003810154606083015260048101546080830152600581015460ff808216151560a0850152939004909216151560c082015260068201805491929160e084019190610def9061543e565b80601f0160208091040260200160405190810160405280929190818152602001828054610e1b9061543e565b8015610e685780601f10610e3d57610100808354040283529160200191610e68565b820191906000526020600020905b815481529060010190602001808311610e4b57829003601f168201915b505050505081525050613e42565b9092509050610e858287615399565b9550610e918186615399565b945050508080610ea090615479565b915050610d20565b50919350915050915091565b60048054610ec19061543e565b80601f0160208091040260200160405190810160405280929190818152602001828054610eed9061543e565b8015610f3a5780601f10610f0f57610100808354040283529160200191610f3a565b820191906000526020600020905b815481529060010190602001808311610f1d57829003601f168201915b505050505081565b6023546001600160a01b03163314610f6c5760405162461bcd60e51b8152600401610cf290615294565b805115610fb257601e81604051610f839190614f82565b90815260200160405180910390205460001415610fb25760405162461bcd60e51b8152600401610cf2906151ef565b610fc086858585858a61413c565b505050505050565b336001600160a01b031660008081548110610ff357634e487b7160e01b600052603260045260246000fd5b6000918252602090912001546001600160a01b0316146110505760405162461bcd60e51b815260206004820152601860248201527727bbb732b9399d1027b7363c9029bab832b91027bbb732b960411b6044820152606401610cf2565b6001600160a01b03811660009081526001602052604090205460ff166110ac5760405162461bcd60e51b815260206004820152601160248201527027bbb732b9399d102737ba1037bbb732b960791b6044820152606401610cf2565b600080815481106110cd57634e487b7160e01b600052603260045260246000fd5b6000918252602090912001546001600160a01b038281169116141561113e5760405162461bcd60e51b815260206004820152602160248201527f4f776e6572733a2043616e6e6f742072656d6f7665207375706572206f776e656044820152603960f91b6064820152608401610cf2565b60015b60005481101561127657816001600160a01b03166000828154811061117657634e487b7160e01b600052603260045260246000fd5b6000918252602090912001546001600160a01b0316141561126457600080546111a1906001906153e4565b815481106111bf57634e487b7160e01b600052603260045260246000fd5b600091825260208220015481546001600160a01b039091169190839081106111f757634e487b7160e01b600052603260045260246000fd5b6000918252602082200180546001600160a01b0319166001600160a01b03939093169290921790915580548061123d57634e487b7160e01b600052603160045260246000fd5b600082815260209020810160001990810180546001600160a01b0319169055019055611276565b8061126e81615479565b915050611141565b506001600160a01b03166000908152600160205260409020805460ff19169055565b6023546001600160a01b031633146112c25760405162461bcd60e51b8152600401610cf290615294565b6001600160a01b038316600090815260026020908152604080832084845260030190915290205460ff166113385760405162461bcd60e51b815260206004820152601a60248201527f4e6f6465547970653a205472616e73666572206661696c7572650000000000006044820152606401610cf2565b6001600160a01b03821660009081526021602052604090205460ff166113be5760208054600180820183557fc97bfaf2f8ee708c303a06d134f5ecd8389ae0432af62dc132a24118292866bb90910180546001600160a01b0319166001600160a01b038616908117909155600090815260219092526040909120805460ff191690911790555b6001600160a01b038381166000908152600260208181526040808420868552600180820180855283872080546001600160a01b0319168b8a169081178083554260038401819055918a52888852868a20998c90529287528551610100808201885293909a168a5292810154958901959095529484015492870192909252606086019190915260048201546080860152600582015460ff808216151560a0880152939004909216151560c0850152600681018054929461151194938793919260e084019161148a9061543e565b80601f01602080910402602001604051908101604052809291908181526020018280546114b69061543e565b80156115035780601f106114d857610100808354040283529160200191611503565b820191906000526020600020905b8154815290600101906020018083116114e657829003601f168201915b5050505050815250506143b0565b6001600160a01b03841660009081526002602052604090206115339083614561565b50600090815260036020526040902080546001600160a01b0319166001600160a01b039290921691909117905550565b3360009081526001602052604090205460ff166115925760405162461bcd60e51b8152600401610cf290615226565b6001600160a01b0381166115f45760405162461bcd60e51b8152602060048201526024808201527f4e6f6465547970653a204f6c642063616e6e6f742062652061646472657373206044820152637a65726f60e01b6064820152608401610cf2565b602480546001600160a01b0319166001600160a01b0392909216919091179055565b3360009081526001602052604090205460ff166116455760405162461bcd60e51b8152600401610cf290615226565b601e60046040516116569190614f9e565b9081526020016040518091039020546000146116b45760405162461bcd60e51b815260206004820152601f60248201527f4e6f6465547970653a204665617475726520616c7265616479206578697374006044820152606401610cf2565b60008251116117055760405162461bcd60e51b815260206004820152601e60248201527f4e6f6465547970653a204e616d652063616e6e6f7420626520656d70747900006044820152606401610cf2565b601d80546001810182556000919091528251611748917f6d4407e7be21f808e6509aa9fa9143369579dd7d760fe20a2c09680fc146134f01906020850190614840565b5080601e8360405161175a9190614f82565b908152604051908190036020019020555050565b6060600061177c84846153e4565b6001600160401b038111156117a157634e487b7160e01b600052604160045260246000fd5b6040519080825280602002602001820160405280156117d457816020015b60608152602001906001900390816117bf5790505b509050835b838110156118de57601d818154811061180257634e487b7160e01b600052603260045260246000fd5b9060005260206000200180546118179061543e565b80601f01602080910402602001604051908101604052809291908181526020018280546118439061543e565b80156118905780601f1061186557610100808354040283529160200191611890565b820191906000526020600020905b81548152906001019060200180831161187357829003601f168201915b50505050508286836118a291906153e4565b815181106118c057634e487b7160e01b600052603260045260246000fd5b602002602001018190525080806118d690615479565b9150506117d9565b509392505050565b6118ee6148c4565b6000828152600360208181526040808420546001600160a01b03908116855260028084528286208887526001908101855295839020835161010081810186528254909416815296810154948701949094528301549185019190915291810154606084015260048101546080840152600581015460ff808216151560a0860152929004909116151560c083015260068101805460e08401919061198f9061543e565b80601f01602080910402602001604051908101604052809291908181526020018280546119bb9061543e565b8015611a085780601f106119dd57610100808354040283529160200191611a08565b820191906000526020600020905b8154815290600101906020018083116119eb57829003601f168201915b50505050508152505090505b919050565b3360009081526001602052604090205460ff16611a485760405162461bcd60e51b8152600401610cf290615226565b601c8054911515600160701b0260ff60701b19931515600160681b0260ff60681b19951515600160601b0260ff60601b19971515600160581b0260ff60581b19991515600160501b0260ff60501b199096169590951798909816939093179590951695909517929092169190911716179055565b3360009081526001602052604090205460ff16611aeb5760405162461bcd60e51b8152600401610cf290615226565b600f91909155600655565b3360009081526001602052604090205460ff16611b255760405162461bcd60e51b8152600401610cf290615226565b601582905580611b9d5760405162461bcd60e51b815260206004820152603860248201527f4e6f6465547970653a204e6f436c61696d54696d655265666572656e6365206d60448201527f7573742062652067726561746572207468616e207a65726f00000000000000006064820152608401610cf2565b60165550565b6000818152600360209081526040808320546001600160a01b03168352600282528083208484526001019091529020600601805460609190611be49061543e565b80601f0160208091040260200160405190810160405280929190818152602001828054611c109061543e565b8015611c5d5780601f10611c3257610100808354040283529160200191611c5d565b820191906000526020600020905b815481529060010190602001808311611c4057829003601f168201915b50505050509050919050565b3360009081526001602052604090205460ff16611c985760405162461bcd60e51b8152600401610cf290615226565b601e6004604051611ca99190614f9e565b90815260200160405180910390205460001415611cd85760405162461bcd60e51b8152600401610cf2906151ef565b80601e8360405161175a9190614f82565b60208181548110610ca957600080fd5b336001600160a01b031660008081548110611d2457634e487b7160e01b600052603260045260246000fd5b6000918252602090912001546001600160a01b031614611d815760405162461bcd60e51b815260206004820152601860248201527727bbb732b9399d1027b7363c9029bab832b91027bbb732b960411b6044820152606401610cf2565b6001600160a01b03821660009081526001602052604090205460ff1615611de25760405162461bcd60e51b815260206004820152601560248201527427bbb732b9399d1020b63932b0b23c9037bbb732b960591b6044820152606401610cf2565b6001600160a01b0382166000908152600160208190526040909120805460ff191690911790558015611ec257600080600081548110611e3157634e487b7160e01b600052603260045260246000fd5b6000918252602080832090910154835460018101855593835290822090920180546001600160a01b0319166001600160a01b039093169290921790915580548391908190611e8f57634e487b7160e01b600052603260045260246000fd5b9060005260206000200160006101000a8154816001600160a01b0302191690836001600160a01b03160217905550611f0b565b600080546001810182559080527f290decd9548b62a8d60345a988386fc84ba6bc95484008f6362f93160ef3e5630180546001600160a01b0319166001600160a01b0384161790555b5050565b60606000611f1d84846153e4565b6001600160401b03811115611f4257634e487b7160e01b600052604160045260246000fd5b604051908082528060200260200182016040528015611f6b578160200160208202803683370190505b506001600160a01b0386166000908152600260205260409020909150845b8481101561200757816000018181548110611fb457634e487b7160e01b600052603260045260246000fd5b9060005260206000200154838783611fcc91906153e4565b81518110611fea57634e487b7160e01b600052603260045260246000fd5b602090810291909101015280611fff81615479565b915050611f89565b509095945050505050565b60235460009081906001600160a01b031633146120415760405162461bcd60e51b8152600401610cf290615294565b6001600160a01b03831660009081526002602052604081208190815b8154811015610ea857600082600101600084600001848154811061209157634e487b7160e01b600052603260045260246000fd5b6000918252602080832090910154835282810193909352604091820181208251610100808201855282546001600160a01b031682526001830154958201959095526002820154938101939093526003810154606084015260048101546080840152600581015460ff808216151560a0860152949004909316151560c083015260068301805493945090928392612133929091869160e0840191610def9061543e565b90925090506121428288615399565b965061214e8187615399565b9550428360020181905550505050808061216790615479565b91505061205d565b6023546000906001600160a01b0316331461219c5760405162461bcd60e51b8152600401610cf290615294565b601c54600160601b900460ff166121c55760405162461bcd60e51b8152600401610cf290615307565b8151600e5410156122365760405162461bcd60e51b815260206004820152603560248201527f4e6f6465547970653a204e6f7420656e6f756768206372656174696f6e2077696044820152741d1a081c195b991a5b99c81cdc1bdd1cc81b19599d605a1b6064820152608401610cf2565b8151600e600082825461224991906153e4565b909155505081516001600160a01b0384166000908152600260205260408120600501805490919061227b908490615399565b9091555050600d546001600160a01b038416600090815260026020526040902060050154111561231f5760405162461bcd60e51b815260206004820152604360248201527f4e6f6465547970653a204e6f7420656e6f756768206372656174696f6e20776960448201527f74682070656e64696e672073706f7473206c65667420666f722074686973207560648201526239b2b960e91b608482015260a401610cf2565b600061233c848451601c60029054906101000a900460ff166146d1565b905061236b848483601c60079054906101000a900460ff1660405180602001604052806000815250600061413c565b600654600554111561238f5760405162461bcd60e51b8152600401610cf290615252565b600f546001600160a01b03851660009081526002602052604090205411156124095760405162461bcd60e51b815260206004820152602760248201527f4e6f6465547970653a205573657220746f6f206d616e79206e6f6465732072656044820152661c5d595cdd195960ca1b6064820152608401610cf2565b600754835161241891906153c5565b949350505050565b3360009081526001602052604090205460ff1661244f5760405162461bcd60e51b8152600401610cf290615226565b600a91909155601755565b3360009081526001602052604090205460ff166124895760405162461bcd60e51b8152600401610cf290615226565b601a91909155601b55565b3360009081526001602052604090205460ff166124c35760405162461bcd60e51b8152600401610cf290615226565b601c805460ff19169515159590951761ff001916610100941515949094029390931762ff0000191662010000921515929092029190911763ff00000019166301000000911515919091021764ff00000000191664010000000091151591909102179055565b6060600061253684846153e4565b6001600160401b0381111561255b57634e487b7160e01b600052604160045260246000fd5b60405190808252806020026020018201604052801561259457816020015b6125816148c4565b8152602001906001900390816125795790505b506001600160a01b0386166000908152600260205260409020909150845b84811015612007578160010160008360000183815481106125e357634e487b7160e01b600052603260045260246000fd5b6000918252602080832090910154835282810193909352604091820190208151610100808201845282546001600160a01b031682526001830154948201949094526002820154928101929092526003810154606083015260048101546080830152600581015460ff808216151560a0850152939004909216151560c082015260068201805491929160e08401919061267a9061543e565b80601f01602080910402602001604051908101604052809291908181526020018280546126a69061543e565b80156126f35780601f106126c8576101008083540402835291602001916126f3565b820191906000526020600020905b8154815290600101906020018083116126d657829003601f168201915b50505050508152505083878361270991906153e4565b8151811061272757634e487b7160e01b600052603260045260246000fd5b6020026020010181905250808061273d90615479565b9150506125b2565b6023546000906001600160a01b031633146127725760405162461bcd60e51b8152600401610cf290615294565b60005b8251811015612ab35760026000856001600160a01b03166001600160a01b0316815260200190815260200160002060030160008483815181106127c857634e487b7160e01b600052603260045260246000fd5b60209081029190910181015182528101919091526040016000205460ff1661282b5760405162461bcd60e51b81526020600482015260166024820152754e6f6465547970653a204275726e206661696c75726560501b6044820152606401610cf2565b600060026000866001600160a01b03166001600160a01b03168152602001908152602001600020600101600085848151811061287757634e487b7160e01b600052603260045260246000fd5b60209081029190910181015182528181019290925260409081016000208151610100808201845282546001600160a01b031682526001830154948201949094526002820154928101929092526003810154606083015260048101546080830152600581015460ff808216151560a0850152939004909216151560c082015260068201805491929160e08401919061290d9061543e565b80601f01602080910402602001604051908101604052809291908181526020018280546129399061543e565b80156129865780601f1061295b57610100808354040283529160200191612986565b820191906000526020600020905b81548152906001019060200180831161296957829003601f168201915b50505050508152505090506000601f8260e001516040516129a79190614f82565b90815260200160405180910390205411156129f357601f8160e001516040516129d09190614f82565b90815260405190819003602001902080549060006129ed83615427565b91905055505b6001600160a01b03851660009081526002602052604090208451612a3f9190869085908110612a3257634e487b7160e01b600052603260045260246000fd5b6020026020010151614561565b600060036000868581518110612a6557634e487b7160e01b600052603260045260246000fd5b6020026020010151815260200190815260200160002060006101000a8154816001600160a01b0302191690836001600160a01b03160217905550508080612aab90615479565b915050612775565b50815160056000828254612ac791906153e4565b90915550508151600754612adb91906153c5565b9392505050565b3360009081526001602052604090205460ff16612b115760405162461bcd60e51b8152600401610cf290615226565b600d91909155600e55565b606080600083516001600160401b03811115612b4857634e487b7160e01b600052604160045260246000fd5b604051908082528060200260200182016040528015612b71578160200160208202803683370190505b509050600084516001600160401b03811115612b9d57634e487b7160e01b600052604160045260246000fd5b604051908082528060200260200182016040528015612bc6578160200160208202803683370190505b506001600160a01b03871660009081526002602052604081209192505b8651811015612e0e57816003016000888381518110612c1257634e487b7160e01b600052603260045260246000fd5b60209081029190910181015182528101919091526040016000205460ff16612c4c5760405162461bcd60e51b8152600401610cf2906152c4565b6000826001016000898481518110612c7457634e487b7160e01b600052603260045260246000fd5b60209081029190910181015182528181019290925260409081016000208151610100808201845282546001600160a01b031682526001830154948201949094526002820154928101929092526003810154606083015260048101546080830152600581015460ff808216151560a0850152939004909216151560c082015260068201805491929160e084019190612d0a9061543e565b80601f0160208091040260200160405190810160405280929190818152602001828054612d369061543e565b8015612d835780601f10612d5857610100808354040283529160200191612d83565b820191906000526020600020905b815481529060010190602001808311612d6657829003601f168201915b5050505050815250509050600080612d9a83613e42565b9150915081878581518110612dbf57634e487b7160e01b600052603260045260246000fd5b60200260200101818152505080868581518110612dec57634e487b7160e01b600052603260045260246000fd5b6020026020010181815250505050508080612e0690615479565b915050612be3565b5091969095509350505050565b6023546000906001600160a01b03163314612e485760405162461bcd60e51b8152600401610cf290615294565b601c54600160581b900460ff16612e715760405162461bcd60e51b8152600401610cf290615307565b8151600c541015612ed55760405162461bcd60e51b815260206004820152602860248201527f4e6f6465547970653a204e6f7420656e6f756768206c6576656c2075702073706044820152671bdd1cc81b19599d60c21b6064820152608401610cf2565b8151600c6000828254612ee891906153e4565b909155505081516001600160a01b03841660009081526002602052604081206004018054909190612f1a908490615399565b9091555050600b546001600160a01b0384166000908152600260205260409020600401541115612fab5760405162461bcd60e51b815260206004820152603660248201527f4e6f6465547970653a204e6f7420656e6f756768206c6576656c20757020737060448201527537ba39903632b33a103337b9103a3434b9903ab9b2b960511b6064820152608401610cf2565b6000612fc8848451601c60019054906101000a900460ff166146d1565b905061236b848483601c60069054906101000a900460ff1660405180602001604052806000815250600061413c565b3360009081526001602052604090205460ff166130265760405162461bcd60e51b8152600401610cf290615226565b600082116130905760405162461bcd60e51b815260206004820152603160248201527f4e6f6465547970653a204f627461696e696e672054696d65205265666572656e60448201527063652063616e6e6f74206265207a65726f60781b6064820152608401610cf2565b601291909155601355565b6023546000906001600160a01b031633146130c85760405162461bcd60e51b8152600401610cf290615294565b601c54600160501b900460ff166130f15760405162461bcd60e51b8152600401610cf290615307565b8151601c546000916131089186919060ff166146d1565b905061236b848483601c60059054906101000a900460ff1660405180602001604052806000815250600061413c565b3360009081526001602052604090205460ff166131665760405162461bcd60e51b8152600401610cf290615226565b600083116131b65760405162461bcd60e51b815260206004820152601e60248201527f4e6f6465547970653a2050726963652063616e6e6f74206265207a65726f00006044820152606401610cf2565b6007839055816132145760405162461bcd60e51b815260206004820152602360248201527f4e6f6465547970653a20436c61696d2054696d652063616e6e6f74206265207a60448201526265726f60e81b6064820152608401610cf2565b6008829055806132755760405162461bcd60e51b815260206004820152602660248201527f4e6f6465547970653a2052657761726420416d6f756e742063616e6e6f74206260448201526565207a65726f60d01b6064820152608401610cf2565b6009555050565b3360009081526001602052604090205460ff166132ab5760405162461bcd60e51b8152600401610cf290615226565b6001600160a01b0381166133125760405162461bcd60e51b815260206004820152602860248201527f4e6f6465547970653a2048616e646c65722063616e6e6f742062652061646472604482015267657373207a65726f60c01b6064820152608401610cf2565b602380546001600160a01b0319166001600160a01b0392909216919091179055565b3360009081526001602052604090205460ff166133635760405162461bcd60e51b8152600401610cf290615226565b600b91909155600c55565b6060600061337c84846153e4565b6001600160401b038111156133a157634e487b7160e01b600052604160045260246000fd5b6040519080825280602002602001820160405280156133ca578160200160208202803683370190505b509050835b838110156118de57602081815481106133f857634e487b7160e01b600052603260045260246000fd5b6000918252602090912001546001600160a01b03168261341887846153e4565b8151811061343657634e487b7160e01b600052603260045260246000fd5b6001600160a01b03909216602092830291909101909101528061345881615479565b9150506133cf565b3360009081526001602052604090205460ff1661348f5760405162461bcd60e51b8152600401610cf290615226565b6000858152600360209081526040808320546001600160a01b0316835260028252808320888452600101909152908190206004810186905560058101805460ff19168615151761ff001916610100861515021790559051601e906134f4908490614f82565b908152602001604051809103902054600014156135235760405162461bcd60e51b8152600401610cf2906151ef565b81516135389060068301906020850190614840565b50505050505050565b3360009081526001602052604090205460ff166135705760405162461bcd60e51b8152600401610cf290615226565b601082905561271081106135ec5760405162461bcd60e51b815260206004820152603c60248201527f4e6f6465547970653a20497320426f6f737465644e66742050726f626162696c60448201527f697479206d757374206265206c6f776572207468616e203130303030000000006064820152608401610cf2565b60115550565b6060600061360084846153e4565b6001600160401b0381111561362557634e487b7160e01b600052604160045260246000fd5b60405190808252806020026020018201604052801561364e578160200160208202803683370190505b506001600160a01b0386166000908152600260205260409020909150845b848110156120075781600101600083600001838154811061369d57634e487b7160e01b600052603260045260246000fd5b90600052602060002001548152602001908152602001600020600101546009546008546007546136cd91906153c5565b6136d791906153b1565b6136e19190615399565b836136ec88846153e4565b8151811061370a57634e487b7160e01b600052603260045260246000fd5b60209081029190910101528061371f81615479565b91505061366c565b3360009081526001602052604090205460ff166137565760405162461bcd60e51b8152600401610cf290615226565b601c8054911515600160481b0269ff00000000000000000019931515600160401b0268ff000000000000000019951515600160381b0267ff000000000000001997151566010000000000000266ff00000000000019991515650100000000000265ff0000000000199096169590951798909816939093179590951695909517929092169190911716179055565b6023546001600160a01b0316331461380d5760405162461bcd60e51b8152600401610cf290615294565b601c54600160701b900460ff166138365760405162461bcd60e51b8152600401610cf290615307565b6001600160a01b0382166000908152602260205260409020546139ca57602454604051631ff9e19560e01b81526000916001600160a01b031690631ff9e195906138869060049087908201615158565b602060405180830381600087803b1580156138a057600080fd5b505af11580156138b4573d6000803e3d6000fd5b505050506040513d601f19601f820116820180604052508101906138d89190614dd8565b602454604051633d80733d60e01b81529192506000916001600160a01b0390911690633d80733d906139109060049088908201615158565b602060405180830381600087803b15801561392a57600080fd5b505af115801561393e573d6000803e3d6000fd5b505050506040513d601f19601f820116820180604052508101906139629190614dd8565b6001600160a01b038516600090815260026020526040812060050180549293508492909190613992908490615399565b90915550506001600160a01b038416600090815260026020526040812060040180548392906139c2908490615399565b909155505050505b60245460405163d8a911d960e01b81526000916001600160a01b03169063d8a911d9906139fd9060049087908201615158565b602060405180830381600087803b158015613a1757600080fd5b505af1158015613a2b573d6000803e3d6000fd5b505050506040513d601f19601f82011682018060405250810190613a4f9190614dd8565b82516001600160a01b038516600090815260226020526040812080549394509192613a7b908490615399565b909155505080613acd5760405162461bcd60e51b815260206004820152601c60248201527f4e6f6465547970653a204e6f7468696e6720746f206d696772617465000000006044820152606401610cf2565b6001600160a01b038316600090815260226020526040902054811015613b055760405162461bcd60e51b8152600401610cf290615252565b6000613b22848451601c60049054906101000a900460ff166146d1565b9050613b51848483601c60099054906101000a900460ff1660405180602001604052806000815250600061413c565b50505050565b60235460009081906001600160a01b03163314613b865760405162461bcd60e51b8152600401610cf290615294565b6001600160a01b03841660009081526002602052604081208190815b8651811015612e0e57816003016000888381518110613bd157634e487b7160e01b600052603260045260246000fd5b60209081029190910181015182528101919091526040016000205460ff16613c0b5760405162461bcd60e51b8152600401610cf2906152c4565b6000826001016000898481518110613c3357634e487b7160e01b600052603260045260246000fd5b602090810291909101810151825281810192909252604090810160009081208251610100808201855282546001600160a01b031682526001830154958201959095526002820154938101939093526003810154606084015260048101546080840152600581015460ff808216151560a0860152949004909316151560c083015260068301805493945090928392613cd6929091869160e0840191610def9061543e565b9092509050613ce58288615399565b9650613cf18187615399565b95504283600201819055505050508080613d0a90615479565b915050613ba2565b3360009081526001602052604090205460ff16613d415760405162461bcd60e51b8152600401610cf290615226565b60008211613da75760405162461bcd60e51b815260206004820152602d60248201527f4e6f6465547970653a20436c61696d2054696d65205265666572656e6365206360448201526c616e6e6f74206265207a65726f60981b6064820152608401610cf2565b601891909155601955565b6023546001600160a01b03163314613ddc5760405162461bcd60e51b8152600401610cf290615294565b601c54600160681b900460ff16613e055760405162461bcd60e51b8152600401610cf290615307565b6000613e22848451601c60039054906101000a900460ff166146d1565b9050613b51848483601c60089054906101000a900460ff1686600061413c565b600080600080600854856040015142613e5b91906153e4565b600954613e6891906153c5565b613e7291906153b1565b91506000601254866060015142613e8991906153e4565b613e9391906153b1565b90508015613ee557601a54811115613ead57601a54613eaf565b805b905061271081601354613ec291906153c5565b613ece90612710615399565b613ed890856153c5565b613ee291906153b1565b92505b6018546040870151613ef790426153e4565b613f0191906153b1565b90508015613f5357601b54811115613f1b57601b54613f1d565b805b905061271081601954613f3091906153c5565b613f3c90612710615399565b613f4690856153c5565b613f5091906153b1565b92505b608086015115613f89576127108660800151612710613f729190615399565b613f7c90856153c5565b613f8691906153b1565b92505b8560a0015115613fbd57612710601054612710613fa69190615399565b613fb090856153c5565b613fba91906153b1565b92505b8560c0015115613ff157612710601454612710613fda9190615399565b613fe490856153c5565b613fee91906153b1565b92505b6000601e8760e001516040516140079190614f82565b908152602001604051809103902054111561406657612710601e8760e001516040516140339190614f82565b90815260200160405180910390205461271061404f9190615399565b61405990856153c5565b61406391906153b1565b92505b601654604087015161407890426153e4565b111561408e5760155461408b9084615399565b92505b60075460085460208801516140a390426153e4565b6009546140b091906153c5565b6140ba91906153b1565b1080156140c957506000600a54115b156140f657612710600a54846140df91906153c5565b6140e991906153b1565b6140f39083615399565b91505b60175415614126576127106017548461410f91906153c5565b61411991906153b1565b6141239083615399565b91505b61413082846153e4565b94509092505050915091565b600085511161418d5760405162461bcd60e51b815260206004820152601b60248201527f4e6f6465547970653a204e6f7468696e6720746f2063726561746500000000006044820152606401610cf2565b6001600160a01b03861660009081526021602052604090205460ff166142135760208054600180820183557fc97bfaf2f8ee708c303a06d134f5ecd8389ae0432af62dc132a24118292866bb90910180546001600160a01b0319166001600160a01b038a16908117909155600090815260219092526040909120805460ff191690911790555b60005b855181101561435a576000604051806101000160405280896001600160a01b0316815260200142815260200142815260200142815260200184815260200187848151811061427457634e487b7160e01b600052603260045260246000fd5b60200260200101511515815260200186151581526020018581525090506142e7600260008a6001600160a01b03166001600160a01b031681526020019081526020016000208884815181106142d957634e487b7160e01b600052603260045260246000fd5b6020026020010151836143b0565b876003600089858151811061430c57634e487b7160e01b600052603260045260246000fd5b6020026020010151815260200190815260200160002060006101000a8154816001600160a01b0302191690836001600160a01b0316021790555050808061435290615479565b915050614216565b508451601f8360405161436d9190614f82565b9081526020016040518091039020600082825461438a9190615399565b90915550508451600580546000906143a3908490615399565b9091555050505050505050565b600082815260038401602052604090205460ff161561447757600082815260018481016020908152604092839020845181546001600160a01b0319166001600160a01b039091161781558482015192810192909255918301516002820155606083015160038201556080830151600482015560a083015160058201805460c086015160ff199091169215159290921761ff0019166101009215159290920291909117905560e08301518051849361446e926006850192910190614840565b5090505061455c565b60008281526003848101602090815260408084208054600160ff199182168117909255818901845294829020865181546001600160a01b0319166001600160a01b0390911617815586840151918101919091559085015160028201556060850151928101929092556080840151600483015560a084015160058301805460c087015195169115159190911761ff001916610100941515949094029390931790925560e083015180518493614532926006850192910190614840565b50508354600084815260028601602090815260408220839055600183018755868252902001839055505b505050565b600081815260038301602052604090205460ff1661457e57611f0b565b6000818152600380840160209081526040808420805460ff191690556001808701909252832080546001600160a01b0319168155908101839055600281018390559081018290556004810182905560058101805461ffff19169055906145e76006830182614916565b50506000818152600283016020526040812054835490919061460b906001906153e4565b9050600084600001828154811061463257634e487b7160e01b600052603260045260246000fd5b60009182526020808320909101548083526002880190915260408083208690558683528220919091559050818314614695578085600001848154811061468857634e487b7160e01b600052603260045260246000fd5b6000918252602090912001555b84548590806146b457634e487b7160e01b600052603160045260246000fd5b600190038181906000526020600020016000905590555050505050565b60606000836001600160401b038111156146fb57634e487b7160e01b600052604160045260246000fd5b604051908082528060200260200182016040528015614724578160200160208202803683370190505b50905060005b848110156147cd57831561478857601154614744876147d6565b10614750576000614753565b60015b82828151811061477357634e487b7160e01b600052603260045260246000fd5b911515602092830291909101909101526147bb565b60008282815181106147aa57634e487b7160e01b600052603260045260246000fd5b911515602092830291909101909101525b806147c581615479565b91505061472a565b50949350505050565b6025546040805160208101929092526bffffffffffffffffffffffff19606084901b1690820152446054820152426074820152600090819060940160408051601f1981840301815291905280516020909101206025805460010190559050612adb61271082615494565b82805461484c9061543e565b90600052602060002090601f01602090048101928261486e57600085556148b4565b82601f1061488757805160ff19168380011785556148b4565b828001600101855582156148b4579182015b828111156148b4578251825591602001919060010190614899565b506148c0929150614955565b5090565b60405180610100016040528060006001600160a01b0316815260200160008152602001600081526020016000815260200160008152602001600015158152602001600015158152602001606081525090565b5080546149229061543e565b6000825580601f106149345750614952565b601f0160209004906000526020600020908101906149529190614955565b50565b5b808211156148c05760008155600101614956565b80356001600160a01b0381168114611a1457600080fd5b600082601f830112614991578081fd5b813560206149a66149a183615376565b615346565b82815281810190858301838502870184018810156149c2578586fd5b855b858110156149e0578135845292840192908401906001016149c4565b5090979650505050505050565b80358015158114611a1457600080fd5b600082601f830112614a0d578081fd5b81356001600160401b03811115614a2657614a266154d4565b614a39601f8201601f1916602001615346565b818152846020838601011115614a4d578283fd5b816020850160208301379081016020019190915292915050565b600060208284031215614a78578081fd5b612adb8261496a565b600080600060608486031215614a95578182fd5b614a9e8461496a565b9250614aac6020850161496a565b9150604084013590509250925092565b60008060408385031215614ace578182fd5b614ad78361496a565b915060208301356001600160401b03811115614af1578182fd5b614afd85828601614981565b9150509250929050565b600080600060608486031215614b1b578283fd5b614b248461496a565b925060208401356001600160401b0380821115614b3f578384fd5b614b4b87838801614981565b93506040860135915080821115614b60578283fd5b50614b6d868287016149fd565b9150509250925092565b60008060408385031215614b89578182fd5b614b928361496a565b9150614ba0602084016149ed565b90509250929050565b60008060008060008060c08789031215614bc1578182fd5b614bca8761496a565b9550602080880135955060408801356001600160401b0380821115614bed578485fd5b614bf98b838c01614981565b965060608a0135915080821115614c0e578485fd5b818a0191508a601f830112614c21578485fd5b8135614c2f6149a182615376565b81815284810190848601868402860187018f1015614c4b578889fd5b8895505b83861015614c7457614c60816149ed565b835260019590950194918601918601614c4f565b509750614c8691505060808b016149ed565b945060a08a0135925080831115614c9b578384fd5b5050614ca989828a016149fd565b9150509295509295509295565b600080600060608486031215614cca578283fd5b614cd38461496a565b95602085013595506040909401359392505050565b600080600080600060a08688031215614cff578081fd5b614d08866149ed565b9450614d16602087016149ed565b9350614d24604087016149ed565b9250614d32606087016149ed565b9150614d40608087016149ed565b90509295509295909350565b600060208284031215614d5d578081fd5b81356001600160401b03811115614d72578182fd5b612418848285016149fd565b60008060408385031215614d90578182fd5b82356001600160401b03811115614da5578283fd5b614db1858286016149fd565b95602094909401359450505050565b600060208284031215614dd1578081fd5b5035919050565b600060208284031215614de9578081fd5b5051919050565b60008060408385031215614e02578182fd5b50508035926020909101359150565b600080600080600060a08688031215614e28578283fd5b8535945060208601359350614e3f604087016149ed565b9250614e4d606087016149ed565b915060808601356001600160401b03811115614e67578182fd5b614e73888289016149fd565b9150509295509295909350565b600080600060608486031215614e94578081fd5b505081359360208301359350604090920135919050565b6000815180845260208085019450808401835b83811015614eda57815187529582019590820190600101614ebe565b509495945050505050565b60008151808452614efd8160208601602086016153fb565b601f01601f19169290920160200192915050565b600061010060018060a01b0383511684526020830151602085015260408301516040850152606083015160608501526080830151608085015260a0830151151560a085015260c0830151151560c085015260e08301518160e0860152614f7982860182614ee5565b95945050505050565b60008251614f948184602087016153fb565b9190910192915050565b6000808354614fac8161543e565b60018281168015614fc45760018114614fd557615001565b60ff19841687528287019450615001565b8786526020808720875b85811015614ff85781548a820152908401908201614fdf565b50505082870194505b50929695505050505050565b6020808252825182820181905260009190848201906040850190845b8181101561504e5783516001600160a01b031683529284019291840191600101615029565b50909695505050505050565b6000602080830181845280855180835260408601915060408482028701019250838701855b828110156150ad57603f1988860301845261509b858351614ee5565b9450928501929085019060010161507f565b5092979650505050505050565b6000602080830181845280855180835260408601915060408482028701019250838701855b828110156150ad57603f198886030184526150fb858351614f11565b945092850192908501906001016150df565b600060208252612adb6020830184614eab565b6000604082526151336040830185614eab565b8281036020840152614f798185614eab565b600060208252612adb6020830184614ee5565b60006040825280845461516a8161543e565b806040860152606060018084166000811461518c57600181146151a0576151ce565b60ff198516888401526080880195506151ce565b8987526020808820885b868110156151c55781548b82018701529084019082016151aa565b8a018501975050505b505050506001600160a01b0394909416602093909301929092525092915050565b6020808252601e908201527f4e6f6465547970653a204665617475726520646f65736e742065786973740000604082015260600190565b60208082526012908201527127bbb732b9399d1027b7363c9027bbb732b960711b604082015260600190565b60208082526022908201527f4e6f6465547970653a20546f6f206d616e79206e6f6465732072657175657374604082015261195960f21b606082015260800190565b6020808252601690820152752737b232aa3cb8329d1027b7363c902430b7323632b960511b604082015260600190565b60208082526023908201527f4e6f6465547970653a205573657220646f65736e74206f776e2074686973206e6040820152626f646560e81b606082015260800190565b6020808252601290820152712737b232aa3cb8329d102737ba1037b832b760711b604082015260600190565b600060208252612adb6020830184614f11565b604051601f8201601f191681016001600160401b038111828210171561536e5761536e6154d4565b604052919050565b60006001600160401b0382111561538f5761538f6154d4565b5060209081020190565b600082198211156153ac576153ac6154a8565b500190565b6000826153c0576153c06154be565b500490565b60008160001904831182151516156153df576153df6154a8565b500290565b6000828210156153f6576153f66154a8565b500390565b60005b838110156154165781810151838201526020016153fe565b83811115613b515750506000910152565b600081615436576154366154a8565b506000190190565b60028104600182168061545257607f821691505b6020821081141561547357634e487b7160e01b600052602260045260246000fd5b50919050565b600060001982141561548d5761548d6154a8565b5060010190565b6000826154a3576154a36154be565b500690565b634e487b7160e01b600052601160045260246000fd5b634e487b7160e01b600052601260045260246000fd5b634e487b7160e01b600052604160045260246000fdfea2646970667358221220ea571ae10163373c98da888adacc4f05a3f0274b46ea7a938a25bcd6ebc77abc64736f6c63430008020033",
  "linkReferences": {},
  "deployedLinkReferences": {}
}