{
  "_format": "hh-sol-artifact-1",
  "contractName": "Handler",
  "sourceName": "contracts/Handler.sol",
  "abi": [
    {
      "anonymous": false,
      "inputs": [
        {
          "indexed": true,
          "internalType": "address",
          "name": "owner",
          "type": "address"
        },
        {
          "indexed": true,
          "internalType": "string",
          "name": "name",
          "type": "string"
        },
        {
          "indexed": false,
          "internalType": "uint256",
          "name": "count",
          "type": "uint256"
        }
      ],
      "name": "NewNode",
      "type": "event"
    },
    {
      "inputs": [
        {
          "internalType": "address[]",
          "name": "_addrs",
          "type": "address[]"
        }
      ],
      "name": "addMultipleNodeTypes",
      "outputs": [],
      "stateMutability": "nonpayable",
      "type": "function"
    },
    {
      "inputs": [
        {
          "internalType": "address",
          "name": "_addr",
          "type": "address"
        }
      ],
      "name": "addNodeType",
      "outputs": [],
      "stateMutability": "nonpayable",
      "type": "function"
    },
    {
      "inputs": [
        {
          "internalType": "address",
          "name": "_new",
          "type": "address"
        },
        {
          "internalType": "bool",
          "name": "_change",
          "type": "bool"
        }
      ],
      "name": "addOwner",
      "outputs": [],
      "stateMutability": "nonpayable",
      "type": "function"
    },
    {
      "inputs": [
        {
          "internalType": "address",
          "name": "tokenOut",
          "type": "address"
        },
        {
          "internalType": "address",
          "name": "user",
          "type": "address"
        }
      ],
      "name": "claimRewardsAll",
      "outputs": [],
      "stateMutability": "nonpayable",
      "type": "function"
    },
    {
      "inputs": [
        {
          "internalType": "address",
          "name": "tokenOut",
          "type": "address"
        },
        {
          "internalType": "address",
          "name": "user",
          "type": "address"
        },
        {
          "internalType": "string[]",
          "name": "names",
          "type": "string[]"
        },
        {
          "internalType": "uint256[][]",
          "name": "tokenIds",
          "type": "uint256[][]"
        }
      ],
      "name": "claimRewardsBatch",
      "outputs": [],
      "stateMutability": "nonpayable",
      "type": "function"
    },
    {
      "inputs": [
        {
          "internalType": "address",
          "name": "tokenOut",
          "type": "address"
        },
        {
          "internalType": "address",
          "name": "user",
          "type": "address"
        },
        {
          "internalType": "string",
          "name": "name",
          "type": "string"
        }
      ],
      "name": "claimRewardsNodeType",
      "outputs": [],
      "stateMutability": "nonpayable",
      "type": "function"
    },
    {
      "inputs": [
        {
          "internalType": "string",
          "name": "name",
          "type": "string"
        },
        {
          "internalType": "address",
          "name": "user",
          "type": "address"
        },
        {
          "internalType": "uint256",
          "name": "count",
          "type": "uint256"
        }
      ],
      "name": "createLuckyBoxesAirDrop",
      "outputs": [],
      "stateMutability": "nonpayable",
      "type": "function"
    },
    {
      "inputs": [
        {
          "internalType": "address",
          "name": "tokenIn",
          "type": "address"
        },
        {
          "internalType": "address",
          "name": "user",
          "type": "address"
        },
        {
          "internalType": "string",
          "name": "name",
          "type": "string"
        },
        {
          "internalType": "uint256",
          "name": "count",
          "type": "uint256"
        },
        {
          "internalType": "string",
          "name": "sponso",
          "type": "string"
        }
      ],
      "name": "createLuckyBoxesWithTokens",
      "outputs": [],
      "stateMutability": "nonpayable",
      "type": "function"
    },
    {
      "inputs": [
        {
          "internalType": "string",
          "name": "name",
          "type": "string"
        },
        {
          "internalType": "address",
          "name": "user",
          "type": "address"
        },
        {
          "internalType": "uint256",
          "name": "isBoostedAirDropRate",
          "type": "uint256"
        },
        {
          "internalType": "bool[]",
          "name": "areBoostedNft",
          "type": "bool[]"
        },
        {
          "internalType": "bool",
          "name": "isBoostedToken",
          "type": "bool"
        },
        {
          "internalType": "string",
          "name": "feature",
          "type": "string"
        },
        {
          "internalType": "uint256",
          "name": "count",
          "type": "uint256"
        }
      ],
      "name": "createNodesAirDrop",
      "outputs": [],
      "stateMutability": "nonpayable",
      "type": "function"
    },
    {
      "inputs": [
        {
          "internalType": "address",
          "name": "tokenOut",
          "type": "address"
        },
        {
          "internalType": "string[]",
          "name": "nameFrom",
          "type": "string[]"
        },
        {
          "internalType": "uint256[][]",
          "name": "tokenIdsToBurn",
          "type": "uint256[][]"
        },
        {
          "internalType": "string",
          "name": "nameTo",
          "type": "string"
        },
        {
          "internalType": "uint256",
          "name": "count",
          "type": "uint256"
        }
      ],
      "name": "createNodesLevelUp",
      "outputs": [],
      "stateMutability": "nonpayable",
      "type": "function"
    },
    {
      "inputs": [
        {
          "internalType": "address",
          "name": "user",
          "type": "address"
        },
        {
          "internalType": "string[]",
          "name": "nameFrom",
          "type": "string[]"
        },
        {
          "internalType": "uint256[]",
          "name": "count",
          "type": "uint256[]"
        }
      ],
      "name": "createNodesMigration",
      "outputs": [],
      "stateMutability": "nonpayable",
      "type": "function"
    },
    {
      "inputs": [
        {
          "internalType": "uint256[]",
          "name": "tokenIdsLuckyBoxes",
          "type": "uint256[]"
        }
      ],
      "name": "createNodesWithLuckyBoxes",
      "outputs": [],
      "stateMutability": "nonpayable",
      "type": "function"
    },
    {
      "inputs": [
        {
          "internalType": "address",
          "name": "tokenOut",
          "type": "address"
        },
        {
          "internalType": "string[]",
          "name": "nameFrom",
          "type": "string[]"
        },
        {
          "internalType": "uint256[][]",
          "name": "tokenIdsToClaim",
          "type": "uint256[][]"
        },
        {
          "internalType": "string",
          "name": "nameTo",
          "type": "string"
        },
        {
          "internalType": "uint256",
          "name": "count",
          "type": "uint256"
        }
      ],
      "name": "createNodesWithPending",
      "outputs": [],
      "stateMutability": "nonpayable",
      "type": "function"
    },
    {
      "inputs": [
        {
          "internalType": "address",
          "name": "tokenIn",
          "type": "address"
        },
        {
          "internalType": "address",
          "name": "user",
          "type": "address"
        },
        {
          "internalType": "string",
          "name": "name",
          "type": "string"
        },
        {
          "internalType": "uint256",
          "name": "count",
          "type": "uint256"
        },
        {
          "internalType": "string",
          "name": "sponso",
          "type": "string"
        }
      ],
      "name": "createNodesWithTokens",
      "outputs": [],
      "stateMutability": "nonpayable",
      "type": "function"
    },
    {
      "inputs": [
        {
          "internalType": "uint256",
          "name": "tokenId",
          "type": "uint256"
        }
      ],
      "name": "getAttribute",
      "outputs": [
        {
          "internalType": "string",
          "name": "",
          "type": "string"
        }
      ],
      "stateMutability": "view",
      "type": "function"
    },
    {
      "inputs": [
        {
          "internalType": "address",
          "name": "user",
          "type": "address"
        }
      ],
      "name": "getClaimableRewardsOf",
      "outputs": [
        {
          "internalType": "uint256",
          "name": "",
          "type": "uint256"
        },
        {
          "internalType": "uint256",
          "name": "",
          "type": "uint256"
        }
      ],
      "stateMutability": "view",
      "type": "function"
    },
    {
      "inputs": [
        {
          "internalType": "string",
          "name": "key",
          "type": "string"
        }
      ],
      "name": "getNodeTypesAddress",
      "outputs": [
        {
          "internalType": "address",
          "name": "",
          "type": "address"
        }
      ],
      "stateMutability": "view",
      "type": "function"
    },
    {
      "inputs": [
        {
          "internalType": "uint256",
          "name": "iStart",
          "type": "uint256"
        },
        {
          "internalType": "uint256",
          "name": "iEnd",
          "type": "uint256"
        }
      ],
      "name": "getNodeTypesBetweenIndexes",
      "outputs": [
        {
          "internalType": "string[]",
          "name": "",
          "type": "string[]"
        }
      ],
      "stateMutability": "view",
      "type": "function"
    },
    {
      "inputs": [],
      "name": "getNodeTypesSize",
      "outputs": [
        {
          "internalType": "uint256",
          "name": "",
          "type": "uint256"
        }
      ],
      "stateMutability": "view",
      "type": "function"
    },
    {
      "inputs": [],
      "name": "getOwnersSize",
      "outputs": [
        {
          "internalType": "uint256",
          "name": "",
          "type": "uint256"
        }
      ],
      "stateMutability": "view",
      "type": "function"
    },
    {
      "inputs": [
        {
          "internalType": "uint256",
          "name": "key",
          "type": "uint256"
        }
      ],
      "name": "getTokenIdNodeTypeName",
      "outputs": [
        {
          "internalType": "string",
          "name": "",
          "type": "string"
        }
      ],
      "stateMutability": "view",
      "type": "function"
    },
    {
      "inputs": [
        {
          "internalType": "uint256",
          "name": "iStart",
          "type": "uint256"
        },
        {
          "internalType": "uint256",
          "name": "iEnd",
          "type": "uint256"
        }
      ],
      "name": "getTokenIdsBetweenIndexes",
      "outputs": [
        {
          "internalType": "uint256[]",
          "name": "",
          "type": "uint256[]"
        }
      ],
      "stateMutability": "view",
      "type": "function"
    },
    {
      "inputs": [
        {
          "internalType": "uint256",
          "name": "iStart",
          "type": "uint256"
        },
        {
          "internalType": "uint256",
          "name": "iEnd",
          "type": "uint256"
        }
      ],
      "name": "getTokenIdsNodeTypeBetweenIndexes",
      "outputs": [
        {
          "internalType": "string[]",
          "name": "",
          "type": "string[]"
        }
      ],
      "stateMutability": "view",
      "type": "function"
    },
    {
      "inputs": [],
      "name": "getTokenIdsSize",
      "outputs": [
        {
          "internalType": "uint256",
          "name": "",
          "type": "uint256"
        }
      ],
      "stateMutability": "view",
      "type": "function"
    },
    {
      "inputs": [],
      "name": "getTotalCreatedNodes",
      "outputs": [
        {
          "internalType": "uint256",
          "name": "",
          "type": "uint256"
        }
      ],
      "stateMutability": "view",
      "type": "function"
    },
    {
      "inputs": [
        {
          "internalType": "address",
          "name": "user",
          "type": "address"
        }
      ],
      "name": "getTotalNodesOf",
      "outputs": [
        {
          "internalType": "uint256",
          "name": "",
          "type": "uint256"
        }
      ],
      "stateMutability": "view",
      "type": "function"
    },
    {
      "inputs": [
        {
          "internalType": "address",
          "name": "",
          "type": "address"
        }
      ],
      "name": "isOwner",
      "outputs": [
        {
          "internalType": "bool",
          "name": "",
          "type": "bool"
        }
      ],
      "stateMutability": "view",
      "type": "function"
    },
    {
      "inputs": [],
      "name": "nft",
      "outputs": [
        {
          "internalType": "address",
          "name": "",
          "type": "address"
        }
      ],
      "stateMutability": "view",
      "type": "function"
    },
    {
      "inputs": [
        {
          "internalType": "string",
          "name": "name",
          "type": "string"
        },
        {
          "internalType": "address",
          "name": "user",
          "type": "address"
        },
        {
          "internalType": "uint256[]",
          "name": "tokenIds",
          "type": "uint256[]"
        },
        {
          "internalType": "uint256",
          "name": "isBoostedAirDropRate",
          "type": "uint256"
        },
        {
          "internalType": "bool[]",
          "name": "areBoostedNft",
          "type": "bool[]"
        },
        {
          "internalType": "bool",
          "name": "isBoostedToken",
          "type": "bool"
        },
        {
          "internalType": "string",
          "name": "feature",
          "type": "string"
        }
      ],
      "name": "nodeEvolution",
      "outputs": [],
      "stateMutability": "nonpayable",
      "type": "function"
    },
    {
      "inputs": [
        {
          "internalType": "uint256",
          "name": "",
          "type": "uint256"
        }
      ],
      "name": "owners",
      "outputs": [
        {
          "internalType": "address",
          "name": "",
          "type": "address"
        }
      ],
      "stateMutability": "view",
      "type": "function"
    },
    {
      "inputs": [
        {
          "internalType": "address",
          "name": "_new",
          "type": "address"
        }
      ],
      "name": "removeOwner",
      "outputs": [],
      "stateMutability": "nonpayable",
      "type": "function"
    },
    {
      "inputs": [
        {
          "internalType": "address",
          "name": "_new",
          "type": "address"
        }
      ],
      "name": "setLucky",
      "outputs": [],
      "stateMutability": "nonpayable",
      "type": "function"
    },
    {
      "inputs": [
        {
          "internalType": "address",
          "name": "_new",
          "type": "address"
        }
      ],
      "name": "setNft",
      "outputs": [],
      "stateMutability": "nonpayable",
      "type": "function"
    },
    {
      "inputs": [
        {
          "internalType": "address",
          "name": "_new",
          "type": "address"
        }
      ],
      "name": "setSwapper",
      "outputs": [],
      "stateMutability": "nonpayable",
      "type": "function"
    },
    {
      "inputs": [
        {
          "internalType": "address",
          "name": "from",
          "type": "address"
        },
        {
          "internalType": "address",
          "name": "to",
          "type": "address"
        },
        {
          "internalType": "uint256",
          "name": "tokenId",
          "type": "uint256"
        }
      ],
      "name": "transferFrom",
      "outputs": [],
      "stateMutability": "nonpayable",
      "type": "function"
    },
    {
      "inputs": [
        {
          "internalType": "string",
          "name": "name",
          "type": "string"
        },
        {
          "internalType": "address",
          "name": "_addr",
          "type": "address"
        }
      ],
      "name": "updateNodeTypeAddress",
      "outputs": [],
      "stateMutability": "nonpayable",
      "type": "function"
    }
  ],
  "bytecode": "0x608060405234801561001057600080fd5b5060008054600181810183557f290decd9548b62a8d60345a988386fc84ba6bc95484008f6362f93160ef3e56390910180546001600160a01b03191633908117909155825260208190526040909120805460ff1916909117905561497a806100796000396000f3fe608060405234801561001057600080fd5b506004361061021c5760003560e01c80639649aace11610125578063c708c72c116100ad578063e526ce541161007c578063e526ce54146104c7578063e9897f87146104da578063eba86d29146104ed578063f3c1338714610500578063f51dee09146105135761021c565b8063c708c72c14610486578063d6a0d2ee14610499578063e15e66d0146104a1578063e1ca019b146104b45761021c565b8063a650ac0d116100f4578063a650ac0d146103f8578063a6b690e014610418578063a880f1a91461042b578063bf035e111461043e578063c299d380146104665761021c565b80639649aace146103b75780639c82f2a4146103ca578063a0a8fe65146103dd578063a4a74c49146103e55761021c565b806347ccca02116101a857806362829b201161017757806362829b2014610363578063652469301461037657806376f4e8d514610389578063837154761461039c5780638f309880146103a45761021c565b806347ccca021461030a578063493fe80f1461031d578063518e32d31461033d57806362663f18146103505761021c565b8063173825d9116101ef578063173825d91461028b5780631fb895f81461029e57806323b872dd146102b15780632f54bf6e146102c4578063321f8674146102f75761021c565b806301b4f6b914610221578063025e7c27146102365780630c7b1d7b146102665780630eedc8fd14610278575b600080fd5b61023461022f36600461425f565b610526565b005b610249610244366004614317565b610714565b6040516001600160a01b0390911681526020015b60405180910390f35b6000545b60405190815260200161025d565b610234610286366004613d07565b61073e565b610234610299366004613bd8565b610896565b6102346102ac366004614107565b610b66565b6102346102bf366004613d92565b610c1c565b6102e76102d2366004613bd8565b60016020526000908152604090205460ff1681565b604051901515815260200161025d565b610234610305366004613d07565b610d04565b600a54610249906001600160a01b031681565b61033061032b366004614317565b610dfc565b60405161025d9190614662565b61023461034b366004613ecf565b610eb6565b61023461035e366004613ef8565b6110cc565b610234610371366004613bf9565b6111eb565b6102496103843660046140a3565b6113a7565b610234610397366004614149565b611444565b60065461026a565b6102346103b2366004613c2b565b6117e2565b6102346103c5366004613e69565b611a1f565b6102346103d8366004613bd8565b611c6f565b61026a611d26565b6103306103f3366004614317565b611e19565b61040b610406366004614347565b611f0f565b60405161025d919061464f565b610234610426366004613dcd565b611ff5565b61026a610439366004613bd8565b6124f8565b61045161044c366004613bd8565b6125ef565b6040805192835260208301919091520161025d565b610479610474366004614347565b612706565b60405161025d91906145ef565b610234610494366004613bd8565b612877565b60025461026a565b6104796104af366004614347565b61299c565b6102346104c2366004613bd8565b612b22565b6102346104d5366004613fee565b612bd5565b6102346104e8366004613cac565b612e01565b6102346104fb36600461421b565b612f92565b61023461050e366004613bd8565b612ff5565b610234610521366004613dcd565b6130a8565b3360009081526001602052604090205460ff1661055e5760405162461bcd60e51b8152600401610555906146d6565b60405180910390fd5b83516001146105af5760405162461bcd60e51b815260206004820152601a60248201527f48616e646c65723a20437265617465206f6e65206279206f6e650000000000006044820152606401610555565b6000811161060d5760405162461bcd60e51b815260206004820152602560248201527f48616e646c65723a20436f756e74206d75737420626520677265617465722074604482015264068616e20360dc1b6064820152608401610555565b60005b818110156106c357600061062689896001613421565b905060026001018960405161063b91906143f1565b908152604051908190036020018120546304a75fe360e21b82526001600160a01b03169063129d7f8c9061067d908b908b9086908c908c908c90600401614568565b600060405180830381600087803b15801561069757600080fd5b505af11580156106ab573d6000803e3d6000fd5b505050505080806106bb906148dd565b915050610610565b50866040516106d291906143f1565b6040518091039020866001600160a01b03166000805160206149258339815191528360405161070391815260200190565b60405180910390a350505050505050565b6000818154811061072457600080fd5b6000918252602090912001546001600160a01b0316905081565b600061074b848685613421565b9050600060026001018560405161076291906143f1565b9081526040519081900360200181205463b018fc6f60e01b82526001600160a01b03169063b018fc6f9061079c908990869060040161450e565b602060405180830381600087803b1580156107b657600080fd5b505af11580156107ca573d6000803e3d6000fd5b505050506040513d601f19601f820116820180604052508101906107ee919061432f565b600c54604051633517b5bb60e11b81529192506001600160a01b031690636a2f6b7690610825908a903390869089906004016144a8565b600060405180830381600087803b15801561083f57600080fd5b505af1158015610853573d6000803e3d6000fd5b505050508460405161086591906143f1565b6040518091039020866001600160a01b03166000805160206149258339815191528660405161070391815260200190565b336001600160a01b0316600080815481106108c157634e487b7160e01b600052603260045260246000fd5b6000918252602090912001546001600160a01b03161461091e5760405162461bcd60e51b815260206004820152601860248201527727bbb732b9399d1027b7363c9029bab832b91027bbb732b960411b6044820152606401610555565b6001600160a01b03811660009081526001602052604090205460ff1661097a5760405162461bcd60e51b815260206004820152601160248201527027bbb732b9399d102737ba1037bbb732b960791b6044820152606401610555565b6000808154811061099b57634e487b7160e01b600052603260045260246000fd5b6000918252602090912001546001600160a01b0382811691161415610a0c5760405162461bcd60e51b815260206004820152602160248201527f4f776e6572733a2043616e6e6f742072656d6f7665207375706572206f776e656044820152603960f91b6064820152608401610555565b60015b600054811015610b4457816001600160a01b031660008281548110610a4457634e487b7160e01b600052603260045260246000fd5b6000918252602090912001546001600160a01b03161415610b325760008054610a6f9060019061485f565b81548110610a8d57634e487b7160e01b600052603260045260246000fd5b600091825260208220015481546001600160a01b03909116919083908110610ac557634e487b7160e01b600052603260045260246000fd5b6000918252602082200180546001600160a01b0319166001600160a01b039390931692909217909155805480610b0b57634e487b7160e01b600052603160045260246000fd5b600082815260209020810160001990810180546001600160a01b0319169055019055610b44565b80610b3c816148dd565b915050610a0f565b506001600160a01b03166000908152600160205260409020805460ff19169055565b3360009081526001602052604090205460ff16610b955760405162461bcd60e51b8152600401610555906146d6565b604051600590610ba69084906143f1565b9081526040519081900360200190205460ff16610bd55760405162461bcd60e51b81526004016105559061477d565b80600260010183604051610be991906143f1565b90815260405190819003602001902080546001600160a01b03929092166001600160a01b03199092169190911790555050565b600a546001600160a01b03163314610c6a5760405162461bcd60e51b815260206004820152601160248201527012185b991b195c8e8813db9b1e4813999d607a1b6044820152606401610555565b600081815260076020526040908190209051600391610c889161440d565b908152604051908190036020018120546323b872dd60e01b82526001600160a01b03858116600484015284811660248401526044830184905216906323b872dd906064015b600060405180830381600087803b158015610ce757600080fd5b505af1158015610cfb573d6000803e3d6000fd5b50505050505050565b600b54604051636454a0fd60e01b81526000916001600160a01b031690636454a0fd90610d3990879087908a906004016146a3565b602060405180830381600087803b158015610d5357600080fd5b505af1158015610d67573d6000803e3d6000fd5b505050506040513d601f19601f82011682018060405250810190610d8b919061432f565b600c5460405163a77f789b60e01b81529192506001600160a01b03169063a77f789b90610dc29089903390869088906004016144a8565b600060405180830381600087803b158015610ddc57600080fd5b505af1158015610df0573d6000803e3d6000fd5b50505050505050505050565b600081815260076020526040908190209051606091600391610e1e919061440d565b9081526040519081900360200181205463493fe80f60e01b82526001600160a01b03169063493fe80f90610e5a90859060040190815260200190565b60006040518083038186803b158015610e7257600080fd5b505afa158015610e86573d6000803e3d6000fd5b505050506040513d6000823e601f3d908101601f19168201604052610eae91908101906140d5565b90505b919050565b336001600160a01b031660008081548110610ee157634e487b7160e01b600052603260045260246000fd5b6000918252602090912001546001600160a01b031614610f3e5760405162461bcd60e51b815260206004820152601860248201527727bbb732b9399d1027b7363c9029bab832b91027bbb732b960411b6044820152606401610555565b6001600160a01b03821660009081526001602052604090205460ff1615610f9f5760405162461bcd60e51b815260206004820152601560248201527427bbb732b9399d1020b63932b0b23c9037bbb732b960591b6044820152606401610555565b6001600160a01b0382166000908152600160208190526040909120805460ff19169091179055801561107f57600080600081548110610fee57634e487b7160e01b600052603260045260246000fd5b6000918252602080832090910154835460018101855593835290822090920180546001600160a01b0319166001600160a01b03909316929092179091558054839190819061104c57634e487b7160e01b600052603260045260246000fd5b9060005260206000200160006101000a8154816001600160a01b0302191690836001600160a01b031602179055506110c8565b600080546001810182559080527f290decd9548b62a8d60345a988386fc84ba6bc95484008f6362f93160ef3e5630180546001600160a01b0319166001600160a01b0384161790555b5050565b3360009081526001602052604090205460ff166110fb5760405162461bcd60e51b8152600401610555906146d6565b60005b81518110156110c857600082828151811061112957634e487b7160e01b600052603260045260246000fd5b60200260200101516001600160a01b03166306fdde036040518163ffffffff1660e01b815260040160006040518083038186803b15801561116957600080fd5b505afa15801561117d573d6000803e3d6000fd5b505050506040513d6000823e601f3d908101601f191682016040526111a591908101906140d5565b90506111d8818484815181106111cb57634e487b7160e01b600052603260045260246000fd5b602002602001015161354a565b50806111e3816148dd565b9150506110fe565b6001600160a01b03811633148061121157503360009081526001602052604090205460ff165b61122d5760405162461bcd60e51b815260040161055590614739565b60008060005b6002548110156113385760008060026001016002600001848154811061126957634e487b7160e01b600052603260045260246000fd5b90600052602060002001604051611280919061440d565b908152604051908190036020018120546318c880ef60e21b82526001600160a01b038881166004840152169063632203bc906024016040805180830381600087803b1580156112ce57600080fd5b505af11580156112e2573d6000803e3d6000fd5b505050506040513d601f19601f820116820180604052508101906113069190614368565b90925090506113158286614847565b94506113218185614847565b935050508080611330906148dd565b915050611233565b50600c5460405163658793a360e01b81526001600160a01b039091169063658793a39061136f9087908790879087906004016144e5565b600060405180830381600087803b15801561138957600080fd5b505af115801561139d573d6000803e3d6000fd5b5050505050505050565b60006002600301826040516113bc91906143f1565b9081526040519081900360200190205460ff166114135760405162461bcd60e51b8152602060048201526015602482015274139bd919551e5c1948191bd95cdb9d08195e1a5cdd605a1b6044820152606401610555565b6040516003906114249084906143f1565b908152604051908190036020019020546001600160a01b03169050919050565b3360009081526001602052604090205460ff166114735760405162461bcd60e51b8152600401610555906146d6565b84516001146114c45760405162461bcd60e51b815260206004820152601a60248201527f48616e646c65723a2045766f6c7665206f6e65206279206f6e650000000000006044820152606401610555565b82518551146114e55760405162461bcd60e51b815260040161055590614702565b6040516005906114f69089906143f1565b9081526040519081900360200190205460ff166115255760405162461bcd60e51b81526004016105559061477d565b600660030160008660008151811061154d57634e487b7160e01b600052603260045260246000fd5b60209081029190910181015182528101919091526040016000205460ff166115b75760405162461bcd60e51b815260206004820152601b60248201527f48616e646c65723a20546f6b656e20646f65736e7420657869737400000000006044820152606401610555565b600260010160066001016000876000815181106115e457634e487b7160e01b600052603260045260246000fd5b60200260200101518152602001908152602001600020604051611607919061440d565b908152604051908190036020018120546389af610760e01b82526001600160a01b0316906389af610790611641908990899060040161450e565b602060405180830381600087803b15801561165b57600080fd5b505af115801561166f573d6000803e3d6000fd5b505050506040513d601f19601f82011682018060405250810190611693919061432f565b506116c6856000815181106116b857634e487b7160e01b600052603260045260246000fd5b60200260200101518861369f565b6040516003906116d79089906143f1565b908152604051908190036020018120546304a75fe360e21b82526001600160a01b03169063129d7f8c9061171990899088908a90899089908990600401614568565b600060405180830381600087803b15801561173357600080fd5b505af1158015611747573d6000803e3d6000fd5b5050600a5487516001600160a01b03909116925063aff930e69150879060009061178157634e487b7160e01b600052603260045260246000fd5b6020026020010151896040518363ffffffff1660e01b81526004016117a79291906147b4565b600060405180830381600087803b1580156117c157600080fd5b505af11580156117d5573d6000803e3d6000fd5b5050505050505050505050565b6001600160a01b03831633148061180857503360009081526001602052604090205460ff165b6118245760405162461bcd60e51b815260040161055590614739565b60008082518451146118485760405162461bcd60e51b815260040161055590614702565b60005b84518110156119e857600260030185828151811061187957634e487b7160e01b600052603260045260246000fd5b602002602001015160405161188e91906143f1565b9081526040519081900360200190205460ff166118bd5760405162461bcd60e51b81526004016105559061477d565b60008060026001018784815181106118e557634e487b7160e01b600052603260045260246000fd5b60200260200101516040516118fa91906143f1565b9081526040519081900360200190205486516001600160a01b039091169063daf73bbd908a9089908790811061194057634e487b7160e01b600052603260045260246000fd5b60200260200101516040518363ffffffff1660e01b815260040161196592919061450e565b6040805180830381600087803b15801561197e57600080fd5b505af1158015611992573d6000803e3d6000fd5b505050506040513d601f19601f820116820180604052508101906119b69190614368565b90925090506119c58286614847565b94506119d18185614847565b9350505080806119e0906148dd565b91505061184b565b50600c546040516336ed57cd60e01b81526001600160a01b03909116906336ed57cd90610dc29089908990879087906004016144e5565b6001600160a01b038316331480611a4557503360009081526001602052604090205460ff165b611a915760405162461bcd60e51b815260206004820152601e60248201527f48616e646c65723a2053656e646572206e6f7420617574686f72697a656400006044820152606401610555565b8051825114611ab25760405162461bcd60e51b815260040161055590614702565b60005b8251811015611c69576000611b19848381518110611ae357634e487b7160e01b600052603260045260246000fd5b602002602001015186858581518110611b0c57634e487b7160e01b600052603260045260246000fd5b6020026020010151613421565b90506002600101848381518110611b4057634e487b7160e01b600052603260045260246000fd5b6020026020010151604051611b5591906143f1565b908152604051908190036020018120546306caef4d60e51b82526001600160a01b03169063d95de9a090611b8f908890859060040161450e565b600060405180830381600087803b158015611ba957600080fd5b505af1158015611bbd573d6000803e3d6000fd5b50505050838281518110611be157634e487b7160e01b600052603260045260246000fd5b6020026020010151604051611bf691906143f1565b6040518091039020856001600160a01b0316600080516020614925833981519152858581518110611c3757634e487b7160e01b600052603260045260246000fd5b6020026020010151604051611c4e91815260200190565b60405180910390a35080611c61816148dd565b915050611ab5565b50505050565b3360009081526001602052604090205460ff16611c9e5760405162461bcd60e51b8152600401610555906146d6565b6001600160a01b038116611d045760405162461bcd60e51b815260206004820152602760248201527f48616e646c65723a20537761707065722063616e6e6f742062652061646472656044820152667373207a65726f60c81b6064820152608401610555565b600c80546001600160a01b0319166001600160a01b0392909216919091179055565b60008060005b600254811015611e1357600280546003919083908110611d5c57634e487b7160e01b600052603260045260246000fd5b90600052602060002001604051611d73919061440d565b90815260408051602092819003830181205463b88d345360e01b825291516001600160a01b039092169263b88d345392600480840193829003018186803b158015611dbd57600080fd5b505afa158015611dd1573d6000803e3d6000fd5b505050506040513d601f19601f82011682018060405250810190611df5919061432f565b611dff9083614847565b915080611e0b816148dd565b915050611d2c565b50905090565b60008181526009602052604090205460609060ff16611e715760405162461bcd60e51b8152602060048201526014602482015273151bdad95b925908191bd95cdb9d08195e1a5cdd60621b6044820152606401610555565b60008281526007602052604090208054611e8a906148a2565b80601f0160208091040260200160405190810160405280929190818152602001828054611eb6906148a2565b8015611f035780601f10611ed857610100808354040283529160200191611f03565b820191906000526020600020905b815481529060010190602001808311611ee657829003601f168201915b50505050509050919050565b60606000611f1d848461485f565b6001600160401b03811115611f4257634e487b7160e01b600052604160045260246000fd5b604051908082528060200260200182016040528015611f6b578160200160208202803683370190505b509050835b83811015611fed576006805482908110611f9a57634e487b7160e01b600052603260045260246000fd5b9060005260206000200154828683611fb2919061485f565b81518110611fd057634e487b7160e01b600052603260045260246000fd5b602090810291909101015280611fe5816148dd565b915050611f70565b509392505050565b82518451146120165760405162461bcd60e51b815260040161055590614702565b6000612023833384613421565b9050612031863387876117e2565b600060026001018460405161204691906143f1565b908152604051908190036020018120546304eb4ae360e51b82526001600160a01b031690639d695c6090612080903390869060040161450e565b602060405180830381600087803b15801561209a57600080fd5b505af11580156120ae573d6000803e3d6000fd5b505050506040513d601f19601f820116820180604052508101906120d2919061432f565b905060005b8651811080156120e75750600082115b1561247457600260030187828151811061211157634e487b7160e01b600052603260045260246000fd5b602002602001015160405161212691906143f1565b9081526040519081900360200190205460ff166121555760405162461bcd60e51b81526004016105559061477d565b600a5486516001600160a01b039091169063b2dc5dc390339089908590811061218e57634e487b7160e01b600052603260045260246000fd5b60200260200101516040518363ffffffff1660e01b81526004016121b392919061450e565b600060405180830381600087803b1580156121cd57600080fd5b505af11580156121e1573d6000803e3d6000fd5b5050505060005b86828151811061220857634e487b7160e01b600052603260045260246000fd5b602002602001015151811015612339576006600301600088848151811061223f57634e487b7160e01b600052603260045260246000fd5b6020026020010151838151811061226657634e487b7160e01b600052603260045260246000fd5b60209081029190910181015182528101919091526040016000205460ff166122d05760405162461bcd60e51b815260206004820152601d60248201527f48616e646c65723a20546f6b656e496420646f65736e742065786973740000006044820152606401610555565b6123278783815181106122f357634e487b7160e01b600052603260045260246000fd5b6020026020010151828151811061231a57634e487b7160e01b600052603260045260246000fd5b6020026020010151613752565b80612331816148dd565b9150506121e8565b506000600260010188838151811061236157634e487b7160e01b600052603260045260246000fd5b602002602001015160405161237691906143f1565b908152602001604051809103902060009054906101000a90046001600160a01b031690506000816001600160a01b03166389af6107338a86815181106123cc57634e487b7160e01b600052603260045260246000fd5b60200260200101516040518363ffffffff1660e01b81526004016123f192919061450e565b602060405180830381600087803b15801561240b57600080fd5b505af115801561241f573d6000803e3d6000fd5b505050506040513d601f19601f82011682018060405250810190612443919061432f565b905080841161245357600061245d565b61245d818561485f565b93505050808061246c906148dd565b9150506120d7565b5080156124c35760405162461bcd60e51b815260206004820152601760248201527f48616e646c65723a204e696365207472792062756464790000000000000000006044820152606401610555565b836040516124d191906143f1565b60405190819003812084825290339060008051602061492583398151915290602001610703565b60008060005b6002548110156125e85760028054600391908390811061252e57634e487b7160e01b600052603260045260246000fd5b90600052602060002001604051612545919061440d565b908152604051908190036020018120546343a9ac3960e01b82526001600160a01b03868116600484015216906343a9ac399060240160206040518083038186803b15801561259257600080fd5b505afa1580156125a6573d6000803e3d6000fd5b505050506040513d601f19601f820116820180604052508101906125ca919061432f565b6125d49083614847565b9150806125e0816148dd565b9150506124fe565b5092915050565b60008060008060005b6002548110156126fb5760008060026001016002600001848154811061262e57634e487b7160e01b600052603260045260246000fd5b90600052602060002001604051612645919061440d565b908152604051908190036020018120546303eba50760e01b82526001600160a01b038a8116600484015216906303eba50790602401604080518083038186803b15801561269157600080fd5b505afa1580156126a5573d6000803e3d6000fd5b505050506040513d601f19601f820116820180604052508101906126c99190614368565b90925090506126d88286614847565b94506126e48185614847565b9350505080806126f3906148dd565b9150506125f8565b509092509050915091565b60606000612714848461485f565b6001600160401b0381111561273957634e487b7160e01b600052604160045260246000fd5b60405190808252806020026020018201604052801561276c57816020015b60608152602001906001900390816127575790505b509050835b83811015611fed57600280548290811061279b57634e487b7160e01b600052603260045260246000fd5b9060005260206000200180546127b0906148a2565b80601f01602080910402602001604051908101604052809291908181526020018280546127dc906148a2565b80156128295780601f106127fe57610100808354040283529160200191612829565b820191906000526020600020905b81548152906001019060200180831161280c57829003601f168201915b505050505082868361283b919061485f565b8151811061285957634e487b7160e01b600052603260045260246000fd5b6020026020010181905250808061286f906148dd565b915050612771565b3360009081526001602052604090205460ff166128a65760405162461bcd60e51b8152600401610555906146d6565b6000816001600160a01b03166306fdde036040518163ffffffff1660e01b815260040160006040518083038186803b1580156128e157600080fd5b505afa1580156128f5573d6000803e3d6000fd5b505050506040513d6000823e601f3d908101601f1916820160405261291d91908101906140d5565b905060026003018160405161293291906143f1565b9081526040519081900360200190205460ff16156129925760405162461bcd60e51b815260206004820181905260248201527f48616e646c65723a204e6f64655479706520616c7265616479206578697374736044820152606401610555565b6110c8818361354a565b606060006129aa848461485f565b6001600160401b038111156129cf57634e487b7160e01b600052604160045260246000fd5b604051908082528060200260200182016040528015612a0257816020015b60608152602001906001900390816129ed5790505b509050835b83811015611fed576006805460079160009184908110612a3757634e487b7160e01b600052603260045260246000fd5b906000526020600020015481526020019081526020016000208054612a5b906148a2565b80601f0160208091040260200160405190810160405280929190818152602001828054612a87906148a2565b8015612ad45780601f10612aa957610100808354040283529160200191612ad4565b820191906000526020600020905b815481529060010190602001808311612ab757829003601f168201915b5050505050828683612ae6919061485f565b81518110612b0457634e487b7160e01b600052603260045260246000fd5b60200260200101819052508080612b1a906148dd565b915050612a07565b3360009081526001602052604090205460ff16612b515760405162461bcd60e51b8152600401610555906146d6565b6001600160a01b038116612bb35760405162461bcd60e51b8152602060048201526024808201527f48616e646c65723a204c6f6f742063616e6e6f742062652061646472657373206044820152637a65726f60e01b6064820152608401610555565b600b80546001600160a01b0319166001600160a01b0392909216919091179055565b600b5460405163a933c20f60e01b815260609182916001600160a01b039091169063a933c20f90612c0c903390879060040161450e565b600060405180830381600087803b158015612c2657600080fd5b505af1158015612c3a573d6000803e3d6000fd5b505050506040513d6000823e601f3d908101601f19168201604052612c629190810190613f8e565b909250905060005b8251811015611c69576000612ca8848381518110612c9857634e487b7160e01b600052603260045260246000fd5b6020026020010151336001613421565b90506002600101848381518110612ccf57634e487b7160e01b600052603260045260246000fd5b6020026020010151604051612ce491906143f1565b908152602001604051809103902060009054906101000a90046001600160a01b03166001600160a01b031663fd3845043383868681518110612d3657634e487b7160e01b600052603260045260246000fd5b60200260200101516040518463ffffffff1660e01b8152600401612d5c93929190614532565b600060405180830381600087803b158015612d7657600080fd5b505af1158015612d8a573d6000803e3d6000fd5b50505050838281518110612dae57634e487b7160e01b600052603260045260246000fd5b6020026020010151604051612dc391906143f1565b604051908190038120600182529033906000805160206149258339815191529060200160405180910390a35080612df9816148dd565b915050612c6a565b6001600160a01b038216331480612e2757503360009081526001602052604090205460ff165b612e435760405162461bcd60e51b815260040161055590614739565b604051600590612e549083906143f1565b9081526040519081900360200190205460ff16612e835760405162461bcd60e51b81526004016105559061477d565b600080600260010183604051612e9991906143f1565b908152604051908190036020018120546318c880ef60e21b82526001600160a01b038681166004840152169063632203bc906024016040805180830381600087803b158015612ee757600080fd5b505af1158015612efb573d6000803e3d6000fd5b505050506040513d601f19601f82011682018060405250810190612f1f9190614368565b600c5460405163fbe12f1d60e01b81529294509092506001600160a01b03169063fbe12f1d90612f599088908890879087906004016144e5565b600060405180830381600087803b158015612f7357600080fd5b505af1158015612f87573d6000803e3d6000fd5b505050505050505050565b3360009081526001602052604090205460ff16612fc15760405162461bcd60e51b8152600401610555906146d6565b600b546040516343836c7f60e11b81526001600160a01b0390911690638706d8fe90610ccd908690859087906004016146a3565b3360009081526001602052604090205460ff166130245760405162461bcd60e51b8152600401610555906146d6565b6001600160a01b0381166130865760405162461bcd60e51b815260206004820152602360248201527f48616e646c65723a204e66742063616e6e6f742062652061646472657373207a60448201526265726f60e81b6064820152608401610555565b600a80546001600160a01b0319166001600160a01b0392909216919091179055565b82518451146130c95760405162461bcd60e51b815260040161055590614702565b60006130d6833384613421565b905060008060006002600101866040516130f091906143f1565b908152604051908190036020018120546319309eb560e21b82526001600160a01b0316906364c27ad49061312a903390889060040161450e565b602060405180830381600087803b15801561314457600080fd5b505af1158015613158573d6000803e3d6000fd5b505050506040513d601f19601f8201168201806040525081019061317c919061432f565b905060005b885181101561331e5760026003018982815181106131af57634e487b7160e01b600052603260045260246000fd5b60200260200101516040516131c491906143f1565b9081526040519081900360200190205460ff166131f35760405162461bcd60e51b81526004016105559061477d565b60008060026001018b848151811061321b57634e487b7160e01b600052603260045260246000fd5b602002602001015160405161323091906143f1565b908152604051908190036020019020548a516001600160a01b039091169063daf73bbd9033908d908790811061327657634e487b7160e01b600052603260045260246000fd5b60200260200101516040518363ffffffff1660e01b815260040161329b92919061450e565b6040805180830381600087803b1580156132b457600080fd5b505af11580156132c8573d6000803e3d6000fd5b505050506040513d601f19601f820116820180604052508101906132ec9190614368565b90925090506132fb8287614847565b95506133078186614847565b945050508080613316906148dd565b915050613181565b508281111561336f5760405162461bcd60e51b815260206004820152601b60248201527f48616e646c65723a204e6f7420656e6f7567682070656e64696e6700000000006044820152606401610555565b600c546001600160a01b031663c7ae05318a3361338c858861485f565b866040518563ffffffff1660e01b81526004016133ac94939291906144e5565b600060405180830381600087803b1580156133c657600080fd5b505af11580156133da573d6000803e3d6000fd5b50505050856040516133ec91906143f1565b6040519081900381208682529033906000805160206149258339815191529060200160405180910390a3505050505050505050565b606060026003018460405161343691906143f1565b9081526040519081900360200190205460ff166134655760405162461bcd60e51b81526004016105559061477d565b600a54604051635181db2b60e01b81526000916001600160a01b031690635181db2b9061349a90889088908890600401614675565b600060405180830381600087803b1580156134b457600080fd5b505af11580156134c8573d6000803e3d6000fd5b505050506040513d6000823e601f3d908101601f191682016040526134f09190810190614020565b905060005b81518110156135415761352f82828151811061352157634e487b7160e01b600052603260045260246000fd5b60200260200101518761369f565b80613539816148dd565b9150506134f5565b50949350505050565b60405160059061355b9084906143f1565b9081526040519081900360200190205460ff16156135bb578060026001018360405161358791906143f1565b90815260405190819003602001902080546001600160a01b03929092166001600160a01b03199092169190911790556110c8565b60016002600301836040516135d091906143f1565b908152604051908190036020018120805492151560ff199093169290921790915581906003906136019085906143f1565b90815260405190819003602001812080546001600160a01b03939093166001600160a01b031990931692909217909155600254906004906136439085906143f1565b908152604051602091819003820190209190915560028054600181018255600091909152835161369a927f405787fa12a823e0f2b7631cc41b3ba8828b3321ca811111fa75cd3aa3bb5ace9092019185019061387d565b505050565b60008281526009602052604090205460ff16156136db57600082815260076020908152604090912082516136d59284019061387d565b506110c8565b6000828152600960209081526040808320805460ff1916600117905560078252909120825161370c9284019061387d565b5050600680546000838152600860205260408120829055600182018355919091527ff652222313e28459528d920b65115c16c04f3efc82aaedc97be59f3f377c0d3f0155565b60008181526009602052604090205460ff1661376d5761387a565b6000818152600960209081526040808320805460ff191690556007909152812061379691613901565b6000818152600860205260408120546006549091906137b79060019061485f565b90506000600660000182815481106137df57634e487b7160e01b600052603260045260246000fd5b600091825260208083209091015480835260089091526040808320869055868352822091909155905081831461384157806006600001848154811061383457634e487b7160e01b600052603260045260246000fd5b6000918252602090912001555b600680548061386057634e487b7160e01b600052603160045260246000fd5b600190038181906000526020600020016000905590555050505b50565b828054613889906148a2565b90600052602060002090601f0160209004810192826138ab57600085556138f1565b82601f106138c457805160ff19168380011785556138f1565b828001600101855582156138f1579182015b828111156138f15782518255916020019190600101906138d6565b506138fd929150613939565b5090565b50805461390d906148a2565b6000825580601f1061391f575061387a565b601f01602090049060005260206000209081019061387a91905b5b808211156138fd576000815560010161393a565b80356001600160a01b0381168114610eb157600080fd5b600082601f830112613975578081fd5b8135602061398a613985836147fd565b6147cd565b82815281810190858301855b858110156139bf576139ad898684358b0101613ad7565b84529284019290840190600101613996565b5090979650505050505050565b600082601f8301126139dc578081fd5b813560206139ec613985836147fd565b8281528181019085830183850287018401881015613a08578586fd5b855b858110156139bf57613a1b82613b31565b84529284019290840190600101613a0a565b600082601f830112613a3d578081fd5b81356020613a4d613985836147fd565b82815281810190858301855b858110156139bf57613a70898684358b0101613b41565b84529284019290840190600101613a59565b600082601f830112613a92578081fd5b81516020613aa2613985836147fd565b82815281810190858301855b858110156139bf57613ac5898684518b0101613b8d565b84529284019290840190600101613aae565b600082601f830112613ae7578081fd5b81356020613af7613985836147fd565b8281528181019085830183850287018401881015613b13578586fd5b855b858110156139bf57813584529284019290840190600101613b15565b80358015158114610eb157600080fd5b600082601f830112613b51578081fd5b8135613b5f61398582614820565b818152846020838601011115613b73578283fd5b816020850160208301379081016020019190915292915050565b600082601f830112613b9d578081fd5b8151613bab61398582614820565b818152846020838601011115613bbf578283fd5b613bd0826020830160208701614876565b949350505050565b600060208284031215613be9578081fd5b613bf28261394e565b9392505050565b60008060408385031215613c0b578081fd5b613c148361394e565b9150613c226020840161394e565b90509250929050565b60008060008060808587031215613c40578182fd5b613c498561394e565b9350613c576020860161394e565b925060408501356001600160401b0380821115613c72578384fd5b613c7e88838901613a2d565b93506060870135915080821115613c93578283fd5b50613ca087828801613965565b91505092959194509250565b600080600060608486031215613cc0578081fd5b613cc98461394e565b9250613cd76020850161394e565b915060408401356001600160401b03811115613cf1578182fd5b613cfd86828701613b41565b9150509250925092565b600080600080600060a08688031215613d1e578283fd5b613d278661394e565b9450613d356020870161394e565b935060408601356001600160401b0380821115613d50578485fd5b613d5c89838a01613b41565b9450606088013593506080880135915080821115613d78578283fd5b50613d8588828901613b41565b9150509295509295909350565b600080600060608486031215613da6578081fd5b613daf8461394e565b9250613dbd6020850161394e565b9150604084013590509250925092565b600080600080600060a08688031215613de4578283fd5b613ded8661394e565b945060208601356001600160401b0380821115613e08578485fd5b613e1489838a01613a2d565b95506040880135915080821115613e29578485fd5b613e3589838a01613965565b94506060880135915080821115613e4a578283fd5b50613e5788828901613b41565b95989497509295608001359392505050565b600080600060608486031215613e7d578081fd5b613e868461394e565b925060208401356001600160401b0380821115613ea1578283fd5b613ead87838801613a2d565b93506040860135915080821115613ec2578283fd5b50613cfd86828701613ad7565b60008060408385031215613ee1578182fd5b613eea8361394e565b9150613c2260208401613b31565b60006020808385031215613f0a578182fd5b82356001600160401b03811115613f1f578283fd5b8301601f81018513613f2f578283fd5b8035613f3d613985826147fd565b8181528381019083850185840285018601891015613f59578687fd5b8694505b83851015613f8257613f6e8161394e565b835260019490940193918501918501613f5d565b50979650505050505050565b60008060408385031215613fa0578182fd5b82516001600160401b0380821115613fb6578384fd5b613fc286838701613a82565b93506020850151915080821115613fd7578283fd5b50613fe485828601613a82565b9150509250929050565b600060208284031215613fff578081fd5b81356001600160401b03811115614014578182fd5b613bd084828501613ad7565b60006020808385031215614032578182fd5b82516001600160401b03811115614047578283fd5b8301601f81018513614057578283fd5b8051614065613985826147fd565b8181528381019083850185840285018601891015614081578687fd5b8694505b83851015613f82578051835260019490940193918501918501614085565b6000602082840312156140b4578081fd5b81356001600160401b038111156140c9578182fd5b613bd084828501613b41565b6000602082840312156140e6578081fd5b81516001600160401b038111156140fb578182fd5b613bd084828501613b8d565b60008060408385031215614119578182fd5b82356001600160401b0381111561412e578283fd5b61413a85828601613b41565b925050613c226020840161394e565b600080600080600080600060e0888a031215614163578485fd5b87356001600160401b0380821115614179578687fd5b6141858b838c01613b41565b985061419360208b0161394e565b975060408a01359150808211156141a8578687fd5b6141b48b838c01613ad7565b965060608a0135955060808a01359150808211156141d0578384fd5b6141dc8b838c016139cc565b94506141ea60a08b01613b31565b935060c08a01359150808211156141ff578283fd5b5061420c8a828b01613b41565b91505092959891949750929550565b60008060006060848603121561422f578081fd5b83356001600160401b03811115614244578182fd5b61425086828701613b41565b935050613dbd6020850161394e565b600080600080600080600060e0888a031215614279578081fd5b87356001600160401b038082111561428f578283fd5b61429b8b838c01613b41565b98506142a960208b0161394e565b975060408a0135965060608a01359150808211156142c5578283fd5b6142d18b838c016139cc565b95506142df60808b01613b31565b945060a08a01359150808211156142f4578283fd5b506143018a828b01613b41565b92505060c0880135905092959891949750929550565b600060208284031215614328578081fd5b5035919050565b600060208284031215614340578081fd5b5051919050565b60008060408385031215614359578182fd5b50508035926020909101359150565b6000806040838503121561437a578182fd5b505080516020909101519092909150565b6000815180845260208085019450808401835b838110156143ba5781518752958201959082019060010161439e565b509495945050505050565b600081518084526143dd816020860160208601614876565b601f01601f19169290920160200192915050565b60008251614403818460208701614876565b9190910192915050565b815460009081906002810460018083168061442957607f831692505b602080841082141561444957634e487b7160e01b87526022600452602487fd5b81801561445d576001811461446e5761449a565b60ff1986168952848901965061449a565b60008a815260209020885b868110156144925781548b820152908501908301614479565b505084890196505b509498975050505050505050565b6001600160a01b03858116825284166020820152604081018390526080606082018190526000906144db908301846143c5565b9695505050505050565b6001600160a01b0394851681529290931660208301526040820152606081019190915260800190565b6001600160a01b0383168152604060208201819052600090613bd09083018461438b565b6001600160a01b03841681526060602082018190526000906145569083018561438b565b82810360408401526144db81856143c5565b600060018060a01b03881682526020878184015260c0604084015261459060c084018861438b565b8381036060850152865180825282880191830190845b818110156145c45783511515835292840192918401916001016145a6565b5050861515608086015284810360a08601526145e081876143c5565b9b9a5050505050505050505050565b6000602080830181845280855180835260408601915060408482028701019250838701855b8281101561464257603f198886030184526146308583516143c5565b94509285019290850190600101614614565b5092979650505050505050565b600060208252613bf2602083018461438b565b600060208252613bf260208301846143c5565b60006060825261468860608301866143c5565b6001600160a01b039490941660208301525060400152919050565b6000606082526146b660608301866143c5565b6020830194909452506001600160a01b0391909116604090910152919050565b60208082526012908201527127bbb732b9399d1027b7363c9027bbb732b960711b604082015260600190565b60208082526018908201527f48616e646c65723a204c656e677468206d69736d617463680000000000000000604082015260600190565b60208082526024908201527f48616e646c65723a20446f6e74206d6573732077697468206f7468657220636c60408201526361696d7360e01b606082015260800190565b6020808252601e908201527f48616e646c65723a204e6f64655479706520646f65736e742065786973740000604082015260600190565b600083825260406020830152613bd060408301846143c5565b604051601f8201601f191681016001600160401b03811182821017156147f5576147f561490e565b604052919050565b60006001600160401b038211156148165761481661490e565b5060209081020190565b60006001600160401b038211156148395761483961490e565b50601f01601f191660200190565b6000821982111561485a5761485a6148f8565b500190565b600082821015614871576148716148f8565b500390565b60005b83811015614891578181015183820152602001614879565b83811115611c695750506000910152565b6002810460018216806148b657607f821691505b602082108114156148d757634e487b7160e01b600052602260045260246000fd5b50919050565b60006000198214156148f1576148f16148f8565b5060010190565b634e487b7160e01b600052601160045260246000fd5b634e487b7160e01b600052604160045260246000fdfe3c8006180c21a8a3a5910855aaa92c2043f55f5a5cc6d89097bfafdfc5fe18eca2646970667358221220468d9626758d81fb38dc3a8028a6ec55ec09cc6b5a21c0dab8920df424f6b93364736f6c63430008020033",
  "linkReferences": {},
  "deployedLinkReferences": {}
}