{
  "_format": "hh-sol-artifact-1",
  "contractName": "Old",
  "sourceName": "contracts/Old.sol",
  "abi": [
    {
      "inputs": [
        {
          "internalType": "address",
          "name": "_mm",
          "type": "address"
        }
      ],
      "stateMutability": "nonpayable",
      "type": "constructor"
    },
    {
      "inputs": [
        {
          "internalType": "string",
          "name": "name",
          "type": "string"
        },
        {
          "internalType": "address",
          "name": "owner",
          "type": "address"
        }
      ],
      "name": "getNodeTypeLevelUp",
      "outputs": [
        {
          "internalType": "uint256",
          "name": "",
          "type": "uint256"
        }
      ],
      "stateMutability": "view",
      "type": "function"
    },
    {
      "inputs": [
        {
          "internalType": "string",
          "name": "name",
          "type": "string"
        },
        {
          "internalType": "address",
          "name": "owner",
          "type": "address"
        }
      ],
      "name": "getNodeTypeOwnerCreatedPending",
      "outputs": [
        {
          "internalType": "uint256",
          "name": "",
          "type": "uint256"
        }
      ],
      "stateMutability": "nonpayable",
      "type": "function"
    },
    {
      "inputs": [
        {
          "internalType": "string",
          "name": "name",
          "type": "string"
        },
        {
          "internalType": "address",
          "name": "owner",
          "type": "address"
        }
      ],
      "name": "getNodeTypeOwnerNumber",
      "outputs": [
        {
          "internalType": "uint256",
          "name": "",
          "type": "uint256"
        }
      ],
      "stateMutability": "view",
      "type": "function"
    },
    {
      "inputs": [
        {
          "internalType": "address",
          "name": "",
          "type": "address"
        },
        {
          "internalType": "string",
          "name": "",
          "type": "string"
        }
      ],
      "name": "isSetUp",
      "outputs": [
        {
          "internalType": "bool",
          "name": "",
          "type": "bool"
        }
      ],
      "stateMutability": "view",
      "type": "function"
    },
    {
      "inputs": [
        {
          "internalType": "address",
          "name": "",
          "type": "address"
        },
        {
          "internalType": "string",
          "name": "",
          "type": "string"
        }
      ],
      "name": "levelUp",
      "outputs": [
        {
          "internalType": "uint256",
          "name": "",
          "type": "uint256"
        }
      ],
      "stateMutability": "view",
      "type": "function"
    },
    {
      "inputs": [],
      "name": "mm",
      "outputs": [
        {
          "internalType": "address",
          "name": "",
          "type": "address"
        }
      ],
      "stateMutability": "view",
      "type": "function"
    },
    {
      "inputs": [
        {
          "internalType": "address",
          "name": "",
          "type": "address"
        },
        {
          "internalType": "string",
          "name": "",
          "type": "string"
        }
      ],
      "name": "number",
      "outputs": [
        {
          "internalType": "uint256",
          "name": "",
          "type": "uint256"
        }
      ],
      "stateMutability": "view",
      "type": "function"
    },
    {
      "inputs": [
        {
          "internalType": "address",
          "name": "",
          "type": "address"
        },
        {
          "internalType": "string",
          "name": "",
          "type": "string"
        }
      ],
      "name": "pending",
      "outputs": [
        {
          "internalType": "uint256",
          "name": "",
          "type": "uint256"
        }
      ],
      "stateMutability": "view",
      "type": "function"
    }
  ],
  "bytecode": "0x608060405234801561001057600080fd5b5060405161099838038061099883398101604081905261002f9161019f565b600580546001600160a01b039283166001600160a01b0319909116178082558216600090815260046020818152604080842081516346756a6960e01b80825281860192909252825160249181900382018120805460ff19908116600190811790925589548b16895281875285892085845283890152855192839003840183206003908190558a548c168a526002808952878b20878652858b0152875194859003860185208490558b548d168b52818952878b20968552848a0196909652865193849003909401832082905589548b168952968652848820694d6f6e7420426c616e6360b01b808452600a808501929092528651602a94819003850181208054909a1684179099558a548c168a52918752858920828952888201528551978890038301882084905589548b16895284875285892082895288820152855197889003830188209490945597549098168652909252808420948352908201939093529151918290039092019020556101cd565b6000602082840312156101b0578081fd5b81516001600160a01b03811681146101c6578182fd5b9392505050565b6107bc806101dc6000396000f3fe608060405234801561001057600080fd5b50600436106100885760003560e01c80633d80733d1161005b5780633d80733d1461017a57806359fd58a61461018d578063d8a911d9146101c9578063e90eaa51146101dc57610088565b8063029ecf421461008d57806313bdbc4a146100dc5780631ff9e1951461012b578063368384731461013e575b600080fd5b6100c961009b36600461061f565b6002602090815260009283526040909220815180830184018051928152908401929093019190912091525481565b6040519081526020015b60405180910390f35b61011b6100ea36600461061f565b6004602090815260009283526040909220815180830184018051928152908401929093019190912091525460ff1681565b60405190151581526020016100d3565b6100c961013936600461066b565b610207565b6100c961014c36600461061f565b6001602090815260009283526040909220815180830184018051928152908401929093019190912091525481565b6100c961018836600461066b565b6103bd565b6100c961019b36600461061f565b6003602090815260009283526040909220815180830184018051928152908401929093019190912091525481565b6100c96101d736600461066b565b610460565b6005546101ef906001600160a01b031681565b6040516001600160a01b0390911681526020016100d3565b6001600160a01b038116600090815260046020526040808220905161022d9085906106b7565b9081526040519081900360200190205460ff1661037f57600061025383600160066104fe565b9050600061026c84826102678560016106f0565b6104fe565b9050600061028a858261027f8587610708565b6102679060016106f0565b6001600160a01b0386166000908152600460205260409081902090519192506001916102b79089906106b7565b9081526040805160209281900383018120805460ff1916941515949094179093556001600160a01b03881660009081526001909252902084916102fb9089906106b7565b9081526040805160209281900383018120939093556001600160a01b03881660009081526002909252902083916103339089906106b7565b9081526040805160209281900383018120939093556001600160a01b038816600090815260039092529020829161036b9089906106b7565b908152604051908190036020019020555050505b6001600160a01b0382166000908152600260205260409081902090516103a69085906106b7565b908152602001604051809103902054905092915050565b6001600160a01b03811660009081526004602052604080822090516103e39085906106b7565b9081526040519081900360200190205460ff166104395760405162461bcd60e51b815260206004820152600f60248201526e04f6c643a204e6f742073657420757608c1b60448201526064015b60405180910390fd5b6001600160a01b0382166000908152600360205260409081902090516103a69085906106b7565b6001600160a01b03811660009081526004602052604080822090516104869085906106b7565b9081526040519081900360200190205460ff166104d75760405162461bcd60e51b815260206004820152600f60248201526e04f6c643a204e6f742073657420757608c1b6044820152606401610430565b6001600160a01b0382166000908152600160205260409081902090516103a69085906106b7565b60008054604080516020808201849052606088901b6bffffffffffffffffffffffff1916828401524460548301524260748084019190915283518084039091018152609490920190925280519101209082806105598361071f565b909155506105699050838261073a565b61057390856106f0565b95945050505050565b80356001600160a01b038116811461059357600080fd5b919050565b600082601f8301126105a8578081fd5b813567ffffffffffffffff808211156105c3576105c3610770565b604051601f8301601f19908116603f011681019082821181831017156105eb576105eb610770565b81604052838152866020858801011115610603578485fd5b8360208701602083013792830160200193909352509392505050565b60008060408385031215610631578182fd5b61063a8361057c565b9150602083013567ffffffffffffffff811115610655578182fd5b61066185828601610598565b9150509250929050565b6000806040838503121561067d578182fd5b823567ffffffffffffffff811115610693578283fd5b61069f85828601610598565b9250506106ae6020840161057c565b90509250929050565b60008251815b818110156106d757602081860181015185830152016106bd565b818111156106e55782828501525b509190910192915050565b600082198211156107035761070361075a565b500190565b60008282101561071a5761071a61075a565b500390565b60006000198214156107335761073361075a565b5060010190565b60008261075557634e487b7160e01b81526012600452602481fd5b500690565b634e487b7160e01b600052601160045260246000fd5b634e487b7160e01b600052604160045260246000fdfea26469706673582212203a4cb6356e15d4bab485923f9215d1f83323ff79400ed1074842f1fdd255993e64736f6c63430008020033",
  "linkReferences": {},
  "deployedLinkReferences": {}
}