{
  "_format": "hh-sol-artifact-1",
  "contractName": "PolarMarketPlace",
  "sourceName": "contracts/PolarMarketPlace.sol",
  "abi": [
    {
      "inputs": [
        {
          "internalType": "address",
          "name": "_polar",
          "type": "address"
        },
        {
          "internalType": "address",
          "name": "_swapper",
          "type": "address"
        },
        {
          "internalType": "uint256",
          "name": "_fee",
          "type": "uint256"
        },
        {
          "internalType": "uint256",
          "name": "_auctionBeforeRef",
          "type": "uint256"
        },
        {
          "internalType": "uint256",
          "name": "_auctionBeforeAdd",
          "type": "uint256"
        }
      ],
      "stateMutability": "nonpayable",
      "type": "constructor"
    },
    {
      "inputs": [
        {
          "internalType": "address",
          "name": "_new",
          "type": "address"
        },
        {
          "internalType": "bool",
          "name": "_change",
          "type": "bool"
        }
      ],
      "name": "addOwner",
      "outputs": [],
      "stateMutability": "nonpayable",
      "type": "function"
    },
    {
      "inputs": [],
      "name": "auctionBeforeAdd",
      "outputs": [
        {
          "internalType": "uint256",
          "name": "",
          "type": "uint256"
        }
      ],
      "stateMutability": "view",
      "type": "function"
    },
    {
      "inputs": [],
      "name": "auctionBeforeRef",
      "outputs": [
        {
          "internalType": "uint256",
          "name": "",
          "type": "uint256"
        }
      ],
      "stateMutability": "view",
      "type": "function"
    },
    {
      "inputs": [
        {
          "internalType": "address",
          "name": "_nft",
          "type": "address"
        },
        {
          "internalType": "string[]",
          "name": "names",
          "type": "string[]"
        }
      ],
      "name": "deleteMapPrice",
      "outputs": [],
      "stateMutability": "nonpayable",
      "type": "function"
    },
    {
      "inputs": [],
      "name": "fee",
      "outputs": [
        {
          "internalType": "uint256",
          "name": "",
          "type": "uint256"
        }
      ],
      "stateMutability": "view",
      "type": "function"
    },
    {
      "inputs": [
        {
          "internalType": "address",
          "name": "_nft",
          "type": "address"
        },
        {
          "internalType": "uint256",
          "name": "_tokenId",
          "type": "uint256"
        }
      ],
      "name": "forceAuctionEnd",
      "outputs": [],
      "stateMutability": "nonpayable",
      "type": "function"
    },
    {
      "inputs": [
        {
          "internalType": "address",
          "name": "_nft",
          "type": "address"
        },
        {
          "internalType": "uint256",
          "name": "iStart",
          "type": "uint256"
        },
        {
          "internalType": "uint256",
          "name": "iEnd",
          "type": "uint256"
        }
      ],
      "name": "getAuctionOfBetweenIndexes",
      "outputs": [
        {
          "components": [
            {
              "internalType": "address",
              "name": "owner",
              "type": "address"
            },
            {
              "internalType": "uint256",
              "name": "tokenId",
              "type": "uint256"
            },
            {
              "internalType": "uint256",
              "name": "currentPrice",
              "type": "uint256"
            },
            {
              "internalType": "address",
              "name": "nextOwner",
              "type": "address"
            },
            {
              "internalType": "uint256",
              "name": "end",
              "type": "uint256"
            },
            {
              "internalType": "uint256",
              "name": "creationTime",
              "type": "uint256"
            }
          ],
          "internalType": "struct PolarMarketPlace.Auction[]",
          "name": "",
          "type": "tuple[]"
        }
      ],
      "stateMutability": "view",
      "type": "function"
    },
    {
      "inputs": [
        {
          "internalType": "address",
          "name": "_nft",
          "type": "address"
        },
        {
          "internalType": "uint256",
          "name": "iStart",
          "type": "uint256"
        },
        {
          "internalType": "uint256",
          "name": "iEnd",
          "type": "uint256"
        }
      ],
      "name": "getAuctionOfKeysBetweenIndexes",
      "outputs": [
        {
          "internalType": "uint256[]",
          "name": "",
          "type": "uint256[]"
        }
      ],
      "stateMutability": "view",
      "type": "function"
    },
    {
      "inputs": [
        {
          "internalType": "address",
          "name": "_nft",
          "type": "address"
        }
      ],
      "name": "getAuctionOfSize",
      "outputs": [
        {
          "internalType": "uint256",
          "name": "",
          "type": "uint256"
        }
      ],
      "stateMutability": "view",
      "type": "function"
    },
    {
      "inputs": [],
      "name": "getNftAddressAll",
      "outputs": [
        {
          "internalType": "address[]",
          "name": "",
          "type": "address[]"
        }
      ],
      "stateMutability": "view",
      "type": "function"
    },
    {
      "inputs": [
        {
          "internalType": "uint256",
          "name": "iStart",
          "type": "uint256"
        },
        {
          "internalType": "uint256",
          "name": "iEnd",
          "type": "uint256"
        }
      ],
      "name": "getNftAddressBetweenIndexes",
      "outputs": [
        {
          "internalType": "address[]",
          "name": "",
          "type": "address[]"
        }
      ],
      "stateMutability": "view",
      "type": "function"
    },
    {
      "inputs": [],
      "name": "getNftPricesAddressAll",
      "outputs": [
        {
          "internalType": "address[]",
          "name": "",
          "type": "address[]"
        }
      ],
      "stateMutability": "view",
      "type": "function"
    },
    {
      "inputs": [
        {
          "internalType": "uint256",
          "name": "iStart",
          "type": "uint256"
        },
        {
          "internalType": "uint256",
          "name": "iEnd",
          "type": "uint256"
        }
      ],
      "name": "getNftPricesAddressBetweenIndexes",
      "outputs": [
        {
          "internalType": "address[]",
          "name": "",
          "type": "address[]"
        }
      ],
      "stateMutability": "view",
      "type": "function"
    },
    {
      "inputs": [],
      "name": "getNftPricesSize",
      "outputs": [
        {
          "internalType": "uint256",
          "name": "",
          "type": "uint256"
        }
      ],
      "stateMutability": "view",
      "type": "function"
    },
    {
      "inputs": [],
      "name": "getNftSize",
      "outputs": [
        {
          "internalType": "uint256",
          "name": "",
          "type": "uint256"
        }
      ],
      "stateMutability": "view",
      "type": "function"
    },
    {
      "inputs": [
        {
          "internalType": "address",
          "name": "_nft",
          "type": "address"
        },
        {
          "internalType": "uint256",
          "name": "iStart",
          "type": "uint256"
        },
        {
          "internalType": "uint256",
          "name": "iEnd",
          "type": "uint256"
        }
      ],
      "name": "getOfferOfBetweenIndexes",
      "outputs": [
        {
          "components": [
            {
              "internalType": "address",
              "name": "owner",
              "type": "address"
            },
            {
              "internalType": "uint256",
              "name": "tokenId",
              "type": "uint256"
            },
            {
              "internalType": "uint256",
              "name": "price",
              "type": "uint256"
            },
            {
              "internalType": "uint256",
              "name": "creationTime",
              "type": "uint256"
            }
          ],
          "internalType": "struct PolarMarketPlace.Offer[]",
          "name": "",
          "type": "tuple[]"
        }
      ],
      "stateMutability": "view",
      "type": "function"
    },
    {
      "inputs": [
        {
          "internalType": "address",
          "name": "_nft",
          "type": "address"
        },
        {
          "internalType": "uint256",
          "name": "iStart",
          "type": "uint256"
        },
        {
          "internalType": "uint256",
          "name": "iEnd",
          "type": "uint256"
        }
      ],
      "name": "getOfferOfKeysBetweenIndexes",
      "outputs": [
        {
          "internalType": "uint256[]",
          "name": "",
          "type": "uint256[]"
        }
      ],
      "stateMutability": "view",
      "type": "function"
    },
    {
      "inputs": [
        {
          "internalType": "address",
          "name": "_nft",
          "type": "address"
        }
      ],
      "name": "getOfferOfSize",
      "outputs": [
        {
          "internalType": "uint256",
          "name": "",
          "type": "uint256"
        }
      ],
      "stateMutability": "view",
      "type": "function"
    },
    {
      "inputs": [],
      "name": "getOwnersSize",
      "outputs": [
        {
          "internalType": "uint256",
          "name": "",
          "type": "uint256"
        }
      ],
      "stateMutability": "view",
      "type": "function"
    },
    {
      "inputs": [
        {
          "internalType": "address",
          "name": "_nft",
          "type": "address"
        },
        {
          "internalType": "uint256",
          "name": "iStart",
          "type": "uint256"
        },
        {
          "internalType": "uint256",
          "name": "iEnd",
          "type": "uint256"
        }
      ],
      "name": "getPricesOfBetweenIndexes",
      "outputs": [
        {
          "components": [
            {
              "internalType": "uint256",
              "name": "offerPrice",
              "type": "uint256"
            },
            {
              "internalType": "uint256",
              "name": "auctionPrice",
              "type": "uint256"
            }
          ],
          "internalType": "struct PolarMarketPlace.MinPrices[]",
          "name": "",
          "type": "tuple[]"
        }
      ],
      "stateMutability": "view",
      "type": "function"
    },
    {
      "inputs": [
        {
          "internalType": "address",
          "name": "_nft",
          "type": "address"
        },
        {
          "internalType": "uint256",
          "name": "iStart",
          "type": "uint256"
        },
        {
          "internalType": "uint256",
          "name": "iEnd",
          "type": "uint256"
        }
      ],
      "name": "getPricesOfKeysBetweenIndexes",
      "outputs": [
        {
          "internalType": "string[]",
          "name": "",
          "type": "string[]"
        }
      ],
      "stateMutability": "view",
      "type": "function"
    },
    {
      "inputs": [
        {
          "internalType": "address",
          "name": "_nft",
          "type": "address"
        }
      ],
      "name": "getPricesOfSize",
      "outputs": [
        {
          "internalType": "uint256",
          "name": "",
          "type": "uint256"
        }
      ],
      "stateMutability": "view",
      "type": "function"
    },
    {
      "inputs": [
        {
          "internalType": "address",
          "name": "",
          "type": "address"
        }
      ],
      "name": "isBlacklistedNft",
      "outputs": [
        {
          "internalType": "bool",
          "name": "",
          "type": "bool"
        }
      ],
      "stateMutability": "view",
      "type": "function"
    },
    {
      "inputs": [
        {
          "internalType": "address",
          "name": "",
          "type": "address"
        }
      ],
      "name": "isOwner",
      "outputs": [
        {
          "internalType": "bool",
          "name": "",
          "type": "bool"
        }
      ],
      "stateMutability": "view",
      "type": "function"
    },
    {
      "inputs": [
        {
          "internalType": "address",
          "name": "",
          "type": "address"
        }
      ],
      "name": "onlyAttribute",
      "outputs": [
        {
          "internalType": "bool",
          "name": "",
          "type": "bool"
        }
      ],
      "stateMutability": "view",
      "type": "function"
    },
    {
      "inputs": [],
      "name": "openAuction",
      "outputs": [
        {
          "internalType": "bool",
          "name": "",
          "type": "bool"
        }
      ],
      "stateMutability": "view",
      "type": "function"
    },
    {
      "inputs": [],
      "name": "openOffer",
      "outputs": [
        {
          "internalType": "bool",
          "name": "",
          "type": "bool"
        }
      ],
      "stateMutability": "view",
      "type": "function"
    },
    {
      "inputs": [
        {
          "internalType": "uint256",
          "name": "",
          "type": "uint256"
        }
      ],
      "name": "owners",
      "outputs": [
        {
          "internalType": "address",
          "name": "",
          "type": "address"
        }
      ],
      "stateMutability": "view",
      "type": "function"
    },
    {
      "inputs": [],
      "name": "polar",
      "outputs": [
        {
          "internalType": "address",
          "name": "",
          "type": "address"
        }
      ],
      "stateMutability": "view",
      "type": "function"
    },
    {
      "inputs": [
        {
          "internalType": "address",
          "name": "_nft",
          "type": "address"
        },
        {
          "internalType": "uint256",
          "name": "_tokenId",
          "type": "uint256"
        },
        {
          "internalType": "uint256",
          "name": "_currentPrice",
          "type": "uint256"
        }
      ],
      "name": "purchaseAuctionItem",
      "outputs": [],
      "stateMutability": "nonpayable",
      "type": "function"
    },
    {
      "inputs": [
        {
          "internalType": "address",
          "name": "_nft",
          "type": "address"
        },
        {
          "internalType": "uint256",
          "name": "_tokenId",
          "type": "uint256"
        }
      ],
      "name": "purchaseOfferItem",
      "outputs": [],
      "stateMutability": "nonpayable",
      "type": "function"
    },
    {
      "inputs": [
        {
          "internalType": "address",
          "name": "_nft",
          "type": "address"
        },
        {
          "internalType": "uint256",
          "name": "_tokenId",
          "type": "uint256"
        }
      ],
      "name": "recoverAuctionItem",
      "outputs": [],
      "stateMutability": "nonpayable",
      "type": "function"
    },
    {
      "inputs": [
        {
          "internalType": "address",
          "name": "_nft",
          "type": "address"
        },
        {
          "internalType": "uint256",
          "name": "_tokenId",
          "type": "uint256"
        }
      ],
      "name": "recoverOfferItem",
      "outputs": [],
      "stateMutability": "nonpayable",
      "type": "function"
    },
    {
      "inputs": [
        {
          "internalType": "address",
          "name": "_new",
          "type": "address"
        }
      ],
      "name": "removeOwner",
      "outputs": [],
      "stateMutability": "nonpayable",
      "type": "function"
    },
    {
      "inputs": [
        {
          "internalType": "address",
          "name": "_nft",
          "type": "address"
        },
        {
          "internalType": "uint256",
          "name": "_tokenId",
          "type": "uint256"
        },
        {
          "internalType": "uint256",
          "name": "_currentPrice",
          "type": "uint256"
        },
        {
          "internalType": "uint256",
          "name": "_end",
          "type": "uint256"
        }
      ],
      "name": "sellAuctionItem",
      "outputs": [],
      "stateMutability": "nonpayable",
      "type": "function"
    },
    {
      "inputs": [
        {
          "internalType": "address",
          "name": "_nft",
          "type": "address"
        },
        {
          "internalType": "uint256",
          "name": "_tokenId",
          "type": "uint256"
        },
        {
          "internalType": "uint256",
          "name": "_price",
          "type": "uint256"
        }
      ],
      "name": "sellOfferItem",
      "outputs": [],
      "stateMutability": "nonpayable",
      "type": "function"
    },
    {
      "inputs": [
        {
          "internalType": "uint256",
          "name": "_auctionBeforeRef",
          "type": "uint256"
        },
        {
          "internalType": "uint256",
          "name": "_auctionBeforeAdd",
          "type": "uint256"
        }
      ],
      "name": "setAuctionBefore",
      "outputs": [],
      "stateMutability": "nonpayable",
      "type": "function"
    },
    {
      "inputs": [
        {
          "internalType": "uint256",
          "name": "_new",
          "type": "uint256"
        }
      ],
      "name": "setFee",
      "outputs": [],
      "stateMutability": "nonpayable",
      "type": "function"
    },
    {
      "inputs": [
        {
          "internalType": "address",
          "name": "_nft",
          "type": "address"
        },
        {
          "internalType": "bool",
          "name": "_new",
          "type": "bool"
        }
      ],
      "name": "setIsBlacklistedNft",
      "outputs": [],
      "stateMutability": "nonpayable",
      "type": "function"
    },
    {
      "inputs": [
        {
          "internalType": "address",
          "name": "_nft",
          "type": "address"
        },
        {
          "internalType": "string[]",
          "name": "_names",
          "type": "string[]"
        },
        {
          "internalType": "uint256[]",
          "name": "_offerPrices",
          "type": "uint256[]"
        },
        {
          "internalType": "uint256[]",
          "name": "_auctionPrices",
          "type": "uint256[]"
        }
      ],
      "name": "setMinPrices",
      "outputs": [],
      "stateMutability": "nonpayable",
      "type": "function"
    },
    {
      "inputs": [
        {
          "internalType": "address",
          "name": "_addr",
          "type": "address"
        },
        {
          "internalType": "bool",
          "name": "_new",
          "type": "bool"
        }
      ],
      "name": "setOnlyAttribute",
      "outputs": [],
      "stateMutability": "nonpayable",
      "type": "function"
    },
    {
      "inputs": [
        {
          "internalType": "bool",
          "name": "_new",
          "type": "bool"
        }
      ],
      "name": "setOpenAuction",
      "outputs": [],
      "stateMutability": "nonpayable",
      "type": "function"
    },
    {
      "inputs": [
        {
          "internalType": "bool",
          "name": "_new",
          "type": "bool"
        }
      ],
      "name": "setOpenOffer",
      "outputs": [],
      "stateMutability": "nonpayable",
      "type": "function"
    },
    {
      "inputs": [
        {
          "internalType": "address",
          "name": "_new",
          "type": "address"
        }
      ],
      "name": "setPolar",
      "outputs": [],
      "stateMutability": "nonpayable",
      "type": "function"
    },
    {
      "inputs": [
        {
          "internalType": "address",
          "name": "_new",
          "type": "address"
        }
      ],
      "name": "setSwapper",
      "outputs": [],
      "stateMutability": "nonpayable",
      "type": "function"
    },
    {
      "inputs": [],
      "name": "swapper",
      "outputs": [
        {
          "internalType": "address",
          "name": "",
          "type": "address"
        }
      ],
      "stateMutability": "view",
      "type": "function"
    }
  ],
  "bytecode": "0x60806040523480156200001157600080fd5b5060405162004bf638038062004bf68339810160408190526200003491620000e6565b60008054600180820183557f290decd9548b62a8d60345a988386fc84ba6bc95484008f6362f93160ef3e5639091018054336001600160a01b0319918216811790925590835260208290526040909220805460ff191682179055600255600b805482166001600160a01b03978816179055600c80549091169490951693909317909355600d5560119190915560125562000138565b80516001600160a01b0381168114620000e157600080fd5b919050565b600080600080600060a08688031215620000fe578081fd5b6200010986620000c9565b94506200011960208701620000c9565b6040870151606088015160809098015196999198509695945092505050565b614aae80620001486000396000f3fe608060405234801561001057600080fd5b506004361061028a5760003560e01c8063723610f91161015c578063a420a4c1116100ce578063ddca3f4311610087578063ddca3f43146105fa578063e12ae50114610603578063e1e39c5614610616578063f383f6ee14610643578063f4a15f411461064b578063ff6479311461065e5761028a565b8063a420a4c114610599578063a6cb7234146105ac578063bc9c10da146105b9578063c8824768146105cc578063c9f499ae146105df578063db8ee619146105f25761028a565b806390ebc20a1161012057806390ebc20a1461053a57806393d038ea1461054d57806395827ace1461056057806396301d59146105735780639c82f2a41461054d578063a25772aa146105865761028a565b8063723610f9146104c2578063741fb3db146104eb5780637dd3a6911461050b57806380d8fcef1461051e5780638e01d484146105315761028a565b80632b3297f911610200578063612d3271116101b9578063612d32711461044b578063632c18e11461046b578063680baf6f1461047357806369fe0e2d146104935780636ce38498146104a65780637012ef13146104b95761028a565b80632b3297f91461039f5780632f54bf6e146103b25780633eea418e146103d55780634841a8fb146103f55780634a70c38b14610415578063518e32d3146104385761028a565b806316c6bf341161025257806316c6bf3414610326578063173825d91461033b578063180223c81461034e5780631fd6ef4414610361578063249f1db114610369578063278a9da61461038c5761028a565b8063025e7c271461028f578063049a8da5146102bf57806304cb72f9146102df5780630996dc30146103015780630c7b1d7b14610314575b600080fd5b6102a261029d366004614302565b610671565b6040516001600160a01b0390911681526020015b60405180910390f35b6102d26102cd36600461431a565b61069b565b6040516102b69190614416565b600e546102f190610100900460ff1681565b60405190151581526020016102b6565b600b546102a2906001600160a01b031681565b6000545b6040519081526020016102b6565b61033961033436600461418f565b610796565b005b61033961034936600461408f565b6107f9565b61031861035c36600461408f565b610ac9565b6102d2610ae8565b6102f161037736600461408f565b60106020526000908152604090205460ff1681565b61033961039a3660046141c5565b610b4d565b600c546102a2906001600160a01b031681565b6102f16103c036600461408f565b60016020526000908152604090205460ff1681565b6103e86103e33660046141ee565b610e68565b6040516102b691906144db565b6104086104033660046141ee565b61102b565b6040516102b691906145a3565b6102f161042336600461408f565b600f6020526000908152604090205460ff1681565b61033961044636600461418f565b6111ad565b61045e6104593660046141ee565b6113c3565b6040516102b69190614561565b600754610318565b6104866104813660046141ee565b61150c565b6040516102b69190614463565b6103396104a1366004614302565b611697565b6103396104b43660046141c5565b6116cb565b61031860125481565b6103186104d036600461408f565b6001600160a01b031660009081526008602052604090205490565b6104fe6104f93660046141ee565b6118c5565b6040516102b69190614603565b6103396105193660046140b0565b6119c1565b61033961052c3660046141ee565b611a60565b61031860115481565b6104fe6105483660046141ee565b611e2d565b61033961055b36600461408f565b611f25565b61033961056e3660046140fb565b611f76565b610339610581366004614258565b612141565b610339610594366004614258565b612183565b6103396105a7366004614220565b6121cc565b600e546102f19060ff1681565b6103396105c73660046141c5565b612575565b6103396105da36600461418f565b612963565b6103396105ed36600461431a565b6129bd565b600354610318565b610318600d5481565b6103396106113660046141c5565b6129f7565b61031861062436600461408f565b6001600160a01b03166000908152600460208190526040909120015490565b6102d2612cef565b6103396106593660046141ee565b612d52565b6102d261066c36600461431a565b613155565b6000818154811061068157600080fd5b6000918252602090912001546001600160a01b0316905081565b606060006106a984846149a5565b6001600160401b038111156106ce57634e487b7160e01b600052604160045260246000fd5b6040519080825280602002602001820160405280156106f7578160200160208202803683370190505b509050835b8381101561078e57600780548290811061072657634e487b7160e01b600052603260045260246000fd5b6000918252602090912001546001600160a01b03168261074687846149a5565b8151811061076457634e487b7160e01b600052603260045260246000fd5b6001600160a01b03909216602092830291909101909101528061078681614a23565b9150506106fc565b509392505050565b3360009081526001602052604090205460ff166107ce5760405162461bcd60e51b81526004016107c59061467e565b60405180910390fd5b6001600160a01b03919091166000908152600f60205260409020805460ff1916911515919091179055565b336001600160a01b03166000808154811061082457634e487b7160e01b600052603260045260246000fd5b6000918252602090912001546001600160a01b0316146108815760405162461bcd60e51b815260206004820152601860248201527727bbb732b9399d1027b7363c9029bab832b91027bbb732b960411b60448201526064016107c5565b6001600160a01b03811660009081526001602052604090205460ff166108dd5760405162461bcd60e51b815260206004820152601160248201527027bbb732b9399d102737ba1037bbb732b960791b60448201526064016107c5565b600080815481106108fe57634e487b7160e01b600052603260045260246000fd5b6000918252602090912001546001600160a01b038281169116141561096f5760405162461bcd60e51b815260206004820152602160248201527f4f776e6572733a2043616e6e6f742072656d6f7665207375706572206f776e656044820152603960f91b60648201526084016107c5565b60015b600054811015610aa757816001600160a01b0316600082815481106109a757634e487b7160e01b600052603260045260246000fd5b6000918252602090912001546001600160a01b03161415610a9557600080546109d2906001906149a5565b815481106109f057634e487b7160e01b600052603260045260246000fd5b600091825260208220015481546001600160a01b03909116919083908110610a2857634e487b7160e01b600052603260045260246000fd5b6000918252602082200180546001600160a01b0319166001600160a01b039390931692909217909155805480610a6e57634e487b7160e01b600052603160045260246000fd5b600082815260209020810160001990810180546001600160a01b0319169055019055610aa7565b80610a9f81614a23565b915050610972565b506001600160a01b03166000908152600160205260409020805460ff19169055565b6001600160a01b0381166000908152600460205260409020545b919050565b60606003600001805480602002602001604051908101604052809291908181526020018280548015610b4357602002820191906000526020600020905b81546001600160a01b03168152600190910190602001808311610b25575b5050505050905090565b3360009081526001602052604090205460ff16610b7c5760405162461bcd60e51b81526004016107c59061467e565b6001600160a01b03821660009081526006602052604090205460ff16610bb45760405162461bcd60e51b81526004016107c5906146f6565b6001600160a01b038216600090815260046020908152604080832084845260070190915290205460ff16610bfa5760405162461bcd60e51b81526004016107c590614891565b6001600160a01b0380831660009081526004602081815260408084208685526005908101835293819020815160c08101835281548716808252600183015494820194909452600282015492810192909252600381015490951660608201819052928501546080820152939092015460a084015214610dcf576000612710600d548360400151610c899190614986565b610c939190614966565b600b54835160408501519293506001600160a01b039091169163a9059cbb9190610cbe9085906149a5565b6040516001600160e01b031960e085901b1681526001600160a01b0390921660048301526024820152604401602060405180830381600087803b158015610d0457600080fd5b505af1158015610d18573d6000803e3d6000fd5b505050506040513d601f19601f82011682018060405250810190610d3c9190614274565b508015610dcd57600b54600c5460405163a9059cbb60e01b81526001600160a01b0391821660048201526024810184905291169063a9059cbb90604401602060405180830381600087803b158015610d9357600080fd5b505af1158015610da7573d6000803e3d6000fd5b505050506040513d601f19601f82011682018060405250810190610dcb9190614274565b505b505b60608101516040516323b872dd60e01b81526001600160a01b038516916323b872dd91610e0291309187906004016143f2565b600060405180830381600087803b158015610e1c57600080fd5b505af1158015610e30573d6000803e3d6000fd5b5050506001600160a01b0384166000908152600460208190526040909120610e5a92500183613248565b610e638361339d565b505050565b60606000610e7684846149a5565b6001600160401b03811115610e9b57634e487b7160e01b600052604160045260246000fd5b604051908082528060200260200182016040528015610f1757816020015b610f046040518060c0016040528060006001600160a01b03168152602001600081526020016000815260200160006001600160a01b0316815260200160008152602001600081525090565b815260200190600190039081610eb95790505b506001600160a01b038616600090815260046020819052604090912091925001845b8481101561102057816001016000836000018381548110610f6a57634e487b7160e01b600052603260045260246000fd5b600091825260208083209091015483528281019390935260409182019020815160c08101835281546001600160a01b039081168252600183015494820194909452600282015492810192909252600381015490921660608201526004820154608082015260059091015460a082015283610fe488846149a5565b8151811061100257634e487b7160e01b600052603260045260246000fd5b6020026020010181905250808061101890614a23565b915050610f39565b509095945050505050565b6060600061103984846149a5565b6001600160401b0381111561105e57634e487b7160e01b600052604160045260246000fd5b6040519080825280602002602001820160405280156110c357816020015b6110b0604051806080016040528060006001600160a01b031681526020016000815260200160008152602001600081525090565b81526020019060019003908161107c5790505b506001600160a01b0386166000908152600460205260409020909150845b848110156110205781600101600083600001838154811061111257634e487b7160e01b600052603260045260246000fd5b600091825260208083209091015483528281019390935260409182019020815160808101835281546001600160a01b031681526001820154938101939093526002810154918301919091526003015460608201528361117188846149a5565b8151811061118f57634e487b7160e01b600052603260045260246000fd5b602002602001018190525080806111a590614a23565b9150506110e1565b336001600160a01b0316600080815481106111d857634e487b7160e01b600052603260045260246000fd5b6000918252602090912001546001600160a01b0316146112355760405162461bcd60e51b815260206004820152601860248201527727bbb732b9399d1027b7363c9029bab832b91027bbb732b960411b60448201526064016107c5565b6001600160a01b03821660009081526001602052604090205460ff16156112965760405162461bcd60e51b815260206004820152601560248201527427bbb732b9399d1020b63932b0b23c9037bbb732b960591b60448201526064016107c5565b6001600160a01b0382166000908152600160208190526040909120805460ff191690911790558015611376576000806000815481106112e557634e487b7160e01b600052603260045260246000fd5b6000918252602080832090910154835460018101855593835290822090920180546001600160a01b0319166001600160a01b03909316929092179091558054839190819061134357634e487b7160e01b600052603260045260246000fd5b9060005260206000200160006101000a8154816001600160a01b0302191690836001600160a01b031602179055506113bf565b600080546001810182559080527f290decd9548b62a8d60345a988386fc84ba6bc95484008f6362f93160ef3e5630180546001600160a01b0319166001600160a01b0384161790555b5050565b606060006113d184846149a5565b6001600160401b038111156113f657634e487b7160e01b600052604160045260246000fd5b60405190808252806020026020018201604052801561143b57816020015b60408051808201909152600080825260208201528152602001906001900390816114145790505b506001600160a01b0386166000908152600860205260409020909150845b84811015611020578160010182600001828154811061148857634e487b7160e01b600052603260045260246000fd5b9060005260206000200160405161149f9190614357565b9081526040805191829003602090810183208383019092528154835260019091015490820152836114d088846149a5565b815181106114ee57634e487b7160e01b600052603260045260246000fd5b6020026020010181905250808061150490614a23565b915050611459565b6060600061151a84846149a5565b6001600160401b0381111561153f57634e487b7160e01b600052604160045260246000fd5b60405190808252806020026020018201604052801561157257816020015b606081526020019060019003908161155d5790505b506001600160a01b0386166000908152600860205260409020909150845b84811015611020578160000181815481106115bb57634e487b7160e01b600052603260045260246000fd5b9060005260206000200180546115d0906149e8565b80601f01602080910402602001604051908101604052809291908181526020018280546115fc906149e8565b80156116495780601f1061161e57610100808354040283529160200191611649565b820191906000526020600020905b81548152906001019060200180831161162c57829003601f168201915b505050505083878361165b91906149a5565b8151811061167957634e487b7160e01b600052603260045260246000fd5b6020026020010181905250808061168f90614a23565b915050611590565b3360009081526001602052604090205460ff166116c65760405162461bcd60e51b81526004016107c59061467e565b600d55565b6002805414156116ed5760405162461bcd60e51b81526004016107c59061485a565b600280556001600160a01b03821660009081526006602052604090205460ff166117295760405162461bcd60e51b81526004016107c5906146f6565b6001600160a01b038216600090815260046020908152604080832084845260030190915290205460ff1661176f5760405162461bcd60e51b81526004016107c590614891565b6001600160a01b03808316600090815260046020908152604080832085845260019081018352928190208151608081018352815490951680865293810154928501929092526002820154908401526003015460608301523314806117e257503360009081526001602052604090205460ff165b61182e5760405162461bcd60e51b815260206004820152601e60248201527f506f6c61724d61726b6574506c6163653a20556e617574686f72697a6564000060448201526064016107c5565b80516040516323b872dd60e01b81526001600160a01b038516916323b872dd9161185e91309187906004016143f2565b600060405180830381600087803b15801561187857600080fd5b505af115801561188c573d6000803e3d6000fd5b5050506001600160a01b03841660009081526004602052604090206118b291508361356d565b6118bb8361339d565b5050600160025550565b606060006118d384846149a5565b6001600160401b038111156118f857634e487b7160e01b600052604160045260246000fd5b604051908082528060200260200182016040528015611921578160200160208202803683370190505b506001600160a01b038616600090815260046020819052604090912091925001845b848110156110205781600001818154811061196e57634e487b7160e01b600052603260045260246000fd5b906000526020600020015483878361198691906149a5565b815181106119a457634e487b7160e01b600052603260045260246000fd5b6020908102919091010152806119b981614a23565b915050611943565b3360009081526001602052604090205460ff166119f05760405162461bcd60e51b81526004016107c59061467e565b6001600160a01b0382166000908152600860205260408120905b8251811015611a5657611a4482848381518110611a3757634e487b7160e01b600052603260045260246000fd5b60200260200101516135e8565b80611a4e81614a23565b915050611a0a565b50610e6383613833565b600280541415611a825760405162461bcd60e51b81526004016107c59061485a565b6002805580611aea5760405162461bcd60e51b815260206004820152602e60248201527f506f6c61724d61726b6574506c6163653a205072696365206d7573742062652060448201526d067726561746572207468616e20360941b60648201526084016107c5565b6001600160a01b03831660009081526010602052604090205460ff1615611b235760405162461bcd60e51b81526004016107c5906147d0565b600e5460ff16611b755760405162461bcd60e51b815260206004820152601a60248201527f506f6c61724d61726b6574506c6163653a204e6f74206f70656e00000000000060448201526064016107c5565b6001600160a01b0383166000908152600a602052604090205460ff1615611d7d576040516359d68c7160e11b8152600481018390526000906001600160a01b0385169063b3ad18e29060240160006040518083038186803b158015611bd957600080fd5b505afa158015611bed573d6000803e3d6000fd5b505050506040513d6000823e601f3d908101601f19168201604052611c159190810190614290565b6001600160a01b038516600090815260086020526040908190209051919250906003820190611c4590849061433b565b9081526040519081900360200190205460ff16611c745760405162461bcd60e51b81526004016107c59061463b565b828160010183604051611c87919061433b565b908152604051908190036020019020541115611cb55760405162461bcd60e51b81526004016107c5906146aa565b6001600160a01b0385166000908152600f602052604090205460ff1615611d7a5760405163493fe80f60e01b8152600481018590526000906001600160a01b0387169063493fe80f9060240160006040518083038186803b158015611d1957600080fd5b505afa158015611d2d573d6000803e3d6000fd5b505050506040513d6000823e601f3d908101601f19168201604052611d559190810190614290565b90506000815111611d785760405162461bcd60e51b81526004016107c59061478e565b505b50505b6040516323b872dd60e01b81526001600160a01b038416906323b872dd90611dad903390309087906004016143f2565b600060405180830381600087803b158015611dc757600080fd5b505af1158015611ddb573d6000803e3d6000fd5b50505050611de8836139d9565b6001600160a01b03831660009081526004602090815260409182902082516080810184523381529182018590529181018390524260608201526118bb91908490613a72565b60606000611e3b84846149a5565b6001600160401b03811115611e6057634e487b7160e01b600052604160045260246000fd5b604051908082528060200260200182016040528015611e89578160200160208202803683370190505b506001600160a01b0386166000908152600460205260409020909150845b8481101561102057816000018181548110611ed257634e487b7160e01b600052603260045260246000fd5b9060005260206000200154838783611eea91906149a5565b81518110611f0857634e487b7160e01b600052603260045260246000fd5b602090810291909101015280611f1d81614a23565b915050611ea7565b3360009081526001602052604090205460ff16611f545760405162461bcd60e51b81526004016107c59061467e565b600b80546001600160a01b0319166001600160a01b0392909216919091179055565b3360009081526001602052604090205460ff16611fa55760405162461bcd60e51b81526004016107c59061467e565b8151835114611fc65760405162461bcd60e51b81526004016107c590614819565b8051835114611fe75760405162461bcd60e51b81526004016107c590614819565b6040516359d68c7160e11b8152600060048201526001600160a01b0385169063b3ad18e29060240160006040518083038186803b15801561202757600080fd5b505afa15801561203b573d6000803e3d6000fd5b505050506040513d6000823e601f3d908101601f191682016040526120639190810190614290565b5061206d84613b66565b60005b835181101561213a576001600160a01b0385166000908152600860205260409020845161212891908690849081106120b857634e487b7160e01b600052603260045260246000fd5b602002602001015160405180604001604052808786815181106120eb57634e487b7160e01b600052603260045260246000fd5b6020026020010151815260200186868151811061211857634e487b7160e01b600052603260045260246000fd5b6020026020010151815250613bff565b8061213281614a23565b915050612070565b5050505050565b3360009081526001602052604090205460ff166121705760405162461bcd60e51b81526004016107c59061467e565b600e805460ff1916911515919091179055565b3360009081526001602052604090205460ff166121b25760405162461bcd60e51b81526004016107c59061467e565b600e80549115156101000261ff0019909216919091179055565b6002805414156121ee5760405162461bcd60e51b81526004016107c59061485a565b600280556001600160a01b03841660009081526010602052604090205460ff161561222b5760405162461bcd60e51b81526004016107c5906147d0565b600e54610100900460ff166122825760405162461bcd60e51b815260206004820152601a60248201527f506f6c61724d61726b6574506c6163653a204e6f74206f70656e00000000000060448201526064016107c5565b6001600160a01b0384166000908152600a602052604090205460ff161561248c576040516359d68c7160e11b8152600481018490526000906001600160a01b0386169063b3ad18e29060240160006040518083038186803b1580156122e657600080fd5b505afa1580156122fa573d6000803e3d6000fd5b505050506040513d6000823e601f3d908101601f191682016040526123229190810190614290565b6001600160a01b03861660009081526008602052604090819020905191925090600382019061235290849061433b565b9081526040519081900360200190205460ff166123815760405162461bcd60e51b81526004016107c59061463b565b838160010183604051612394919061433b565b90815260200160405180910390206001015411156123c45760405162461bcd60e51b81526004016107c5906146aa565b6001600160a01b0386166000908152600f602052604090205460ff16156124895760405163493fe80f60e01b8152600481018690526000906001600160a01b0388169063493fe80f9060240160006040518083038186803b15801561242857600080fd5b505afa15801561243c573d6000803e3d6000fd5b505050506040513d6000823e601f3d908101601f191682016040526124649190810190614290565b905060008151116124875760405162461bcd60e51b81526004016107c59061478e565b505b50505b6040516323b872dd60e01b81526001600160a01b038516906323b872dd906124bc903390309088906004016143f2565b600060405180830381600087803b1580156124d657600080fd5b505af11580156124ea573d6000803e3d6000fd5b505050506124f7846139d9565b61256a60036001016000866001600160a01b03166001600160a01b03168152602001908152602001600020600401846040518060c00160405280336001600160a01b03168152602001878152602001868152602001336001600160a01b0316815260200185815260200142815250613d17565b505060016002555050565b6002805414156125975760405162461bcd60e51b81526004016107c59061485a565b600280556001600160a01b03821660009081526006602052604090205460ff166125d35760405162461bcd60e51b81526004016107c5906146f6565b6001600160a01b038216600090815260046020908152604080832084845260070190915290205460ff166126195760405162461bcd60e51b81526004016107c590614891565b6001600160a01b0380831660009081526004602081815260408084208685526005908101835293819020815160c081018352815487168152600182015493810193909352600281015491830191909152600381015490941660608201819052918401546080820152929091015460a08301523314806126a757503360009081526001602052604090205460ff165b6126f35760405162461bcd60e51b815260206004820152601e60248201527f506f6c61724d61726b6574506c6163653a20556e617574686f72697a6564000060448201526064016107c5565b806080015142101561275a5760405162461bcd60e51b815260206004820152602a60248201527f506f6c61724d61726b6574506c6163653a2041756374696f6e206e6f742066696044820152691b9a5cda1959081e595d60b21b60648201526084016107c5565b80606001516001600160a01b031681600001516001600160a01b0316146128d8576000612710600d5483604001516127929190614986565b61279c9190614966565b600b54835160408501519293506001600160a01b039091169163a9059cbb91906127c79085906149a5565b6040516001600160e01b031960e085901b1681526001600160a01b0390921660048301526024820152604401602060405180830381600087803b15801561280d57600080fd5b505af1158015612821573d6000803e3d6000fd5b505050506040513d601f19601f820116820180604052508101906128459190614274565b5080156128d657600b54600c5460405163a9059cbb60e01b81526001600160a01b0391821660048201526024810184905291169063a9059cbb90604401602060405180830381600087803b15801561289c57600080fd5b505af11580156128b0573d6000803e3d6000fd5b505050506040513d601f19601f820116820180604052508101906128d49190614274565b505b505b60608101516040516323b872dd60e01b81526001600160a01b038516916323b872dd9161290b91309187906004016143f2565b600060405180830381600087803b15801561292557600080fd5b505af1158015612939573d6000803e3d6000fd5b5050506001600160a01b03841660009081526004602081905260409091206118b292500183613248565b3360009081526001602052604090205460ff166129925760405162461bcd60e51b81526004016107c59061467e565b6001600160a01b03919091166000908152601060205260409020805460ff1916911515919091179055565b3360009081526001602052604090205460ff166129ec5760405162461bcd60e51b81526004016107c59061467e565b601191909155601255565b600280541415612a195760405162461bcd60e51b81526004016107c59061485a565b600280556001600160a01b03821660009081526006602052604090205460ff16612a555760405162461bcd60e51b81526004016107c5906146f6565b6001600160a01b038216600090815260046020908152604080832084845260030190915290205460ff16612a9b5760405162461bcd60e51b81526004016107c590614891565b6001600160a01b0380831660009081526004602090815260408083208584526001908101835292819020815160808101835281549095168086529381015492850192909252600282015490840152600301546060830152331415612b115760405162461bcd60e51b81526004016107c590614741565b6000612710600d548360400151612b289190614986565b612b329190614966565b600b54835160408501519293506001600160a01b03909116916323b872dd913391612b5e9086906149a5565b6040518463ffffffff1660e01b8152600401612b7c939291906143f2565b602060405180830381600087803b158015612b9657600080fd5b505af1158015612baa573d6000803e3d6000fd5b505050506040513d601f19601f82011682018060405250810190612bce9190614274565b508015612c6257600b54600c546040516323b872dd60e01b81526001600160a01b03928316926323b872dd92612c0e9233929091169086906004016143f2565b602060405180830381600087803b158015612c2857600080fd5b505af1158015612c3c573d6000803e3d6000fd5b505050506040513d601f19601f82011682018060405250810190612c609190614274565b505b6040516323b872dd60e01b81526001600160a01b038516906323b872dd90612c92903090339088906004016143f2565b600060405180830381600087803b158015612cac57600080fd5b505af1158015612cc0573d6000803e3d6000fd5b5050506001600160a01b0385166000908152600460205260409020612ce691508461356d565b61256a8461339d565b60606007600001805480602002602001604051908101604052809291908181526020018280548015610b43576020028201919060005260206000209081546001600160a01b03168152600190910190602001808311610b25575050505050905090565b600280541415612d745760405162461bcd60e51b81526004016107c59061485a565b600280556001600160a01b03831660009081526006602052604090205460ff16612db05760405162461bcd60e51b81526004016107c5906146f6565b6001600160a01b038316600090815260046020908152604080832085845260070190915290205460ff16612df65760405162461bcd60e51b81526004016107c590614891565b6001600160a01b0380841660009081526004602081815260408084208785526005908101835293819020815160c0810183528154871680825260018301549482019490945260028201549281019290925260038101549095166060820152918401546080830152929091015460a082015290331415612e875760405162461bcd60e51b81526004016107c590614741565b80608001514210612eed5760405162461bcd60e51b815260206004820152602a60248201527f506f6c61724d61726b6574506c6163653a2041756374696f6e20616c726561646044820152691e48199a5b9a5cda195960b21b60648201526084016107c5565b80604001518211612f665760405162461bcd60e51b815260206004820152603b60248201527f506f6c61724d61726b6574506c6163653a204e6577207072696365206d75737460448201527f20626520626967676572207468616e2063757272656e74206f6e65000000000060648201526084016107c5565b80606001516001600160a01b031681600001516001600160a01b03161461301957600b546060820151604080840151905163a9059cbb60e01b81526001600160a01b039283166004820152602481019190915291169063a9059cbb90604401602060405180830381600087803b158015612fdf57600080fd5b505af1158015612ff3573d6000803e3d6000fd5b505050506040513d601f19601f820116820180604052508101906130179190614274565b505b600b546040516323b872dd60e01b81526001600160a01b03909116906323b872dd9061304d903390309087906004016143f2565b602060405180830381600087803b15801561306757600080fd5b505af115801561307b573d6000803e3d6000fd5b505050506040513d601f19601f8201168201806040525081019061309f9190614274565b50608081015160115481906130b4904261494e565b11156130ca576012546130c7904261494e565b90505b61314960036001016000876001600160a01b03166001600160a01b03168152602001908152602001600020600401856040518060c0016040528086600001516001600160a01b0316815260200186602001518152602001878152602001336001600160a01b031681526020018581526020018660a00151815250613d17565b50506001600255505050565b6060600061316384846149a5565b6001600160401b0381111561318857634e487b7160e01b600052604160045260246000fd5b6040519080825280602002602001820160405280156131b1578160200160208202803683370190505b509050835b8381101561078e5760038054829081106131e057634e487b7160e01b600052603260045260246000fd5b6000918252602090912001546001600160a01b03168261320087846149a5565b8151811061321e57634e487b7160e01b600052603260045260246000fd5b6001600160a01b03909216602092830291909101909101528061324081614a23565b9150506131b6565b600081815260038301602052604090205460ff16613265576113bf565b6000818152600380840160209081526040808420805460ff191690556001808701835281852080546001600160a01b031990811682558183018790556002808301889055958201805490911690556004810186905560050185905592860190915282205484549092916132d7916149a5565b905060008460000182815481106132fe57634e487b7160e01b600052603260045260246000fd5b60009182526020808320909101548083526002880190915260408083208690558683528220919091559050818314613361578085600001848154811061335457634e487b7160e01b600052603260045260246000fd5b6000918252602090912001555b845485908061338057634e487b7160e01b600052603160045260246000fd5b600190038181906000526020600020016000905590555050505050565b6001600160a01b03811660009081526006602052604090205460ff166133c25761356a565b6001600160a01b03811660009081526004602081905260409091208054910154811580156133ee575080155b15610e63576001600160a01b0383166000908152600660209081526040808320805460ff191690556004909152812090818161342a8282613e4f565b505060048201600061343c8282613e4f565b5050506001600160a01b03841660009081526005602052604081205460035490925061346a906001906149a5565b905060006003600001828154811061349257634e487b7160e01b600052603260045260246000fd5b60009182526020808320909101546001600160a01b0390811680845260059092526040808420879055908916835282209190915590508183146135235780600360000184815481106134f457634e487b7160e01b600052603260045260246000fd5b9060005260206000200160006101000a8154816001600160a01b0302191690836001600160a01b031602179055505b600380548061354257634e487b7160e01b600052603160045260246000fd5b600082815260209020810160001990810180546001600160a01b031916905501905550505050505b50565b600081815260038301602052604090205460ff1661358a576113bf565b6000818152600380840160209081526040808420805460ff191690556001808701835281852080546001600160a01b03191681558082018690556002808201879055940185905592860190915282205484549092916132d7916149a5565b81600301816040516135fa919061433b565b9081526040519081900360200190205460ff16613616576113bf565b8160030181604051613628919061433b565b908152604051908190036020018120805460ff19169055600183019061364f90839061433b565b9081526040519081900360200181206000808255600190910181905590600284019061367c90849061433b565b9081526040519081900360200190205483549091506000906136a0906001906149a5565b905060008460000182815481106136c757634e487b7160e01b600052603260045260246000fd5b9060005260206000200180546136dc906149e8565b80601f0160208091040260200160405190810160405280929190818152602001828054613708906149e8565b80156137555780601f1061372a57610100808354040283529160200191613755565b820191906000526020600020905b81548152906001019060200180831161373857829003601f168201915b5050505050905082856002018260405161376f919061433b565b9081526020016040518091039020819055508460020184604051613793919061433b565b9081526020016040518091039020600090558282146137ef57808560000184815481106137d057634e487b7160e01b600052603260045260246000fd5b9060005260206000200190805190602001906137ed929190613e6d565b505b845485908061380e57634e487b7160e01b600052603160045260246000fd5b60019003818190600052602060002001600061382a9190613ef1565b90555050505050565b6001600160a01b0381166000908152600a602052604090205460ff166138585761356a565b6001600160a01b038116600090815260086020526040902054806113bf576001600160a01b0382166000908152600a60209081526040808320805460ff1916905560089091528120906138ab8282613f2d565b50506001600160a01b0382166000908152600960205260408120546007549091906138d8906001906149a5565b905060006007600001828154811061390057634e487b7160e01b600052603260045260246000fd5b60009182526020808320909101546001600160a01b03908116808452600990925260408084208790559088168352822091909155905081831461399157806007600001848154811061396257634e487b7160e01b600052603260045260246000fd5b9060005260206000200160006101000a8154816001600160a01b0302191690836001600160a01b031602179055505b60078054806139b057634e487b7160e01b600052603160045260246000fd5b600082815260209020810160001990810180546001600160a01b03191690550190555050505050565b6001600160a01b03811660009081526006602052604090205460ff16156139ff5761356a565b6001600160a01b03166000818152600660209081526040808320805460ff19166001908117909155600380546005909452918420839055820181559091527fc2575a0e9e593c00f959f8c92f12db2869c3395a3b0502d05e2516446f71f85b0180546001600160a01b0319169091179055565b600082815260038401602052604090205460ff1615613ae057600082815260018481016020908152604092839020845181546001600160a01b0319166001600160a01b0390911617815590840151918101919091559082015160028201556060820151600390910155610e63565b60008281526003848101602090815260408084208054600160ff1990911681179091558088018352818520865181546001600160a01b0319166001600160a01b0390911617815586840151818301558683015160028083019190915560609097015194019390935586549487018252832084905590830185559381529290922090910155565b6001600160a01b0381166000908152600a602052604090205460ff1615613b8c5761356a565b6001600160a01b03166000818152600a60209081526040808320805460ff19166001908117909155600780546009909452918420839055820181559091527fa66cc928b5edb82af9bd49922954155ab7b0942694bea4ce44661d9a8736c6880180546001600160a01b0319169091179055565b8260030182604051613c11919061433b565b9081526040519081900360200190205460ff1615613c5e57808360010183604051613c3c919061433b565b9081526040516020918190038201902082518155910151600190910155610e63565b60018360030183604051613c72919061433b565b908152604051908190036020018120805492151560ff199093169290921790915581906001850190613ca590859061433b565b9081526040519081900360209081018220835181559201516001909201919091558354906002850190613cd990859061433b565b9081526040516020918190038201902091909155835460018101855560008581528290208451613d1193919092019190850190613e6d565b50505050565b600082815260038401602052604090205460ff1615613da557600082815260018085016020908152604092839020845181546001600160a01b039182166001600160a01b0319918216178355928601519382019390935592840151600284015560608401516003840180549190931691161790556080820151600482015560a0820151600590910155610e63565b6000828152600380850160209081526040808420805460ff191660019081179091558781018352818520865181546001600160a01b039182166001600160a01b031991821617835588860151838501558885015160028085019190915560608a0151978401805498909316979091169690961790556080870151600482015560a0870151600590910155875493880183529084208390558201865585835290912001829055505050565b508054600082559060005260206000209081019061356a9190613f4b565b828054613e79906149e8565b90600052602060002090601f016020900481019282613e9b5760008555613ee1565b82601f10613eb457805160ff1916838001178555613ee1565b82800160010185558215613ee1579182015b82811115613ee1578251825591602001919060010190613ec6565b50613eed929150613f4b565b5090565b508054613efd906149e8565b6000825580601f10613f0f575061356a565b601f01602090049060005260206000209081019061356a9190613f4b565b508054600082559060005260206000209081019061356a9190613f60565b5b80821115613eed5760008155600101613f4c565b80821115613eed576000613f748282613ef1565b50600101613f60565b80356001600160a01b0381168114610ae357600080fd5b600082601f830112613fa4578081fd5b81356020613fb9613fb483614904565b6148d4565b82815281810190858301855b85811015614028578135880189603f820112613fdf578788fd5b858101356040613ff1613fb483614927565b8281528c82848601011115614004578a8bfd5b828285018a83013791820188018a9052508552509284019290840190600101613fc5565b5090979650505050505050565b600082601f830112614045578081fd5b81356020614055613fb483614904565b8281528181019085830183850287018401881015614071578586fd5b855b8581101561402857813584529284019290840190600101614073565b6000602082840312156140a0578081fd5b6140a982613f7d565b9392505050565b600080604083850312156140c2578081fd5b6140cb83613f7d565b915060208301356001600160401b038111156140e5578182fd5b6140f185828601613f94565b9150509250929050565b60008060008060808587031215614110578182fd5b61411985613f7d565b935060208501356001600160401b0380821115614134578384fd5b61414088838901613f94565b94506040870135915080821115614155578384fd5b61416188838901614035565b93506060870135915080821115614176578283fd5b5061418387828801614035565b91505092959194509250565b600080604083850312156141a1578182fd5b6141aa83613f7d565b915060208301356141ba81614a6a565b809150509250929050565b600080604083850312156141d7578182fd5b6141e083613f7d565b946020939093013593505050565b600080600060608486031215614202578283fd5b61420b84613f7d565b95602085013595506040909401359392505050565b60008060008060808587031215614235578384fd5b61423e85613f7d565b966020860135965060408601359560600135945092505050565b600060208284031215614269578081fd5b81356140a981614a6a565b600060208284031215614285578081fd5b81516140a981614a6a565b6000602082840312156142a1578081fd5b81516001600160401b038111156142b6578182fd5b8201601f810184136142c6578182fd5b80516142d4613fb482614927565b8181528560208385010111156142e8578384fd5b6142f98260208301602086016149bc565b95945050505050565b600060208284031215614313578081fd5b5035919050565b6000806040838503121561432c578182fd5b50508035926020909101359150565b6000825161434d8184602087016149bc565b9190910192915050565b815460009081906002810460018083168061437357607f831692505b602080841082141561439357634e487b7160e01b87526022600452602487fd5b8180156143a757600181146143b8576143e4565b60ff198616895284890196506143e4565b60008a815260209020885b868110156143dc5781548b8201529085019083016143c3565b505084890196505b509498975050505050505050565b6001600160a01b039384168152919092166020820152604081019190915260600190565b6020808252825182820181905260009190848201906040850190845b818110156144575783516001600160a01b031683529284019291840191600101614432565b50909695505050505050565b6000602080830181845280855180835260408601915060408482028701019250838701855b828110156144ce57878503603f19018452815180518087526144af818989018a85016149bc565b601f01601f191695909501860194509285019290850190600101614488565b5092979650505050505050565b602080825282518282018190526000919060409081850190868401855b8281101561455457815180516001600160a01b03908116865287820151888701528682015187870152606080830151909116908601526080808201519086015260a0908101519085015260c090930192908501906001016144f8565b5091979650505050505050565b602080825282518282018190526000919060409081850190868401855b828110156145545781518051855286015186850152928401929085019060010161457e565b602080825282518282018190526000919060409081850190868401855b8281101561455457815180516001600160a01b031685528681015187860152858101518686015260609081015190850152608090930192908501906001016145c0565b6020808252825182820181905260009190848201906040850190845b818110156144575783518352928401929184019160010161461f565b60208082526023908201527f506f6c61724d61726b6574506c6163653a20436f6e7461637420636f7265207460408201526265616d60e81b606082015260800190565b60208082526012908201527127bbb732b9399d1027b7363c9027bbb732b960711b604082015260600190565b6020808252602c908201527f506f6c61724d61726b6574506c6163653a205072696365206c6f77657220746860408201526b616e206d696e20707269636560a01b606082015260800190565b6020808252602b908201527f506f6c61724d61726b6574506c6163653a204e667420636f6e7472616374206960408201526a073206e6f742073657475760ac1b606082015260800190565b6020808252602d908201527f506f6c61724d61726b6574506c6163653a20596f752063616e6e6f742062757960408201526c081e5bdd5c881bdddb881b999d609a1b606082015260800190565b60208082526022908201527f506f6c61724d61726b6574506c6163653a204f6e6c79207370656369616c204e604082015261199d60f21b606082015260800190565b60208082526029908201527f506f6c61724d61726b6574506c6163653a204e6f7420617574686f72697a65646040820152680818dbdb9d1c9858dd60ba1b606082015260800190565b60208082526021908201527f506f6c61724d61726b6574506c6163653a204c656e677468206d69736d6174636040820152600d60fb1b606082015260800190565b6020808252601f908201527f5265656e7472616e637947756172643a207265656e7472616e742063616c6c00604082015260600190565b60208082526023908201527f506f6c61724d61726b6574506c6163653a204974656d20646f65736e742065786040820152621a5cdd60ea1b606082015260800190565b604051601f8201601f191681016001600160401b03811182821017156148fc576148fc614a54565b604052919050565b60006001600160401b0382111561491d5761491d614a54565b5060209081020190565b60006001600160401b0382111561494057614940614a54565b50601f01601f191660200190565b6000821982111561496157614961614a3e565b500190565b60008261498157634e487b7160e01b81526012600452602481fd5b500490565b60008160001904831182151516156149a0576149a0614a3e565b500290565b6000828210156149b7576149b7614a3e565b500390565b60005b838110156149d75781810151838201526020016149bf565b83811115613d115750506000910152565b6002810460018216806149fc57607f821691505b60208210811415614a1d57634e487b7160e01b600052602260045260246000fd5b50919050565b6000600019821415614a3757614a37614a3e565b5060010190565b634e487b7160e01b600052601160045260246000fd5b634e487b7160e01b600052604160045260246000fd5b801515811461356a57600080fdfea26469706673582212201d69ca124298d198e21ac40cf613034932e4dff36946742093a471262a61676d64736f6c63430008020033",
  "linkReferences": {},
  "deployedLinkReferences": {}
}