{
  "_format": "hh-sol-artifact-1",
  "contractName": "PolarLuckyBox",
  "sourceName": "contracts/PolarLuckyBox.sol",
  "abi": [
    {
      "inputs": [
        {
          "internalType": "string",
          "name": "uri",
          "type": "string"
        },
        {
          "internalType": "address",
          "name": "_handler",
          "type": "address"
        }
      ],
      "stateMutability": "nonpayable",
      "type": "constructor"
    },
    {
      "anonymous": false,
      "inputs": [
        {
          "indexed": true,
          "internalType": "address",
          "name": "owner",
          "type": "address"
        },
        {
          "indexed": true,
          "internalType": "address",
          "name": "approved",
          "type": "address"
        },
        {
          "indexed": true,
          "internalType": "uint256",
          "name": "tokenId",
          "type": "uint256"
        }
      ],
      "name": "Approval",
      "type": "event"
    },
    {
      "anonymous": false,
      "inputs": [
        {
          "indexed": true,
          "internalType": "address",
          "name": "owner",
          "type": "address"
        },
        {
          "indexed": true,
          "internalType": "address",
          "name": "operator",
          "type": "address"
        },
        {
          "indexed": false,
          "internalType": "bool",
          "name": "approved",
          "type": "bool"
        }
      ],
      "name": "ApprovalForAll",
      "type": "event"
    },
    {
      "anonymous": false,
      "inputs": [
        {
          "indexed": true,
          "internalType": "address",
          "name": "from",
          "type": "address"
        },
        {
          "indexed": true,
          "internalType": "address",
          "name": "to",
          "type": "address"
        },
        {
          "indexed": true,
          "internalType": "uint256",
          "name": "tokenId",
          "type": "uint256"
        }
      ],
      "name": "Transfer",
      "type": "event"
    },
    {
      "inputs": [
        {
          "internalType": "address",
          "name": "_new",
          "type": "address"
        },
        {
          "internalType": "bool",
          "name": "_change",
          "type": "bool"
        }
      ],
      "name": "addOwner",
      "outputs": [],
      "stateMutability": "nonpayable",
      "type": "function"
    },
    {
      "inputs": [
        {
          "internalType": "address",
          "name": "to",
          "type": "address"
        },
        {
          "internalType": "uint256",
          "name": "tokenId",
          "type": "uint256"
        }
      ],
      "name": "approve",
      "outputs": [],
      "stateMutability": "nonpayable",
      "type": "function"
    },
    {
      "inputs": [
        {
          "internalType": "address",
          "name": "owner",
          "type": "address"
        }
      ],
      "name": "balanceOf",
      "outputs": [
        {
          "internalType": "uint256",
          "name": "",
          "type": "uint256"
        }
      ],
      "stateMutability": "view",
      "type": "function"
    },
    {
      "inputs": [],
      "name": "baseURI",
      "outputs": [
        {
          "internalType": "string",
          "name": "",
          "type": "string"
        }
      ],
      "stateMutability": "view",
      "type": "function"
    },
    {
      "inputs": [
        {
          "internalType": "string",
          "name": "",
          "type": "string"
        },
        {
          "internalType": "address",
          "name": "",
          "type": "address"
        }
      ],
      "name": "boxesUserCount",
      "outputs": [
        {
          "internalType": "uint256",
          "name": "",
          "type": "uint256"
        }
      ],
      "stateMutability": "view",
      "type": "function"
    },
    {
      "inputs": [
        {
          "internalType": "string",
          "name": "name",
          "type": "string"
        },
        {
          "internalType": "uint256",
          "name": "count",
          "type": "uint256"
        },
        {
          "internalType": "address",
          "name": "user",
          "type": "address"
        }
      ],
      "name": "createLuckyBoxesAirDrop",
      "outputs": [],
      "stateMutability": "nonpayable",
      "type": "function"
    },
    {
      "inputs": [
        {
          "internalType": "string",
          "name": "name",
          "type": "string"
        },
        {
          "internalType": "uint256",
          "name": "count",
          "type": "uint256"
        },
        {
          "internalType": "address",
          "name": "user",
          "type": "address"
        }
      ],
      "name": "createLuckyBoxesWithTokens",
      "outputs": [
        {
          "internalType": "uint256",
          "name": "",
          "type": "uint256"
        }
      ],
      "stateMutability": "nonpayable",
      "type": "function"
    },
    {
      "inputs": [
        {
          "internalType": "address",
          "name": "user",
          "type": "address"
        },
        {
          "internalType": "uint256[]",
          "name": "tokenIds",
          "type": "uint256[]"
        }
      ],
      "name": "createNodesWithLuckyBoxes",
      "outputs": [
        {
          "internalType": "string[]",
          "name": "",
          "type": "string[]"
        },
        {
          "internalType": "string[]",
          "name": "",
          "type": "string[]"
        }
      ],
      "stateMutability": "nonpayable",
      "type": "function"
    },
    {
      "inputs": [
        {
          "internalType": "uint256",
          "name": "tokenId",
          "type": "uint256"
        }
      ],
      "name": "getApproved",
      "outputs": [
        {
          "internalType": "address",
          "name": "",
          "type": "address"
        }
      ],
      "stateMutability": "view",
      "type": "function"
    },
    {
      "inputs": [
        {
          "internalType": "uint256",
          "name": "tokenId",
          "type": "uint256"
        }
      ],
      "name": "getAttribute",
      "outputs": [
        {
          "internalType": "string",
          "name": "",
          "type": "string"
        }
      ],
      "stateMutability": "view",
      "type": "function"
    },
    {
      "inputs": [],
      "name": "getBoxSize",
      "outputs": [
        {
          "internalType": "uint256",
          "name": "",
          "type": "uint256"
        }
      ],
      "stateMutability": "view",
      "type": "function"
    },
    {
      "inputs": [
        {
          "internalType": "uint256",
          "name": "iStart",
          "type": "uint256"
        },
        {
          "internalType": "uint256",
          "name": "iEnd",
          "type": "uint256"
        }
      ],
      "name": "getMapBetweenIndexes",
      "outputs": [
        {
          "components": [
            {
              "internalType": "uint256",
              "name": "priceTokens",
              "type": "uint256"
            },
            {
              "internalType": "uint256[]",
              "name": "probability",
              "type": "uint256[]"
            },
            {
              "internalType": "string[]",
              "name": "nodeType",
              "type": "string[]"
            },
            {
              "internalType": "string[]",
              "name": "feature",
              "type": "string[]"
            },
            {
              "internalType": "uint256[]",
              "name": "counter",
              "type": "uint256[]"
            },
            {
              "internalType": "uint256[]",
              "name": "remaining",
              "type": "uint256[]"
            },
            {
              "internalType": "uint256",
              "name": "createdBox",
              "type": "uint256"
            },
            {
              "internalType": "uint256",
              "name": "openBox",
              "type": "uint256"
            },
            {
              "internalType": "uint256",
              "name": "maxBox",
              "type": "uint256"
            },
            {
              "internalType": "uint256",
              "name": "maxUser",
              "type": "uint256"
            },
            {
              "internalType": "string",
              "name": "attribute",
              "type": "string"
            }
          ],
          "internalType": "struct PolarLuckyBox.Box[]",
          "name": "",
          "type": "tuple[]"
        }
      ],
      "stateMutability": "view",
      "type": "function"
    },
    {
      "inputs": [
        {
          "internalType": "string",
          "name": "key",
          "type": "string"
        }
      ],
      "name": "getMapForKey",
      "outputs": [
        {
          "components": [
            {
              "internalType": "uint256",
              "name": "priceTokens",
              "type": "uint256"
            },
            {
              "internalType": "uint256[]",
              "name": "probability",
              "type": "uint256[]"
            },
            {
              "internalType": "string[]",
              "name": "nodeType",
              "type": "string[]"
            },
            {
              "internalType": "string[]",
              "name": "feature",
              "type": "string[]"
            },
            {
              "internalType": "uint256[]",
              "name": "counter",
              "type": "uint256[]"
            },
            {
              "internalType": "uint256[]",
              "name": "remaining",
              "type": "uint256[]"
            },
            {
              "internalType": "uint256",
              "name": "createdBox",
              "type": "uint256"
            },
            {
              "internalType": "uint256",
              "name": "openBox",
              "type": "uint256"
            },
            {
              "internalType": "uint256",
              "name": "maxBox",
              "type": "uint256"
            },
            {
              "internalType": "uint256",
              "name": "maxUser",
              "type": "uint256"
            },
            {
              "internalType": "string",
              "name": "attribute",
              "type": "string"
            }
          ],
          "internalType": "struct PolarLuckyBox.Box",
          "name": "",
          "type": "tuple"
        }
      ],
      "stateMutability": "view",
      "type": "function"
    },
    {
      "inputs": [
        {
          "internalType": "uint256",
          "name": "iStart",
          "type": "uint256"
        },
        {
          "internalType": "uint256",
          "name": "iEnd",
          "type": "uint256"
        }
      ],
      "name": "getMapKeysBetweenIndexes",
      "outputs": [
        {
          "internalType": "string[]",
          "name": "",
          "type": "string[]"
        }
      ],
      "stateMutability": "view",
      "type": "function"
    },
    {
      "inputs": [],
      "name": "getOwnersSize",
      "outputs": [
        {
          "internalType": "uint256",
          "name": "",
          "type": "uint256"
        }
      ],
      "stateMutability": "view",
      "type": "function"
    },
    {
      "inputs": [],
      "name": "handler",
      "outputs": [
        {
          "internalType": "address",
          "name": "",
          "type": "address"
        }
      ],
      "stateMutability": "view",
      "type": "function"
    },
    {
      "inputs": [
        {
          "internalType": "address",
          "name": "owner",
          "type": "address"
        },
        {
          "internalType": "address",
          "name": "operator",
          "type": "address"
        }
      ],
      "name": "isApprovedForAll",
      "outputs": [
        {
          "internalType": "bool",
          "name": "",
          "type": "bool"
        }
      ],
      "stateMutability": "view",
      "type": "function"
    },
    {
      "inputs": [
        {
          "internalType": "address",
          "name": "",
          "type": "address"
        }
      ],
      "name": "isBlacklisted",
      "outputs": [
        {
          "internalType": "bool",
          "name": "",
          "type": "bool"
        }
      ],
      "stateMutability": "view",
      "type": "function"
    },
    {
      "inputs": [
        {
          "internalType": "address",
          "name": "",
          "type": "address"
        }
      ],
      "name": "isOwner",
      "outputs": [
        {
          "internalType": "bool",
          "name": "",
          "type": "bool"
        }
      ],
      "stateMutability": "view",
      "type": "function"
    },
    {
      "inputs": [],
      "name": "name",
      "outputs": [
        {
          "internalType": "string",
          "name": "",
          "type": "string"
        }
      ],
      "stateMutability": "view",
      "type": "function"
    },
    {
      "inputs": [],
      "name": "openCreateLuckyBoxesWithTokens",
      "outputs": [
        {
          "internalType": "bool",
          "name": "",
          "type": "bool"
        }
      ],
      "stateMutability": "view",
      "type": "function"
    },
    {
      "inputs": [
        {
          "internalType": "uint256",
          "name": "tokenId",
          "type": "uint256"
        }
      ],
      "name": "ownerOf",
      "outputs": [
        {
          "internalType": "address",
          "name": "",
          "type": "address"
        }
      ],
      "stateMutability": "view",
      "type": "function"
    },
    {
      "inputs": [
        {
          "internalType": "uint256",
          "name": "",
          "type": "uint256"
        }
      ],
      "name": "owners",
      "outputs": [
        {
          "internalType": "address",
          "name": "",
          "type": "address"
        }
      ],
      "stateMutability": "view",
      "type": "function"
    },
    {
      "inputs": [
        {
          "internalType": "address",
          "name": "_new",
          "type": "address"
        }
      ],
      "name": "removeOwner",
      "outputs": [],
      "stateMutability": "nonpayable",
      "type": "function"
    },
    {
      "inputs": [
        {
          "internalType": "address",
          "name": "from",
          "type": "address"
        },
        {
          "internalType": "address",
          "name": "to",
          "type": "address"
        },
        {
          "internalType": "uint256",
          "name": "tokenId",
          "type": "uint256"
        }
      ],
      "name": "safeTransferFrom",
      "outputs": [],
      "stateMutability": "nonpayable",
      "type": "function"
    },
    {
      "inputs": [
        {
          "internalType": "address",
          "name": "from",
          "type": "address"
        },
        {
          "internalType": "address",
          "name": "to",
          "type": "address"
        },
        {
          "internalType": "uint256",
          "name": "tokenId",
          "type": "uint256"
        },
        {
          "internalType": "bytes",
          "name": "_data",
          "type": "bytes"
        }
      ],
      "name": "safeTransferFrom",
      "outputs": [],
      "stateMutability": "nonpayable",
      "type": "function"
    },
    {
      "inputs": [
        {
          "internalType": "address",
          "name": "operator",
          "type": "address"
        },
        {
          "internalType": "bool",
          "name": "approved",
          "type": "bool"
        }
      ],
      "name": "setApprovalForAll",
      "outputs": [],
      "stateMutability": "nonpayable",
      "type": "function"
    },
    {
      "inputs": [
        {
          "internalType": "string",
          "name": "_new",
          "type": "string"
        }
      ],
      "name": "setBaseURI",
      "outputs": [],
      "stateMutability": "nonpayable",
      "type": "function"
    },
    {
      "inputs": [
        {
          "internalType": "address",
          "name": "_new",
          "type": "address"
        }
      ],
      "name": "setHandler",
      "outputs": [],
      "stateMutability": "nonpayable",
      "type": "function"
    },
    {
      "inputs": [
        {
          "internalType": "address",
          "name": "_new",
          "type": "address"
        },
        {
          "internalType": "bool",
          "name": "_value",
          "type": "bool"
        }
      ],
      "name": "setIsBlacklisted",
      "outputs": [],
      "stateMutability": "nonpayable",
      "type": "function"
    },
    {
      "inputs": [
        {
          "internalType": "bool",
          "name": "_openCreateLuckyBoxesWithTokens",
          "type": "bool"
        }
      ],
      "name": "setOpenCreate",
      "outputs": [],
      "stateMutability": "nonpayable",
      "type": "function"
    },
    {
      "inputs": [
        {
          "internalType": "string",
          "name": "name",
          "type": "string"
        },
        {
          "internalType": "uint256",
          "name": "_new",
          "type": "uint256"
        }
      ],
      "name": "setPolarLuckyBoxMaxUser",
      "outputs": [],
      "stateMutability": "nonpayable",
      "type": "function"
    },
    {
      "inputs": [
        {
          "internalType": "string",
          "name": "name",
          "type": "string"
        },
        {
          "internalType": "uint256",
          "name": "_new",
          "type": "uint256"
        }
      ],
      "name": "setPolarLuckyBoxPrice",
      "outputs": [],
      "stateMutability": "nonpayable",
      "type": "function"
    },
    {
      "inputs": [
        {
          "internalType": "bytes4",
          "name": "interfaceId",
          "type": "bytes4"
        }
      ],
      "name": "supportsInterface",
      "outputs": [
        {
          "internalType": "bool",
          "name": "",
          "type": "bool"
        }
      ],
      "stateMutability": "view",
      "type": "function"
    },
    {
      "inputs": [],
      "name": "symbol",
      "outputs": [
        {
          "internalType": "string",
          "name": "",
          "type": "string"
        }
      ],
      "stateMutability": "view",
      "type": "function"
    },
    {
      "inputs": [
        {
          "internalType": "uint256",
          "name": "index",
          "type": "uint256"
        }
      ],
      "name": "tokenByIndex",
      "outputs": [
        {
          "internalType": "uint256",
          "name": "",
          "type": "uint256"
        }
      ],
      "stateMutability": "view",
      "type": "function"
    },
    {
      "inputs": [
        {
          "internalType": "uint256",
          "name": "",
          "type": "uint256"
        }
      ],
      "name": "tokenIdsToType",
      "outputs": [
        {
          "internalType": "string",
          "name": "",
          "type": "string"
        }
      ],
      "stateMutability": "view",
      "type": "function"
    },
    {
      "inputs": [
        {
          "internalType": "address",
          "name": "owner",
          "type": "address"
        },
        {
          "internalType": "uint256",
          "name": "index",
          "type": "uint256"
        }
      ],
      "name": "tokenOfOwnerByIndex",
      "outputs": [
        {
          "internalType": "uint256",
          "name": "",
          "type": "uint256"
        }
      ],
      "stateMutability": "view",
      "type": "function"
    },
    {
      "inputs": [
        {
          "internalType": "uint256",
          "name": "tokenId",
          "type": "uint256"
        }
      ],
      "name": "tokenURI",
      "outputs": [
        {
          "internalType": "string",
          "name": "",
          "type": "string"
        }
      ],
      "stateMutability": "view",
      "type": "function"
    },
    {
      "inputs": [
        {
          "internalType": "address",
          "name": "user",
          "type": "address"
        }
      ],
      "name": "tokensOfOwner",
      "outputs": [
        {
          "internalType": "uint256[]",
          "name": "",
          "type": "uint256[]"
        }
      ],
      "stateMutability": "view",
      "type": "function"
    },
    {
      "inputs": [
        {
          "internalType": "address",
          "name": "user",
          "type": "address"
        },
        {
          "internalType": "uint256",
          "name": "iStart",
          "type": "uint256"
        },
        {
          "internalType": "uint256",
          "name": "iEnd",
          "type": "uint256"
        }
      ],
      "name": "tokensOfOwnerByIndexesBetween",
      "outputs": [
        {
          "internalType": "uint256[]",
          "name": "",
          "type": "uint256[]"
        }
      ],
      "stateMutability": "view",
      "type": "function"
    },
    {
      "inputs": [],
      "name": "totalSupply",
      "outputs": [
        {
          "internalType": "uint256",
          "name": "",
          "type": "uint256"
        }
      ],
      "stateMutability": "view",
      "type": "function"
    },
    {
      "inputs": [
        {
          "internalType": "address",
          "name": "from",
          "type": "address"
        },
        {
          "internalType": "address",
          "name": "to",
          "type": "address"
        },
        {
          "internalType": "uint256",
          "name": "tokenId",
          "type": "uint256"
        }
      ],
      "name": "transferFrom",
      "outputs": [],
      "stateMutability": "nonpayable",
      "type": "function"
    },
    {
      "inputs": [
        {
          "internalType": "string",
          "name": "name",
          "type": "string"
        },
        {
          "internalType": "uint256",
          "name": "priceTokens",
          "type": "uint256"
        },
        {
          "internalType": "uint256[]",
          "name": "probability",
          "type": "uint256[]"
        },
        {
          "internalType": "string[]",
          "name": "nodeType",
          "type": "string[]"
        },
        {
          "internalType": "string[]",
          "name": "feature",
          "type": "string[]"
        },
        {
          "internalType": "uint256[]",
          "name": "remaining",
          "type": "uint256[]"
        },
        {
          "internalType": "uint256",
          "name": "maxBox",
          "type": "uint256"
        },
        {
          "internalType": "uint256",
          "name": "maxUser",
          "type": "uint256"
        },
        {
          "internalType": "string",
          "name": "attribute",
          "type": "string"
        }
      ],
      "name": "updatePolarLuckyBox",
      "outputs": [],
      "stateMutability": "nonpayable",
      "type": "function"
    }
  ],
  "bytecode": "0x60806040526017805460ff191690553480156200001b57600080fd5b5060405162005d4f38038062005d4f8339810160408190526200003e9162000205565b604080518082018252600f81526e0a0ded8c2e44098eac6d6f24084def608b1b60208083019182528351808501909452600384526228262160e91b908401528151919291620000909160009162000142565b508051620000a690600190602084019062000142565b5050600a805460018181019092557fc65a7bb8d6351c1cf70c95a316cc6a92839c986682d98bc35f958f4883f9d2a80180546001600160a01b031916339081179091556000908152600b60209081526040909120805460ff191690921790915583516200011a925060159185019062000142565b50601180546001600160a01b0319166001600160a01b03929092169190911790555062000343565b8280546200015090620002f0565b90600052602060002090601f016020900481019282620001745760008555620001bf565b82601f106200018f57805160ff1916838001178555620001bf565b82800160010185558215620001bf579182015b82811115620001bf578251825591602001919060010190620001a2565b50620001cd929150620001d1565b5090565b5b80821115620001cd5760008155600101620001d2565b80516001600160a01b03811681146200020057600080fd5b919050565b6000806040838503121562000218578182fd5b82516001600160401b03808211156200022f578384fd5b818501915085601f83011262000243578384fd5b8151818111156200025857620002586200032d565b604051601f8201601f19908116603f011681019083821181831017156200028357620002836200032d565b816040528281526020935088848487010111156200029f578687fd5b8691505b82821015620002c25784820184015181830185015290830190620002a3565b82821115620002d357868484830101525b9550620002e5915050858201620001e8565b925050509250929050565b6002810460018216806200030557607f821691505b602082108114156200032757634e487b7160e01b600052602260045260246000fd5b50919050565b634e487b7160e01b600052604160045260246000fd5b6159fc80620003536000396000f3fe608060405234801561001057600080fd5b50600436106102745760003560e01c80636352211e11610151578063a22cb465116100c3578063bac426d011610087578063bac426d0146105ce578063c80916d4146105e1578063c87b56dd146105f4578063ce7180fb14610607578063e985e9c51461060f578063fe575a871461064b57610274565b8063a22cb46514610554578063a56f1f3f14610567578063a933c20f14610587578063b3ad18e2146105a8578063b88d4fde146105bb57610274565b80638462151c116101155780638462151c146104b85780638706d8fe146104cb57806387568fd0146104de5780638d0357dd1461051957806395d89b4114610539578063a0e384921461054157610274565b80636352211e146104645780636454a0fd146104775780636c0360eb1461048a5780636d8850dc1461049257806370a08231146104a557610274565b806340de1e09116101ea5780635134fea6116101ae5780635134fea6146103eb578063518e32d31461040b57806355f804b31461041e5780635a96ca09146104315780635eec9c081461043e57806363282df21461045157610274565b806340de1e091461037f57806342842e0e14610392578063493fe80f146103a55780634cee1e3b146103b85780634f6ccce7146103d857610274565b80630c7b1d7b1161023c5780630c7b1d7b14610309578063173825d91461031b57806318160ddd1461032e57806323b872dd146103365780632f54bf6e146103495780632f745c591461036c57610274565b806301ffc9a714610279578063025e7c27146102a157806306fdde03146102cc578063081812fc146102e1578063095ea7b3146102f4575b600080fd5b61028c610287366004615036565b61066e565b60405190151581526020015b60405180910390f35b6102b46102af366004615284565b610681565b6040516001600160a01b039091168152602001610298565b6102d46106ab565b6040516102989190615659565b6102b46102ef366004615284565b61073d565b610307610302366004614fc1565b6107d7565b005b600a545b604051908152602001610298565b610307610329366004614e4e565b6108ed565b60085461030d565b610307610344366004614e9a565b610bc8565b61028c610357366004614e4e565b600b6020526000908152604090205460ff1681565b61030d61037a366004614fc1565b610bf9565b61030761038d3660046150e2565b610c8f565b6103076103a0366004614e9a565b610d59565b6102d46103b3366004615284565b610d74565b6103cb6103c6366004614fea565b610e37565b6040516102989190615646565b61030d6103e6366004615284565b610ef9565b6103fe6103f936600461529c565b610f9a565b60405161029891906155ae565b610307610419366004614f98565b611113565b61030761042c36600461506e565b61132a565b60175461028c9060ff1681565b61030761044c36600461501c565b61136c565b61030761045f366004615178565b6113ae565b6102b4610472366004615284565b611e51565b61030d610485366004615124565b611ec8565b6102d46120c8565b6103076104a03660046150e2565b6120d7565b61030d6104b3366004614e4e565b61219e565b6103cb6104c6366004614e4e565b612225565b6103076104d9366004615124565b6122e4565b61030d6104ec3660046150a0565b81516020818401810180516013825292820194820194909420919093529091526000908152604090205481565b61052c61052736600461529c565b612555565b60405161029891906155e6565b6102d46129ec565b61030761054f366004614f98565b6129fb565b610307610562366004614f98565b612a55565b61057a61057536600461506e565b612a60565b60405161029891906157f9565b61059a610595366004614f4d565b612e88565b6040516102989291906155c1565b6102d46105b6366004615284565b6134c0565b6103076105c9366004614ed5565b61355a565b6103076105dc366004614e4e565b613592565b6011546102b4906001600160a01b031681565b6102d4610602366004615284565b6135e3565b600c5461030d565b61028c61061d366004614e68565b6001600160a01b03918216600090815260056020908152604080832093909416825291909152205460ff1690565b61028c610659366004614e4e565b60166020526000908152604090205460ff1681565b6000610679826136be565b90505b919050565b600a818154811061069157600080fd5b6000918252602090912001546001600160a01b0316905081565b6060600080546106ba90615904565b80601f01602080910402602001604051908101604052809291908181526020018280546106e690615904565b80156107335780601f1061070857610100808354040283529160200191610733565b820191906000526020600020905b81548152906001019060200180831161071657829003601f168201915b5050505050905090565b6000818152600260205260408120546001600160a01b03166107bb5760405162461bcd60e51b815260206004820152602c60248201527f4552433732313a20617070726f76656420717565727920666f72206e6f6e657860448201526b34b9ba32b73a103a37b5b2b760a11b60648201526084015b60405180910390fd5b506000908152600460205260409020546001600160a01b031690565b60006107e282611e51565b9050806001600160a01b0316836001600160a01b031614156108505760405162461bcd60e51b815260206004820152602160248201527f4552433732313a20617070726f76616c20746f2063757272656e74206f776e656044820152603960f91b60648201526084016107b2565b336001600160a01b038216148061086c575061086c813361061d565b6108de5760405162461bcd60e51b815260206004820152603860248201527f4552433732313a20617070726f76652063616c6c6572206973206e6f74206f7760448201527f6e6572206e6f7220617070726f76656420666f7220616c6c000000000000000060648201526084016107b2565b6108e883836136e3565b505050565b336001600160a01b0316600a60008154811061091957634e487b7160e01b600052603260045260246000fd5b6000918252602090912001546001600160a01b0316146109765760405162461bcd60e51b815260206004820152601860248201527727bbb732b9399d1027b7363c9029bab832b91027bbb732b960411b60448201526064016107b2565b6001600160a01b0381166000908152600b602052604090205460ff166109d25760405162461bcd60e51b815260206004820152601160248201527027bbb732b9399d102737ba1037bbb732b960791b60448201526064016107b2565b600a6000815481106109f457634e487b7160e01b600052603260045260246000fd5b6000918252602090912001546001600160a01b0382811691161415610a655760405162461bcd60e51b815260206004820152602160248201527f4f776e6572733a2043616e6e6f742072656d6f7665207375706572206f776e656044820152603960f91b60648201526084016107b2565b60015b600a54811015610ba657816001600160a01b0316600a8281548110610a9d57634e487b7160e01b600052603260045260246000fd5b6000918252602090912001546001600160a01b03161415610b9457600a8054610ac8906001906158aa565b81548110610ae657634e487b7160e01b600052603260045260246000fd5b600091825260209091200154600a80546001600160a01b039092169183908110610b2057634e487b7160e01b600052603260045260246000fd5b9060005260206000200160006101000a8154816001600160a01b0302191690836001600160a01b03160217905550600a805480610b6d57634e487b7160e01b600052603160045260246000fd5b600082815260209020810160001990810180546001600160a01b0319169055019055610ba6565b80610b9e8161593f565b915050610a68565b506001600160a01b03166000908152600b60205260409020805460ff19169055565b610bd23382613751565b610bee5760405162461bcd60e51b81526004016107b290615766565b6108e8838383613848565b6000610c048361219e565b8210610c665760405162461bcd60e51b815260206004820152602b60248201527f455243373231456e756d657261626c653a206f776e657220696e646578206f7560448201526a74206f6620626f756e647360a81b60648201526084016107b2565b506001600160a01b03919091166000908152600660209081526040808320938352929052205490565b336000908152600b602052604090205460ff16610cbe5760405162461bcd60e51b81526004016107b290615703565b604051600f90610ccf908490615495565b9081526040519081900360200190205460ff16610d2e5760405162461bcd60e51b815260206004820181905260248201527f506f6c61724c75636b79426f783a204e616d6520646f65736e7420657869737460448201526064016107b2565b80600c60010183604051610d429190615495565b908152604051908190036020019020600901555050565b6108e88383836040518060200160405280600081525061355a565b600081815260126020526040908190209051606091600d91610d9691906154e0565b9081526020016040518091039020600a018054610db290615904565b80601f0160208091040260200160405190810160405280929190818152602001828054610dde90615904565b8015610e2b5780601f10610e0057610100808354040283529160200191610e2b565b820191906000526020600020905b815481529060010190602001808311610e0e57829003601f168201915b50505050509050919050565b60606000610e4584846158aa565b6001600160401b03811115610e6a57634e487b7160e01b600052604160045260246000fd5b604051908082528060200260200182016040528015610e93578160200160208202803683370190505b509050835b83811015610ef057610eaa8682610bf9565b82610eb587846158aa565b81518110610ed357634e487b7160e01b600052603260045260246000fd5b602090810291909101015280610ee88161593f565b915050610e98565b50949350505050565b6000610f0460085490565b8210610f675760405162461bcd60e51b815260206004820152602c60248201527f455243373231456e756d657261626c653a20676c6f62616c20696e646578206f60448201526b7574206f6620626f756e647360a01b60648201526084016107b2565b60088281548110610f8857634e487b7160e01b600052603260045260246000fd5b90600052602060002001549050919050565b60606000610fa884846158aa565b6001600160401b03811115610fcd57634e487b7160e01b600052604160045260246000fd5b60405190808252806020026020018201604052801561100057816020015b6060815260200190600190039081610feb5790505b509050835b8381101561110b57600c80548290811061102f57634e487b7160e01b600052603260045260246000fd5b90600052602060002001805461104490615904565b80601f016020809104026020016040519081016040528092919081815260200182805461107090615904565b80156110bd5780601f10611092576101008083540402835291602001916110bd565b820191906000526020600020905b8154815290600101906020018083116110a057829003601f168201915b50505050508286836110cf91906158aa565b815181106110ed57634e487b7160e01b600052603260045260246000fd5b602002602001018190525080806111039061593f565b915050611005565b509392505050565b336001600160a01b0316600a60008154811061113f57634e487b7160e01b600052603260045260246000fd5b6000918252602090912001546001600160a01b03161461119c5760405162461bcd60e51b815260206004820152601860248201527727bbb732b9399d1027b7363c9029bab832b91027bbb732b960411b60448201526064016107b2565b6001600160a01b0382166000908152600b602052604090205460ff16156111fd5760405162461bcd60e51b815260206004820152601560248201527427bbb732b9399d1020b63932b0b23c9037bbb732b960591b60448201526064016107b2565b6001600160a01b0382166000908152600b60205260409020805460ff1916600117905580156112da57600a8060008154811061124957634e487b7160e01b600052603260045260246000fd5b6000918252602080832090910154835460018101855593835290822090920180546001600160a01b0319166001600160a01b0390931692909217909155600a80548492906112a757634e487b7160e01b600052603260045260246000fd5b9060005260206000200160006101000a8154816001600160a01b0302191690836001600160a01b03160217905550611326565b600a80546001810182556000919091527fc65a7bb8d6351c1cf70c95a316cc6a92839c986682d98bc35f958f4883f9d2a80180546001600160a01b0319166001600160a01b0384161790555b5050565b336000908152600b602052604090205460ff166113595760405162461bcd60e51b81526004016107b290615703565b8051611326906015906020840190614b0e565b336000908152600b602052604090205460ff1661139b5760405162461bcd60e51b81526004016107b290615703565b6017805460ff1916911515919091179055565b336000908152600b602052604090205460ff166113dd5760405162461bcd60e51b81526004016107b290615703565b85518751146113fe5760405162461bcd60e51b81526004016107b29061572f565b845186511461141f5760405162461bcd60e51b81526004016107b29061572f565b83518551146114405760405162461bcd60e51b81526004016107b29061572f565b60018551116114a65760405162461bcd60e51b815260206004820152602c60248201527f506f6c61724c75636b79426f783a204c656e677468206d75737420626520677260448201526b6561746572207468616e203160a01b60648201526084016107b2565b600086516001600160401b038111156114cf57634e487b7160e01b600052604160045260246000fd5b6040519080825280602002602001820160405280156114f8578160200160208202803683370190505b5090506000600c6001018b6040516115109190615495565b908152602001604051809103902060405180610160016040529081600082015481526020016001820180548060200260200160405190810160405280929190818152602001828054801561158357602002820191906000526020600020905b81548152602001906001019080831161156f575b5050505050815260200160028201805480602002602001604051908101604052809291908181526020016000905b8282101561165d5783829060005260206000200180546115d090615904565b80601f01602080910402602001604051908101604052809291908181526020018280546115fc90615904565b80156116495780601f1061161e57610100808354040283529160200191611649565b820191906000526020600020905b81548152906001019060200180831161162c57829003601f168201915b5050505050815260200190600101906115b1565b50505050815260200160038201805480602002602001604051908101604052809291908181526020016000905b828210156117365783829060005260206000200180546116a990615904565b80601f01602080910402602001604051908101604052809291908181526020018280546116d590615904565b80156117225780601f106116f757610100808354040283529160200191611722565b820191906000526020600020905b81548152906001019060200180831161170557829003601f168201915b50505050508152602001906001019061168a565b5050505081526020016004820180548060200260200160405190810160405280929190818152602001828054801561178d57602002820191906000526020600020905b815481526020019060010190808311611779575b50505050508152602001600582018054806020026020016040519081016040528092919081815260200182805480156117e557602002820191906000526020600020905b8154815260200190600101908083116117d1575b5050505050815260200160068201548152602001600782015481526020016008820154815260200160098201548152602001600a8201805461182690615904565b80601f016020809104026020016040519081016040528092919081815260200182805461185290615904565b801561189f5780601f106118745761010080835404028352916020019161189f565b820191906000526020600020905b81548152906001019060200180831161188257829003601f168201915b5050505050815250509050600c6003018b6040516118bd9190615495565b9081526040519081900360200190205460ff1615611a2c5760005b8851811015611a2a5760005b826040015151811015611a175761194d8a838151811061191457634e487b7160e01b600052603260045260246000fd5b60200260200101518460400151838151811061194057634e487b7160e01b600052603260045260246000fd5b60200260200101516138b1565b80156119a357506119a389838151811061197757634e487b7160e01b600052603260045260246000fd5b60200260200101518460600151838151811061194057634e487b7160e01b600052603260045260246000fd5b15611a0557826080015181815181106119cc57634e487b7160e01b600052603260045260246000fd5b60200260200101518483815181106119f457634e487b7160e01b600052603260045260246000fd5b602002602001018181525050611a17565b80611a0f8161593f565b9150506118e4565b5080611a228161593f565b9150506118d8565b505b611a918b6040518061016001604052808d8152602001611a4b8d61390a565b81526020018b81526020018a81526020018581526020018981526020018460c0015181526020018460e00151815260200188815260200187815260200186815250613a5e565b611e44600c6001018c604051611aa79190615495565b9081526020016040518091039020604051806101600160405290816000820154815260200160018201805480602002602001604051908101604052809291908181526020018280548015611b1a57602002820191906000526020600020905b815481526020019060010190808311611b06575b5050505050815260200160028201805480602002602001604051908101604052809291908181526020016000905b82821015611bf4578382906000526020600020018054611b6790615904565b80601f0160208091040260200160405190810160405280929190818152602001828054611b9390615904565b8015611be05780601f10611bb557610100808354040283529160200191611be0565b820191906000526020600020905b815481529060010190602001808311611bc357829003601f168201915b505050505081526020019060010190611b48565b50505050815260200160038201805480602002602001604051908101604052809291908181526020016000905b82821015611ccd578382906000526020600020018054611c4090615904565b80601f0160208091040260200160405190810160405280929190818152602001828054611c6c90615904565b8015611cb95780601f10611c8e57610100808354040283529160200191611cb9565b820191906000526020600020905b815481529060010190602001808311611c9c57829003601f168201915b505050505081526020019060010190611c21565b50505050815260200160048201805480602002602001604051908101604052809291908181526020018280548015611d2457602002820191906000526020600020905b815481526020019060010190808311611d10575b5050505050815260200160058201805480602002602001604051908101604052809291908181526020018280548015611d7c57602002820191906000526020600020905b815481526020019060010190808311611d68575b5050505050815260200160068201548152602001600782015481526020016008820154815260200160098201548152602001600a82018054611dbd90615904565b80601f0160208091040260200160405190810160405280929190818152602001828054611de990615904565b8015611e365780601f10611e0b57610100808354040283529160200191611e36565b820191906000526020600020905b815481529060010190602001808311611e1957829003601f168201915b505050505081525050613d30565b5050505050505050505050565b6000818152600260205260408120546001600160a01b0316806106795760405162461bcd60e51b815260206004820152602960248201527f4552433732313a206f776e657220717565727920666f72206e6f6e657869737460448201526832b73a103a37b5b2b760b91b60648201526084016107b2565b6011546000906001600160a01b03163314611ef55760405162461bcd60e51b81526004016107b2906156be565b60175460ff16611f475760405162461bcd60e51b815260206004820152601760248201527f506f6c61724c75636b79426f783a204e6f74206f70656e00000000000000000060448201526064016107b2565b611f52848385613f07565b6000600c60010185604051611f679190615495565b90815260200160405180910390209050806008015481600601541115611fcf5760405162461bcd60e51b815260206004820152601b60248201527f506f6c61724c75636b79426f783a204f7574206f662073746f636b000000000060448201526064016107b2565b604051600d90611fe0908790615495565b9081526020016040518091039020600901546013866040516120029190615495565b90815260408051602092819003830190206001600160a01b0387166000908152925290205411156120915760405162461bcd60e51b815260206004820152603360248201527f506f6c61724c75636b79426f783a205573657220676f7420746f6f206d616e7960448201527220626f786573206f662074686973207479706560681b60648201526084016107b2565b83600c600101866040516120a59190615495565b908152604051908190036020019020546120bf919061588b565b95945050505050565b60606120d26140ad565b905090565b336000908152600b602052604090205460ff166121065760405162461bcd60e51b81526004016107b290615703565b604051600f90612117908490615495565b9081526040519081900360200190205460ff166121765760405162461bcd60e51b815260206004820181905260248201527f506f6c61724c75636b79426f783a204e616d6520646f65736e7420657869737460448201526064016107b2565b80600c6001018360405161218a9190615495565b908152604051908190036020019020555050565b60006001600160a01b0382166122095760405162461bcd60e51b815260206004820152602a60248201527f4552433732313a2062616c616e636520717565727920666f7220746865207a65604482015269726f206164647265737360b01b60648201526084016107b2565b506001600160a01b031660009081526003602052604090205490565b606060006122328361219e565b6001600160401b0381111561225757634e487b7160e01b600052604160045260246000fd5b604051908082528060200260200182016040528015612280578160200160208202803683370190505b50905060005b61228f8461219e565b8110156122dd576122a08482610bf9565b8282815181106122c057634e487b7160e01b600052603260045260246000fd5b6020908102919091010152806122d58161593f565b915050612286565b5092915050565b6011546001600160a01b0316331461230e5760405162461bcd60e51b81526004016107b2906156be565b612319838284613f07565b6108e8600c6001018460405161232f9190615495565b90815260200160405180910390206040518061016001604052908160008201548152602001600182018054806020026020016040519081016040528092919081815260200182805480156123a257602002820191906000526020600020905b81548152602001906001019080831161238e575b5050505050815260200160028201805480602002602001604051908101604052809291908181526020016000905b8282101561247c5783829060005260206000200180546123ef90615904565b80601f016020809104026020016040519081016040528092919081815260200182805461241b90615904565b80156124685780601f1061243d57610100808354040283529160200191612468565b820191906000526020600020905b81548152906001019060200180831161244b57829003601f168201915b5050505050815260200190600101906123d0565b50505050815260200160038201805480602002602001604051908101604052809291908181526020016000905b82821015611ccd5783829060005260206000200180546124c890615904565b80601f01602080910402602001604051908101604052809291908181526020018280546124f490615904565b80156125415780601f1061251657610100808354040283529160200191612541565b820191906000526020600020905b81548152906001019060200180831161252457829003601f168201915b5050505050815260200190600101906124a9565b6060600061256384846158aa565b6001600160401b0381111561258857634e487b7160e01b600052604160045260246000fd5b6040519080825280602002602001820160405280156125c157816020015b6125ae614b92565b8152602001906001900390816125a65790505b509050835b8381101561110b57600c8054600d9190839081106125f457634e487b7160e01b600052603260045260246000fd5b9060005260206000200160405161260b91906154e0565b908152602001604051809103902060405180610160016040529081600082015481526020016001820180548060200260200160405190810160405280929190818152602001828054801561267e57602002820191906000526020600020905b81548152602001906001019080831161266a575b5050505050815260200160028201805480602002602001604051908101604052809291908181526020016000905b828210156127585783829060005260206000200180546126cb90615904565b80601f01602080910402602001604051908101604052809291908181526020018280546126f790615904565b80156127445780601f1061271957610100808354040283529160200191612744565b820191906000526020600020905b81548152906001019060200180831161272757829003601f168201915b5050505050815260200190600101906126ac565b50505050815260200160038201805480602002602001604051908101604052809291908181526020016000905b828210156128315783829060005260206000200180546127a490615904565b80601f01602080910402602001604051908101604052809291908181526020018280546127d090615904565b801561281d5780601f106127f25761010080835404028352916020019161281d565b820191906000526020600020905b81548152906001019060200180831161280057829003601f168201915b505050505081526020019060010190612785565b5050505081526020016004820180548060200260200160405190810160405280929190818152602001828054801561288857602002820191906000526020600020905b815481526020019060010190808311612874575b50505050508152602001600582018054806020026020016040519081016040528092919081815260200182805480156128e057602002820191906000526020600020905b8154815260200190600101908083116128cc575b5050505050815260200160068201548152602001600782015481526020016008820154815260200160098201548152602001600a8201805461292190615904565b80601f016020809104026020016040519081016040528092919081815260200182805461294d90615904565b801561299a5780601f1061296f5761010080835404028352916020019161299a565b820191906000526020600020905b81548152906001019060200180831161297d57829003601f168201915b5050505050815250508286836129b091906158aa565b815181106129ce57634e487b7160e01b600052603260045260246000fd5b602002602001018190525080806129e49061593f565b9150506125c6565b6060600180546106ba90615904565b336000908152600b602052604090205460ff16612a2a5760405162461bcd60e51b81526004016107b290615703565b6001600160a01b03919091166000908152601660205260409020805460ff1916911515919091179055565b6113263383836140bc565b612a68614b92565b604051600f90612a79908490615495565b9081526040519081900360200190205460ff16612ad85760405162461bcd60e51b815260206004820152601f60248201527f506f6c61724c75636b79426f783a204b657920646f65736e742065786973740060448201526064016107b2565b604051600d90612ae9908490615495565b9081526020016040518091039020604051806101600160405290816000820154815260200160018201805480602002602001604051908101604052809291908181526020018280548015612b5c57602002820191906000526020600020905b815481526020019060010190808311612b48575b5050505050815260200160028201805480602002602001604051908101604052809291908181526020016000905b82821015612c36578382906000526020600020018054612ba990615904565b80601f0160208091040260200160405190810160405280929190818152602001828054612bd590615904565b8015612c225780601f10612bf757610100808354040283529160200191612c22565b820191906000526020600020905b815481529060010190602001808311612c0557829003601f168201915b505050505081526020019060010190612b8a565b50505050815260200160038201805480602002602001604051908101604052809291908181526020016000905b82821015612d0f578382906000526020600020018054612c8290615904565b80601f0160208091040260200160405190810160405280929190818152602001828054612cae90615904565b8015612cfb5780601f10612cd057610100808354040283529160200191612cfb565b820191906000526020600020905b815481529060010190602001808311612cde57829003601f168201915b505050505081526020019060010190612c63565b50505050815260200160048201805480602002602001604051908101604052809291908181526020018280548015612d6657602002820191906000526020600020905b815481526020019060010190808311612d52575b5050505050815260200160058201805480602002602001604051908101604052809291908181526020018280548015612dbe57602002820191906000526020600020905b815481526020019060010190808311612daa575b5050505050815260200160068201548152602001600782015481526020016008820154815260200160098201548152602001600a82018054612dff90615904565b80601f0160208091040260200160405190810160405280929190818152602001828054612e2b90615904565b8015612e785780601f10612e4d57610100808354040283529160200191612e78565b820191906000526020600020905b815481529060010190602001808311612e5b57829003601f168201915b5050505050815250509050919050565b60115460609081906001600160a01b03163314612eb75760405162461bcd60e51b81526004016107b2906156be565b600083516001600160401b03811115612ee057634e487b7160e01b600052604160045260246000fd5b604051908082528060200260200182016040528015612f1357816020015b6060815260200190600190039081612efe5790505b509050600084516001600160401b03811115612f3f57634e487b7160e01b600052604160045260246000fd5b604051908082528060200260200182016040528015612f7257816020015b6060815260200190600190039081612f5d5790505b50905060005b85518110156134b4576000868281518110612fa357634e487b7160e01b600052603260045260246000fd5b60200260200101519050876001600160a01b0316612fc082611e51565b6001600160a01b0316146130165760405162461bcd60e51b815260206004820152601c60248201527f506f6c61724c75636b79426f783a204e6f74206e6674206f776e65720000000060448201526064016107b2565b6000818152601260205260408082209051600d91613033916154e0565b90815260405190819003602001902060078101805491925060006130568361593f565b919050555060006130668a61418b565b905060005b600183015481101561349d5782600101818154811061309a57634e487b7160e01b600052603260045260246000fd5b906000526020600020015482101561342b576130b5846141f5565b8260040181815481106130d857634e487b7160e01b600052603260045260246000fd5b600091825260208220018054916130ee8361593f565b919050555082600501818154811061311657634e487b7160e01b600052603260045260246000fd5b6000918252602082200180549161312c836158ed565b919050555082600501818154811061315457634e487b7160e01b600052603260045260246000fd5b90600052602060002001546000141561326457801561323257600061317a6001836158aa565b90505b8360010181815481106131a057634e487b7160e01b600052603260045260246000fd5b9060005260206000200154600014613214578360010182815481106131d557634e487b7160e01b600052603260045260246000fd5b906000526020600020015484600101828154811061320357634e487b7160e01b600052603260045260246000fd5b600091825260209091200155613230565b8061321e57613230565b80613228816158ed565b91505061317d565b505b600083600101828154811061325757634e487b7160e01b600052603260045260246000fd5b6000918252602090912001555b82600201818154811061328757634e487b7160e01b600052603260045260246000fd5b90600052602060002001805461329c90615904565b80601f01602080910402602001604051908101604052809291908181526020018280546132c890615904565b80156133155780601f106132ea57610100808354040283529160200191613315565b820191906000526020600020905b8154815290600101906020018083116132f857829003601f168201915b505050505087868151811061333a57634e487b7160e01b600052603260045260246000fd5b602002602001018190525082600301818154811061336857634e487b7160e01b600052603260045260246000fd5b90600052602060002001805461337d90615904565b80601f01602080910402602001604051908101604052809291908181526020018280546133a990615904565b80156133f65780601f106133cb576101008083540402835291602001916133f6565b820191906000526020600020905b8154815290600101906020018083116133d957829003601f168201915b505050505086868151811061341b57634e487b7160e01b600052603260045260246000fd5b602002602001018190525061349d565b6001808401549061343d90839061585f565b141561348b5760405162461bcd60e51b815260206004820181905260248201527f506f6c61724c75636b79426f783a20556e6578706563746564206f757470757460448201526064016107b2565b806134958161593f565b91505061306b565b5050505080806134ac9061593f565b915050612f78565b50909590945092505050565b601260205260009081526040902080546134d990615904565b80601f016020809104026020016040519081016040528092919081815260200182805461350590615904565b80156135525780601f1061352757610100808354040283529160200191613552565b820191906000526020600020905b81548152906001019060200180831161353557829003601f168201915b505050505081565b6135643383613751565b6135805760405162461bcd60e51b81526004016107b290615766565b61358c8484848461429c565b50505050565b336000908152600b602052604090205460ff166135c15760405162461bcd60e51b81526004016107b290615703565b601180546001600160a01b0319166001600160a01b0392909216919091179055565b6000818152600260205260409020546060906001600160a01b03166136625760405162461bcd60e51b815260206004820152602f60248201527f4552433732314d657461646174613a2055524920717565727920666f72206e6f60448201526e3732bc34b9ba32b73a103a37b5b2b760891b60648201526084016107b2565b600061366c6140ad565b9050600081511161368c57604051806020016040528060008152506136b7565b80613696846142cf565b6040516020016136a79291906154b1565b6040516020818303038152906040525b9392505050565b60006001600160e01b0319821663780e9d6360e01b14806106795750610679826143e9565b600081815260046020526040902080546001600160a01b0319166001600160a01b038416908117909155819061371882611e51565b6001600160a01b03167f8c5be1e5ebec7d5bd14f71427d1e84f3dd0314c0f7b2291e5b200ac8c7c3b92560405160405180910390a45050565b6000818152600260205260408120546001600160a01b03166137ca5760405162461bcd60e51b815260206004820152602c60248201527f4552433732313a206f70657261746f7220717565727920666f72206e6f6e657860448201526b34b9ba32b73a103a37b5b2b760a11b60648201526084016107b2565b60006137d583611e51565b9050806001600160a01b0316846001600160a01b031614806138105750836001600160a01b03166138058461073d565b6001600160a01b0316145b8061384057506001600160a01b0380821660009081526005602090815260408083209388168352929052205460ff165b949350505050565b6001600160a01b03831660009081526016602052604090205460ff1615801561388a57506001600160a01b03821660009081526016602052604090205460ff16155b6138a65760405162461bcd60e51b81526004016107b2906157b7565b6108e8838383614439565b6000816040516020016138c49190615495565b60405160208183030381529060405280519060200120836040516020016138eb9190615495565b6040516020818303038152906040528051906020012014905092915050565b606060008260008151811061392f57634e487b7160e01b600052603260045260246000fd5b602002602001015190506000600190505b83518110156139ef5783818151811061396957634e487b7160e01b600052603260045260246000fd5b60200260200101516000146139dd578184828151811061399957634e487b7160e01b600052603260045260246000fd5b602002602001018181516139ad919061585f565b90525083518490829081106139d257634e487b7160e01b600052603260045260246000fd5b602002602001015191505b806139e78161593f565b915050613940565b508061271014613a575760405162461bcd60e51b815260206004820152602d60248201527f506f6c61724c75636b79426f783a20546f74616c2070726f626162696c69747960448201526c206d757374206265203130302560981b60648201526084016107b2565b5090919050565b604051600f90613a6f908490615495565b9081526040519081900360200190205460ff1615613b8f5780600c60010183604051613a9b9190615495565b9081526020016040518091039020600082015181600001556020820151816001019080519060200190613acf929190614bec565b5060408201518051613aeb916002840191602090910190614c26565b5060608201518051613b07916003840191602090910190614c26565b5060808201518051613b23916004840191602090910190614bec565b5060a08201518051613b3f916005840191602090910190614bec565b5060c0820151600682015560e08201516007820155610100820151600882015561012082015160098201556101408201518051613b8691600a840191602090910190614b0e565b50905050611326565b6001600c60030183604051613ba49190615495565b908152604051908190036020018120805492151560ff19909316929092179091558190600d90613bd5908590615495565b9081526020016040518091039020600082015181600001556020820151816001019080519060200190613c09929190614bec565b5060408201518051613c25916002840191602090910190614c26565b5060608201518051613c41916003840191602090910190614c26565b5060808201518051613c5d916004840191602090910190614bec565b5060a08201518051613c79916005840191602090910190614bec565b5060c0820151600682015560e08201516007820155610100820151600882015561012082015160098201556101408201518051613cc091600a840191602090910190614b0e565b5050600c54604051909150600e90613cd9908590615495565b9081526040516020918190038201902091909155600c805460018101825560009190915283516108e8927fdf6966c971051c3d54ec59162606531493a51404a002842f56009d7e5cf4a8c790920191850190614b0e565b6000805b8260a0015151811015613e6257600083602001518281518110613d6757634e487b7160e01b600052603260045260246000fd5b60200260200101511115613e505760008360a001518281518110613d9b57634e487b7160e01b600052603260045260246000fd5b602002602001015111613e165760405162461bcd60e51b815260206004820152603860248201527f506f6c61724c75636b79426f783a2050726f626162696c697479206d7573742060448201527f62652030206966206e6f20626f782072656d61696e696e67000000000000000060648201526084016107b2565b8260a001518181518110613e3a57634e487b7160e01b600052603260045260246000fd5b602002602001015182613e4d919061585f565b91505b80613e5a8161593f565b915050613d34565b5060008260c001518361010001511015613e80578260c00151613e87565b8261010001515b90508260e0015181613e9991906158aa565b8210156108e85760405162461bcd60e51b815260206004820152603660248201527f506f6c61724c75636b79426f783a2053756d2072656d61696e696e67206c6f776044820152750cae440e8d0c2dc40dac2f0405a40dee0cadc40c4def60531b60648201526084016107b2565b6001600160a01b03821660009081526016602052604090205460ff1615613f405760405162461bcd60e51b81526004016107b2906157b7565b604051600f90613f51908590615495565b9081526040519081900360200190205460ff16613fb05760405162461bcd60e51b815260206004820152601f60248201527f506f6c61724c75636b79426f783a20426f7820646f65736e742065786973740060448201526064016107b2565b60005b81811015614016576000613fc660145490565b60008181526012602090815260409091208751929350613fea929091880190614b0e565b50613ff584826145e4565b614003601480546001019055565b508061400e8161593f565b915050613fb3565b5080600c6001018460405161402b9190615495565b9081526020016040518091039020600601600082825461404b919061585f565b92505081905550806013846040516140639190615495565b90815260200160405180910390206000846001600160a01b03166001600160a01b0316815260200190815260200160002060008282546140a3919061585f565b9091555050505050565b6060601580546106ba90615904565b816001600160a01b0316836001600160a01b0316141561411e5760405162461bcd60e51b815260206004820152601960248201527f4552433732313a20617070726f766520746f2063616c6c65720000000000000060448201526064016107b2565b6001600160a01b03838116600081815260056020908152604080832094871680845294825291829020805460ff191686151590811790915591519182527f17307eab39ab6107e8899845ad3d59bd9653f200f220920489ca2b5937696c31910160405180910390a3505050565b6010546040805160208101929092526bffffffffffffffffffffffff19606084901b1690820152446054820152426074820152600090819060940160408051601f19818403018152919052805160209091012060108054600101905590506136b76127108261595a565b600061420082611e51565b905061420e816000846145fe565b6142196000836136e3565b6001600160a01b03811660009081526003602052604081208054600192906142429084906158aa565b909155505060008281526002602052604080822080546001600160a01b0319169055518391906001600160a01b038416907fddf252ad1be2c89b69c2b068fc378daa952ba7f163c4a11628f55a4df523b3ef908390a45050565b6142a7848484613848565b6142b384848484614609565b61358c5760405162461bcd60e51b81526004016107b29061566c565b6060816142f457506040805180820190915260018152600360fc1b602082015261067c565b8160005b811561431e57806143088161593f565b91506143179050600a83615877565b91506142f8565b6000816001600160401b0381111561434657634e487b7160e01b600052604160045260246000fd5b6040519080825280601f01601f191660200182016040528015614370576020820181803683370190505b5090505b8415613840576143856001836158aa565b9150614392600a8661595a565b61439d90603061585f565b60f81b8183815181106143c057634e487b7160e01b600052603260045260246000fd5b60200101906001600160f81b031916908160001a9053506143e2600a86615877565b9450614374565b60006001600160e01b031982166380ac58cd60e01b148061441a57506001600160e01b03198216635b5e139f60e01b145b8061067957506301ffc9a760e01b6001600160e01b0319831614610679565b826001600160a01b031661444c82611e51565b6001600160a01b0316146144b45760405162461bcd60e51b815260206004820152602960248201527f4552433732313a207472616e73666572206f6620746f6b656e2074686174206960448201526839903737ba1037bbb760b91b60648201526084016107b2565b6001600160a01b0382166145165760405162461bcd60e51b8152602060048201526024808201527f4552433732313a207472616e7366657220746f20746865207a65726f206164646044820152637265737360e01b60648201526084016107b2565b6145218383836145fe565b61452c6000826136e3565b6001600160a01b03831660009081526003602052604081208054600192906145559084906158aa565b90915550506001600160a01b038216600090815260036020526040812080546001929061458390849061585f565b909155505060008181526002602052604080822080546001600160a01b0319166001600160a01b0386811691821790925591518493918716917fddf252ad1be2c89b69c2b068fc378daa952ba7f163c4a11628f55a4df523b3ef91a4505050565b611326828260405180602001604052806000815250614716565b6108e8838383614749565b60006001600160a01b0384163b1561470b57604051630a85bd0160e11b81526001600160a01b0385169063150b7a029061464d90339089908890889060040161557b565b602060405180830381600087803b15801561466757600080fd5b505af1925050508015614697575060408051601f3d908101601f1916820190925261469491810190615052565b60015b6146f1573d8080156146c5576040519150601f19603f3d011682016040523d82523d6000602084013e6146ca565b606091505b5080516146e95760405162461bcd60e51b81526004016107b29061566c565b805181602001fd5b6001600160e01b031916630a85bd0160e11b149050613840565b506001949350505050565b6147208383614806565b61472d6000848484614609565b6108e85760405162461bcd60e51b81526004016107b29061566c565b6001600160a01b0383166147a45761479f81600880546000838152600960205260408120829055600182018355919091527ff3f7a9fe364faab93b216da50a3214154f22a0a2b415b23a84c8169e8b636ee30155565b6147c7565b816001600160a01b0316836001600160a01b0316146147c7576147c78382614954565b6001600160a01b0382166147e3576147de816149f1565b6108e8565b826001600160a01b0316826001600160a01b0316146108e8576108e88282614aca565b6001600160a01b03821661485c5760405162461bcd60e51b815260206004820181905260248201527f4552433732313a206d696e7420746f20746865207a65726f206164647265737360448201526064016107b2565b6000818152600260205260409020546001600160a01b0316156148c15760405162461bcd60e51b815260206004820152601c60248201527f4552433732313a20746f6b656e20616c7265616479206d696e7465640000000060448201526064016107b2565b6148cd600083836145fe565b6001600160a01b03821660009081526003602052604081208054600192906148f690849061585f565b909155505060008181526002602052604080822080546001600160a01b0319166001600160a01b03861690811790915590518392907fddf252ad1be2c89b69c2b068fc378daa952ba7f163c4a11628f55a4df523b3ef908290a45050565b600060016149618461219e565b61496b91906158aa565b6000838152600760205260409020549091508082146149be576001600160a01b03841660009081526006602090815260408083208584528252808320548484528184208190558352600790915290208190555b5060009182526007602090815260408084208490556001600160a01b039094168352600681528383209183525290812055565b600854600090614a03906001906158aa565b60008381526009602052604081205460088054939450909284908110614a3957634e487b7160e01b600052603260045260246000fd5b906000526020600020015490508060088381548110614a6857634e487b7160e01b600052603260045260246000fd5b6000918252602080832090910192909255828152600990915260408082208490558582528120556008805480614aae57634e487b7160e01b600052603160045260246000fd5b6001900381819060005260206000200160009055905550505050565b6000614ad58361219e565b6001600160a01b039093166000908152600660209081526040808320868452825280832085905593825260079052919091209190915550565b828054614b1a90615904565b90600052602060002090601f016020900481019282614b3c5760008555614b82565b82601f10614b5557805160ff1916838001178555614b82565b82800160010185558215614b82579182015b82811115614b82578251825591602001919060010190614b67565b50614b8e929150614c7f565b5090565b60405180610160016040528060008152602001606081526020016060815260200160608152602001606081526020016060815260200160008152602001600081526020016000815260200160008152602001606081525090565b828054828255906000526020600020908101928215614b825791602002820182811115614b82578251825591602001919060010190614b67565b828054828255906000526020600020908101928215614c73579160200282015b82811115614c735782518051614c63918491602090910190614b0e565b5091602001919060010190614c46565b50614b8e929150614c94565b5b80821115614b8e5760008155600101614c80565b80821115614b8e576000614ca88282614cb1565b50600101614c94565b508054614cbd90615904565b6000825580601f10614ccf5750614ced565b601f016020900490600052602060002090810190614ced9190614c7f565b50565b60006001600160401b03831115614d0957614d0961599a565b614d1c601f8401601f191660200161580c565b9050828152838383011115614d3057600080fd5b828260208301376000602084830101529392505050565b80356001600160a01b038116811461067c57600080fd5b600082601f830112614d6e578081fd5b81356020614d83614d7e8361583c565b61580c565b82815281810190858301855b85811015614db857614da6898684358b0101614e2f565b84529284019290840190600101614d8f565b5090979650505050505050565b600082601f830112614dd5578081fd5b81356020614de5614d7e8361583c565b8281528181019085830183850287018401881015614e01578586fd5b855b85811015614db857813584529284019290840190600101614e03565b8035801515811461067c57600080fd5b600082601f830112614e3f578081fd5b6136b783833560208501614cf0565b600060208284031215614e5f578081fd5b6136b782614d47565b60008060408385031215614e7a578081fd5b614e8383614d47565b9150614e9160208401614d47565b90509250929050565b600080600060608486031215614eae578081fd5b614eb784614d47565b9250614ec560208501614d47565b9150604084013590509250925092565b60008060008060808587031215614eea578081fd5b614ef385614d47565b9350614f0160208601614d47565b92506040850135915060608501356001600160401b03811115614f22578182fd5b8501601f81018713614f32578182fd5b614f4187823560208401614cf0565b91505092959194509250565b60008060408385031215614f5f578182fd5b614f6883614d47565b915060208301356001600160401b03811115614f82578182fd5b614f8e85828601614dc5565b9150509250929050565b60008060408385031215614faa578182fd5b614fb383614d47565b9150614e9160208401614e1f565b60008060408385031215614fd3578182fd5b614fdc83614d47565b946020939093013593505050565b600080600060608486031215614ffe578283fd5b61500784614d47565b95602085013595506040909401359392505050565b60006020828403121561502d578081fd5b6136b782614e1f565b600060208284031215615047578081fd5b81356136b7816159b0565b600060208284031215615063578081fd5b81516136b7816159b0565b60006020828403121561507f578081fd5b81356001600160401b03811115615094578182fd5b61384084828501614e2f565b600080604083850312156150b2578182fd5b82356001600160401b038111156150c7578283fd5b6150d385828601614e2f565b925050614e9160208401614d47565b600080604083850312156150f4578182fd5b82356001600160401b03811115615109578283fd5b61511585828601614e2f565b95602094909401359450505050565b600080600060608486031215615138578081fd5b83356001600160401b0381111561514d578182fd5b61515986828701614e2f565b9350506020840135915061516f60408501614d47565b90509250925092565b60008060008060008060008060006101208a8c031215615196578687fd5b89356001600160401b03808211156151ac578889fd5b6151b88d838e01614e2f565b9a5060208c0135995060408c01359150808211156151d4578889fd5b6151e08d838e01614dc5565b985060608c01359150808211156151f5578687fd5b6152018d838e01614d5e565b975060808c0135915080821115615216578687fd5b6152228d838e01614d5e565b965060a08c0135915080821115615237578586fd5b6152438d838e01614dc5565b955060c08c0135945060e08c013593506101008c0135915080821115615267578283fd5b506152748c828d01614e2f565b9150509295985092959850929598565b600060208284031215615295578081fd5b5035919050565b600080604083850312156152ae578182fd5b50508035926020909101359150565b6000815180845260208085018081965082840281019150828601855b858110156153035782840389526152f1848351615390565b988501989350908401906001016152d9565b5091979650505050505050565b6000815180845260208085018081965082840281019150828601855b85811015615303578284038952615344848351615390565b9885019893509084019060010161532c565b6000815180845260208085019450808401835b8381101561538557815187529582019590820190600101615369565b509495945050505050565b600081518084526153a88160208601602086016158c1565b601f01601f19169290920160200192915050565b60006101608251845260208301518160208601526153dc82860182615356565b915050604083015184820360408601526153f682826152bd565b9150506060830151848203606086015261541082826152bd565b9150506080830151848203608086015261542a8282615356565b91505060a083015184820360a08601526154448282615356565b91505060c083015160c085015260e083015160e0850152610100808401518186015250610120808401518186015250610140808401518583038287015261548b8382615390565b9695505050505050565b600082516154a78184602087016158c1565b9190910192915050565b600083516154c38184602088016158c1565b8351908301906154d78183602088016158c1565b01949350505050565b81546000908190600281046001808316806154fc57607f831692505b602080841082141561551c57634e487b7160e01b87526022600452602487fd5b81801561553057600181146155415761556d565b60ff1986168952848901965061556d565b60008a815260209020885b868110156155655781548b82015290850190830161554c565b505084890196505b509498975050505050505050565b6001600160a01b038581168252841660208201526040810183905260806060820181905260009061548b90830184615390565b6000602082526136b76020830184615310565b6000604082526155d46040830185615310565b82810360208401526120bf8185615310565b6000602080830181845280855180835260408601915060408482028701019250838701855b8281101561563957603f198886030184526156278583516153bc565b9450928501929085019060010161560b565b5092979650505050505050565b6000602082526136b76020830184615356565b6000602082526136b76020830184615390565b60208082526032908201527f4552433732313a207472616e7366657220746f206e6f6e20455243373231526560408201527131b2b4bb32b91034b6b83632b6b2b73a32b960711b606082015260800190565b60208082526025908201527f506f6c61724c75636b79426f783a20476f64206d6f6465206e6f7420616374696040820152641d985d195960da1b606082015260800190565b60208082526012908201527127bbb732b9399d1027b7363c9027bbb732b960711b604082015260600190565b6020808252601e908201527f506f6c61724c75636b79426f783a204c656e677468206d69736d617463680000604082015260600190565b60208082526031908201527f4552433732313a207472616e736665722063616c6c6572206973206e6f74206f6040820152701ddb995c881b9bdc88185c1c1c9bdd9959607a1b606082015260800190565b60208082526022908201527f506f6c61724c75636b79426f783a20426c61636b6c6973746564206164647265604082015261737360f01b606082015260800190565b6000602082526136b760208301846153bc565b604051601f8201601f191681016001600160401b03811182821017156158345761583461599a565b604052919050565b60006001600160401b038211156158555761585561599a565b5060209081020190565b600082198211156158725761587261596e565b500190565b60008261588657615886615984565b500490565b60008160001904831182151516156158a5576158a561596e565b500290565b6000828210156158bc576158bc61596e565b500390565b60005b838110156158dc5781810151838201526020016158c4565b8381111561358c5750506000910152565b6000816158fc576158fc61596e565b506000190190565b60028104600182168061591857607f821691505b6020821081141561593957634e487b7160e01b600052602260045260246000fd5b50919050565b60006000198214156159535761595361596e565b5060010190565b60008261596957615969615984565b500690565b634e487b7160e01b600052601160045260246000fd5b634e487b7160e01b600052601260045260246000fd5b634e487b7160e01b600052604160045260246000fd5b6001600160e01b031981168114614ced57600080fdfea264697066735822122091451b4d1fad22f4f037cef0eaa376be48cb20663b0a8a1e8a388bb753eff96264736f6c63430008020033",
  "linkReferences": {},
  "deployedLinkReferences": {}
}