{
  "_format": "hh-sol-artifact-1",
  "contractName": "PolarNode",
  "sourceName": "contracts/PolarNode.sol",
  "abi": [
    {
      "inputs": [
        {
          "internalType": "string",
          "name": "uri",
          "type": "string"
        },
        {
          "internalType": "address",
          "name": "_handler",
          "type": "address"
        }
      ],
      "stateMutability": "nonpayable",
      "type": "constructor"
    },
    {
      "anonymous": false,
      "inputs": [
        {
          "indexed": true,
          "internalType": "address",
          "name": "owner",
          "type": "address"
        },
        {
          "indexed": true,
          "internalType": "address",
          "name": "approved",
          "type": "address"
        },
        {
          "indexed": true,
          "internalType": "uint256",
          "name": "tokenId",
          "type": "uint256"
        }
      ],
      "name": "Approval",
      "type": "event"
    },
    {
      "anonymous": false,
      "inputs": [
        {
          "indexed": true,
          "internalType": "address",
          "name": "owner",
          "type": "address"
        },
        {
          "indexed": true,
          "internalType": "address",
          "name": "operator",
          "type": "address"
        },
        {
          "indexed": false,
          "internalType": "bool",
          "name": "approved",
          "type": "bool"
        }
      ],
      "name": "ApprovalForAll",
      "type": "event"
    },
    {
      "anonymous": false,
      "inputs": [
        {
          "indexed": true,
          "internalType": "address",
          "name": "from",
          "type": "address"
        },
        {
          "indexed": true,
          "internalType": "address",
          "name": "to",
          "type": "address"
        },
        {
          "indexed": true,
          "internalType": "uint256",
          "name": "tokenId",
          "type": "uint256"
        }
      ],
      "name": "Transfer",
      "type": "event"
    },
    {
      "inputs": [
        {
          "internalType": "address",
          "name": "_new",
          "type": "address"
        },
        {
          "internalType": "bool",
          "name": "_change",
          "type": "bool"
        }
      ],
      "name": "addOwner",
      "outputs": [],
      "stateMutability": "nonpayable",
      "type": "function"
    },
    {
      "inputs": [
        {
          "internalType": "address",
          "name": "to",
          "type": "address"
        },
        {
          "internalType": "uint256",
          "name": "tokenId",
          "type": "uint256"
        }
      ],
      "name": "approve",
      "outputs": [],
      "stateMutability": "nonpayable",
      "type": "function"
    },
    {
      "inputs": [
        {
          "internalType": "address",
          "name": "owner",
          "type": "address"
        }
      ],
      "name": "balanceOf",
      "outputs": [
        {
          "internalType": "uint256",
          "name": "",
          "type": "uint256"
        }
      ],
      "stateMutability": "view",
      "type": "function"
    },
    {
      "inputs": [],
      "name": "baseURI",
      "outputs": [
        {
          "internalType": "string",
          "name": "",
          "type": "string"
        }
      ],
      "stateMutability": "view",
      "type": "function"
    },
    {
      "inputs": [
        {
          "internalType": "address",
          "name": "user",
          "type": "address"
        },
        {
          "internalType": "uint256[]",
          "name": "tokenIds",
          "type": "uint256[]"
        }
      ],
      "name": "burnBatch",
      "outputs": [],
      "stateMutability": "nonpayable",
      "type": "function"
    },
    {
      "inputs": [
        {
          "internalType": "string",
          "name": "name",
          "type": "string"
        },
        {
          "internalType": "address",
          "name": "user",
          "type": "address"
        },
        {
          "internalType": "uint256",
          "name": "count",
          "type": "uint256"
        }
      ],
      "name": "generateNfts",
      "outputs": [
        {
          "internalType": "uint256[]",
          "name": "",
          "type": "uint256[]"
        }
      ],
      "stateMutability": "nonpayable",
      "type": "function"
    },
    {
      "inputs": [
        {
          "internalType": "uint256",
          "name": "tokenId",
          "type": "uint256"
        }
      ],
      "name": "getApproved",
      "outputs": [
        {
          "internalType": "address",
          "name": "",
          "type": "address"
        }
      ],
      "stateMutability": "view",
      "type": "function"
    },
    {
      "inputs": [
        {
          "internalType": "uint256",
          "name": "tokenId",
          "type": "uint256"
        }
      ],
      "name": "getAttribute",
      "outputs": [
        {
          "internalType": "string",
          "name": "",
          "type": "string"
        }
      ],
      "stateMutability": "view",
      "type": "function"
    },
    {
      "inputs": [
        {
          "internalType": "uint256",
          "name": "iStart",
          "type": "uint256"
        },
        {
          "internalType": "uint256",
          "name": "iEnd",
          "type": "uint256"
        }
      ],
      "name": "getNodeOwnersBetweenIndexes",
      "outputs": [
        {
          "internalType": "address[]",
          "name": "",
          "type": "address[]"
        }
      ],
      "stateMutability": "view",
      "type": "function"
    },
    {
      "inputs": [],
      "name": "getNodeOwnersSize",
      "outputs": [
        {
          "internalType": "uint256",
          "name": "",
          "type": "uint256"
        }
      ],
      "stateMutability": "view",
      "type": "function"
    },
    {
      "inputs": [],
      "name": "getOwnersSize",
      "outputs": [
        {
          "internalType": "uint256",
          "name": "",
          "type": "uint256"
        }
      ],
      "stateMutability": "view",
      "type": "function"
    },
    {
      "inputs": [],
      "name": "handler",
      "outputs": [
        {
          "internalType": "address",
          "name": "",
          "type": "address"
        }
      ],
      "stateMutability": "view",
      "type": "function"
    },
    {
      "inputs": [
        {
          "internalType": "address",
          "name": "owner",
          "type": "address"
        },
        {
          "internalType": "address",
          "name": "operator",
          "type": "address"
        }
      ],
      "name": "isApprovedForAll",
      "outputs": [
        {
          "internalType": "bool",
          "name": "",
          "type": "bool"
        }
      ],
      "stateMutability": "view",
      "type": "function"
    },
    {
      "inputs": [
        {
          "internalType": "address",
          "name": "",
          "type": "address"
        }
      ],
      "name": "isBlacklisted",
      "outputs": [
        {
          "internalType": "bool",
          "name": "",
          "type": "bool"
        }
      ],
      "stateMutability": "view",
      "type": "function"
    },
    {
      "inputs": [
        {
          "internalType": "address",
          "name": "",
          "type": "address"
        }
      ],
      "name": "isOwner",
      "outputs": [
        {
          "internalType": "bool",
          "name": "",
          "type": "bool"
        }
      ],
      "stateMutability": "view",
      "type": "function"
    },
    {
      "inputs": [],
      "name": "name",
      "outputs": [
        {
          "internalType": "string",
          "name": "",
          "type": "string"
        }
      ],
      "stateMutability": "view",
      "type": "function"
    },
    {
      "inputs": [
        {
          "internalType": "uint256",
          "name": "",
          "type": "uint256"
        }
      ],
      "name": "nodeOwners",
      "outputs": [
        {
          "internalType": "address",
          "name": "",
          "type": "address"
        }
      ],
      "stateMutability": "view",
      "type": "function"
    },
    {
      "inputs": [
        {
          "internalType": "address",
          "name": "",
          "type": "address"
        }
      ],
      "name": "nodeOwnersInserted",
      "outputs": [
        {
          "internalType": "bool",
          "name": "",
          "type": "bool"
        }
      ],
      "stateMutability": "view",
      "type": "function"
    },
    {
      "inputs": [],
      "name": "openCreateNft",
      "outputs": [
        {
          "internalType": "bool",
          "name": "",
          "type": "bool"
        }
      ],
      "stateMutability": "view",
      "type": "function"
    },
    {
      "inputs": [
        {
          "internalType": "uint256",
          "name": "tokenId",
          "type": "uint256"
        }
      ],
      "name": "ownerOf",
      "outputs": [
        {
          "internalType": "address",
          "name": "",
          "type": "address"
        }
      ],
      "stateMutability": "view",
      "type": "function"
    },
    {
      "inputs": [
        {
          "internalType": "uint256",
          "name": "",
          "type": "uint256"
        }
      ],
      "name": "owners",
      "outputs": [
        {
          "internalType": "address",
          "name": "",
          "type": "address"
        }
      ],
      "stateMutability": "view",
      "type": "function"
    },
    {
      "inputs": [
        {
          "internalType": "address",
          "name": "_new",
          "type": "address"
        }
      ],
      "name": "removeOwner",
      "outputs": [],
      "stateMutability": "nonpayable",
      "type": "function"
    },
    {
      "inputs": [
        {
          "internalType": "address",
          "name": "from",
          "type": "address"
        },
        {
          "internalType": "address",
          "name": "to",
          "type": "address"
        },
        {
          "internalType": "uint256",
          "name": "tokenId",
          "type": "uint256"
        }
      ],
      "name": "safeTransferFrom",
      "outputs": [],
      "stateMutability": "nonpayable",
      "type": "function"
    },
    {
      "inputs": [
        {
          "internalType": "address",
          "name": "from",
          "type": "address"
        },
        {
          "internalType": "address",
          "name": "to",
          "type": "address"
        },
        {
          "internalType": "uint256",
          "name": "tokenId",
          "type": "uint256"
        },
        {
          "internalType": "bytes",
          "name": "_data",
          "type": "bytes"
        }
      ],
      "name": "safeTransferFrom",
      "outputs": [],
      "stateMutability": "nonpayable",
      "type": "function"
    },
    {
      "inputs": [
        {
          "internalType": "address",
          "name": "operator",
          "type": "address"
        },
        {
          "internalType": "bool",
          "name": "approved",
          "type": "bool"
        }
      ],
      "name": "setApprovalForAll",
      "outputs": [],
      "stateMutability": "nonpayable",
      "type": "function"
    },
    {
      "inputs": [
        {
          "internalType": "string",
          "name": "_new",
          "type": "string"
        }
      ],
      "name": "setBaseURI",
      "outputs": [],
      "stateMutability": "nonpayable",
      "type": "function"
    },
    {
      "inputs": [
        {
          "internalType": "address",
          "name": "_new",
          "type": "address"
        }
      ],
      "name": "setHandler",
      "outputs": [],
      "stateMutability": "nonpayable",
      "type": "function"
    },
    {
      "inputs": [
        {
          "internalType": "address",
          "name": "_new",
          "type": "address"
        },
        {
          "internalType": "bool",
          "name": "_value",
          "type": "bool"
        }
      ],
      "name": "setIsBlacklisted",
      "outputs": [],
      "stateMutability": "nonpayable",
      "type": "function"
    },
    {
      "inputs": [
        {
          "internalType": "bool",
          "name": "_new",
          "type": "bool"
        }
      ],
      "name": "setOpenCreateNft",
      "outputs": [],
      "stateMutability": "nonpayable",
      "type": "function"
    },
    {
      "inputs": [
        {
          "internalType": "uint256",
          "name": "tokenId",
          "type": "uint256"
        },
        {
          "internalType": "string",
          "name": "nodeType",
          "type": "string"
        }
      ],
      "name": "setTokenIdToType",
      "outputs": [],
      "stateMutability": "nonpayable",
      "type": "function"
    },
    {
      "inputs": [
        {
          "internalType": "bytes4",
          "name": "interfaceId",
          "type": "bytes4"
        }
      ],
      "name": "supportsInterface",
      "outputs": [
        {
          "internalType": "bool",
          "name": "",
          "type": "bool"
        }
      ],
      "stateMutability": "view",
      "type": "function"
    },
    {
      "inputs": [],
      "name": "symbol",
      "outputs": [
        {
          "internalType": "string",
          "name": "",
          "type": "string"
        }
      ],
      "stateMutability": "view",
      "type": "function"
    },
    {
      "inputs": [
        {
          "internalType": "uint256",
          "name": "index",
          "type": "uint256"
        }
      ],
      "name": "tokenByIndex",
      "outputs": [
        {
          "internalType": "uint256",
          "name": "",
          "type": "uint256"
        }
      ],
      "stateMutability": "view",
      "type": "function"
    },
    {
      "inputs": [
        {
          "internalType": "uint256",
          "name": "",
          "type": "uint256"
        }
      ],
      "name": "tokenIdsToType",
      "outputs": [
        {
          "internalType": "string",
          "name": "",
          "type": "string"
        }
      ],
      "stateMutability": "view",
      "type": "function"
    },
    {
      "inputs": [
        {
          "internalType": "address",
          "name": "owner",
          "type": "address"
        },
        {
          "internalType": "uint256",
          "name": "index",
          "type": "uint256"
        }
      ],
      "name": "tokenOfOwnerByIndex",
      "outputs": [
        {
          "internalType": "uint256",
          "name": "",
          "type": "uint256"
        }
      ],
      "stateMutability": "view",
      "type": "function"
    },
    {
      "inputs": [
        {
          "internalType": "uint256",
          "name": "tokenId",
          "type": "uint256"
        }
      ],
      "name": "tokenURI",
      "outputs": [
        {
          "internalType": "string",
          "name": "",
          "type": "string"
        }
      ],
      "stateMutability": "view",
      "type": "function"
    },
    {
      "inputs": [
        {
          "internalType": "address",
          "name": "user",
          "type": "address"
        }
      ],
      "name": "tokensOfOwner",
      "outputs": [
        {
          "internalType": "uint256[]",
          "name": "",
          "type": "uint256[]"
        }
      ],
      "stateMutability": "view",
      "type": "function"
    },
    {
      "inputs": [
        {
          "internalType": "address",
          "name": "user",
          "type": "address"
        },
        {
          "internalType": "uint256",
          "name": "iStart",
          "type": "uint256"
        },
        {
          "internalType": "uint256",
          "name": "iEnd",
          "type": "uint256"
        }
      ],
      "name": "tokensOfOwnerByIndexesBetween",
      "outputs": [
        {
          "internalType": "uint256[]",
          "name": "",
          "type": "uint256[]"
        }
      ],
      "stateMutability": "view",
      "type": "function"
    },
    {
      "inputs": [],
      "name": "totalSupply",
      "outputs": [
        {
          "internalType": "uint256",
          "name": "",
          "type": "uint256"
        }
      ],
      "stateMutability": "view",
      "type": "function"
    },
    {
      "inputs": [
        {
          "internalType": "address",
          "name": "from",
          "type": "address"
        },
        {
          "internalType": "address",
          "name": "to",
          "type": "address"
        },
        {
          "internalType": "uint256",
          "name": "tokenId",
          "type": "uint256"
        }
      ],
      "name": "transferFrom",
      "outputs": [],
      "stateMutability": "nonpayable",
      "type": "function"
    }
  ],
  "bytecode": "0x60806040526011805460ff191690553480156200001b57600080fd5b50604051620032b9380380620032b98339810160408190526200003e91620001ff565b604080518082018252600a815269506f6c6172204e6f646560b01b602080830191825283518085019094526002845261282760f11b9084015281519192916200008a916000916200013c565b508051620000a09060019060208401906200013c565b5050600a805460018181019092557fc65a7bb8d6351c1cf70c95a316cc6a92839c986682d98bc35f958f4883f9d2a80180546001600160a01b031916339081179091556000908152600b60209081526040909120805460ff19169092179091558351620001149250600f918501906200013c565b50600c80546001600160a01b0319166001600160a01b0392909216919091179055506200033d565b8280546200014a90620002ea565b90600052602060002090601f0160209004810192826200016e5760008555620001b9565b82601f106200018957805160ff1916838001178555620001b9565b82800160010185558215620001b9579182015b82811115620001b95782518255916020019190600101906200019c565b50620001c7929150620001cb565b5090565b5b80821115620001c75760008155600101620001cc565b80516001600160a01b0381168114620001fa57600080fd5b919050565b6000806040838503121562000212578182fd5b82516001600160401b038082111562000229578384fd5b818501915085601f8301126200023d578384fd5b81518181111562000252576200025262000327565b604051601f8201601f19908116603f011681019083821181831017156200027d576200027d62000327565b8160405282815260209350888484870101111562000299578687fd5b8691505b82821015620002bc57848201840151818301850152908301906200029d565b82821115620002cd57868484830101525b9550620002df915050858201620001e2565b925050509250929050565b600281046001821680620002ff57607f821691505b602082108114156200032157634e487b7160e01b600052602260045260246000fd5b50919050565b634e487b7160e01b600052604160045260246000fd5b612f6c806200034d6000396000f3fe608060405234801561001057600080fd5b50600436106102485760003560e01c806355f804b31161013b578063b2dc5dc3116100b8578063c39501621161007c578063c395016214610524578063c80916d414610531578063c87b56dd14610544578063e985e9c514610557578063fe575a871461059357610248565b8063b2dc5dc3146104b8578063b3ad18e2146104cb578063b88d4fde146104de578063bac426d0146104f1578063c23e6f931461050457610248565b80638462151c116100ff5780638462151c14610464578063864b7e951461047757806395d89b411461048a578063a0e3849214610492578063a22cb465146104a557610248565b806355f804b3146104005780636352211e146104135780636c0360eb1461042657806370a082311461042e578063842e76691461044157610248565b80632f745c59116101c95780634f6ccce71161018d5780634f6ccce7146103ac5780635139839c146103bf5780635181db2b146103d2578063518e32d3146103e5578063551a6d93146103f857610248565b80632f745c591461034057806333a481dd1461035357806342842e0e14610366578063493fe80f146103795780634cee1e3b1461038c57610248565b80630c7b1d7b116102105780630c7b1d7b146102dd578063173825d9146102ef57806318160ddd1461030257806323b872dd1461030a5780632f54bf6e1461031d57610248565b806301ffc9a71461024d578063025e7c271461027557806306fdde03146102a0578063081812fc146102b5578063095ea7b3146102c8575b600080fd5b61026061025b3660046129ce565b6105b6565b60405190151581526020015b60405180910390f35b610288610283366004612aee565b6105c9565b6040516001600160a01b03909116815260200161026c565b6102a86105f3565b60405161026c9190612c88565b6102886102c3366004612aee565b610685565b6102db6102d6366004612959565b61071f565b005b600a545b60405190815260200161026c565b6102db6102fd366004612778565b610835565b6008546102e1565b6102db6103183660046127c4565b610b10565b61026061032b366004612778565b600b6020526000908152604090205460ff1681565b6102e161034e366004612959565b610b41565b6102db6103613660046129b4565b610bd7565b6102db6103743660046127c4565b610c19565b6102a8610387366004612aee565b610c34565b61039f61039a366004612982565b610cb5565b60405161026c9190612c50565b6102e16103ba366004612aee565b610d77565b6102886103cd366004612aee565b610e18565b61039f6103e0366004612aaa565b610e28565b6102db6103f3366004612930565b61106d565b6012546102e1565b6102db61040e366004612a06565b611284565b610288610421366004612aee565b6112c6565b6102a861133d565b6102e161043c366004612778565b61134c565b61026061044f366004612778565b60136020526000908152604090205460ff1681565b61039f610472366004612778565b6113d3565b6102db610485366004612b06565b611492565b6102a86114db565b6102db6104a0366004612930565b6114ea565b6102db6104b3366004612930565b611544565b6102db6104c6366004612877565b61154f565b6102a86104d9366004612aee565b611657565b6102db6104ec3660046127ff565b6116f1565b6102db6104ff366004612778565b611729565b610517610512366004612b4a565b61177a565b60405161026c9190612c03565b6011546102609060ff1681565b600c54610288906001600160a01b031681565b6102a8610552366004612aee565b611874565b610260610565366004612792565b6001600160a01b03918216600090815260056020908152604080832093909416825291909152205460ff1690565b6102606105a1366004612778565b60106020526000908152604090205460ff1681565b60006105c18261194f565b90505b919050565b600a81815481106105d957600080fd5b6000918252602090912001546001600160a01b0316905081565b60606000805461060290612e71565b80601f016020809104026020016040519081016040528092919081815260200182805461062e90612e71565b801561067b5780601f106106505761010080835404028352916020019161067b565b820191906000526020600020905b81548152906001019060200180831161065e57829003601f168201915b5050505050905090565b6000818152600260205260408120546001600160a01b03166107035760405162461bcd60e51b815260206004820152602c60248201527f4552433732313a20617070726f76656420717565727920666f72206e6f6e657860448201526b34b9ba32b73a103a37b5b2b760a11b60648201526084015b60405180910390fd5b506000908152600460205260409020546001600160a01b031690565b600061072a826112c6565b9050806001600160a01b0316836001600160a01b031614156107985760405162461bcd60e51b815260206004820152602160248201527f4552433732313a20617070726f76616c20746f2063757272656e74206f776e656044820152603960f91b60648201526084016106fa565b336001600160a01b03821614806107b457506107b48133610565565b6108265760405162461bcd60e51b815260206004820152603860248201527f4552433732313a20617070726f76652063616c6c6572206973206e6f74206f7760448201527f6e6572206e6f7220617070726f76656420666f7220616c6c000000000000000060648201526084016106fa565b6108308383611974565b505050565b336001600160a01b0316600a60008154811061086157634e487b7160e01b600052603260045260246000fd5b6000918252602090912001546001600160a01b0316146108be5760405162461bcd60e51b815260206004820152601860248201527727bbb732b9399d1027b7363c9029bab832b91027bbb732b960411b60448201526064016106fa565b6001600160a01b0381166000908152600b602052604090205460ff1661091a5760405162461bcd60e51b815260206004820152601160248201527027bbb732b9399d102737ba1037bbb732b960791b60448201526064016106fa565b600a60008154811061093c57634e487b7160e01b600052603260045260246000fd5b6000918252602090912001546001600160a01b03828116911614156109ad5760405162461bcd60e51b815260206004820152602160248201527f4f776e6572733a2043616e6e6f742072656d6f7665207375706572206f776e656044820152603960f91b60648201526084016106fa565b60015b600a54811015610aee57816001600160a01b0316600a82815481106109e557634e487b7160e01b600052603260045260246000fd5b6000918252602090912001546001600160a01b03161415610adc57600a8054610a1090600190612e2e565b81548110610a2e57634e487b7160e01b600052603260045260246000fd5b600091825260209091200154600a80546001600160a01b039092169183908110610a6857634e487b7160e01b600052603260045260246000fd5b9060005260206000200160006101000a8154816001600160a01b0302191690836001600160a01b03160217905550600a805480610ab557634e487b7160e01b600052603160045260246000fd5b600082815260209020810160001990810180546001600160a01b0319169055019055610aee565b80610ae681612eac565b9150506109b0565b506001600160a01b03166000908152600b60205260409020805460ff19169055565b610b1a33826119e2565b610b365760405162461bcd60e51b81526004016106fa90612d5a565b610830838383611ad9565b6000610b4c8361134c565b8210610bae5760405162461bcd60e51b815260206004820152602b60248201527f455243373231456e756d657261626c653a206f776e657220696e646578206f7560448201526a74206f6620626f756e647360a81b60648201526084016106fa565b506001600160a01b03919091166000908152600660209081526040808320938352929052205490565b336000908152600b602052604090205460ff16610c065760405162461bcd60e51b81526004016106fa90612ced565b6011805460ff1916911515919091179055565b610830838383604051806020016040528060008152506116f1565b600c5460405163493fe80f60e01b8152600481018390526060916001600160a01b03169063493fe80f9060240160006040518083038186803b158015610c7957600080fd5b505afa158015610c8d573d6000803e3d6000fd5b505050506040513d6000823e601f3d908101601f191682016040526105c19190810190612a38565b60606000610cc38484612e2e565b6001600160401b03811115610ce857634e487b7160e01b600052604160045260246000fd5b604051908082528060200260200182016040528015610d11578160200160208202803683370190505b509050835b83811015610d6e57610d288682610b41565b82610d338784612e2e565b81518110610d5157634e487b7160e01b600052603260045260246000fd5b602090810291909101015280610d6681612eac565b915050610d16565b50949350505050565b6000610d8260085490565b8210610de55760405162461bcd60e51b815260206004820152602c60248201527f455243373231456e756d657261626c653a20676c6f62616c20696e646578206f60448201526b7574206f6620626f756e647360a01b60648201526084016106fa565b60088281548110610e0657634e487b7160e01b600052603260045260246000fd5b90600052602060002001549050919050565b601281815481106105d957600080fd5b600c546060906001600160a01b03163314610e555760405162461bcd60e51b81526004016106fa90612d19565b6001600160a01b03831660009081526010602052604090205460ff1615610ebe5760405162461bcd60e51b815260206004820152601e60248201527f506f6c61724e6f64653a20426c61636b6c69737465642061646472657373000060448201526064016106fa565b60115460ff16610f065760405162461bcd60e51b81526020600482015260136024820152722837b630b92737b2329d102737ba1037b832b760691b60448201526064016106fa565b6001600160a01b03831660009081526013602052604090205460ff16610f8a576012805460018082019092557fbb8a6a4669ba250d26cd7a459eca9d215f8307e33aebe50379bc5a3617ec34440180546001600160a01b0319166001600160a01b0386169081179091556000908152601360205260409020805460ff191690911790555b6000826001600160401b03811115610fb257634e487b7160e01b600052604160045260246000fd5b604051908082528060200260200182016040528015610fdb578160200160208202803683370190505b50905060005b83811015610d6e576000610ff4600e5490565b90508083838151811061101757634e487b7160e01b600052603260045260246000fd5b6020908102919091018101919091526000828152600d8252604090208851611041928a019061265b565b5061104c8682611c64565b61105a600e80546001019055565b508061106581612eac565b915050610fe1565b336001600160a01b0316600a60008154811061109957634e487b7160e01b600052603260045260246000fd5b6000918252602090912001546001600160a01b0316146110f65760405162461bcd60e51b815260206004820152601860248201527727bbb732b9399d1027b7363c9029bab832b91027bbb732b960411b60448201526064016106fa565b6001600160a01b0382166000908152600b602052604090205460ff16156111575760405162461bcd60e51b815260206004820152601560248201527427bbb732b9399d1020b63932b0b23c9037bbb732b960591b60448201526064016106fa565b6001600160a01b0382166000908152600b60205260409020805460ff19166001179055801561123457600a806000815481106111a357634e487b7160e01b600052603260045260246000fd5b6000918252602080832090910154835460018101855593835290822090920180546001600160a01b0319166001600160a01b0390931692909217909155600a805484929061120157634e487b7160e01b600052603260045260246000fd5b9060005260206000200160006101000a8154816001600160a01b0302191690836001600160a01b03160217905550611280565b600a80546001810182556000919091527fc65a7bb8d6351c1cf70c95a316cc6a92839c986682d98bc35f958f4883f9d2a80180546001600160a01b0319166001600160a01b0384161790555b5050565b336000908152600b602052604090205460ff166112b35760405162461bcd60e51b81526004016106fa90612ced565b805161128090600f90602084019061265b565b6000818152600260205260408120546001600160a01b0316806105c15760405162461bcd60e51b815260206004820152602960248201527f4552433732313a206f776e657220717565727920666f72206e6f6e657869737460448201526832b73a103a37b5b2b760b91b60648201526084016106fa565b6060611347611c7e565b905090565b60006001600160a01b0382166113b75760405162461bcd60e51b815260206004820152602a60248201527f4552433732313a2062616c616e636520717565727920666f7220746865207a65604482015269726f206164647265737360b01b60648201526084016106fa565b506001600160a01b031660009081526003602052604090205490565b606060006113e08361134c565b6001600160401b0381111561140557634e487b7160e01b600052604160045260246000fd5b60405190808252806020026020018201604052801561142e578160200160208202803683370190505b50905060005b61143d8461134c565b81101561148b5761144e8482610b41565b82828151811061146e57634e487b7160e01b600052603260045260246000fd5b60209081029190910101528061148381612eac565b915050611434565b5092915050565b600c546001600160a01b031633146114bc5760405162461bcd60e51b81526004016106fa90612d19565b6000828152600d6020908152604090912082516108309284019061265b565b60606001805461060290612e71565b336000908152600b602052604090205460ff166115195760405162461bcd60e51b81526004016106fa90612ced565b6001600160a01b03919091166000908152601060205260409020805460ff1916911515919091179055565b611280338383611c8d565b600c546001600160a01b031633146115795760405162461bcd60e51b81526004016106fa90612d19565b60005b815181101561083057826001600160a01b03166115bf8383815181106115b257634e487b7160e01b600052603260045260246000fd5b60200260200101516112c6565b6001600160a01b0316146116155760405162461bcd60e51b815260206004820152601860248201527f506f6c61724e6f64653a204e6f74206e6674206f776e6572000000000000000060448201526064016106fa565b61164582828151811061163857634e487b7160e01b600052603260045260246000fd5b6020026020010151611d5c565b8061164f81612eac565b91505061157c565b600d602052600090815260409020805461167090612e71565b80601f016020809104026020016040519081016040528092919081815260200182805461169c90612e71565b80156116e95780601f106116be576101008083540402835291602001916116e9565b820191906000526020600020905b8154815290600101906020018083116116cc57829003601f168201915b505050505081565b6116fb33836119e2565b6117175760405162461bcd60e51b81526004016106fa90612d5a565b61172384848484611e03565b50505050565b336000908152600b602052604090205460ff166117585760405162461bcd60e51b81526004016106fa90612ced565b600c80546001600160a01b0319166001600160a01b0392909216919091179055565b606060006117888484612e2e565b6001600160401b038111156117ad57634e487b7160e01b600052604160045260246000fd5b6040519080825280602002602001820160405280156117d6578160200160208202803683370190505b509050835b8381101561186c576012818154811061180457634e487b7160e01b600052603260045260246000fd5b6000918252602090912001546001600160a01b0316826118248784612e2e565b8151811061184257634e487b7160e01b600052603260045260246000fd5b6001600160a01b03909216602092830291909101909101528061186481612eac565b9150506117db565b509392505050565b6000818152600260205260409020546060906001600160a01b03166118f35760405162461bcd60e51b815260206004820152602f60248201527f4552433732314d657461646174613a2055524920717565727920666f72206e6f60448201526e3732bc34b9ba32b73a103a37b5b2b760891b60648201526084016106fa565b60006118fd611c7e565b9050600081511161191d5760405180602001604052806000815250611948565b8061192784611e36565b604051602001611938929190612b97565b6040516020818303038152906040525b9392505050565b60006001600160e01b0319821663780e9d6360e01b14806105c157506105c182611f50565b600081815260046020526040902080546001600160a01b0319166001600160a01b03841690811790915581906119a9826112c6565b6001600160a01b03167f8c5be1e5ebec7d5bd14f71427d1e84f3dd0314c0f7b2291e5b200ac8c7c3b92560405160405180910390a45050565b6000818152600260205260408120546001600160a01b0316611a5b5760405162461bcd60e51b815260206004820152602c60248201527f4552433732313a206f70657261746f7220717565727920666f72206e6f6e657860448201526b34b9ba32b73a103a37b5b2b760a11b60648201526084016106fa565b6000611a66836112c6565b9050806001600160a01b0316846001600160a01b03161480611aa15750836001600160a01b0316611a9684610685565b6001600160a01b0316145b80611ad157506001600160a01b0380821660009081526005602090815260408083209388168352929052205460ff165b949350505050565b6001600160a01b03831660009081526010602052604090205460ff16158015611b1b57506001600160a01b03821660009081526010602052604090205460ff16155b611b675760405162461bcd60e51b815260206004820152601e60248201527f506f6c61724e6f64653a20426c61636b6c69737465642061646472657373000060448201526064016106fa565b6001600160a01b03821660009081526013602052604090205460ff16611beb576012805460018082019092557fbb8a6a4669ba250d26cd7a459eca9d215f8307e33aebe50379bc5a3617ec34440180546001600160a01b0319166001600160a01b0385169081179091556000908152601360205260409020805460ff191690911790555b600c546040516323b872dd60e01b81526001600160a01b038581166004830152848116602483015260448201849052909116906323b872dd90606401600060405180830381600087803b158015611c4157600080fd5b505af1158015611c55573d6000803e3d6000fd5b50505050610830838383611fa0565b61128082826040518060200160405280600081525061214b565b6060600f805461060290612e71565b816001600160a01b0316836001600160a01b03161415611cef5760405162461bcd60e51b815260206004820152601960248201527f4552433732313a20617070726f766520746f2063616c6c65720000000000000060448201526064016106fa565b6001600160a01b03838116600081815260056020908152604080832094871680845294825291829020805460ff191686151590811790915591519182527f17307eab39ab6107e8899845ad3d59bd9653f200f220920489ca2b5937696c31910160405180910390a3505050565b6000611d67826112c6565b9050611d758160008461217e565b611d80600083611974565b6001600160a01b0381166000908152600360205260408120805460019290611da9908490612e2e565b909155505060008281526002602052604080822080546001600160a01b0319169055518391906001600160a01b038416907fddf252ad1be2c89b69c2b068fc378daa952ba7f163c4a11628f55a4df523b3ef908390a45050565b611e0e848484611ad9565b611e1a84848484612189565b6117235760405162461bcd60e51b81526004016106fa90612c9b565b606081611e5b57506040805180820190915260018152600360fc1b60208201526105c4565b8160005b8115611e855780611e6f81612eac565b9150611e7e9050600a83612e1a565b9150611e5f565b6000816001600160401b03811115611ead57634e487b7160e01b600052604160045260246000fd5b6040519080825280601f01601f191660200182016040528015611ed7576020820181803683370190505b5090505b8415611ad157611eec600183612e2e565b9150611ef9600a86612ec7565b611f04906030612e02565b60f81b818381518110611f2757634e487b7160e01b600052603260045260246000fd5b60200101906001600160f81b031916908160001a905350611f49600a86612e1a565b9450611edb565b60006001600160e01b031982166380ac58cd60e01b1480611f8157506001600160e01b03198216635b5e139f60e01b145b806105c157506301ffc9a760e01b6001600160e01b03198316146105c1565b826001600160a01b0316611fb3826112c6565b6001600160a01b03161461201b5760405162461bcd60e51b815260206004820152602960248201527f4552433732313a207472616e73666572206f6620746f6b656e2074686174206960448201526839903737ba1037bbb760b91b60648201526084016106fa565b6001600160a01b03821661207d5760405162461bcd60e51b8152602060048201526024808201527f4552433732313a207472616e7366657220746f20746865207a65726f206164646044820152637265737360e01b60648201526084016106fa565b61208883838361217e565b612093600082611974565b6001600160a01b03831660009081526003602052604081208054600192906120bc908490612e2e565b90915550506001600160a01b03821660009081526003602052604081208054600192906120ea908490612e02565b909155505060008181526002602052604080822080546001600160a01b0319166001600160a01b0386811691821790925591518493918716917fddf252ad1be2c89b69c2b068fc378daa952ba7f163c4a11628f55a4df523b3ef91a4505050565b6121558383612296565b6121626000848484612189565b6108305760405162461bcd60e51b81526004016106fa90612c9b565b6108308383836123e4565b60006001600160a01b0384163b1561228b57604051630a85bd0160e11b81526001600160a01b0385169063150b7a02906121cd903390899088908890600401612bc6565b602060405180830381600087803b1580156121e757600080fd5b505af1925050508015612217575060408051601f3d908101601f19168201909252612214918101906129ea565b60015b612271573d808015612245576040519150601f19603f3d011682016040523d82523d6000602084013e61224a565b606091505b5080516122695760405162461bcd60e51b81526004016106fa90612c9b565b805181602001fd5b6001600160e01b031916630a85bd0160e11b149050611ad1565b506001949350505050565b6001600160a01b0382166122ec5760405162461bcd60e51b815260206004820181905260248201527f4552433732313a206d696e7420746f20746865207a65726f206164647265737360448201526064016106fa565b6000818152600260205260409020546001600160a01b0316156123515760405162461bcd60e51b815260206004820152601c60248201527f4552433732313a20746f6b656e20616c7265616479206d696e7465640000000060448201526064016106fa565b61235d6000838361217e565b6001600160a01b0382166000908152600360205260408120805460019290612386908490612e02565b909155505060008181526002602052604080822080546001600160a01b0319166001600160a01b03861690811790915590518392907fddf252ad1be2c89b69c2b068fc378daa952ba7f163c4a11628f55a4df523b3ef908290a45050565b6001600160a01b03831661243f5761243a81600880546000838152600960205260408120829055600182018355919091527ff3f7a9fe364faab93b216da50a3214154f22a0a2b415b23a84c8169e8b636ee30155565b612462565b816001600160a01b0316836001600160a01b0316146124625761246283826124a1565b6001600160a01b03821661247e576124798161253e565b610830565b826001600160a01b0316826001600160a01b031614610830576108308282612617565b600060016124ae8461134c565b6124b89190612e2e565b60008381526007602052604090205490915080821461250b576001600160a01b03841660009081526006602090815260408083208584528252808320548484528184208190558352600790915290208190555b5060009182526007602090815260408084208490556001600160a01b039094168352600681528383209183525290812055565b60085460009061255090600190612e2e565b6000838152600960205260408120546008805493945090928490811061258657634e487b7160e01b600052603260045260246000fd5b9060005260206000200154905080600883815481106125b557634e487b7160e01b600052603260045260246000fd5b60009182526020808320909101929092558281526009909152604080822084905585825281205560088054806125fb57634e487b7160e01b600052603160045260246000fd5b6001900381819060005260206000200160009055905550505050565b60006126228361134c565b6001600160a01b039093166000908152600660209081526040808320868452825280832085905593825260079052919091209190915550565b82805461266790612e71565b90600052602060002090601f01602090048101928261268957600085556126cf565b82601f106126a257805160ff19168380011785556126cf565b828001600101855582156126cf579182015b828111156126cf5782518255916020019190600101906126b4565b506126db9291506126df565b5090565b5b808211156126db57600081556001016126e0565b600061270761270284612ddb565b612dab565b905082815283838301111561271b57600080fd5b828260208301376000602084830101529392505050565b80356001600160a01b03811681146105c457600080fd5b803580151581146105c457600080fd5b600082601f830112612769578081fd5b611948838335602085016126f4565b600060208284031215612789578081fd5b61194882612732565b600080604083850312156127a4578081fd5b6127ad83612732565b91506127bb60208401612732565b90509250929050565b6000806000606084860312156127d8578081fd5b6127e184612732565b92506127ef60208501612732565b9150604084013590509250925092565b60008060008060808587031215612814578081fd5b61281d85612732565b935061282b60208601612732565b92506040850135915060608501356001600160401b0381111561284c578182fd5b8501601f8101871361285c578182fd5b61286b878235602084016126f4565b91505092959194509250565b60008060408385031215612889578182fd5b61289283612732565b91506020808401356001600160401b03808211156128ae578384fd5b818601915086601f8301126128c1578384fd5b8135818111156128d3576128d3612f07565b83810291506128e3848301612dab565b8181528481019084860184860187018b10156128fd578788fd5b8795505b8386101561291f578035835260019590950194918601918601612901565b508096505050505050509250929050565b60008060408385031215612942578182fd5b61294b83612732565b91506127bb60208401612749565b6000806040838503121561296b578182fd5b61297483612732565b946020939093013593505050565b600080600060608486031215612996578283fd5b61299f84612732565b95602085013595506040909401359392505050565b6000602082840312156129c5578081fd5b61194882612749565b6000602082840312156129df578081fd5b813561194881612f1d565b6000602082840312156129fb578081fd5b815161194881612f1d565b600060208284031215612a17578081fd5b81356001600160401b03811115612a2c578182fd5b611ad184828501612759565b600060208284031215612a49578081fd5b81516001600160401b03811115612a5e578182fd5b8201601f81018413612a6e578182fd5b8051612a7c61270282612ddb565b818152856020838501011115612a90578384fd5b612aa1826020830160208601612e45565b95945050505050565b600080600060608486031215612abe578081fd5b83356001600160401b03811115612ad3578182fd5b612adf86828701612759565b9350506127ef60208501612732565b600060208284031215612aff578081fd5b5035919050565b60008060408385031215612b18578182fd5b8235915060208301356001600160401b03811115612b34578182fd5b612b4085828601612759565b9150509250929050565b60008060408385031215612b5c578182fd5b50508035926020909101359150565b60008151808452612b83816020860160208601612e45565b601f01601f19169290920160200192915050565b60008351612ba9818460208801612e45565b835190830190612bbd818360208801612e45565b01949350505050565b6001600160a01b0385811682528416602082015260408101839052608060608201819052600090612bf990830184612b6b565b9695505050505050565b6020808252825182820181905260009190848201906040850190845b81811015612c445783516001600160a01b031683529284019291840191600101612c1f565b50909695505050505050565b6020808252825182820181905260009190848201906040850190845b81811015612c4457835183529284019291840191600101612c6c565b6000602082526119486020830184612b6b565b60208082526032908201527f4552433732313a207472616e7366657220746f206e6f6e20455243373231526560408201527131b2b4bb32b91034b6b83632b6b2b73a32b960711b606082015260800190565b60208082526012908201527127bbb732b9399d1027b7363c9027bbb732b960711b604082015260600190565b60208082526021908201527f506f6c61724e6f64653a20476f64206d6f6465206e6f742061637469766174656040820152601960fa1b606082015260800190565b60208082526031908201527f4552433732313a207472616e736665722063616c6c6572206973206e6f74206f6040820152701ddb995c881b9bdc88185c1c1c9bdd9959607a1b606082015260800190565b604051601f8201601f191681016001600160401b0381118282101715612dd357612dd3612f07565b604052919050565b60006001600160401b03821115612df457612df4612f07565b50601f01601f191660200190565b60008219821115612e1557612e15612edb565b500190565b600082612e2957612e29612ef1565b500490565b600082821015612e4057612e40612edb565b500390565b60005b83811015612e60578181015183820152602001612e48565b838111156117235750506000910152565b600281046001821680612e8557607f821691505b60208210811415612ea657634e487b7160e01b600052602260045260246000fd5b50919050565b6000600019821415612ec057612ec0612edb565b5060010190565b600082612ed657612ed6612ef1565b500690565b634e487b7160e01b600052601160045260246000fd5b634e487b7160e01b600052601260045260246000fd5b634e487b7160e01b600052604160045260246000fd5b6001600160e01b031981168114612f3357600080fd5b5056fea2646970667358221220c78fa0b9bd2f4aa54002d10da9c8c117f80338871d4d442e662f4a9598d30bd164736f6c63430008020033",
  "linkReferences": {},
  "deployedLinkReferences": {}
}