{
  "_format": "hh-sol-artifact-1",
  "contractName": "Swapper",
  "sourceName": "contracts/Swapper.sol",
  "abi": [
    {
      "inputs": [
        {
          "internalType": "address[]",
          "name": "payees",
          "type": "address[]"
        },
        {
          "internalType": "uint256[]",
          "name": "shares",
          "type": "uint256[]"
        },
        {
          "internalType": "address[]",
          "name": "addresses",
          "type": "address[]"
        },
        {
          "internalType": "uint256[]",
          "name": "fees",
          "type": "uint256[]"
        },
        {
          "internalType": "uint256[]",
          "name": "_swAmounts",
          "type": "uint256[]"
        },
        {
          "internalType": "address",
          "name": "_handler",
          "type": "address"
        }
      ],
      "stateMutability": "nonpayable",
      "type": "constructor"
    },
    {
      "anonymous": false,
      "inputs": [
        {
          "indexed": true,
          "internalType": "contract IERC20",
          "name": "token",
          "type": "address"
        },
        {
          "indexed": false,
          "internalType": "address",
          "name": "to",
          "type": "address"
        },
        {
          "indexed": false,
          "internalType": "uint256",
          "name": "amount",
          "type": "uint256"
        }
      ],
      "name": "ERC20PaymentReleased",
      "type": "event"
    },
    {
      "anonymous": false,
      "inputs": [
        {
          "indexed": false,
          "internalType": "address",
          "name": "account",
          "type": "address"
        },
        {
          "indexed": false,
          "internalType": "uint256",
          "name": "shares",
          "type": "uint256"
        }
      ],
      "name": "PayeeAdded",
      "type": "event"
    },
    {
      "anonymous": false,
      "inputs": [
        {
          "indexed": false,
          "internalType": "address",
          "name": "from",
          "type": "address"
        },
        {
          "indexed": false,
          "internalType": "uint256",
          "name": "amount",
          "type": "uint256"
        }
      ],
      "name": "PaymentReceived",
      "type": "event"
    },
    {
      "anonymous": false,
      "inputs": [
        {
          "indexed": false,
          "internalType": "address",
          "name": "to",
          "type": "address"
        },
        {
          "indexed": false,
          "internalType": "uint256",
          "name": "amount",
          "type": "uint256"
        }
      ],
      "name": "PaymentReleased",
      "type": "event"
    },
    {
      "inputs": [
        {
          "internalType": "string",
          "name": "name",
          "type": "string"
        },
        {
          "internalType": "address",
          "name": "to",
          "type": "address"
        },
        {
          "internalType": "uint256",
          "name": "until",
          "type": "uint256"
        },
        {
          "internalType": "uint256",
          "name": "rate",
          "type": "uint256"
        },
        {
          "internalType": "address[]",
          "name": "path",
          "type": "address[]"
        }
      ],
      "name": "addInflu",
      "outputs": [],
      "stateMutability": "nonpayable",
      "type": "function"
    },
    {
      "inputs": [
        {
          "internalType": "address",
          "name": "token",
          "type": "address"
        },
        {
          "internalType": "address[]",
          "name": "pathIn",
          "type": "address[]"
        },
        {
          "internalType": "address[]",
          "name": "pathOut",
          "type": "address[]"
        }
      ],
      "name": "addMapPath",
      "outputs": [],
      "stateMutability": "nonpayable",
      "type": "function"
    },
    {
      "inputs": [
        {
          "internalType": "address",
          "name": "_new",
          "type": "address"
        },
        {
          "internalType": "bool",
          "name": "_change",
          "type": "bool"
        }
      ],
      "name": "addOwner",
      "outputs": [],
      "stateMutability": "nonpayable",
      "type": "function"
    },
    {
      "inputs": [
        {
          "internalType": "uint256",
          "name": "",
          "type": "uint256"
        }
      ],
      "name": "allInflus",
      "outputs": [
        {
          "internalType": "string",
          "name": "",
          "type": "string"
        }
      ],
      "stateMutability": "view",
      "type": "function"
    },
    {
      "inputs": [],
      "name": "distri",
      "outputs": [
        {
          "internalType": "address",
          "name": "",
          "type": "address"
        }
      ],
      "stateMutability": "view",
      "type": "function"
    },
    {
      "inputs": [],
      "name": "futur",
      "outputs": [
        {
          "internalType": "address",
          "name": "",
          "type": "address"
        }
      ],
      "stateMutability": "view",
      "type": "function"
    },
    {
      "inputs": [],
      "name": "futurFee",
      "outputs": [
        {
          "internalType": "uint256",
          "name": "",
          "type": "uint256"
        }
      ],
      "stateMutability": "view",
      "type": "function"
    },
    {
      "inputs": [],
      "name": "getAllInfluSize",
      "outputs": [
        {
          "internalType": "uint256",
          "name": "",
          "type": "uint256"
        }
      ],
      "stateMutability": "view",
      "type": "function"
    },
    {
      "inputs": [
        {
          "internalType": "uint256",
          "name": "iStart",
          "type": "uint256"
        },
        {
          "internalType": "uint256",
          "name": "iEnd",
          "type": "uint256"
        }
      ],
      "name": "getAllInflusBetweenIndexes",
      "outputs": [
        {
          "internalType": "string[]",
          "name": "",
          "type": "string[]"
        }
      ],
      "stateMutability": "view",
      "type": "function"
    },
    {
      "inputs": [
        {
          "internalType": "string",
          "name": "name",
          "type": "string"
        }
      ],
      "name": "getInfluDataPath",
      "outputs": [
        {
          "internalType": "address[]",
          "name": "",
          "type": "address[]"
        }
      ],
      "stateMutability": "view",
      "type": "function"
    },
    {
      "inputs": [
        {
          "internalType": "uint256",
          "name": "iStart",
          "type": "uint256"
        },
        {
          "internalType": "uint256",
          "name": "iEnd",
          "type": "uint256"
        }
      ],
      "name": "getMapPathBetweenIndexes",
      "outputs": [
        {
          "components": [
            {
              "internalType": "address[]",
              "name": "pathIn",
              "type": "address[]"
            },
            {
              "internalType": "address[]",
              "name": "pathOut",
              "type": "address[]"
            }
          ],
          "internalType": "struct Swapper.Path[]",
          "name": "",
          "type": "tuple[]"
        }
      ],
      "stateMutability": "view",
      "type": "function"
    },
    {
      "inputs": [
        {
          "internalType": "address",
          "name": "key",
          "type": "address"
        }
      ],
      "name": "getMapPathForKey",
      "outputs": [
        {
          "components": [
            {
              "internalType": "address[]",
              "name": "pathIn",
              "type": "address[]"
            },
            {
              "internalType": "address[]",
              "name": "pathOut",
              "type": "address[]"
            }
          ],
          "internalType": "struct Swapper.Path",
          "name": "",
          "type": "tuple"
        }
      ],
      "stateMutability": "view",
      "type": "function"
    },
    {
      "inputs": [
        {
          "internalType": "uint256",
          "name": "iStart",
          "type": "uint256"
        },
        {
          "internalType": "uint256",
          "name": "iEnd",
          "type": "uint256"
        }
      ],
      "name": "getMapPathKeysBetweenIndexes",
      "outputs": [
        {
          "internalType": "address[]",
          "name": "",
          "type": "address[]"
        }
      ],
      "stateMutability": "view",
      "type": "function"
    },
    {
      "inputs": [],
      "name": "getMapPathSize",
      "outputs": [
        {
          "internalType": "uint256",
          "name": "",
          "type": "uint256"
        }
      ],
      "stateMutability": "view",
      "type": "function"
    },
    {
      "inputs": [],
      "name": "getOwnersSize",
      "outputs": [
        {
          "internalType": "uint256",
          "name": "",
          "type": "uint256"
        }
      ],
      "stateMutability": "view",
      "type": "function"
    },
    {
      "inputs": [
        {
          "internalType": "address",
          "name": "account",
          "type": "address"
        }
      ],
      "name": "getPendingOf",
      "outputs": [
        {
          "internalType": "uint256",
          "name": "",
          "type": "uint256"
        }
      ],
      "stateMutability": "view",
      "type": "function"
    },
    {
      "inputs": [],
      "name": "handler",
      "outputs": [
        {
          "internalType": "address",
          "name": "",
          "type": "address"
        }
      ],
      "stateMutability": "view",
      "type": "function"
    },
    {
      "inputs": [
        {
          "internalType": "string",
          "name": "",
          "type": "string"
        }
      ],
      "name": "influData",
      "outputs": [
        {
          "internalType": "address",
          "name": "to",
          "type": "address"
        },
        {
          "internalType": "uint256",
          "name": "rate",
          "type": "uint256"
        },
        {
          "internalType": "uint256",
          "name": "until",
          "type": "uint256"
        },
        {
          "internalType": "uint256",
          "name": "released",
          "type": "uint256"
        },
        {
          "internalType": "uint256",
          "name": "claimable",
          "type": "uint256"
        }
      ],
      "stateMutability": "view",
      "type": "function"
    },
    {
      "inputs": [
        {
          "internalType": "string",
          "name": "",
          "type": "string"
        }
      ],
      "name": "influInserted",
      "outputs": [
        {
          "internalType": "bool",
          "name": "",
          "type": "bool"
        }
      ],
      "stateMutability": "view",
      "type": "function"
    },
    {
      "inputs": [
        {
          "internalType": "address",
          "name": "",
          "type": "address"
        }
      ],
      "name": "isOwner",
      "outputs": [
        {
          "internalType": "bool",
          "name": "",
          "type": "bool"
        }
      ],
      "stateMutability": "view",
      "type": "function"
    },
    {
      "inputs": [],
      "name": "lpFee",
      "outputs": [
        {
          "internalType": "uint256",
          "name": "",
          "type": "uint256"
        }
      ],
      "stateMutability": "view",
      "type": "function"
    },
    {
      "inputs": [],
      "name": "lpHandler",
      "outputs": [
        {
          "internalType": "address",
          "name": "",
          "type": "address"
        }
      ],
      "stateMutability": "view",
      "type": "function"
    },
    {
      "inputs": [],
      "name": "native",
      "outputs": [
        {
          "internalType": "address",
          "name": "",
          "type": "address"
        }
      ],
      "stateMutability": "view",
      "type": "function"
    },
    {
      "inputs": [],
      "name": "openSwapClaimRewardsAll",
      "outputs": [
        {
          "internalType": "bool",
          "name": "",
          "type": "bool"
        }
      ],
      "stateMutability": "view",
      "type": "function"
    },
    {
      "inputs": [],
      "name": "openSwapClaimRewardsBatch",
      "outputs": [
        {
          "internalType": "bool",
          "name": "",
          "type": "bool"
        }
      ],
      "stateMutability": "view",
      "type": "function"
    },
    {
      "inputs": [],
      "name": "openSwapClaimRewardsNodeType",
      "outputs": [
        {
          "internalType": "bool",
          "name": "",
          "type": "bool"
        }
      ],
      "stateMutability": "view",
      "type": "function"
    },
    {
      "inputs": [],
      "name": "openSwapCreateLuckyBoxesWithTokens",
      "outputs": [
        {
          "internalType": "bool",
          "name": "",
          "type": "bool"
        }
      ],
      "stateMutability": "view",
      "type": "function"
    },
    {
      "inputs": [],
      "name": "openSwapCreateNodesWithPending",
      "outputs": [
        {
          "internalType": "bool",
          "name": "",
          "type": "bool"
        }
      ],
      "stateMutability": "view",
      "type": "function"
    },
    {
      "inputs": [],
      "name": "openSwapCreateNodesWithTokens",
      "outputs": [
        {
          "internalType": "bool",
          "name": "",
          "type": "bool"
        }
      ],
      "stateMutability": "view",
      "type": "function"
    },
    {
      "inputs": [
        {
          "internalType": "uint256",
          "name": "",
          "type": "uint256"
        }
      ],
      "name": "owners",
      "outputs": [
        {
          "internalType": "address",
          "name": "",
          "type": "address"
        }
      ],
      "stateMutability": "view",
      "type": "function"
    },
    {
      "inputs": [],
      "name": "pair",
      "outputs": [
        {
          "internalType": "address",
          "name": "",
          "type": "address"
        }
      ],
      "stateMutability": "view",
      "type": "function"
    },
    {
      "inputs": [
        {
          "internalType": "uint256",
          "name": "index",
          "type": "uint256"
        }
      ],
      "name": "payee",
      "outputs": [
        {
          "internalType": "address",
          "name": "",
          "type": "address"
        }
      ],
      "stateMutability": "view",
      "type": "function"
    },
    {
      "inputs": [],
      "name": "polar",
      "outputs": [
        {
          "internalType": "address",
          "name": "",
          "type": "address"
        }
      ],
      "stateMutability": "view",
      "type": "function"
    },
    {
      "inputs": [
        {
          "internalType": "address payable",
          "name": "account",
          "type": "address"
        }
      ],
      "name": "release",
      "outputs": [],
      "stateMutability": "nonpayable",
      "type": "function"
    },
    {
      "inputs": [
        {
          "internalType": "contract IERC20",
          "name": "token",
          "type": "address"
        },
        {
          "internalType": "address",
          "name": "account",
          "type": "address"
        }
      ],
      "name": "release",
      "outputs": [],
      "stateMutability": "nonpayable",
      "type": "function"
    },
    {
      "inputs": [
        {
          "internalType": "string",
          "name": "name",
          "type": "string"
        }
      ],
      "name": "releaseInflu",
      "outputs": [],
      "stateMutability": "nonpayable",
      "type": "function"
    },
    {
      "inputs": [
        {
          "internalType": "contract IERC20",
          "name": "token",
          "type": "address"
        },
        {
          "internalType": "address",
          "name": "account",
          "type": "address"
        }
      ],
      "name": "released",
      "outputs": [
        {
          "internalType": "uint256",
          "name": "",
          "type": "uint256"
        }
      ],
      "stateMutability": "view",
      "type": "function"
    },
    {
      "inputs": [
        {
          "internalType": "address",
          "name": "account",
          "type": "address"
        }
      ],
      "name": "released",
      "outputs": [
        {
          "internalType": "uint256",
          "name": "",
          "type": "uint256"
        }
      ],
      "stateMutability": "view",
      "type": "function"
    },
    {
      "inputs": [
        {
          "internalType": "address",
          "name": "token",
          "type": "address"
        }
      ],
      "name": "removeMapPath",
      "outputs": [],
      "stateMutability": "nonpayable",
      "type": "function"
    },
    {
      "inputs": [
        {
          "internalType": "address",
          "name": "_new",
          "type": "address"
        }
      ],
      "name": "removeOwner",
      "outputs": [],
      "stateMutability": "nonpayable",
      "type": "function"
    },
    {
      "inputs": [],
      "name": "rewardsFee",
      "outputs": [
        {
          "internalType": "uint256",
          "name": "",
          "type": "uint256"
        }
      ],
      "stateMutability": "view",
      "type": "function"
    },
    {
      "inputs": [],
      "name": "router",
      "outputs": [
        {
          "internalType": "address",
          "name": "",
          "type": "address"
        }
      ],
      "stateMutability": "view",
      "type": "function"
    },
    {
      "inputs": [
        {
          "internalType": "address",
          "name": "_new",
          "type": "address"
        }
      ],
      "name": "setDistri",
      "outputs": [],
      "stateMutability": "nonpayable",
      "type": "function"
    },
    {
      "inputs": [
        {
          "internalType": "address",
          "name": "_new",
          "type": "address"
        }
      ],
      "name": "setFutur",
      "outputs": [],
      "stateMutability": "nonpayable",
      "type": "function"
    },
    {
      "inputs": [
        {
          "internalType": "uint256",
          "name": "_new",
          "type": "uint256"
        }
      ],
      "name": "setFuturFee",
      "outputs": [],
      "stateMutability": "nonpayable",
      "type": "function"
    },
    {
      "inputs": [
        {
          "internalType": "uint256",
          "name": "_new",
          "type": "uint256"
        }
      ],
      "name": "setLpFee",
      "outputs": [],
      "stateMutability": "nonpayable",
      "type": "function"
    },
    {
      "inputs": [
        {
          "internalType": "address",
          "name": "_new",
          "type": "address"
        }
      ],
      "name": "setLpHandler",
      "outputs": [],
      "stateMutability": "nonpayable",
      "type": "function"
    },
    {
      "inputs": [
        {
          "internalType": "address",
          "name": "_new",
          "type": "address"
        }
      ],
      "name": "setNative",
      "outputs": [],
      "stateMutability": "nonpayable",
      "type": "function"
    },
    {
      "inputs": [
        {
          "internalType": "bool",
          "name": "_new",
          "type": "bool"
        }
      ],
      "name": "setOpenSwapClaimRewardsAll",
      "outputs": [],
      "stateMutability": "nonpayable",
      "type": "function"
    },
    {
      "inputs": [
        {
          "internalType": "bool",
          "name": "_new",
          "type": "bool"
        }
      ],
      "name": "setOpenSwapClaimRewardsBatch",
      "outputs": [],
      "stateMutability": "nonpayable",
      "type": "function"
    },
    {
      "inputs": [
        {
          "internalType": "bool",
          "name": "_new",
          "type": "bool"
        }
      ],
      "name": "setOpenSwapClaimRewardsNodeType",
      "outputs": [],
      "stateMutability": "nonpayable",
      "type": "function"
    },
    {
      "inputs": [
        {
          "internalType": "bool",
          "name": "_new",
          "type": "bool"
        }
      ],
      "name": "setOpenSwapCreateLuckyBoxesWithTokens",
      "outputs": [],
      "stateMutability": "nonpayable",
      "type": "function"
    },
    {
      "inputs": [
        {
          "internalType": "bool",
          "name": "_new",
          "type": "bool"
        }
      ],
      "name": "setOpenSwapCreateNodesWithPending",
      "outputs": [],
      "stateMutability": "nonpayable",
      "type": "function"
    },
    {
      "inputs": [
        {
          "internalType": "bool",
          "name": "_new",
          "type": "bool"
        }
      ],
      "name": "setOpenSwapCreateNodesWithTokens",
      "outputs": [],
      "stateMutability": "nonpayable",
      "type": "function"
    },
    {
      "inputs": [
        {
          "internalType": "address",
          "name": "_new",
          "type": "address"
        }
      ],
      "name": "setPair",
      "outputs": [],
      "stateMutability": "nonpayable",
      "type": "function"
    },
    {
      "inputs": [
        {
          "internalType": "address",
          "name": "_new",
          "type": "address"
        }
      ],
      "name": "setPolar",
      "outputs": [],
      "stateMutability": "nonpayable",
      "type": "function"
    },
    {
      "inputs": [
        {
          "internalType": "uint256",
          "name": "_new",
          "type": "uint256"
        }
      ],
      "name": "setRewardsFee",
      "outputs": [],
      "stateMutability": "nonpayable",
      "type": "function"
    },
    {
      "inputs": [
        {
          "internalType": "address",
          "name": "_new",
          "type": "address"
        }
      ],
      "name": "setRouter",
      "outputs": [],
      "stateMutability": "nonpayable",
      "type": "function"
    },
    {
      "inputs": [
        {
          "internalType": "bool",
          "name": "_new",
          "type": "bool"
        }
      ],
      "name": "setSwapFutur",
      "outputs": [],
      "stateMutability": "nonpayable",
      "type": "function"
    },
    {
      "inputs": [
        {
          "internalType": "bool",
          "name": "_new",
          "type": "bool"
        }
      ],
      "name": "setSwapLiquifyClaim",
      "outputs": [],
      "stateMutability": "nonpayable",
      "type": "function"
    },
    {
      "inputs": [
        {
          "internalType": "bool",
          "name": "_new",
          "type": "bool"
        }
      ],
      "name": "setSwapLiquifyCreate",
      "outputs": [],
      "stateMutability": "nonpayable",
      "type": "function"
    },
    {
      "inputs": [
        {
          "internalType": "bool",
          "name": "_new",
          "type": "bool"
        }
      ],
      "name": "setSwapLpPool",
      "outputs": [],
      "stateMutability": "nonpayable",
      "type": "function"
    },
    {
      "inputs": [
        {
          "internalType": "bool",
          "name": "_new",
          "type": "bool"
        }
      ],
      "name": "setSwapPayee",
      "outputs": [],
      "stateMutability": "nonpayable",
      "type": "function"
    },
    {
      "inputs": [
        {
          "internalType": "bool",
          "name": "_new",
          "type": "bool"
        }
      ],
      "name": "setSwapRewards",
      "outputs": [],
      "stateMutability": "nonpayable",
      "type": "function"
    },
    {
      "inputs": [
        {
          "internalType": "uint256",
          "name": "_new",
          "type": "uint256"
        }
      ],
      "name": "setSwapTokensAmountClaim",
      "outputs": [],
      "stateMutability": "nonpayable",
      "type": "function"
    },
    {
      "inputs": [
        {
          "internalType": "uint256",
          "name": "_new",
          "type": "uint256"
        }
      ],
      "name": "setSwapTokensAmountCreate",
      "outputs": [],
      "stateMutability": "nonpayable",
      "type": "function"
    },
    {
      "inputs": [
        {
          "internalType": "address",
          "name": "account",
          "type": "address"
        }
      ],
      "name": "shares",
      "outputs": [
        {
          "internalType": "uint256",
          "name": "",
          "type": "uint256"
        }
      ],
      "stateMutability": "view",
      "type": "function"
    },
    {
      "inputs": [
        {
          "internalType": "address",
          "name": "tokenOut",
          "type": "address"
        },
        {
          "internalType": "address",
          "name": "user",
          "type": "address"
        },
        {
          "internalType": "uint256",
          "name": "rewardsTotal",
          "type": "uint256"
        },
        {
          "internalType": "uint256",
          "name": "feesTotal",
          "type": "uint256"
        }
      ],
      "name": "swapClaimRewardsAll",
      "outputs": [],
      "stateMutability": "nonpayable",
      "type": "function"
    },
    {
      "inputs": [
        {
          "internalType": "address",
          "name": "tokenOut",
          "type": "address"
        },
        {
          "internalType": "address",
          "name": "user",
          "type": "address"
        },
        {
          "internalType": "uint256",
          "name": "rewardsTotal",
          "type": "uint256"
        },
        {
          "internalType": "uint256",
          "name": "feesTotal",
          "type": "uint256"
        }
      ],
      "name": "swapClaimRewardsBatch",
      "outputs": [],
      "stateMutability": "nonpayable",
      "type": "function"
    },
    {
      "inputs": [
        {
          "internalType": "address",
          "name": "tokenOut",
          "type": "address"
        },
        {
          "internalType": "address",
          "name": "user",
          "type": "address"
        },
        {
          "internalType": "uint256",
          "name": "rewardsTotal",
          "type": "uint256"
        },
        {
          "internalType": "uint256",
          "name": "feesTotal",
          "type": "uint256"
        }
      ],
      "name": "swapClaimRewardsNodeType",
      "outputs": [],
      "stateMutability": "nonpayable",
      "type": "function"
    },
    {
      "inputs": [
        {
          "internalType": "address",
          "name": "tokenIn",
          "type": "address"
        },
        {
          "internalType": "address",
          "name": "user",
          "type": "address"
        },
        {
          "internalType": "uint256",
          "name": "price",
          "type": "uint256"
        },
        {
          "internalType": "string",
          "name": "sponso",
          "type": "string"
        }
      ],
      "name": "swapCreateLuckyBoxesWithTokens",
      "outputs": [],
      "stateMutability": "nonpayable",
      "type": "function"
    },
    {
      "inputs": [
        {
          "internalType": "address",
          "name": "tokenOut",
          "type": "address"
        },
        {
          "internalType": "address",
          "name": "user",
          "type": "address"
        },
        {
          "internalType": "uint256",
          "name": "rewardsTotal",
          "type": "uint256"
        },
        {
          "internalType": "uint256",
          "name": "feesTotal",
          "type": "uint256"
        }
      ],
      "name": "swapCreateNodesWithPending",
      "outputs": [],
      "stateMutability": "nonpayable",
      "type": "function"
    },
    {
      "inputs": [
        {
          "internalType": "address",
          "name": "tokenIn",
          "type": "address"
        },
        {
          "internalType": "address",
          "name": "user",
          "type": "address"
        },
        {
          "internalType": "uint256",
          "name": "price",
          "type": "uint256"
        },
        {
          "internalType": "string",
          "name": "sponso",
          "type": "string"
        }
      ],
      "name": "swapCreateNodesWithTokens",
      "outputs": [],
      "stateMutability": "nonpayable",
      "type": "function"
    },
    {
      "inputs": [],
      "name": "swapTokensAmountClaim",
      "outputs": [
        {
          "internalType": "uint256",
          "name": "",
          "type": "uint256"
        }
      ],
      "stateMutability": "view",
      "type": "function"
    },
    {
      "inputs": [],
      "name": "swapTokensAmountCreate",
      "outputs": [
        {
          "internalType": "uint256",
          "name": "",
          "type": "uint256"
        }
      ],
      "stateMutability": "view",
      "type": "function"
    },
    {
      "inputs": [
        {
          "internalType": "contract IERC20",
          "name": "token",
          "type": "address"
        }
      ],
      "name": "totalReleased",
      "outputs": [
        {
          "internalType": "uint256",
          "name": "",
          "type": "uint256"
        }
      ],
      "stateMutability": "view",
      "type": "function"
    },
    {
      "inputs": [],
      "name": "totalReleased",
      "outputs": [
        {
          "internalType": "uint256",
          "name": "",
          "type": "uint256"
        }
      ],
      "stateMutability": "view",
      "type": "function"
    },
    {
      "inputs": [],
      "name": "totalShares",
      "outputs": [
        {
          "internalType": "uint256",
          "name": "",
          "type": "uint256"
        }
      ],
      "stateMutability": "view",
      "type": "function"
    },
    {
      "inputs": [
        {
          "internalType": "string",
          "name": "name",
          "type": "string"
        },
        {
          "internalType": "uint256",
          "name": "until",
          "type": "uint256"
        },
        {
          "internalType": "uint256",
          "name": "rate",
          "type": "uint256"
        },
        {
          "internalType": "address[]",
          "name": "path",
          "type": "address[]"
        }
      ],
      "name": "updateInflu",
      "outputs": [],
      "stateMutability": "nonpayable",
      "type": "function"
    },
    {
      "inputs": [
        {
          "internalType": "address",
          "name": "token",
          "type": "address"
        },
        {
          "internalType": "address[]",
          "name": "pathIn",
          "type": "address[]"
        },
        {
          "internalType": "address[]",
          "name": "pathOut",
          "type": "address[]"
        }
      ],
      "name": "updateMapPath",
      "outputs": [],
      "stateMutability": "nonpayable",
      "type": "function"
    },
    {
      "stateMutability": "payable",
      "type": "receive"
    }
  ],
  "bytecode": "0x6080604052601a805460ff60301b1960ff60281b1960ff60201b1963ff0000001962ff00001961ffff1990951661010017949094166201000017939093166301000000179290921664010000000017919091166501000000000017166601000000000000179055601d805465ffffffffffff60a01b191690553480156200008557600080fd5b5060405162005d5538038062005d55833981016040819052620000a89162000881565b858580518251146200011c5760405162461bcd60e51b815260206004820152603260248201527f5061796d656e7453706c69747465723a2070617965657320616e6420736861726044820152710cae640d8cadccee8d040dad2e6dac2e8c6d60731b60648201526084015b60405180910390fd5b60008251116200016f5760405162461bcd60e51b815260206004820152601a60248201527f5061796d656e7453706c69747465723a206e6f20706179656573000000000000604482015260640162000113565b60005b8251811015620001f357620001de838281518110620001a157634e487b7160e01b600052603260045260246000fd5b6020026020010151838381518110620001ca57634e487b7160e01b600052603260045260246000fd5b60200260200101516200059a60201b60201c565b80620001ea81620009e1565b91505062000172565b50506007805460018181019092557fa66cc928b5edb82af9bd49922954155ab7b0942694bea4ce44661d9a8736c6880180546001600160a01b031916339081179091556000908152600860205260408120805460ff191690921790915585518692506200027057634e487b7160e01b600052603260045260246000fd5b6020026020010151601060006101000a8154816001600160a01b0302191690836001600160a01b0316021790555083600181518110620002c057634e487b7160e01b600052603260045260246000fd5b6020026020010151601160006101000a8154816001600160a01b0302191690836001600160a01b03160217905550836002815181106200031057634e487b7160e01b600052603260045260246000fd5b6020026020010151601260006101000a8154816001600160a01b0302191690836001600160a01b03160217905550836003815181106200036057634e487b7160e01b600052603260045260246000fd5b6020026020010151601360006101000a8154816001600160a01b0302191690836001600160a01b0316021790555083600481518110620003b057634e487b7160e01b600052603260045260246000fd5b6020026020010151601460006101000a8154816001600160a01b0302191690836001600160a01b03160217905550836005815181106200040057634e487b7160e01b600052603260045260246000fd5b6020026020010151601560006101000a8154816001600160a01b0302191690836001600160a01b03160217905550836006815181106200045057634e487b7160e01b600052603260045260246000fd5b6020026020010151601660006101000a8154816001600160a01b0302191690836001600160a01b0316021790555082600081518110620004a057634e487b7160e01b600052603260045260246000fd5b602002602001015160178190555082600181518110620004d057634e487b7160e01b600052603260045260246000fd5b6020026020010151601881905550826002815181106200050057634e487b7160e01b600052603260045260246000fd5b6020026020010151601981905550816000815181106200053057634e487b7160e01b600052603260045260246000fd5b6020026020010151601b81905550816001815181106200056057634e487b7160e01b600052603260045260246000fd5b6020908102919091010151601c55601d80546001600160a01b0319166001600160a01b03929092169190911790555062000a2b9350505050565b6001600160a01b038216620006075760405162461bcd60e51b815260206004820152602c60248201527f5061796d656e7453706c69747465723a206163636f756e74206973207468652060448201526b7a65726f206164647265737360a01b606482015260840162000113565b60008111620006595760405162461bcd60e51b815260206004820152601d60248201527f5061796d656e7453706c69747465723a20736861726573206172652030000000604482015260640162000113565b6001600160a01b03821660009081526002602052604090205415620006d55760405162461bcd60e51b815260206004820152602b60248201527f5061796d656e7453706c69747465723a206163636f756e7420616c726561647960448201526a206861732073686172657360a81b606482015260840162000113565b60048054600181019091557f8a35acfbc15ff81a39ae7d344fd709f28e8600b4aa8c65c6b64bfe7fe36bd19b0180546001600160a01b0319166001600160a01b0384169081179091556000908152600260205260408120829055546200073d908290620009c6565b600055604080516001600160a01b0384168152602081018390527f40c340f65e17194d14ddddb073d3c9f888e3cb52b5aae0c6c7706b4fbc905fac910160405180910390a15050565b80516001600160a01b03811681146200079e57600080fd5b919050565b600082601f830112620007b4578081fd5b81516020620007cd620007c783620009a0565b6200096d565b8281528181019085830183850287018401881015620007ea578586fd5b855b858110156200081357620008008262000786565b84529284019290840190600101620007ec565b5090979650505050505050565b600082601f83011262000831578081fd5b8151602062000844620007c783620009a0565b828152818101908583018385028701840188101562000861578586fd5b855b85811015620008135781518452928401929084019060010162000863565b60008060008060008060c087890312156200089a578182fd5b86516001600160401b0380821115620008b1578384fd5b620008bf8a838b01620007a3565b97506020890151915080821115620008d5578384fd5b620008e38a838b0162000820565b96506040890151915080821115620008f9578384fd5b620009078a838b01620007a3565b955060608901519150808211156200091d578384fd5b6200092b8a838b0162000820565b9450608089015191508082111562000941578384fd5b506200095089828a0162000820565b9250506200096160a0880162000786565b90509295509295509295565b604051601f8201601f191681016001600160401b038111828210171562000998576200099862000a15565b604052919050565b60006001600160401b03821115620009bc57620009bc62000a15565b5060209081020190565b60008219821115620009dc57620009dc620009ff565b500190565b6000600019821415620009f857620009f8620009ff565b5060010190565b634e487b7160e01b600052601160045260246000fd5b634e487b7160e01b600052604160045260246000fd5b61531a8062000a3b6000396000f3fe6080604052600436106104775760003560e01c806385aa5e5a1161024a578063c0d7865511610139578063ddf7aa9f116100b6578063edc132e51161007a578063edc132e514610f1b578063f1d1430514610f3b578063f824673214610f5b578063f887ea4014610f7b578063fbe12f1d14610f9b576104b7565b8063ddf7aa9f14610e79578063dfb43dfd14610ea6578063e15946b714610ec6578063e33b7de314610ee6578063ec2c86b614610efb576104b7565b8063cd79677d116100fd578063cd79677d14610dac578063ce7c2ac214610dcd578063d14d47b414610e03578063d79779b214610e23578063db7b935014610e59576104b7565b8063c0d7865514610ce4578063c753695314610d04578063c7ae053114610d3f578063c80916d414610d5f578063c857612d14610d7f576104b7565b80639fa26e13116101c7578063ac827bf31161018b578063ac827bf314610c44578063b049791a14610c64578063b164d1e914610c84578063ba44da1214610ca4578063bd9a99da14610cc4576104b7565b80639fa26e1314610bae578063a5c9336614610bce578063a77f789b14610bee578063a8aa1b3114610c0e578063ab57476114610c2e576104b7565b806392aaa2e91161020e57806392aaa2e914610b2d57806393d038ea14610b42578063942a617514610b625780639852595c14610b785780639cc34de414610acd576104b7565b806385aa5e5a14610a8d57806386b4f81914610aad5780638717bb1614610acd5780638b83209b14610aed5780638fb712fb14610b0d576104b7565b80633a98ef3911610366578063584a1c82116102e35780637391189f116102a75780637391189f146109df5780637f9bb09b14610a005780638187f51614610a2057806381c8e15914610a4057806384dfbfe214610a6d576104b7565b8063584a1c82146109495780635dd64c4714610969578063658793a3146109895780636a2f6b76146109a9578063704ce43e146109c9576104b7565b80634e7cde581161032a5780634e7cde58146108b35780634f399b2a146108d3578063518e32d3146108f457806351d00bf81461091457806356b20abc14610929576104b7565b80633a98ef39146107ea5780633ce3b167146107ff578063406072a91461082057806348b75044146108665780634c3919ec14610886576104b7565b806311b0b42d116103f457806329e5367a116103b857806329e5367a146107325780632bb14e1d146107635780632f173448146107795780632f54bf6e1461079a57806336ed57cd146107ca576104b7565b806311b0b42d14610692578063173825d9146106b257806319165587146106d25780632213f926146106f2578063258fd23c14610712576104b7565b80630996dc301161043b5780630996dc30146106075780630bf348e0146106275780630c7b1d7b146106475780631080d9f51461065c57806311ac6cf814610672576104b7565b8063025e7c27146104bc578063032cdbfc146104f95780630441e6c51461058a578063051bd84c146105b757806308680ade146105d9576104b7565b366104b7577f6ef95f06320e7a25a04a175ca677b7052bdd97131872c2192525a629f51be77033346040516104ad929190614e5a565b60405180910390a1005b600080fd5b3480156104c857600080fd5b506104dc6104d7366004614cdf565b610fbb565b6040516001600160a01b0390911681526020015b60405180910390f35b34801561050557600080fd5b50610558610514366004614bbb565b8051602081830181018051600f82529282019190930120915280546001820154600283015460038401546004909401546001600160a01b0390931693919290919085565b604080516001600160a01b0390961686526020860194909452928401919091526060830152608082015260a0016104f0565b34801561059657600080fd5b506105aa6105a5366004614cdf565b610fe5565b6040516104f09190614f5d565b3480156105c357600080fd5b506105d76105d2366004614b56565b611091565b005b3480156105e557600080fd5b506105f96105f4366004614950565b6110e7565b6040519081526020016104f0565b34801561061357600080fd5b506010546104dc906001600160a01b031681565b34801561063357600080fd5b506105d7610642366004614b56565b611166565b34801561065357600080fd5b506007546105f9565b34801561066857600080fd5b506105f9601c5481565b34801561067e57600080fd5b506105d761068d366004614b56565b6111b3565b34801561069e57600080fd5b506015546104dc906001600160a01b031681565b3480156106be57600080fd5b506105d76106cd366004614950565b611206565b3480156106de57600080fd5b506105d76106ed366004614950565b6114e1565b3480156106fe57600080fd5b506105d761070d366004614b56565b611601565b34801561071e57600080fd5b506105d761072d366004614950565b61164e565b34801561073e57600080fd5b50601d5461075390600160c81b900460ff1681565b60405190151581526020016104f0565b34801561076f57600080fd5b506105f960185481565b34801561078557600080fd5b50601d5461075390600160b81b900460ff1681565b3480156107a657600080fd5b506107536107b5366004614950565b60086020526000908152604090205460ff1681565b3480156107d657600080fd5b506105d76107e53660046149d6565b611703565b3480156107f657600080fd5b506000546105f9565b34801561080b57600080fd5b50601d5461075390600160b01b900460ff1681565b34801561082c57600080fd5b506105f961083b366004614b8e565b6001600160a01b03918216600090815260066020908152604080832093909416825291909152205490565b34801561087257600080fd5b506105d7610881366004614b8e565b611768565b34801561089257600080fd5b506108a66108a1366004614950565b61194d565b6040516104f091906150c9565b3480156108bf57600080fd5b506105d76108ce366004614cdf565b611aad565b3480156108df57600080fd5b50601d5461075390600160c01b900460ff1681565b34801561090057600080fd5b506105d761090f366004614a8e565b611ae1565b34801561092057600080fd5b50600d546105f9565b34801561093557600080fd5b506105d7610944366004614bbb565b611cf8565b34801561095557600080fd5b506013546104dc906001600160a01b031681565b34801561097557600080fd5b506105d7610984366004614950565b611fc4565b34801561099557600080fd5b506105d76109a43660046149d6565b61207a565b3480156109b557600080fd5b506105d76109c436600461496c565b6120cd565b3480156109d557600080fd5b506105f960195481565b3480156109eb57600080fd5b50601d5461075390600160a81b900460ff1681565b348015610a0c57600080fd5b506105d7610a1b366004614bee565b61212c565b348015610a2c57600080fd5b506105d7610a3b366004614950565b612306565b348015610a4c57600080fd5b50610a60610a5b366004614d0f565b6123b9565b6040516104f09190614eaa565b348015610a7957600080fd5b506105d7610a88366004614cdf565b612532565b348015610a9957600080fd5b506105d7610aa8366004614cdf565b612566565b348015610ab957600080fd5b506105d7610ac8366004614950565b61259a565b348015610ad957600080fd5b506105d7610ae8366004614b56565b61263d565b348015610af957600080fd5b506104dc610b08366004614cdf565b61268c565b348015610b1957600080fd5b506105d7610b28366004614b56565b6126ca565b348015610b3957600080fd5b506009546105f9565b348015610b4e57600080fd5b506105d7610b5d366004614950565b612715565b348015610b6e57600080fd5b506105f9601b5481565b348015610b8457600080fd5b506105f9610b93366004614950565b6001600160a01b031660009081526003602052604090205490565b348015610bba57600080fd5b506105d7610bc9366004614a1b565b6127ca565b348015610bda57600080fd5b506105d7610be9366004614cdf565b612884565b348015610bfa57600080fd5b506105d7610c0936600461496c565b6128b8565b348015610c1a57600080fd5b506016546104dc906001600160a01b031681565b348015610c3a57600080fd5b506105f960175481565b348015610c5057600080fd5b506105d7610c5f366004614b56565b61290b565b348015610c7057600080fd5b506105d7610c7f366004614a1b565b612958565b348015610c9057600080fd5b506105d7610c9f366004614b56565b6129f0565b348015610cb057600080fd5b506105d7610cbf366004614950565b612a39565b348015610cd057600080fd5b506011546104dc906001600160a01b031681565b348015610cf057600080fd5b506105d7610cff366004614950565b612af2565b348015610d1057600080fd5b50610753610d1f366004614bbb565b8051602081830181018051600e8252928201919093012091525460ff1681565b348015610d4b57600080fd5b506105d7610d5a3660046149d6565b612ba8565b348015610d6b57600080fd5b50601d546104dc906001600160a01b031681565b348015610d8b57600080fd5b50610d9f610d9a366004614bbb565b612bfb565b6040516104f09190614e97565b348015610db857600080fd5b50601d5461075390600160a01b900460ff1681565b348015610dd957600080fd5b506105f9610de8366004614950565b6001600160a01b031660009081526002602052604090205490565b348015610e0f57600080fd5b506105d7610e1e366004614cdf565b612c78565b348015610e2f57600080fd5b506105f9610e3e366004614950565b6001600160a01b031660009081526005602052604090205490565b348015610e6557600080fd5b50610d9f610e74366004614d0f565b612cac565b348015610e8557600080fd5b50610e99610e94366004614d0f565b612da0565b6040516104f09190614f0a565b348015610eb257600080fd5b506105d7610ec1366004614b56565b612f80565b348015610ed257600080fd5b506105d7610ee1366004614b56565b612fcd565b348015610ef257600080fd5b506001546105f9565b348015610f0757600080fd5b506012546104dc906001600160a01b031681565b348015610f2757600080fd5b506105d7610f36366004614c77565b61301a565b348015610f4757600080fd5b506105d7610f56366004614b56565b61319a565b348015610f6757600080fd5b506105d7610f76366004614950565b6131e7565b348015610f8757600080fd5b506014546104dc906001600160a01b031681565b348015610fa757600080fd5b506105d7610fb63660046149d6565b61329d565b60078181548110610fcb57600080fd5b6000918252602090912001546001600160a01b0316905081565b600d8181548110610ff557600080fd5b9060005260206000200160009150905080546110109061523f565b80601f016020809104026020016040519081016040528092919081815260200182805461103c9061523f565b80156110895780601f1061105e57610100808354040283529160200191611089565b820191906000526020600020905b81548152906001019060200180831161106c57829003601f168201915b505050505081565b3360009081526008602052604090205460ff166110c95760405162461bcd60e51b81526004016110c090614ff8565b60405180910390fd5b601d8054911515600160b81b0260ff60b81b19909216919091179055565b6001600160a01b03811660009081526002602052604081205461111c5760405162461bcd60e51b81526004016110c090614fb2565b600061112760015490565b61113190476151a5565b9050600061115e8483611159876001600160a01b031660009081526003602052604090205490565b6132f0565b949350505050565b3360009081526008602052604090205460ff166111955760405162461bcd60e51b81526004016110c090614ff8565b601d8054911515600160a01b0260ff60a01b19909216919091179055565b3360009081526008602052604090205460ff166111e25760405162461bcd60e51b81526004016110c090614ff8565b601a805491151566010000000000000266ff00000000000019909216919091179055565b336001600160a01b0316600760008154811061123257634e487b7160e01b600052603260045260246000fd5b6000918252602090912001546001600160a01b03161461128f5760405162461bcd60e51b815260206004820152601860248201527727bbb732b9399d1027b7363c9029bab832b91027bbb732b960411b60448201526064016110c0565b6001600160a01b03811660009081526008602052604090205460ff166112eb5760405162461bcd60e51b815260206004820152601160248201527027bbb732b9399d102737ba1037bbb732b960791b60448201526064016110c0565b600760008154811061130d57634e487b7160e01b600052603260045260246000fd5b6000918252602090912001546001600160a01b038281169116141561137e5760405162461bcd60e51b815260206004820152602160248201527f4f776e6572733a2043616e6e6f742072656d6f7665207375706572206f776e656044820152603960f91b60648201526084016110c0565b60015b6007548110156114bf57816001600160a01b0316600782815481106113b657634e487b7160e01b600052603260045260246000fd5b6000918252602090912001546001600160a01b031614156114ad57600780546113e1906001906151fc565b815481106113ff57634e487b7160e01b600052603260045260246000fd5b600091825260209091200154600780546001600160a01b03909216918390811061143957634e487b7160e01b600052603260045260246000fd5b9060005260206000200160006101000a8154816001600160a01b0302191690836001600160a01b03160217905550600780548061148657634e487b7160e01b600052603160045260246000fd5b600082815260209020810160001990810180546001600160a01b03191690550190556114bf565b806114b78161527a565b915050611381565b506001600160a01b03166000908152600860205260409020805460ff19169055565b6001600160a01b0381166000908152600260205260409020546115165760405162461bcd60e51b81526004016110c090614fb2565b600061152160015490565b61152b90476151a5565b905060006115538383611159866001600160a01b031660009081526003602052604090205490565b9050806115725760405162461bcd60e51b81526004016110c090615024565b6001600160a01b0383166000908152600360205260408120805483929061159a9084906151a5565b9250508190555080600160008282546115b391906151a5565b909155506115c390508382613335565b7fdf20fd1e76bc69d672e4814fafb2c449bba3a5369d8359adf9e05e6fde87b05683826040516115f4929190614e5a565b60405180910390a1505050565b3360009081526008602052604090205460ff166116305760405162461bcd60e51b81526004016110c090614ff8565b601d8054911515600160c81b0260ff60c81b19909216919091179055565b3360009081526008602052604090205460ff1661167d5760405162461bcd60e51b81526004016110c090614ff8565b6001600160a01b0381166116e15760405162461bcd60e51b815260206004820152602560248201527f537761707065723a2046757475722063616e6e6f742062652061646472657373604482015264207a65726f60d81b60648201526084016110c0565b601180546001600160a01b0319166001600160a01b0392909216919091179055565b601d546001600160a01b0316331461172d5760405162461bcd60e51b81526004016110c09061509a565b601d54600160c01b900460ff166117565760405162461bcd60e51b81526004016110c09061506f565b6117628484848461344e565b50505050565b6001600160a01b03811660009081526002602052604090205461179d5760405162461bcd60e51b81526004016110c090614fb2565b6001600160a01b0382166000908152600560205260408120546040516370a0823160e01b81523060048201526001600160a01b038516906370a082319060240160206040518083038186803b1580156117f557600080fd5b505afa158015611809573d6000803e3d6000fd5b505050506040513d601f19601f8201168201806040525081019061182d9190614cf7565b61183791906151a5565b90506000611870838361115987876001600160a01b03918216600090815260066020908152604080832093909416825291909152205490565b90508061188f5760405162461bcd60e51b81526004016110c090615024565b6001600160a01b038085166000908152600660209081526040808320938716835292905290812080548392906118c69084906151a5565b90915550506001600160a01b038416600090815260056020526040812080548392906118f39084906151a5565b9091555061190490508484836137d1565b836001600160a01b03167f3be5b7a71e84ed12875d241991c70855ac5817d847039e17a9d895c1ceb0f18a848360405161193f929190614e5a565b60405180910390a250505050565b60408051808201909152606080825260208201526001600160a01b0382166000908152600c602052604090205460ff166119c95760405162461bcd60e51b815260206004820152601960248201527f537761707065723a204b657920646f65736e742065786973740000000000000060448201526064016110c0565b6001600160a01b0382166000908152600a60209081526040918290208251815460609381028201840185529381018481529093919284928491840182828015611a3b57602002820191906000526020600020905b81546001600160a01b03168152600190910190602001808311611a1d575b5050505050815260200160018201805480602002602001604051908101604052809291908181526020018280548015611a9d57602002820191906000526020600020905b81546001600160a01b03168152600190910190602001808311611a7f575b5050505050815250509050919050565b3360009081526008602052604090205460ff16611adc5760405162461bcd60e51b81526004016110c090614ff8565b601b55565b336001600160a01b03166007600081548110611b0d57634e487b7160e01b600052603260045260246000fd5b6000918252602090912001546001600160a01b031614611b6a5760405162461bcd60e51b815260206004820152601860248201527727bbb732b9399d1027b7363c9029bab832b91027bbb732b960411b60448201526064016110c0565b6001600160a01b03821660009081526008602052604090205460ff1615611bcb5760405162461bcd60e51b815260206004820152601560248201527427bbb732b9399d1020b63932b0b23c9037bbb732b960591b60448201526064016110c0565b6001600160a01b0382166000908152600860205260409020805460ff191660011790558015611ca857600780600081548110611c1757634e487b7160e01b600052603260045260246000fd5b6000918252602080832090910154835460018101855593835290822090920180546001600160a01b0319166001600160a01b039093169290921790915560078054849290611c7557634e487b7160e01b600052603260045260246000fd5b9060005260206000200160006101000a8154816001600160a01b0302191690836001600160a01b03160217905550611cf4565b600780546001810182556000919091527fa66cc928b5edb82af9bd49922954155ab7b0942694bea4ce44661d9a8736c6880180546001600160a01b0319166001600160a01b0384161790555b5050565b600e81604051611d089190614e3e565b9081526040519081900360200190205460ff16611d375760405162461bcd60e51b81526004016110c090614f70565b6000600f82604051611d499190614e3e565b908152602001604051809103902090506000816004015411611dad5760405162461bcd60e51b815260206004820152601960248201527f537761707065723a204e6f7468696e6720746f20636c61696d0000000000000060448201526064016110c0565b6010546005820180546000926001600160a01b03169190611dd0906001906151fc565b81548110611dee57634e487b7160e01b600052603260045260246000fd5b6000918252602090912001546001600160a01b031614611ed25760145460048084015460405163d06ca61f60e01b81526001600160a01b039093169263d06ca61f92611e4092916005880191016150dc565b60006040518083038186803b158015611e5857600080fd5b505afa158015611e6c573d6000803e3d6000fd5b505050506040513d6000823e601f3d908101601f19168201604052611e949190810190614ac6565b6005830154611ea5906001906151fc565b81518110611ec357634e487b7160e01b600052603260045260246000fd5b60200260200101519050611ed9565b5060048101545b8160040154826003016000828254611ef191906151a5565b909155505060006004830155600582018054611f0f906001906151fc565b81548110611f2d57634e487b7160e01b600052603260045260246000fd5b60009182526020909120015460125483546040516323b872dd60e01b81526001600160a01b03938416936323b872dd93611f7293908216929116908690600401614e73565b602060405180830381600087803b158015611f8c57600080fd5b505af1158015611fa0573d6000803e3d6000fd5b505050506040513d601f19601f820116820180604052508101906117629190614b72565b3360009081526008602052604090205460ff16611ff35760405162461bcd60e51b81526004016110c090614ff8565b6001600160a01b0381166120585760405162461bcd60e51b815260206004820152602660248201527f537761707065723a204e61746976652063616e6e6f742062652061646472657360448201526573207a65726f60d01b60648201526084016110c0565b601580546001600160a01b0319166001600160a01b0392909216919091179055565b601d546001600160a01b031633146120a45760405162461bcd60e51b81526004016110c09061509a565b601d54600160b81b900460ff166117565760405162461bcd60e51b81526004016110c09061506f565b601d546001600160a01b031633146120f75760405162461bcd60e51b81526004016110c09061509a565b601d54600160a01b900460ff166121205760405162461bcd60e51b81526004016110c09061506f565b61176284848484613827565b3360009081526008602052604090205460ff1661215b5760405162461bcd60e51b81526004016110c090614ff8565b600e8560405161216b9190614e3e565b9081526040519081900360200190205460ff16156121cb5760405162461bcd60e51b815260206004820152601d60248201527f537761707065723a20496e666c7520616c72656164792065786973747300000060448201526064016110c0565b600d8054600181018255600091909152855161220e917fd7b6990105719101dabeb77144f2a3385c8033acd3af97e9423a695e81ad1eb501906020880190614768565b506001600e866040516122219190614e3e565b908152602001604051809103902060006101000a81548160ff0219169083151502179055506040518060c00160405280856001600160a01b03168152602001838152602001848152602001600081526020016000815260200182815250600f8660405161228e9190614e3e565b9081526040805160209281900383019020835181546001600160a01b0319166001600160a01b03909116178155838301516001820155908301516002820155606083015160038201556080830151600482015560a0830151805191926122fc926005850192909101906147ec565b5050505050505050565b3360009081526008602052604090205460ff166123355760405162461bcd60e51b81526004016110c090614ff8565b6001600160a01b0381166123975760405162461bcd60e51b8152602060048201526024808201527f537761707065723a20506169722063616e6e6f742062652061646472657373206044820152637a65726f60e01b60648201526084016110c0565b601680546001600160a01b0319166001600160a01b0392909216919091179055565b606060006123c784846151fc565b67ffffffffffffffff8111156123ed57634e487b7160e01b600052604160045260246000fd5b60405190808252806020026020018201604052801561242057816020015b606081526020019060019003908161240b5790505b509050835b8381101561252a57600d818154811061244e57634e487b7160e01b600052603260045260246000fd5b9060005260206000200180546124639061523f565b80601f016020809104026020016040519081016040528092919081815260200182805461248f9061523f565b80156124dc5780601f106124b1576101008083540402835291602001916124dc565b820191906000526020600020905b8154815290600101906020018083116124bf57829003601f168201915b50505050508286836124ee91906151fc565b8151811061250c57634e487b7160e01b600052603260045260246000fd5b602002602001018190525080806125229061527a565b915050612425565b509392505050565b3360009081526008602052604090205460ff166125615760405162461bcd60e51b81526004016110c090614ff8565b601955565b3360009081526008602052604090205460ff166125955760405162461bcd60e51b81526004016110c090614ff8565b601855565b3360009081526008602052604090205460ff166125c95760405162461bcd60e51b81526004016110c090614ff8565b6001600160a01b0381166000908152600c602052604090205460ff166126315760405162461bcd60e51b815260206004820152601b60248201527f537761707065723a20546f6b656e20646f65736e74206578697374000000000060448201526064016110c0565b61263a816139ef565b50565b3360009081526008602052604090205460ff1661266c5760405162461bcd60e51b81526004016110c090614ff8565b601a80549115156401000000000264ff0000000019909216919091179055565b6000600482815481106126af57634e487b7160e01b600052603260045260246000fd5b6000918252602090912001546001600160a01b031692915050565b3360009081526008602052604090205460ff166126f95760405162461bcd60e51b81526004016110c090614ff8565b601a8054911515620100000262ff000019909216919091179055565b3360009081526008602052604090205460ff166127445760405162461bcd60e51b81526004016110c090614ff8565b6001600160a01b0381166127a85760405162461bcd60e51b815260206004820152602560248201527f537761707065723a20506f6c61722063616e6e6f742062652061646472657373604482015264207a65726f60d81b60648201526084016110c0565b601080546001600160a01b0319166001600160a01b0392909216919091179055565b3360009081526008602052604090205460ff166127f95760405162461bcd60e51b81526004016110c090614ff8565b6001600160a01b0383166000908152600c602052604090205460ff166128615760405162461bcd60e51b815260206004820152601b60248201527f537761707065723a20546f6b656e20646f65736e74206578697374000000000060448201526064016110c0565b61287f83604051806040016040528085815260200184815250613b84565b505050565b3360009081526008602052604090205460ff166128b35760405162461bcd60e51b81526004016110c090614ff8565b601755565b601d546001600160a01b031633146128e25760405162461bcd60e51b81526004016110c09061509a565b601d54600160b01b900460ff166121205760405162461bcd60e51b81526004016110c09061506f565b3360009081526008602052604090205460ff1661293a5760405162461bcd60e51b81526004016110c090614ff8565b601a805491151563010000000263ff00000019909216919091179055565b3360009081526008602052604090205460ff166129875760405162461bcd60e51b81526004016110c090614ff8565b6001600160a01b0383166000908152600c602052604090205460ff16156128615760405162461bcd60e51b815260206004820152601d60248201527f537761707065723a20546f6b656e20616c72656164792065786973747300000060448201526064016110c0565b3360009081526008602052604090205460ff16612a1f5760405162461bcd60e51b81526004016110c090614ff8565b601a80549115156101000261ff0019909216919091179055565b3360009081526008602052604090205460ff16612a685760405162461bcd60e51b81526004016110c090614ff8565b6001600160a01b038116612ad05760405162461bcd60e51b815260206004820152602960248201527f537761707065723a204c7048616e646c65722063616e6e6f742062652061646460448201526872657373207a65726f60b81b60648201526084016110c0565b601380546001600160a01b0319166001600160a01b0392909216919091179055565b3360009081526008602052604090205460ff16612b215760405162461bcd60e51b81526004016110c090614ff8565b6001600160a01b038116612b865760405162461bcd60e51b815260206004820152602660248201527f537761707065723a20526f757465722063616e6e6f742062652061646472657360448201526573207a65726f60d01b60648201526084016110c0565b601480546001600160a01b0319166001600160a01b0392909216919091179055565b601d546001600160a01b03163314612bd25760405162461bcd60e51b81526004016110c09061509a565b601d54600160a81b900460ff166117565760405162461bcd60e51b81526004016110c09061506f565b6060600f82604051612c0d9190614e3e565b9081526040805191829003602090810183206005018054808302850183019093528284529190830182828015612c6c57602002820191906000526020600020905b81546001600160a01b03168152600190910190602001808311612c4e575b50505050509050919050565b3360009081526008602052604090205460ff16612ca75760405162461bcd60e51b81526004016110c090614ff8565b601c55565b60606000612cba84846151fc565b67ffffffffffffffff811115612ce057634e487b7160e01b600052604160045260246000fd5b604051908082528060200260200182016040528015612d09578160200160208202803683370190505b509050835b8381101561252a576009805482908110612d3857634e487b7160e01b600052603260045260246000fd5b6000918252602090912001546001600160a01b031682612d5887846151fc565b81518110612d7657634e487b7160e01b600052603260045260246000fd5b6001600160a01b039092166020928302919091019091015280612d988161527a565b915050612d0e565b60606000612dae84846151fc565b67ffffffffffffffff811115612dd457634e487b7160e01b600052604160045260246000fd5b604051908082528060200260200182016040528015612e1957816020015b6040805180820190915260608082526020820152815260200190600190039081612df25790505b509050835b8381101561252a5760098054600a9160009184908110612e4e57634e487b7160e01b600052603260045260246000fd5b60009182526020808320909101546001600160a01b031683528281019390935260409182019020815181546060948102820185018452928101838152909391928492849190840182828015612ecc57602002820191906000526020600020905b81546001600160a01b03168152600190910190602001808311612eae575b5050505050815260200160018201805480602002602001604051908101604052809291908181526020018280548015612f2e57602002820191906000526020600020905b81546001600160a01b03168152600190910190602001808311612f10575b505050505081525050828683612f4491906151fc565b81518110612f6257634e487b7160e01b600052603260045260246000fd5b60200260200101819052508080612f789061527a565b915050612e1e565b3360009081526008602052604090205460ff16612faf5760405162461bcd60e51b81526004016110c090614ff8565b601d8054911515600160b01b0260ff60b01b19909216919091179055565b3360009081526008602052604090205460ff16612ffc5760405162461bcd60e51b81526004016110c090614ff8565b601d8054911515600160c01b0260ff60c01b19909216919091179055565b3360009081526008602052604090205460ff166130495760405162461bcd60e51b81526004016110c090614ff8565b600e846040516130599190614e3e565b9081526040519081900360200190205460ff166130885760405162461bcd60e51b81526004016110c090614f70565b6000600f8560405161309a9190614e3e565b90815260408051918290036020908101832060c08401835280546001600160a01b031684526001810154848301526002810154848401526003810154606085015260048101546080850152600581018054845181850281018501909552808552919360a086019390929083018282801561313d57602002820191906000526020600020905b81546001600160a01b0316815260019091019060200180831161311f575b50505050508152505090506040518060c0016040528082600001516001600160a01b03168152602001848152602001858152602001826060015181526020018260800151815260200183815250600f8660405161228e9190614e3e565b3360009081526008602052604090205460ff166131c95760405162461bcd60e51b81526004016110c090614ff8565b601d8054911515600160a81b0260ff60a81b19909216919091179055565b3360009081526008602052604090205460ff166132165760405162461bcd60e51b81526004016110c090614ff8565b6001600160a01b03811661327b5760405162461bcd60e51b815260206004820152602660248201527f537761707065723a204469737472692063616e6e6f742062652061646472657360448201526573207a65726f60d01b60648201526084016110c0565b601280546001600160a01b0319166001600160a01b0392909216919091179055565b601d546001600160a01b031633146132c75760405162461bcd60e51b81526004016110c09061509a565b601d54600160c81b900460ff166117565760405162461bcd60e51b81526004016110c09061506f565b600080546001600160a01b03851682526002602052604082205483919061331790866151dd565b61332191906151bd565b61332b91906151fc565b90505b9392505050565b804710156133855760405162461bcd60e51b815260206004820152601d60248201527f416464726573733a20696e73756666696369656e742062616c616e636500000060448201526064016110c0565b6000826001600160a01b03168260405160006040518083038185875af1925050503d80600081146133d2576040519150601f19603f3d011682016040523d82523d6000602084013e6133d7565b606091505b505090508061287f5760405162461bcd60e51b815260206004820152603a60248201527f416464726573733a20756e61626c6520746f2073656e642076616c75652c207260448201527f6563697069656e74206d6179206861766520726576657274656400000000000060648201526084016110c0565b600061345a82846151a5565b111561176257601a5462010000900460ff161561350b576010546012546001600160a01b03918216916323b872dd91163061349585876151a5565b6040518463ffffffff1660e01b81526004016134b393929190614e73565b602060405180830381600087803b1580156134cd57600080fd5b505af11580156134e1573d6000803e3d6000fd5b505050506040513d601f19601f820116820180604052508101906135059190614b72565b5061359d565b811561359d576010546012546040516323b872dd60e01b81526001600160a01b03928316926323b872dd926135499291169030908790600401614e73565b602060405180830381600087803b15801561356357600080fd5b505af1158015613577573d6000803e3d6000fd5b505050506040513d601f19601f8201168201806040525081019061359b9190614b72565b505b601a5462010000900460ff1680156135b65750601c5481115b156135c4576135c481613cb3565b6010546001600160a01b038581169116141561366b5781156136665760105460405163a9059cbb60e01b81526001600160a01b039091169063a9059cbb906136129086908690600401614e5a565b602060405180830381600087803b15801561362c57600080fd5b505af1158015613640573d6000803e3d6000fd5b505050506040513d601f19601f820116820180604052508101906136649190614b72565b505b611762565b6001600160a01b0384166000908152600c602052604090205460ff166136cc5760405162461bcd60e51b815260206004820152601660248201527529bbb0b83832b91d102ab735b737bbb7103a37b5b2b760511b60448201526064016110c0565b60105460145460405163095ea7b360e01b81526001600160a01b039283169263095ea7b392613702929116908690600401614e5a565b602060405180830381600087803b15801561371c57600080fd5b505af1158015613730573d6000803e3d6000fd5b505050506040513d601f19601f820116820180604052508101906137549190614b72565b506014546001600160a01b038581166000908152600a60205260408082209051635c11d79560e01b81529290931692635c11d795926137a3928792909160019091019089904290600401615131565b600060405180830381600087803b1580156137bd57600080fd5b505af11580156122fc573d6000803e3d6000fd5b61287f8363a9059cbb60e01b84846040516024016137f0929190614e5a565b60408051601f198184030181529190526020810180516001600160e01b03166001600160e01b031990931692909217909152613e48565b600082116138775760405162461bcd60e51b815260206004820152601860248201527f537761707065723a204e6f7468696e6720746f2073776170000000000000000060448201526064016110c0565b600e816040516138879190614e3e565b9081526040519081900360200190205460ff161561393757600f816040516138af9190614e3e565b908152602001604051809103902060020154421161393757612710600f826040516138da9190614e3e565b908152602001604051809103902060010154836138f791906151dd565b61390191906151bd565b600f826040516139119190614e3e565b9081526020016040518091039020600401600082825461393191906151a5565b90915550505b6010546001600160a01b03858116911614156139dc576010546040516323b872dd60e01b81526001600160a01b03909116906323b872dd9061398190869030908790600401614e73565b602060405180830381600087803b15801561399b57600080fd5b505af11580156139af573d6000803e3d6000fd5b505050506040513d601f19601f820116820180604052508101906139d39190614b72565b50613666613f1a565b6139e78484846141ba565b611762613f1a565b6001600160a01b0381166000908152600c602052604090205460ff16613a145761263a565b6001600160a01b0381166000908152600c60209081526040808320805460ff19169055600a909152812090613a498282614841565b613a57600183016000614841565b50506001600160a01b0381166000908152600b6020526040812054600954909190613a84906001906151fc565b9050600060096000018281548110613aac57634e487b7160e01b600052603260045260246000fd5b60009182526020808320909101546001600160a01b03908116808452600b909252604080842087905590871683528220919091559050818314613b3d578060096000018481548110613b0e57634e487b7160e01b600052603260045260246000fd5b9060005260206000200160006101000a8154816001600160a01b0302191690836001600160a01b031602179055505b6009805480613b5c57634e487b7160e01b600052603160045260246000fd5b600082815260209020810160001990810180546001600160a01b031916905501905550505050565b6001600160a01b0382166000908152600c602052604090205460ff1615613bf6576001600160a01b0382166000908152600a60209081526040909120825180518493613bd49284929101906147ec565b506020828101518051613bed92600185019201906147ec565b50905050611cf4565b6001600160a01b0382166000908152600c60209081526040808320805460ff19166001179055600a8252909120825180518493613c379284929101906147ec565b506020828101518051613c5092600185019201906147ec565b5050600980546001600160a01b0385166000818152600b60205260408120839055600183018455929092527f6e1540171b6c0c960b71a7020d9f60077f6af931a8bbf590da0223dacf75c7af0180546001600160a01b0319169091179055505050565b604080516002808252606082018352600092602083019080368337505060105482519293506001600160a01b031691839150600090613d0257634e487b7160e01b600052603260045260246000fd5b6001600160a01b039283166020918202929092010152601554825191169082906001908110613d4157634e487b7160e01b600052603260045260246000fd5b6001600160a01b03928316602091820292909201015260105460145460405163095ea7b360e01b81529183169263095ea7b392613d8692909116908690600401614e5a565b602060405180830381600087803b158015613da057600080fd5b505af1158015613db4573d6000803e3d6000fd5b505050506040513d601f19601f82011682018060405250810190613dd89190614b72565b50601454604051633b158ab160e11b81526001600160a01b039091169063762b156290613e129085906000908690309042906004016150f5565b600060405180830381600087803b158015613e2c57600080fd5b505af1158015613e40573d6000803e3d6000fd5b505050505050565b6000613e9d826040518060400160405280602081526020017f5361666545524332303a206c6f772d6c6576656c2063616c6c206661696c6564815250856001600160a01b03166144319092919063ffffffff16565b80519091501561287f5780806020019051810190613ebb9190614b72565b61287f5760405162461bcd60e51b815260206004820152602a60248201527f5361666545524332303a204552433230206f7065726174696f6e20646964206e6044820152691bdd081cdd58d8d9595960b21b60648201526084016110c0565b6010546040516370a0823160e01b81523060048201526000916001600160a01b0316906370a082319060240160206040518083038186803b158015613f5e57600080fd5b505afa158015613f72573d6000803e3d6000fd5b505050506040513d601f19601f82011682018060405250810190613f969190614cf7565b9050601b548110158015613fb15750601a54610100900460ff165b8015613fc05750601a5460ff16155b1561263a57601a805460ff1916600117908190556301000000900460ff161561401b57600061271060175483613ff691906151dd565b61400091906151bd565b601154909150614019906001600160a01b031682614440565b505b601a54640100000000900460ff16156140d85760006127106018548361404191906151dd565b61404b91906151bd565b60105460125460405163a9059cbb60e01b81529293506001600160a01b039182169263a9059cbb926140839216908590600401614e5a565b602060405180830381600087803b15801561409d57600080fd5b505af11580156140b1573d6000803e3d6000fd5b505050506040513d601f19601f820116820180604052508101906140d59190614b72565b50505b601a5465010000000000900460ff1615614116576000612710601954836140ff91906151dd565b61410991906151bd565b905061411481614496565b505b601a546601000000000000900460ff16156141ad576010546040516370a0823160e01b81523060048201526141ad916001600160a01b0316906370a082319060240160206040518083038186803b15801561417057600080fd5b505afa158015614184573d6000803e3d6000fd5b505050506040513d601f19601f820116820180604052508101906141a89190614cf7565b613cb3565b601a805460ff1916905550565b6001600160a01b0383166000908152600c602052604090205460ff1661421b5760405162461bcd60e51b815260206004820152601660248201527529bbb0b83832b91d102ab735b737bbb7103a37b5b2b760511b60448201526064016110c0565b6014546001600160a01b038481166000908152600a602052604080822090516307c0329d60e21b815291939290921691631f00ca749161425f9186916004016150dc565b60006040518083038186803b15801561427757600080fd5b505afa15801561428b573d6000803e3d6000fd5b505050506040513d6000823e601f3d908101601f191682016040526142b39190810190614ac6565b6000815181106142d357634e487b7160e01b600052603260045260246000fd5b60200260200101519050836001600160a01b03166323b872dd8430846040518463ffffffff1660e01b815260040161430d93929190614e73565b602060405180830381600087803b15801561432757600080fd5b505af115801561433b573d6000803e3d6000fd5b505050506040513d601f19601f8201168201806040525081019061435f9190614b72565b5060145460405163095ea7b360e01b81526001600160a01b038681169263095ea7b39261439492909116908590600401614e5a565b602060405180830381600087803b1580156143ae57600080fd5b505af11580156143c2573d6000803e3d6000fd5b505050506040513d601f19601f820116820180604052508101906143e69190614b72565b506014546001600160a01b038581166000908152600a6020526040908190209051635c11d79560e01b81529190921691635c11d795916137a391859187919030904290600401615131565b606061332b84846000856144d5565b4761444a82613cb3565b600061445682476151fc565b6040519091506001600160a01b0385169082156108fc029083906000818181858888f1935050505015801561448f573d6000803e3d6000fd5b5050505050565b60006144a36002836151bd565b905060006144b182846151fc565b9050476144bd83613cb3565b60006144c982476151fc565b905061448f83826145fd565b6060824710156145365760405162461bcd60e51b815260206004820152602660248201527f416464726573733a20696e73756666696369656e742062616c616e636520666f6044820152651c8818d85b1b60d21b60648201526084016110c0565b843b6145845760405162461bcd60e51b815260206004820152601d60248201527f416464726573733a2063616c6c20746f206e6f6e2d636f6e747261637400000060448201526064016110c0565b600080866001600160a01b031685876040516145a09190614e3e565b60006040518083038185875af1925050503d80600081146145dd576040519150601f19603f3d011682016040523d82523d6000602084013e6145e2565b606091505b50915091506145f282828661472f565b979650505050505050565b60105460145460405163095ea7b360e01b81526001600160a01b039283169263095ea7b392614633929116908690600401614e5a565b602060405180830381600087803b15801561464d57600080fd5b505af1158015614661573d6000803e3d6000fd5b505050506040513d601f19601f820116820180604052508101906146859190614b72565b50601454601054601354604051637c8d9fb960e11b81526001600160a01b03928316600482015260248101869052600060448201819052606482015290821660848201524260a482015291169063f91b3f7290839060c4016060604051808303818588803b1580156146f657600080fd5b505af115801561470a573d6000803e3d6000fd5b50505050506040513d601f19601f8201168201806040525081019061448f9190614d30565b6060831561473e57508161332e565b82511561474e5782518084602001fd5b8160405162461bcd60e51b81526004016110c09190614f5d565b8280546147749061523f565b90600052602060002090601f01602090048101928261479657600085556147dc565b82601f106147af57805160ff19168380011785556147dc565b828001600101855582156147dc579182015b828111156147dc5782518255916020019190600101906147c1565b506147e892915061485b565b5090565b8280548282559060005260206000209081019282156147dc579160200282015b828111156147dc57825182546001600160a01b0319166001600160a01b0390911617825560209092019160019091019061480c565b508054600082559060005260206000209081019061263a91905b5b808211156147e8576000815560010161485c565b600082601f830112614880578081fd5b8135602061489561489083615181565b615150565b82815281810190858301838502870184018810156148b1578586fd5b855b858110156148d85781356148c6816152c1565b845292840192908401906001016148b3565b5090979650505050505050565b600082601f8301126148f5578081fd5b813567ffffffffffffffff81111561490f5761490f6152ab565b614922601f8201601f1916602001615150565b818152846020838601011115614936578283fd5b816020850160208301379081016020019190915292915050565b600060208284031215614961578081fd5b813561332e816152c1565b60008060008060808587031215614981578283fd5b843561498c816152c1565b9350602085013561499c816152c1565b925060408501359150606085013567ffffffffffffffff8111156149be578182fd5b6149ca878288016148e5565b91505092959194509250565b600080600080608085870312156149eb578384fd5b84356149f6816152c1565b93506020850135614a06816152c1565b93969395505050506040820135916060013590565b600080600060608486031215614a2f578283fd5b8335614a3a816152c1565b9250602084013567ffffffffffffffff80821115614a56578384fd5b614a6287838801614870565b93506040860135915080821115614a77578283fd5b50614a8486828701614870565b9150509250925092565b60008060408385031215614aa0578182fd5b8235614aab816152c1565b91506020830135614abb816152d6565b809150509250929050565b60006020808385031215614ad8578182fd5b825167ffffffffffffffff811115614aee578283fd5b8301601f81018513614afe578283fd5b8051614b0c61489082615181565b8181528381019083850185840285018601891015614b28578687fd5b8694505b83851015614b4a578051835260019490940193918501918501614b2c565b50979650505050505050565b600060208284031215614b67578081fd5b813561332e816152d6565b600060208284031215614b83578081fd5b815161332e816152d6565b60008060408385031215614ba0578182fd5b8235614bab816152c1565b91506020830135614abb816152c1565b600060208284031215614bcc578081fd5b813567ffffffffffffffff811115614be2578182fd5b61115e848285016148e5565b600080600080600060a08688031215614c05578283fd5b853567ffffffffffffffff80821115614c1c578485fd5b614c2889838a016148e5565b965060208801359150614c3a826152c1565b909450604087013593506060870135925060808701359080821115614c5d578283fd5b50614c6a88828901614870565b9150509295509295909350565b60008060008060808587031215614c8c578182fd5b843567ffffffffffffffff80821115614ca3578384fd5b614caf888389016148e5565b955060208701359450604087013593506060870135915080821115614cd2578283fd5b506149ca87828801614870565b600060208284031215614cf0578081fd5b5035919050565b600060208284031215614d08578081fd5b5051919050565b60008060408385031215614d21578182fd5b50508035926020909101359150565b600080600060608486031215614d44578081fd5b8351925060208401519150604084015190509250925092565b6000815180845260208085019450808401835b83811015614d955781516001600160a01b031687529582019590820190600101614d70565b509495945050505050565b6000815480845260208085019450838352808320835b83811015614d955781546001600160a01b031687529582019560019182019101614db6565b60008151808452614df3816020860160208601615213565b601f01601f19169290920160200192915050565b6000815160408452614e1c6040850182614d5d565b905060208301518482036020860152614e358282614d5d565b95945050505050565b60008251614e50818460208701615213565b9190910192915050565b6001600160a01b03929092168252602082015260400190565b6001600160a01b039384168152919092166020820152604081019190915260600190565b60006020825261332e6020830184614d5d565b6000602080830181845280855180835260408601915060408482028701019250838701855b82811015614efd57603f19888603018452614eeb858351614ddb565b94509285019290850190600101614ecf565b5092979650505050505050565b6000602080830181845280855180835260408601915060408482028701019250838701855b82811015614efd57603f19888603018452614f4b858351614e07565b94509285019290850190600101614f2f565b60006020825261332e6020830184614ddb565b60208082526022908201527f537761707065723a20496e666c7520646f65736e742065786973742065786973604082015261747360f01b606082015260800190565b60208082526026908201527f5061796d656e7453706c69747465723a206163636f756e7420686173206e6f2060408201526573686172657360d01b606082015260800190565b60208082526012908201527127bbb732b9399d1027b7363c9027bbb732b960711b604082015260600190565b6020808252602b908201527f5061796d656e7453706c69747465723a206163636f756e74206973206e6f742060408201526a191d59481c185e5b595b9d60aa1b606082015260800190565b60208082526011908201527029bbb0b83832b91d102737ba1037b832b760791b604082015260600190565b60208082526015908201527429bbb0b83832b91d1027b7363c902430b7323632b960591b604082015260600190565b60006020825261332e6020830184614e07565b60008382526040602083015261332b6040830184614da0565b600086825285602083015260a0604083015261511460a0830186614d5d565b6001600160a01b0394909416606083015250608001529392505050565b600086825285602083015260a0604083015261511460a0830186614da0565b604051601f8201601f1916810167ffffffffffffffff81118282101715615179576151796152ab565b604052919050565b600067ffffffffffffffff82111561519b5761519b6152ab565b5060209081020190565b600082198211156151b8576151b8615295565b500190565b6000826151d857634e487b7160e01b81526012600452602481fd5b500490565b60008160001904831182151516156151f7576151f7615295565b500290565b60008282101561520e5761520e615295565b500390565b60005b8381101561522e578181015183820152602001615216565b838111156117625750506000910152565b60028104600182168061525357607f821691505b6020821081141561527457634e487b7160e01b600052602260045260246000fd5b50919050565b600060001982141561528e5761528e615295565b5060010190565b634e487b7160e01b600052601160045260246000fd5b634e487b7160e01b600052604160045260246000fd5b6001600160a01b038116811461263a57600080fd5b801515811461263a57600080fdfea2646970667358221220748541522892626f530a1e44cd652f2a783f8e39ff38425035782901290b4a3c64736f6c63430008020033",
  "linkReferences": {},
  "deployedLinkReferences": {}
}