{
  "_format": "hh-sol-artifact-1",
  "contractName": "MDAI",
  "sourceName": "contracts/MDAI.sol",
  "abi": [
    {
      "inputs": [],
      "stateMutability": "nonpayable",
      "type": "constructor"
    },
    {
      "anonymous": false,
      "inputs": [
        {
          "indexed": true,
          "internalType": "address",
          "name": "owner",
          "type": "address"
        },
        {
          "indexed": true,
          "internalType": "address",
          "name": "spender",
          "type": "address"
        },
        {
          "indexed": false,
          "internalType": "uint256",
          "name": "value",
          "type": "uint256"
        }
      ],
      "name": "Approval",
      "type": "event"
    },
    {
      "anonymous": false,
      "inputs": [
        {
          "indexed": true,
          "internalType": "address",
          "name": "previousOwner",
          "type": "address"
        },
        {
          "indexed": true,
          "internalType": "address",
          "name": "newOwner",
          "type": "address"
        }
      ],
      "name": "OwnershipTransferred",
      "type": "event"
    },
    {
      "anonymous": false,
      "inputs": [
        {
          "indexed": true,
          "internalType": "address",
          "name": "from",
          "type": "address"
        },
        {
          "indexed": true,
          "internalType": "address",
          "name": "to",
          "type": "address"
        },
        {
          "indexed": false,
          "internalType": "uint256",
          "name": "value",
          "type": "uint256"
        }
      ],
      "name": "Transfer",
      "type": "event"
    },
    {
      "inputs": [
        {
          "internalType": "address",
          "name": "owner",
          "type": "address"
        },
        {
          "internalType": "address",
          "name": "spender",
          "type": "address"
        }
      ],
      "name": "allowance",
      "outputs": [
        {
          "internalType": "uint256",
          "name": "",
          "type": "uint256"
        }
      ],
      "stateMutability": "view",
      "type": "function"
    },
    {
      "inputs": [
        {
          "internalType": "address",
          "name": "spender",
          "type": "address"
        },
        {
          "internalType": "uint256",
          "name": "amount",
          "type": "uint256"
        }
      ],
      "name": "approve",
      "outputs": [
        {
          "internalType": "bool",
          "name": "",
          "type": "bool"
        }
      ],
      "stateMutability": "nonpayable",
      "type": "function"
    },
    {
      "inputs": [
        {
          "internalType": "address",
          "name": "account",
          "type": "address"
        }
      ],
      "name": "balanceOf",
      "outputs": [
        {
          "internalType": "uint256",
          "name": "",
          "type": "uint256"
        }
      ],
      "stateMutability": "view",
      "type": "function"
    },
    {
      "inputs": [],
      "name": "decimals",
      "outputs": [
        {
          "internalType": "uint8",
          "name": "",
          "type": "uint8"
        }
      ],
      "stateMutability": "view",
      "type": "function"
    },
    {
      "inputs": [
        {
          "internalType": "address",
          "name": "spender",
          "type": "address"
        },
        {
          "internalType": "uint256",
          "name": "subtractedValue",
          "type": "uint256"
        }
      ],
      "name": "decreaseAllowance",
      "outputs": [
        {
          "internalType": "bool",
          "name": "",
          "type": "bool"
        }
      ],
      "stateMutability": "nonpayable",
      "type": "function"
    },
    {
      "inputs": [],
      "name": "getToken",
      "outputs": [],
      "stateMutability": "nonpayable",
      "type": "function"
    },
    {
      "inputs": [
        {
          "internalType": "address",
          "name": "",
          "type": "address"
        }
      ],
      "name": "gotToken",
      "outputs": [
        {
          "internalType": "bool",
          "name": "",
          "type": "bool"
        }
      ],
      "stateMutability": "view",
      "type": "function"
    },
    {
      "inputs": [
        {
          "internalType": "address",
          "name": "spender",
          "type": "address"
        },
        {
          "internalType": "uint256",
          "name": "addedValue",
          "type": "uint256"
        }
      ],
      "name": "increaseAllowance",
      "outputs": [
        {
          "internalType": "bool",
          "name": "",
          "type": "bool"
        }
      ],
      "stateMutability": "nonpayable",
      "type": "function"
    },
    {
      "inputs": [
        {
          "internalType": "uint256",
          "name": "_amount",
          "type": "uint256"
        },
        {
          "internalType": "address",
          "name": "_to",
          "type": "address"
        }
      ],
      "name": "mint",
      "outputs": [],
      "stateMutability": "nonpayable",
      "type": "function"
    },
    {
      "inputs": [],
      "name": "name",
      "outputs": [
        {
          "internalType": "string",
          "name": "",
          "type": "string"
        }
      ],
      "stateMutability": "view",
      "type": "function"
    },
    {
      "inputs": [],
      "name": "owner",
      "outputs": [
        {
          "internalType": "address",
          "name": "",
          "type": "address"
        }
      ],
      "stateMutability": "view",
      "type": "function"
    },
    {
      "inputs": [],
      "name": "renounceOwnership",
      "outputs": [],
      "stateMutability": "nonpayable",
      "type": "function"
    },
    {
      "inputs": [],
      "name": "symbol",
      "outputs": [
        {
          "internalType": "string",
          "name": "",
          "type": "string"
        }
      ],
      "stateMutability": "view",
      "type": "function"
    },
    {
      "inputs": [],
      "name": "totalSupply",
      "outputs": [
        {
          "internalType": "uint256",
          "name": "",
          "type": "uint256"
        }
      ],
      "stateMutability": "view",
      "type": "function"
    },
    {
      "inputs": [
        {
          "internalType": "address",
          "name": "recipient",
          "type": "address"
        },
        {
          "internalType": "uint256",
          "name": "amount",
          "type": "uint256"
        }
      ],
      "name": "transfer",
      "outputs": [
        {
          "internalType": "bool",
          "name": "",
          "type": "bool"
        }
      ],
      "stateMutability": "nonpayable",
      "type": "function"
    },
    {
      "inputs": [
        {
          "internalType": "address",
          "name": "sender",
          "type": "address"
        },
        {
          "internalType": "address",
          "name": "recipient",
          "type": "address"
        },
        {
          "internalType": "uint256",
          "name": "amount",
          "type": "uint256"
        }
      ],
      "name": "transferFrom",
      "outputs": [
        {
          "internalType": "bool",
          "name": "",
          "type": "bool"
        }
      ],
      "stateMutability": "nonpayable",
      "type": "function"
    },
    {
      "inputs": [
        {
          "internalType": "address",
          "name": "newOwner",
          "type": "address"
        }
      ],
      "name": "transferOwnership",
      "outputs": [],
      "stateMutability": "nonpayable",
      "type": "function"
    }
  ],
  "bytecode": "0x60806040523480156200001157600080fd5b506040805180820182526004808252636d44414960e01b6020808401828152855180870190965292855284015281519192916200005191600391620000d4565b50805162000067906004906020840190620000d4565b50505060006200007c620000d060201b60201c565b600580546001600160a01b0319166001600160a01b038316908117909155604051919250906000907f8be0079c531659141344cd1fd0a4f28419497f9722a3daafe3b4186f6b6457e0908290a350620001b7565b3390565b828054620000e2906200017a565b90600052602060002090601f01602090048101928262000106576000855562000151565b82601f106200012157805160ff191683800117855562000151565b8280016001018555821562000151579182015b828111156200015157825182559160200191906001019062000134565b506200015f92915062000163565b5090565b5b808211156200015f576000815560010162000164565b6002810460018216806200018f57607f821691505b60208210811415620001b157634e487b7160e01b600052602260045260246000fd5b50919050565b610d7a80620001c76000396000f3fe608060405234801561001057600080fd5b506004361061010b5760003560e01c8063715018a6116100a2578063a457c2d711610071578063a457c2d7146101f3578063a9059cbb14610206578063dd62ed3e14610219578063e0e15c0014610252578063f2fde38b146102755761010b565b8063715018a6146101b55780638da5cb5b146101bd57806394bf804d146101d857806395d89b41146101eb5761010b565b806323b872dd116100de57806323b872dd1461016d578063313ce56714610180578063395093511461018f57806370a08231146101a25761010b565b806306fdde0314610110578063095ea7b31461012e57806318160ddd1461015157806321df0da714610163575b600080fd5b610118610288565b6040516101259190610bc9565b60405180910390f35b61014161013c366004610b7e565b61031a565b6040519015158152602001610125565b6002545b604051908152602001610125565b61016b610330565b005b61014161017b366004610b43565b6103b9565b60405160128152602001610125565b61014161019d366004610b7e565b610422565b6101556101b0366004610af7565b610458565b61016b610477565b6005546040516001600160a01b039091168152602001610125565b61016b6101e6366004610ba7565b6104eb565b610118610564565b610141610201366004610b7e565b610573565b610141610214366004610b7e565b6105c2565b610155610227366004610b11565b6001600160a01b03918216600090815260016020908152604080832093909416825291909152205490565b610141610260366004610af7565b60066020526000908152604090205460ff1681565b61016b610283366004610af7565b6105cf565b60606003805461029790610c80565b80601f01602080910402602001604051908101604052809291908181526020018280546102c390610c80565b80156103105780601f106102e557610100808354040283529160200191610310565b820191906000526020600020905b8154815290600101906020018083116102f357829003601f168201915b5050505050905090565b60006103273384846106ba565b50600192915050565b3360009081526006602052604090205460ff16156103895760405162461bcd60e51b815260206004820152601160248201527020b63932b0b23c9033b7ba103a37b5b2b760791b60448201526064015b60405180910390fd5b61039d3369010f0cf064dd592000006107df565b336000908152600660205260409020805460ff19166001179055565b60006103c68484846108bd565b610418843361041385604051806060016040528060288152602001610cf8602891396001600160a01b038a1660009081526001602090815260408083203384529091529020549190610a40565b6106ba565b5060019392505050565b3360008181526001602090815260408083206001600160a01b038716845290915281205490916103279185906104139086610a7a565b6001600160a01b0381166000908152602081905260409020545b919050565b6005546001600160a01b031633146104a15760405162461bcd60e51b815260040161038090610c1c565b6005546040516000916001600160a01b0316907f8be0079c531659141344cd1fd0a4f28419497f9722a3daafe3b4186f6b6457e0908390a3600580546001600160a01b0319169055565b6005546001600160a01b031633146105155760405162461bcd60e51b815260040161038090610c1c565b600082116105565760405162461bcd60e51b815260206004820152600e60248201526d416d6f756e7420746f6f206c6f7760901b6044820152606401610380565b61056081836107df565b5050565b60606004805461029790610c80565b6000610327338461041385604051806060016040528060258152602001610d20602591393360009081526001602090815260408083206001600160a01b038d1684529091529020549190610a40565b60006103273384846108bd565b6005546001600160a01b031633146105f95760405162461bcd60e51b815260040161038090610c1c565b6001600160a01b03811661065e5760405162461bcd60e51b815260206004820152602660248201527f4f776e61626c653a206e6577206f776e657220697320746865207a65726f206160448201526564647265737360d01b6064820152608401610380565b6005546040516001600160a01b038084169216907f8be0079c531659141344cd1fd0a4f28419497f9722a3daafe3b4186f6b6457e090600090a3600580546001600160a01b0319166001600160a01b0392909216919091179055565b6001600160a01b03831661071c5760405162461bcd60e51b8152602060048201526024808201527f45524332303a20617070726f76652066726f6d20746865207a65726f206164646044820152637265737360e01b6064820152608401610380565b6001600160a01b03821661077d5760405162461bcd60e51b815260206004820152602260248201527f45524332303a20617070726f766520746f20746865207a65726f206164647265604482015261737360f01b6064820152608401610380565b6001600160a01b0383811660008181526001602090815260408083209487168084529482529182902085905590518481527f8c5be1e5ebec7d5bd14f71427d1e84f3dd0314c0f7b2291e5b200ac8c7c3b92591015b60405180910390a3505050565b6001600160a01b0382166108355760405162461bcd60e51b815260206004820152601f60248201527f45524332303a206d696e7420746f20746865207a65726f2061646472657373006044820152606401610380565b6002546108429082610a7a565b6002556001600160a01b0382166000908152602081905260409020546108689082610a7a565b6001600160a01b038316600081815260208181526040808320949094559251848152919290917fddf252ad1be2c89b69c2b068fc378daa952ba7f163c4a11628f55a4df523b3ef910160405180910390a35050565b6001600160a01b0383166109215760405162461bcd60e51b815260206004820152602560248201527f45524332303a207472616e736665722066726f6d20746865207a65726f206164604482015264647265737360d81b6064820152608401610380565b6001600160a01b0382166109835760405162461bcd60e51b815260206004820152602360248201527f45524332303a207472616e7366657220746f20746865207a65726f206164647260448201526265737360e81b6064820152608401610380565b6109c081604051806060016040528060268152602001610cd2602691396001600160a01b0386166000908152602081905260409020549190610a40565b6001600160a01b0380851660009081526020819052604080822093909355908416815220546109ef9082610a7a565b6001600160a01b038381166000818152602081815260409182902094909455518481529092918616917fddf252ad1be2c89b69c2b068fc378daa952ba7f163c4a11628f55a4df523b3ef91016107d2565b60008184841115610a645760405162461bcd60e51b81526004016103809190610bc9565b506000610a718486610c69565b95945050505050565b600080610a878385610c51565b905083811015610ad95760405162461bcd60e51b815260206004820152601b60248201527f536166654d6174683a206164646974696f6e206f766572666c6f7700000000006044820152606401610380565b9392505050565b80356001600160a01b038116811461047257600080fd5b600060208284031215610b08578081fd5b610ad982610ae0565b60008060408385031215610b23578081fd5b610b2c83610ae0565b9150610b3a60208401610ae0565b90509250929050565b600080600060608486031215610b57578081fd5b610b6084610ae0565b9250610b6e60208501610ae0565b9150604084013590509250925092565b60008060408385031215610b90578182fd5b610b9983610ae0565b946020939093013593505050565b60008060408385031215610bb9578182fd5b82359150610b3a60208401610ae0565b6000602080835283518082850152825b81811015610bf557858101830151858201604001528201610bd9565b81811115610c065783604083870101525b50601f01601f1916929092016040019392505050565b6020808252818101527f4f776e61626c653a2063616c6c6572206973206e6f7420746865206f776e6572604082015260600190565b60008219821115610c6457610c64610cbb565b500190565b600082821015610c7b57610c7b610cbb565b500390565b600281046001821680610c9457607f821691505b60208210811415610cb557634e487b7160e01b600052602260045260246000fd5b50919050565b634e487b7160e01b600052601160045260246000fdfe45524332303a207472616e7366657220616d6f756e7420657863656564732062616c616e636545524332303a207472616e7366657220616d6f756e74206578636565647320616c6c6f77616e636545524332303a2064656372656173656420616c6c6f77616e63652062656c6f77207a65726fa2646970667358221220f7bd88d50eeb89c9064ee7944351b9f00cf33c82ecdabdef11ee71b5b8c9c86f64736f6c63430008020033",
  "linkReferences": {},
  "deployedLinkReferences": {}
}