{
  "_format": "hh-sol-artifact-1",
  "contractName": "PaymentSplitter",
  "sourceName": "contracts/PaymentSplitter.sol",
  "abi": [
    {
      "inputs": [
        {
          "internalType": "address[]",
          "name": "payees",
          "type": "address[]"
        },
        {
          "internalType": "uint256[]",
          "name": "shares_",
          "type": "uint256[]"
        }
      ],
      "stateMutability": "payable",
      "type": "constructor"
    },
    {
      "anonymous": false,
      "inputs": [
        {
          "indexed": true,
          "internalType": "contract IERC20",
          "name": "token",
          "type": "address"
        },
        {
          "indexed": false,
          "internalType": "address",
          "name": "to",
          "type": "address"
        },
        {
          "indexed": false,
          "internalType": "uint256",
          "name": "amount",
          "type": "uint256"
        }
      ],
      "name": "ERC20PaymentReleased",
      "type": "event"
    },
    {
      "anonymous": false,
      "inputs": [
        {
          "indexed": false,
          "internalType": "address",
          "name": "account",
          "type": "address"
        },
        {
          "indexed": false,
          "internalType": "uint256",
          "name": "shares",
          "type": "uint256"
        }
      ],
      "name": "PayeeAdded",
      "type": "event"
    },
    {
      "anonymous": false,
      "inputs": [
        {
          "indexed": false,
          "internalType": "address",
          "name": "from",
          "type": "address"
        },
        {
          "indexed": false,
          "internalType": "uint256",
          "name": "amount",
          "type": "uint256"
        }
      ],
      "name": "PaymentReceived",
      "type": "event"
    },
    {
      "anonymous": false,
      "inputs": [
        {
          "indexed": false,
          "internalType": "address",
          "name": "to",
          "type": "address"
        },
        {
          "indexed": false,
          "internalType": "uint256",
          "name": "amount",
          "type": "uint256"
        }
      ],
      "name": "PaymentReleased",
      "type": "event"
    },
    {
      "inputs": [
        {
          "internalType": "address",
          "name": "account",
          "type": "address"
        }
      ],
      "name": "getPendingOf",
      "outputs": [
        {
          "internalType": "uint256",
          "name": "",
          "type": "uint256"
        }
      ],
      "stateMutability": "view",
      "type": "function"
    },
    {
      "inputs": [
        {
          "internalType": "uint256",
          "name": "index",
          "type": "uint256"
        }
      ],
      "name": "payee",
      "outputs": [
        {
          "internalType": "address",
          "name": "",
          "type": "address"
        }
      ],
      "stateMutability": "view",
      "type": "function"
    },
    {
      "inputs": [
        {
          "internalType": "address payable",
          "name": "account",
          "type": "address"
        }
      ],
      "name": "release",
      "outputs": [],
      "stateMutability": "nonpayable",
      "type": "function"
    },
    {
      "inputs": [
        {
          "internalType": "contract IERC20",
          "name": "token",
          "type": "address"
        },
        {
          "internalType": "address",
          "name": "account",
          "type": "address"
        }
      ],
      "name": "release",
      "outputs": [],
      "stateMutability": "nonpayable",
      "type": "function"
    },
    {
      "inputs": [
        {
          "internalType": "contract IERC20",
          "name": "token",
          "type": "address"
        },
        {
          "internalType": "address",
          "name": "account",
          "type": "address"
        }
      ],
      "name": "released",
      "outputs": [
        {
          "internalType": "uint256",
          "name": "",
          "type": "uint256"
        }
      ],
      "stateMutability": "view",
      "type": "function"
    },
    {
      "inputs": [
        {
          "internalType": "address",
          "name": "account",
          "type": "address"
        }
      ],
      "name": "released",
      "outputs": [
        {
          "internalType": "uint256",
          "name": "",
          "type": "uint256"
        }
      ],
      "stateMutability": "view",
      "type": "function"
    },
    {
      "inputs": [
        {
          "internalType": "address",
          "name": "account",
          "type": "address"
        }
      ],
      "name": "shares",
      "outputs": [
        {
          "internalType": "uint256",
          "name": "",
          "type": "uint256"
        }
      ],
      "stateMutability": "view",
      "type": "function"
    },
    {
      "inputs": [
        {
          "internalType": "contract IERC20",
          "name": "token",
          "type": "address"
        }
      ],
      "name": "totalReleased",
      "outputs": [
        {
          "internalType": "uint256",
          "name": "",
          "type": "uint256"
        }
      ],
      "stateMutability": "view",
      "type": "function"
    },
    {
      "inputs": [],
      "name": "totalReleased",
      "outputs": [
        {
          "internalType": "uint256",
          "name": "",
          "type": "uint256"
        }
      ],
      "stateMutability": "view",
      "type": "function"
    },
    {
      "inputs": [],
      "name": "totalShares",
      "outputs": [
        {
          "internalType": "uint256",
          "name": "",
          "type": "uint256"
        }
      ],
      "stateMutability": "view",
      "type": "function"
    },
    {
      "stateMutability": "payable",
      "type": "receive"
    }
  ],
  "bytecode": "0x6080604052604051620011fa380380620011fa8339810160408190526200002691620003d8565b8051825114620000985760405162461bcd60e51b815260206004820152603260248201527f5061796d656e7453706c69747465723a2070617965657320616e6420736861726044820152710cae640d8cadccee8d040dad2e6dac2e8c6d60731b60648201526084015b60405180910390fd5b6000825111620000eb5760405162461bcd60e51b815260206004820152601a60248201527f5061796d656e7453706c69747465723a206e6f2070617965657300000000000060448201526064016200008f565b60005b82518110156200016f576200015a8382815181106200011d57634e487b7160e01b600052603260045260246000fd5b60200260200101518383815181106200014657634e487b7160e01b600052603260045260246000fd5b60200260200101516200017860201b60201c565b80620001668162000526565b915050620000ee565b50505062000570565b6001600160a01b038216620001e55760405162461bcd60e51b815260206004820152602c60248201527f5061796d656e7453706c69747465723a206163636f756e74206973207468652060448201526b7a65726f206164647265737360a01b60648201526084016200008f565b60008111620002375760405162461bcd60e51b815260206004820152601d60248201527f5061796d656e7453706c69747465723a2073686172657320617265203000000060448201526064016200008f565b6001600160a01b03821660009081526002602052604090205415620002b35760405162461bcd60e51b815260206004820152602b60248201527f5061796d656e7453706c69747465723a206163636f756e7420616c726561647960448201526a206861732073686172657360a81b60648201526084016200008f565b60048054600181019091557f8a35acfbc15ff81a39ae7d344fd709f28e8600b4aa8c65c6b64bfe7fe36bd19b0180546001600160a01b0319166001600160a01b0384169081179091556000908152600260205260408120829055546200031b9082906200050b565b600055604080516001600160a01b0384168152602081018390527f40c340f65e17194d14ddddb073d3c9f888e3cb52b5aae0c6c7706b4fbc905fac910160405180910390a15050565b600082601f83011262000375578081fd5b815160206200038e6200038883620004e5565b620004b2565b8281528181019085830183850287018401881015620003ab578586fd5b855b85811015620003cb57815184529284019290840190600101620003ad565b5090979650505050505050565b60008060408385031215620003eb578182fd5b82516001600160401b038082111562000402578384fd5b818501915085601f83011262000416578384fd5b81516020620004296200038883620004e5565b82815281810190858301838502870184018b101562000446578889fd5b8896505b848710156200047f5780516001600160a01b03811681146200046a57898afd5b8352600196909601959183019183016200044a565b509188015191965090935050508082111562000499578283fd5b50620004a88582860162000364565b9150509250929050565b604051601f8201601f191681016001600160401b0381118282101715620004dd57620004dd6200055a565b604052919050565b60006001600160401b038211156200050157620005016200055a565b5060209081020190565b6000821982111562000521576200052162000544565b500190565b60006000198214156200053d576200053d62000544565b5060010190565b634e487b7160e01b600052601160045260246000fd5b634e487b7160e01b600052604160045260246000fd5b610c7a80620005806000396000f3fe6080604052600436106100955760003560e01c80638b83209b116100595780638b83209b146101b35780639852595c146101eb578063ce7c2ac214610221578063d79779b214610257578063e33b7de31461028d576100de565b806308680ade146100e357806319165587146101165780633a98ef3914610138578063406072a91461014d57806348b7504414610193576100de565b366100de577f6ef95f06320e7a25a04a175ca677b7052bdd97131872c2192525a629f51be77033604080516001600160a01b0390921682523460208301520160405180910390a1005b600080fd5b3480156100ef57600080fd5b506101036100fe3660046109f4565b6102a2565b6040519081526020015b60405180910390f35b34801561012257600080fd5b506101366101313660046109f4565b61032a565b005b34801561014457600080fd5b50600054610103565b34801561015957600080fd5b50610103610168366004610a30565b6001600160a01b03918216600090815260066020908152604080832093909416825291909152205490565b34801561019f57600080fd5b506101366101ae366004610a30565b610453565b3480156101bf57600080fd5b506101d36101ce366004610a68565b61063b565b6040516001600160a01b03909116815260200161010d565b3480156101f757600080fd5b506101036102063660046109f4565b6001600160a01b031660009081526003602052604090205490565b34801561022d57600080fd5b5061010361023c3660046109f4565b6001600160a01b031660009081526002602052604090205490565b34801561026357600080fd5b506101036102723660046109f4565b6001600160a01b031660009081526005602052604090205490565b34801561029957600080fd5b50600154610103565b6001600160a01b0381166000908152600260205260408120546102e05760405162461bcd60e51b81526004016102d790610ae7565b60405180910390fd5b60006102eb60015490565b6102f59047610b78565b90506000610322848361031d876001600160a01b031660009081526003602052604090205490565b610679565b949350505050565b6001600160a01b03811660009081526002602052604090205461035f5760405162461bcd60e51b81526004016102d790610ae7565b600061036a60015490565b6103749047610b78565b9050600061039c838361031d866001600160a01b031660009081526003602052604090205490565b9050806103bb5760405162461bcd60e51b81526004016102d790610b2d565b6001600160a01b038316600090815260036020526040812080548392906103e3908490610b78565b9250508190555080600160008282546103fc9190610b78565b9091555061040c905083826106be565b604080516001600160a01b0385168152602081018390527fdf20fd1e76bc69d672e4814fafb2c449bba3a5369d8359adf9e05e6fde87b056910160405180910390a1505050565b6001600160a01b0381166000908152600260205260409020546104885760405162461bcd60e51b81526004016102d790610ae7565b6001600160a01b0382166000908152600560205260408120546040516370a0823160e01b81523060048201526001600160a01b038516906370a082319060240160206040518083038186803b1580156104e057600080fd5b505afa1580156104f4573d6000803e3d6000fd5b505050506040513d601f19601f820116820180604052508101906105189190610a80565b6105229190610b78565b9050600061055b838361031d87876001600160a01b03918216600090815260066020908152604080832093909416825291909152205490565b90508061057a5760405162461bcd60e51b81526004016102d790610b2d565b6001600160a01b038085166000908152600660209081526040808320938716835292905290812080548392906105b1908490610b78565b90915550506001600160a01b038416600090815260056020526040812080548392906105de908490610b78565b909155506105ef90508484836107dc565b604080516001600160a01b038581168252602082018490528616917f3be5b7a71e84ed12875d241991c70855ac5817d847039e17a9d895c1ceb0f18a910160405180910390a250505050565b60006004828154811061065e57634e487b7160e01b600052603260045260246000fd5b6000918252602090912001546001600160a01b031692915050565b600080546001600160a01b0385168252600260205260408220548391906106a09086610bb0565b6106aa9190610b90565b6106b49190610bcf565b90505b9392505050565b8047101561070e5760405162461bcd60e51b815260206004820152601d60248201527f416464726573733a20696e73756666696369656e742062616c616e636500000060448201526064016102d7565b6000826001600160a01b03168260405160006040518083038185875af1925050503d806000811461075b576040519150601f19603f3d011682016040523d82523d6000602084013e610760565b606091505b50509050806107d75760405162461bcd60e51b815260206004820152603a60248201527f416464726573733a20756e61626c6520746f2073656e642076616c75652c207260448201527f6563697069656e74206d6179206861766520726576657274656400000000000060648201526084016102d7565b505050565b604080516001600160a01b03848116602483015260448083018590528351808403909101815260649092018352602080830180516001600160e01b031663a9059cbb60e01b17905283518085019094528084527f5361666545524332303a206c6f772d6c6576656c2063616c6c206661696c6564908401526107d79286929160009161086c9185169084906108e9565b8051909150156107d7578080602001905181019061088a9190610a10565b6107d75760405162461bcd60e51b815260206004820152602a60248201527f5361666545524332303a204552433230206f7065726174696f6e20646964206e6044820152691bdd081cdd58d8d9595960b21b60648201526084016102d7565b60606106b4848460008585843b6109425760405162461bcd60e51b815260206004820152601d60248201527f416464726573733a2063616c6c20746f206e6f6e2d636f6e747261637400000060448201526064016102d7565b600080866001600160a01b0316858760405161095e9190610a98565b60006040518083038185875af1925050503d806000811461099b576040519150601f19603f3d011682016040523d82523d6000602084013e6109a0565b606091505b50915091506109b08282866109bb565b979650505050505050565b606083156109ca5750816106b7565b8251156109da5782518084602001fd5b8160405162461bcd60e51b81526004016102d79190610ab4565b600060208284031215610a05578081fd5b81356106b781610c2c565b600060208284031215610a21578081fd5b815180151581146106b7578182fd5b60008060408385031215610a42578081fd5b8235610a4d81610c2c565b91506020830135610a5d81610c2c565b809150509250929050565b600060208284031215610a79578081fd5b5035919050565b600060208284031215610a91578081fd5b5051919050565b60008251610aaa818460208701610be6565b9190910192915050565b6000602082528251806020840152610ad3816040850160208701610be6565b601f01601f19169190910160400192915050565b60208082526026908201527f5061796d656e7453706c69747465723a206163636f756e7420686173206e6f2060408201526573686172657360d01b606082015260800190565b6020808252602b908201527f5061796d656e7453706c69747465723a206163636f756e74206973206e6f742060408201526a191d59481c185e5b595b9d60aa1b606082015260800190565b60008219821115610b8b57610b8b610c16565b500190565b600082610bab57634e487b7160e01b81526012600452602481fd5b500490565b6000816000190483118215151615610bca57610bca610c16565b500290565b600082821015610be157610be1610c16565b500390565b60005b83811015610c01578181015183820152602001610be9565b83811115610c10576000848401525b50505050565b634e487b7160e01b600052601160045260246000fd5b6001600160a01b0381168114610c4157600080fd5b5056fea2646970667358221220dd8b45bf97055091df8dd66d25da7ab98e78aefe4ab7d8dfa05ccc6608f331d364736f6c63430008020033",
  "linkReferences": {},
  "deployedLinkReferences": {}
}